{
  "contractName": "AuctionContract",
  "abi": [
    {
      "inputs": [
        {
          "internalType": "address",
          "name": "_ownerDataContract",
          "type": "address"
        },
        {
          "internalType": "address",
          "name": "_supplyManagingContract",
          "type": "address"
        }
      ],
      "stateMutability": "nonpayable",
      "type": "constructor"
    },
    {
      "anonymous": false,
      "inputs": [
        {
          "indexed": false,
          "internalType": "address",
          "name": "_user",
          "type": "address"
        },
        {
          "indexed": false,
          "internalType": "uint256",
          "name": "_itemId",
          "type": "uint256"
        }
      ],
      "name": "AlreadyActive",
      "type": "event"
    },
    {
      "anonymous": false,
      "inputs": [
        {
          "indexed": false,
          "internalType": "address",
          "name": "_user",
          "type": "address"
        },
        {
          "indexed": false,
          "internalType": "uint256",
          "name": "_auctionId",
          "type": "uint256"
        }
      ],
      "name": "AuctionFinalized",
      "type": "event"
    },
    {
      "anonymous": false,
      "inputs": [
        {
          "indexed": false,
          "internalType": "address",
          "name": "_user",
          "type": "address"
        },
        {
          "indexed": false,
          "internalType": "uint256",
          "name": "_auctionId",
          "type": "uint256"
        }
      ],
      "name": "CancelAuction",
      "type": "event"
    },
    {
      "anonymous": false,
      "inputs": [
        {
          "indexed": false,
          "internalType": "address",
          "name": "_user",
          "type": "address"
        },
        {
          "indexed": false,
          "internalType": "uint256",
          "name": "_auctionId",
          "type": "uint256"
        },
        {
          "indexed": false,
          "internalType": "uint256",
          "name": "_timestamp",
          "type": "uint256"
        },
        {
          "indexed": false,
          "internalType": "uint256",
          "name": "_deadline",
          "type": "uint256"
        }
      ],
      "name": "DeadlineExceeded",
      "type": "event"
    },
    {
      "anonymous": false,
      "inputs": [
        {
          "indexed": false,
          "internalType": "address",
          "name": "_user",
          "type": "address"
        },
        {
          "indexed": false,
          "internalType": "uint256",
          "name": "timeStamp",
          "type": "uint256"
        },
        {
          "indexed": false,
          "internalType": "uint256",
          "name": "blockDeadline",
          "type": "uint256"
        }
      ],
      "name": "EarlyToFinalize",
      "type": "event"
    },
    {
      "anonymous": false,
      "inputs": [
        {
          "indexed": false,
          "internalType": "address",
          "name": "_user",
          "type": "address"
        },
        {
          "indexed": false,
          "internalType": "uint256",
          "name": "_itemId",
          "type": "uint256"
        }
      ],
      "name": "ItemAlreadyActive",
      "type": "event"
    },
    {
      "anonymous": false,
      "inputs": [
        {
          "indexed": false,
          "internalType": "address",
          "name": "_user",
          "type": "address"
        },
        {
          "indexed": false,
          "internalType": "uint256",
          "name": "_amount",
          "type": "uint256"
        },
        {
          "indexed": false,
          "internalType": "uint256",
          "name": "_auctionId",
          "type": "uint256"
        }
      ],
      "name": "sendFailed",
      "type": "event"
    },
    {
      "inputs": [
        {
          "internalType": "uint256",
          "name": "",
          "type": "uint256"
        },
        {
          "internalType": "uint256",
          "name": "",
          "type": "uint256"
        }
      ],
      "name": "auctionBids",
      "outputs": [
        {
          "internalType": "address payable",
          "name": "from",
          "type": "address"
        },
        {
          "internalType": "uint256",
          "name": "amount",
          "type": "uint256"
        },
        {
          "internalType": "string",
          "name": "shippingTo",
          "type": "string"
        }
      ],
      "stateMutability": "view",
      "type": "function",
      "constant": true
    },
    {
      "inputs": [
        {
          "internalType": "address",
          "name": "",
          "type": "address"
        },
        {
          "internalType": "uint256",
          "name": "",
          "type": "uint256"
        }
      ],
      "name": "auctionOwner",
      "outputs": [
        {
          "internalType": "uint256",
          "name": "",
          "type": "uint256"
        }
      ],
      "stateMutability": "view",
      "type": "function",
      "constant": true
    },
    {
      "inputs": [
        {
          "internalType": "uint256",
          "name": "",
          "type": "uint256"
        }
      ],
      "name": "auctions",
      "outputs": [
        {
          "internalType": "string",
          "name": "name",
          "type": "string"
        },
        {
          "internalType": "uint256",
          "name": "startTime",
          "type": "uint256"
        },
        {
          "internalType": "uint256",
          "name": "blockDeadline",
          "type": "uint256"
        },
        {
          "internalType": "uint256",
          "name": "startPrice",
          "type": "uint256"
        },
        {
          "internalType": "bool",
          "name": "active",
          "type": "bool"
        },
        {
          "internalType": "bool",
          "name": "finalized",
          "type": "bool"
        },
        {
          "internalType": "uint256",
          "name": "itemId",
          "type": "uint256"
        },
        {
          "internalType": "string",
          "name": "shippingFrom",
          "type": "string"
        },
        {
          "internalType": "string",
          "name": "shippingTo",
          "type": "string"
        }
      ],
      "stateMutability": "view",
      "type": "function",
      "constant": true
    },
    {
      "inputs": [
        {
          "internalType": "uint256",
          "name": "",
          "type": "uint256"
        }
      ],
      "name": "itemActive",
      "outputs": [
        {
          "internalType": "bool",
          "name": "",
          "type": "bool"
        }
      ],
      "stateMutability": "view",
      "type": "function",
      "constant": true
    },
    {
      "inputs": [],
      "name": "getAllOfAuctions",
      "outputs": [
        {
          "components": [
            {
              "internalType": "string",
              "name": "name",
              "type": "string"
            },
            {
              "internalType": "uint256",
              "name": "startTime",
              "type": "uint256"
            },
            {
              "internalType": "uint256",
              "name": "blockDeadline",
              "type": "uint256"
            },
            {
              "internalType": "uint256",
              "name": "startPrice",
              "type": "uint256"
            },
            {
              "internalType": "bool",
              "name": "active",
              "type": "bool"
            },
            {
              "internalType": "bool",
              "name": "finalized",
              "type": "bool"
            },
            {
              "internalType": "uint256",
              "name": "itemId",
              "type": "uint256"
            },
            {
              "internalType": "string",
              "name": "shippingFrom",
              "type": "string"
            },
            {
              "internalType": "string",
              "name": "shippingTo",
              "type": "string"
            }
          ],
          "internalType": "struct AuctionContract.Auction[]",
          "name": "",
          "type": "tuple[]"
        }
      ],
      "stateMutability": "view",
      "type": "function",
      "constant": true
    },
    {
      "inputs": [
        {
          "internalType": "uint256",
          "name": "_auctionId",
          "type": "uint256"
        }
      ],
      "name": "getItemByAuction",
      "outputs": [
        {
          "internalType": "uint256",
          "name": "",
          "type": "uint256"
        }
      ],
      "stateMutability": "view",
      "type": "function",
      "constant": true
    },
    {
      "inputs": [
        {
          "internalType": "uint256",
          "name": "_auctionId",
          "type": "uint256"
        }
      ],
      "name": "getBidsCount",
      "outputs": [
        {
          "internalType": "uint256",
          "name": "",
          "type": "uint256"
        }
      ],
      "stateMutability": "view",
      "type": "function",
      "constant": true
    },
    {
      "inputs": [
        {
          "internalType": "address",
          "name": "_owner",
          "type": "address"
        }
      ],
      "name": "getAuctionsOfOwner",
      "outputs": [
        {
          "internalType": "uint256[]",
          "name": "",
          "type": "uint256[]"
        }
      ],
      "stateMutability": "view",
      "type": "function",
      "constant": true
    },
    {
      "inputs": [
        {
          "internalType": "uint256",
          "name": "_auctionId",
          "type": "uint256"
        }
      ],
      "name": "getCurrentBid",
      "outputs": [
        {
          "internalType": "uint256",
          "name": "",
          "type": "uint256"
        },
        {
          "internalType": "address",
          "name": "",
          "type": "address"
        },
        {
          "internalType": "string",
          "name": "",
          "type": "string"
        }
      ],
      "stateMutability": "view",
      "type": "function",
      "constant": true
    },
    {
      "inputs": [
        {
          "internalType": "address",
          "name": "_owner",
          "type": "address"
        }
      ],
      "name": "getAuctionOwnerLength",
      "outputs": [
        {
          "internalType": "uint256",
          "name": "",
          "type": "uint256"
        }
      ],
      "stateMutability": "view",
      "type": "function",
      "constant": true
    },
    {
      "inputs": [
        {
          "internalType": "uint256",
          "name": "_auctionId",
          "type": "uint256"
        }
      ],
      "name": "getAuctionById",
      "outputs": [
        {
          "internalType": "string",
          "name": "name",
          "type": "string"
        },
        {
          "internalType": "uint256",
          "name": "startTime",
          "type": "uint256"
        },
        {
          "internalType": "uint256",
          "name": "blockDeadline",
          "type": "uint256"
        },
        {
          "internalType": "uint256",
          "name": "startPrice",
          "type": "uint256"
        },
        {
          "internalType": "address payable",
          "name": "owner",
          "type": "address"
        },
        {
          "internalType": "bool",
          "name": "active",
          "type": "bool"
        },
        {
          "internalType": "bool",
          "name": "finalized",
          "type": "bool"
        },
        {
          "internalType": "uint256",
          "name": "itemId",
          "type": "uint256"
        },
        {
          "internalType": "string",
          "name": "shippingFrom",
          "type": "string"
        },
        {
          "internalType": "string",
          "name": "shippingTo",
          "type": "string"
        }
      ],
      "stateMutability": "view",
      "type": "function",
      "constant": true
    },
    {
      "inputs": [
        {
          "internalType": "uint256",
          "name": "_auctionId",
          "type": "uint256"
        }
      ],
      "name": "getAuctionNameByAuctionId",
      "outputs": [
        {
          "internalType": "string",
          "name": "",
          "type": "string"
        }
      ],
      "stateMutability": "view",
      "type": "function",
      "constant": true
    },
    {
      "inputs": [
        {
          "internalType": "string",
          "name": "_auctionTitle",
          "type": "string"
        },
        {
          "internalType": "uint256",
          "name": "_startPrice",
          "type": "uint256"
        },
        {
          "internalType": "uint256",
          "name": "_itemId",
          "type": "uint256"
        },
        {
          "internalType": "uint256",
          "name": "_startTime",
          "type": "uint256"
        },
        {
          "internalType": "uint256",
          "name": "_blockDeadline",
          "type": "uint256"
        },
        {
          "internalType": "string",
          "name": "_shippingFrom",
          "type": "string"
        }
      ],
      "name": "createAuction",
      "outputs": [],
      "stateMutability": "nonpayable",
      "type": "function"
    },
    {
      "inputs": [
        {
          "internalType": "uint256",
          "name": "_auctionId",
          "type": "uint256"
        }
      ],
      "name": "cancelAuction",
      "outputs": [],
      "stateMutability": "nonpayable",
      "type": "function"
    },
    {
      "inputs": [
        {
          "internalType": "uint256",
          "name": "_auctionId",
          "type": "uint256"
        }
      ],
      "name": "finalizeAuction",
      "outputs": [
        {
          "internalType": "uint256",
          "name": "",
          "type": "uint256"
        }
      ],
      "stateMutability": "nonpayable",
      "type": "function"
    },
    {
      "inputs": [
        {
          "internalType": "uint256",
          "name": "_auctionId",
          "type": "uint256"
        },
        {
          "internalType": "string",
          "name": "_to",
          "type": "string"
        }
      ],
      "name": "bidOnAuction",
      "outputs": [],
      "stateMutability": "payable",
      "type": "function",
      "payable": true
    },
    {
      "inputs": [
        {
          "internalType": "uint256",
          "name": "_auctionId",
          "type": "uint256"
        }
      ],
      "name": "getActiveByAuctionId",
      "outputs": [
        {
          "internalType": "bool",
          "name": "",
          "type": "bool"
        }
      ],
      "stateMutability": "view",
      "type": "function",
      "constant": true
    },
    {
      "inputs": [
        {
          "internalType": "uint256",
          "name": "_itemId",
          "type": "uint256"
        }
      ],
      "name": "getActiveByItemId",
      "outputs": [
        {
          "internalType": "bool",
          "name": "",
          "type": "bool"
        }
      ],
      "stateMutability": "view",
      "type": "function",
      "constant": true
    },
    {
      "inputs": [
        {
          "internalType": "uint256",
          "name": "_auctionId",
          "type": "uint256"
        }
      ],
      "name": "getWinningPrice",
      "outputs": [
        {
          "internalType": "uint256",
          "name": "",
          "type": "uint256"
        }
      ],
      "stateMutability": "view",
      "type": "function",
      "constant": true
    }
  ],
  "bytecode": "0x60806040523480156200001157600080fd5b50604051620038823803806200388283398181016040528101906200003791906200012a565b816000806101000a81548173ffffffffffffffffffffffffffffffffffffffff021916908373ffffffffffffffffffffffffffffffffffffffff16021790555080600160006101000a81548173ffffffffffffffffffffffffffffffffffffffff021916908373ffffffffffffffffffffffffffffffffffffffff160217905550505062000171565b600080fd5b600073ffffffffffffffffffffffffffffffffffffffff82169050919050565b6000620000f282620000c5565b9050919050565b6200010481620000e5565b81146200011057600080fd5b50565b6000815190506200012481620000f9565b92915050565b60008060408385031215620001445762000143620000c0565b5b6000620001548582860162000113565b9250506020620001678582860162000113565b9150509250929050565b61370180620001816000396000f3fe6080604052600436106101145760003560e01c8063ad5b812a116100a0578063e808386311610064578063e808386314610429578063ea53358614610466578063ea9c6cf1146104a3578063ee3ab9e3146104e0578063fa96fec41461051d57610114565b8063ad5b812a14610317578063c8756cda14610354578063cc468eaf14610391578063da09bcf7146103ce578063da4e364f146103ea57610114565b8063571a26a0116100e7578063571a26a0146102045780635b3529df146102495780635f93de491461027257806396b5a755146102b1578063a15aea8b146102da57610114565b806318111ada146101195780633481f0c81461015f5780634008f9c01461019c578063487ec054146101d9575b600080fd5b34801561012557600080fd5b50610140600480360381019061013b919061275e565b61055a565b6040516101569a9998979695949392919061288f565b60405180910390f35b34801561016b57600080fd5b506101866004803603810190610181919061297e565b6108a1565b6040516101939190612a69565b60405180910390f35b3480156101a857600080fd5b506101c360048036038101906101be919061275e565b61093e565b6040516101d09190612a8b565b60405180910390f35b3480156101e557600080fd5b506101ee61095e565b6040516101fb9190612c94565b60405180910390f35b34801561021057600080fd5b5061022b6004803603810190610226919061275e565b610bd2565b60405161024099989796959493929190612cb6565b60405180910390f35b34801561025557600080fd5b50610270600480360381019061026b9190612e8d565b610de2565b005b34801561027e57600080fd5b5061029960048036038101906102949190612f52565b611095565b6040516102a893929190612f92565b60405180910390f35b3480156102bd57600080fd5b506102d860048036038101906102d3919061275e565b611184565b005b3480156102e657600080fd5b5061030160048036038101906102fc919061297e565b611486565b60405161030e9190612a8b565b60405180910390f35b34801561032357600080fd5b5061033e6004803603810190610339919061275e565b6114d2565b60405161034b9190612fd0565b60405180910390f35b34801561036057600080fd5b5061037b60048036038101906103769190612ff2565b611589565b6040516103889190612a8b565b60405180910390f35b34801561039d57600080fd5b506103b860048036038101906103b3919061275e565b6115ba565b6040516103c59190613032565b60405180910390f35b6103e860048036038101906103e3919061304d565b6115e4565b005b3480156103f657600080fd5b50610411600480360381019061040c919061275e565b611c89565b604051610420939291906130b8565b60405180910390f35b34801561043557600080fd5b50610450600480360381019061044b919061275e565b611e30565b60405161045d9190612a8b565b60405180910390f35b34801561047257600080fd5b5061048d6004803603810190610488919061275e565b61259b565b60405161049a9190613032565b60405180910390f35b3480156104af57600080fd5b506104ca60048036038101906104c5919061275e565b6125bb565b6040516104d79190613032565b60405180910390f35b3480156104ec57600080fd5b506105076004803603810190610502919061275e565b6125f7565b6040516105149190612a8b565b60405180910390f35b34801561052957600080fd5b50610544600480360381019061053f919061275e565b612626565b6040516105519190612a8b565b60405180910390f35b60606000806000806000806000606080600060028c815481106105805761057f6130f6565b5b9060005260206000209060080201604051806101200160405290816000820180546105aa90613154565b80601f01602080910402602001604051908101604052809291908181526020018280546105d690613154565b80156106235780601f106105f857610100808354040283529160200191610623565b820191906000526020600020905b81548152906001019060200180831161060657829003601f168201915b505050505081526020016001820154815260200160028201548152602001600382015481526020016004820160009054906101000a900460ff161515151581526020016004820160019054906101000a900460ff161515151581526020016005820154815260200160068201805461069a90613154565b80601f01602080910402602001604051908101604052809291908181526020018280546106c690613154565b80156107135780601f106106e857610100808354040283529160200191610713565b820191906000526020600020905b8154815290600101906020018083116106f657829003601f168201915b5050505050815260200160078201805461072c90613154565b80601f016020809104026020016040519081016040528092919081815260200182805461075890613154565b80156107a55780601f1061077a576101008083540402835291602001916107a5565b820191906000526020600020905b81548152906001019060200180831161078857829003601f168201915b505050505081525050905060008060009054906101000a900473ffffffffffffffffffffffffffffffffffffffff1673ffffffffffffffffffffffffffffffffffffffff16630357ab318e6040518263ffffffff1660e01b815260040161080c9190612a8b565b602060405180830381865afa158015610829573d6000803e3d6000fd5b505050506040513d601f19601f8201168201806040525081019061084d91906131b1565b905081600001518260200151836040015184606001518486608001518760a001518860c001518960e001518a61010001519b509b509b509b509b509b509b509b509b509b5050509193959799509193959799565b60606000600460008473ffffffffffffffffffffffffffffffffffffffff1673ffffffffffffffffffffffffffffffffffffffff16815260200190815260200160002080548060200260200160405190810160405280929190818152602001828054801561092e57602002820191906000526020600020905b81548152602001906001019080831161091a575b5050505050905080915050919050565b600060036000838152602001908152602001600020805490509050919050565b60606002805480602002602001604051908101604052809291908181526020016000905b82821015610bc95783829060005260206000209060080201604051806101200160405290816000820180546109b690613154565b80601f01602080910402602001604051908101604052809291908181526020018280546109e290613154565b8015610a2f5780601f10610a0457610100808354040283529160200191610a2f565b820191906000526020600020905b815481529060010190602001808311610a1257829003601f168201915b505050505081526020016001820154815260200160028201548152602001600382015481526020016004820160009054906101000a900460ff161515151581526020016004820160019054906101000a900460ff1615151515815260200160058201548152602001600682018054610aa690613154565b80601f0160208091040260200160405190810160405280929190818152602001828054610ad290613154565b8015610b1f5780601f10610af457610100808354040283529160200191610b1f565b820191906000526020600020905b815481529060010190602001808311610b0257829003601f168201915b50505050508152602001600782018054610b3890613154565b80601f0160208091040260200160405190810160405280929190818152602001828054610b6490613154565b8015610bb15780601f10610b8657610100808354040283529160200191610bb1565b820191906000526020600020905b815481529060010190602001808311610b9457829003601f168201915b50505050508152505081526020019060010190610982565b50505050905090565b60028181548110610be257600080fd5b9060005260206000209060080201600091509050806000018054610c0590613154565b80601f0160208091040260200160405190810160405280929190818152602001828054610c3190613154565b8015610c7e5780601f10610c5357610100808354040283529160200191610c7e565b820191906000526020600020905b815481529060010190602001808311610c6157829003601f168201915b5050505050908060010154908060020154908060030154908060040160009054906101000a900460ff16908060040160019054906101000a900460ff1690806005015490806006018054610cd190613154565b80601f0160208091040260200160405190810160405280929190818152602001828054610cfd90613154565b8015610d4a5780601f10610d1f57610100808354040283529160200191610d4a565b820191906000526020600020905b815481529060010190602001808311610d2d57829003601f168201915b505050505090806007018054610d5f90613154565b80601f0160208091040260200160405190810160405280929190818152602001828054610d8b90613154565b8015610dd85780601f10610dad57610100808354040283529160200191610dd8565b820191906000526020600020905b815481529060010190602001808311610dbb57829003601f168201915b5050505050905089565b60006002805490509050610df461268d565b600115156005600088815260200190815260200160002060009054906101000a900460ff16151503610e5e577f4b9f1423064edf360c536c1efc2f2e8d038af75827faa3b29ec93a38e537961d3387604051610e519291906131de565b60405180910390a1600080fd5b878160000181905250848160200181815250508381604001818152505086816060018181525050600181608001901515908115158152505060008160a0019015159081151581525050858160c0018181525050828160e001819052506040518060400160405280600481526020017f6e6f6e650000000000000000000000000000000000000000000000000000000081525081610100018190525060028190806001815401808255809150506001900390600052602060002090600802016000909190919091506000820151816000019081610f3a91906133b3565b5060208201518160010155604082015181600201556060820151816003015560808201518160040160006101000a81548160ff02191690831515021790555060a08201518160040160016101000a81548160ff02191690831515021790555060c0820151816005015560e0820151816006019081610fb891906133b3565b50610100820151816007019081610fcf91906133b3565b50505060008054906101000a900473ffffffffffffffffffffffffffffffffffffffff1673ffffffffffffffffffffffffffffffffffffffff1663472c682033846040518363ffffffff1660e01b815260040161102d9291906131de565b600060405180830381600087803b15801561104757600080fd5b505af115801561105b573d6000803e3d6000fd5b5050505060016005600088815260200190815260200160002060006101000a81548160ff0219169083151502179055505050505050505050565b600360205281600052604060002081815481106110b157600080fd5b9060005260206000209060030201600091509150508060000160009054906101000a900473ffffffffffffffffffffffffffffffffffffffff169080600101549080600201805461110190613154565b80601f016020809104026020016040519081016040528092919081815260200182805461112d90613154565b801561117a5780601f1061114f5761010080835404028352916020019161117a565b820191906000526020600020905b81548152906001019060200180831161115d57829003601f168201915b5050505050905083565b8060008060009054906101000a900473ffffffffffffffffffffffffffffffffffffffff1673ffffffffffffffffffffffffffffffffffffffff16630357ab31836040518263ffffffff1660e01b81526004016111e19190612a8b565b602060405180830381865afa1580156111fe573d6000803e3d6000fd5b505050506040513d601f19601f8201168201806040525081019061122291906131b1565b90503373ffffffffffffffffffffffffffffffffffffffff168173ffffffffffffffffffffffffffffffffffffffff161461125c57600080fd5b6000600360008581526020019081526020016000208054905090506000811115611447576000600360008681526020019081526020016000206001836112a291906134b4565b815481106112b3576112b26130f6565b5b90600052602060002090600302016040518060600160405290816000820160009054906101000a900473ffffffffffffffffffffffffffffffffffffffff1673ffffffffffffffffffffffffffffffffffffffff1673ffffffffffffffffffffffffffffffffffffffff1681526020016001820154815260200160028201805461133c90613154565b80601f016020809104026020016040519081016040528092919081815260200182805461136890613154565b80156113b55780601f1061138a576101008083540402835291602001916113b5565b820191906000526020600020905b81548152906001019060200180831161139857829003601f168201915b5050505050815250509050806000015173ffffffffffffffffffffffffffffffffffffffff166108fc82602001519081150290604051600060405180830381858888f19350505050611445577f5856b498fb8ec2d3ce0621122a5d1783b0ae342aeb1907bed0770a3ac950a08d33826020015187604051611438939291906134e8565b60405180910390a1600080fd5b505b7f2c25d24dfe9658b516c1350cfc2a18f745a8d59f68ff5ec62bda4cc2a0e2b17f33856040516114789291906131de565b60405180910390a150505050565b6000600460008373ffffffffffffffffffffffffffffffffffffffff1673ffffffffffffffffffffffffffffffffffffffff168152602001908152602001600020805490509050919050565b6060600282815481106114e8576114e76130f6565b5b9060005260206000209060080201600001805461150490613154565b80601f016020809104026020016040519081016040528092919081815260200182805461153090613154565b801561157d5780601f106115525761010080835404028352916020019161157d565b820191906000526020600020905b81548152906001019060200180831161156057829003601f168201915b50505050509050919050565b600460205281600052604060002081815481106115a557600080fd5b90600052602060002001600091509150505481565b60006005600083815260200190815260200160002060009054906101000a900460ff169050919050565b6000429050600034905060008060009054906101000a900473ffffffffffffffffffffffffffffffffffffffff1673ffffffffffffffffffffffffffffffffffffffff16630357ab31866040518263ffffffff1660e01b815260040161164a9190612a8b565b602060405180830381865afa158015611667573d6000803e3d6000fd5b505050506040513d601f19601f8201168201806040525081019061168b91906131b1565b90506000600286815481106116a3576116a26130f6565b5b9060005260206000209060080201604051806101200160405290816000820180546116cd90613154565b80601f01602080910402602001604051908101604052809291908181526020018280546116f990613154565b80156117465780601f1061171b57610100808354040283529160200191611746565b820191906000526020600020905b81548152906001019060200180831161172957829003601f168201915b505050505081526020016001820154815260200160028201548152602001600382015481526020016004820160009054906101000a900460ff161515151581526020016004820160019054906101000a900460ff16151515158152602001600582015481526020016006820180546117bd90613154565b80601f01602080910402602001604051908101604052809291908181526020018280546117e990613154565b80156118365780601f1061180b57610100808354040283529160200191611836565b820191906000526020600020905b81548152906001019060200180831161181957829003601f168201915b5050505050815260200160078201805461184f90613154565b80601f016020809104026020016040519081016040528092919081815260200182805461187b90613154565b80156118c85780601f1061189d576101008083540402835291602001916118c8565b820191906000526020600020905b8154815290600101906020018083116118ab57829003601f168201915b50505050508152505090506000816020015190506000826040015190503373ffffffffffffffffffffffffffffffffffffffff168473ffffffffffffffffffffffffffffffffffffffff160361191d57600080fd5b8086118061192a57508186105b15611971577fa4ea41aa9dc73ff28d2bf97d7f6f0d88d8e54c87f2f5c612c4d2b0b6dae3fded33898884604051611964949392919061351f565b60405180910390a1600080fd5b6000600360008a815260200190815260200160002080549050905060008460600151905061199d6126dd565b818810156119aa57600080fd5b6000831115611b8257600360008c81526020019081526020016000206001846119d391906134b4565b815481106119e4576119e36130f6565b5b90600052602060002090600302016040518060600160405290816000820160009054906101000a900473ffffffffffffffffffffffffffffffffffffffff1673ffffffffffffffffffffffffffffffffffffffff1673ffffffffffffffffffffffffffffffffffffffff16815260200160018201548152602001600282018054611a6d90613154565b80601f0160208091040260200160405190810160405280929190818152602001828054611a9990613154565b8015611ae65780601f10611abb57610100808354040283529160200191611ae6565b820191906000526020600020905b815481529060010190602001808311611ac957829003601f168201915b50505050508152505090508060200151915081881015611b0557600080fd5b806000015173ffffffffffffffffffffffffffffffffffffffff166108fc82602001519081150290604051600060405180830381858888f19350505050611b81576040517f08c379a0000000000000000000000000000000000000000000000000000000008152600401611b78906135b0565b60405180910390fd5b5b611b8a6126dd565b33816000019073ffffffffffffffffffffffffffffffffffffffff16908173ffffffffffffffffffffffffffffffffffffffff1681525050888160200181815250508a8160400181905250600360008d815260200190815260200160002081908060018154018082558091505060019003906000526020600020906003020160009091909190915060008201518160000160006101000a81548173ffffffffffffffffffffffffffffffffffffffff021916908373ffffffffffffffffffffffffffffffffffffffff160217905550602082015181600101556040820151816002019081611c7891906133b3565b505050505050505050505050505050565b60008060606000600360008681526020019081526020016000208054905090506000811115611e0e57600060036000878152602001908152602001600020600183611cd491906134b4565b81548110611ce557611ce46130f6565b5b90600052602060002090600302016040518060600160405290816000820160009054906101000a900473ffffffffffffffffffffffffffffffffffffffff1673ffffffffffffffffffffffffffffffffffffffff1673ffffffffffffffffffffffffffffffffffffffff16815260200160018201548152602001600282018054611d6e90613154565b80601f0160208091040260200160405190810160405280929190818152602001828054611d9a90613154565b8015611de75780601f10611dbc57610100808354040283529160200191611de7565b820191906000526020600020905b815481529060010190602001808311611dca57829003601f168201915b50505050508152505090508060200151816000015182604001519450945094505050611e29565b60008060405180602001604052806000815250935093509350505b9193909250565b60008060028381548110611e4757611e466130f6565b5b906000526020600020906008020160405180610120016040529081600082018054611e7190613154565b80601f0160208091040260200160405190810160405280929190818152602001828054611e9d90613154565b8015611eea5780601f10611ebf57610100808354040283529160200191611eea565b820191906000526020600020905b815481529060010190602001808311611ecd57829003601f168201915b505050505081526020016001820154815260200160028201548152602001600382015481526020016004820160009054906101000a900460ff161515151581526020016004820160019054906101000a900460ff1615151515815260200160058201548152602001600682018054611f6190613154565b80601f0160208091040260200160405190810160405280929190818152602001828054611f8d90613154565b8015611fda5780601f10611faf57610100808354040283529160200191611fda565b820191906000526020600020905b815481529060010190602001808311611fbd57829003601f168201915b50505050508152602001600782018054611ff390613154565b80601f016020809104026020016040519081016040528092919081815260200182805461201f90613154565b801561206c5780601f106120415761010080835404028352916020019161206c565b820191906000526020600020905b81548152906001019060200180831161204f57829003601f168201915b505050505081525050905060008160c001519050600060036000868152602001908152602001600020805490509050600042905060008060009054906101000a900473ffffffffffffffffffffffffffffffffffffffff1673ffffffffffffffffffffffffffffffffffffffff16630357ab31886040518263ffffffff1660e01b81526004016120fc9190612a8b565b602060405180830381865afa158015612119573d6000803e3d6000fd5b505050506040513d601f19601f8201168201806040525081019061213d91906131b1565b9050846040015182101561218f577fc90c47862874db91b2e7227781e2824bf27cf6e4445e34e5439b0f7b7b7cb80833838760400151604051612182939291906134e8565b60405180910390a1600080fd5b600083036121a5576121a087611184565b612523565b6000600360008981526020019081526020016000206001856121c791906134b4565b815481106121d8576121d76130f6565b5b90600052602060002090600302016040518060600160405290816000820160009054906101000a900473ffffffffffffffffffffffffffffffffffffffff1673ffffffffffffffffffffffffffffffffffffffff1673ffffffffffffffffffffffffffffffffffffffff1681526020016001820154815260200160028201805461226190613154565b80601f016020809104026020016040519081016040528092919081815260200182805461228d90613154565b80156122da5780601f106122af576101008083540402835291602001916122da565b820191906000526020600020905b8154815290600101906020018083116122bd57829003601f168201915b50505050508152505090508173ffffffffffffffffffffffffffffffffffffffff166108fc82602001519081150290604051600060405180830381858888f19350505050612366577f5856b498fb8ec2d3ce0621122a5d1783b0ae342aeb1907bed0770a3ac950a08d3382602001518a604051612359939291906134e8565b60405180910390a1600080fd5b60008054906101000a900473ffffffffffffffffffffffffffffffffffffffff1673ffffffffffffffffffffffffffffffffffffffff166392c097ce838360000151888c6040518563ffffffff1660e01b81526004016123c99493929190613625565b600060405180830381600087803b1580156123e357600080fd5b505af11580156123f7573d6000803e3d6000fd5b50505050600160009054906101000a900473ffffffffffffffffffffffffffffffffffffffff1673ffffffffffffffffffffffffffffffffffffffff16639f4a0ae4868484600001518a60e0015186604001516040518663ffffffff1660e01b815260040161246a95949392919061366a565b600060405180830381600087803b15801561248457600080fd5b505af1158015612498573d6000803e3d6000fd5b5050505080604001518661010001819052506001600289815481106124c0576124bf6130f6565b5b906000526020600020906008020160040160016101000a81548160ff0219169083151502179055507f357afab190ee87fe0ef1c717f2728d2904d9e415a069d99f4d9382873cb3279d33896040516125199291906131de565b60405180910390a1505b600060028881548110612539576125386130f6565b5b906000526020600020906008020160040160006101000a81548160ff02191690831515021790555060006005600086815260200190815260200160002060006101000a81548160ff021916908315150217905550600095505050505050919050565b60056020528060005260406000206000915054906101000a900460ff1681565b6000600282815481106125d1576125d06130f6565b5b906000526020600020906008020160040160009054906101000a900460ff169050919050565b60006002828154811061260d5761260c6130f6565b5b9060005260206000209060080201600501549050919050565b600080600360008481526020019081526020016000208054905090506003600084815260200190815260200160002060018261266291906134b4565b81548110612673576126726130f6565b5b906000526020600020906003020160010154915050919050565b604051806101200160405280606081526020016000815260200160008152602001600081526020016000151581526020016000151581526020016000815260200160608152602001606081525090565b6040518060600160405280600073ffffffffffffffffffffffffffffffffffffffff16815260200160008152602001606081525090565b6000604051905090565b600080fd5b600080fd5b6000819050919050565b61273b81612728565b811461274657600080fd5b50565b60008135905061275881612732565b92915050565b6000602082840312156127745761277361271e565b5b600061278284828501612749565b91505092915050565b600081519050919050565b600082825260208201905092915050565b60005b838110156127c55780820151818401526020810190506127aa565b838111156127d4576000848401525b50505050565b6000601f19601f8301169050919050565b60006127f68261278b565b6128008185612796565b93506128108185602086016127a7565b612819816127da565b840191505092915050565b61282d81612728565b82525050565b600073ffffffffffffffffffffffffffffffffffffffff82169050919050565b600061285e82612833565b9050919050565b61286e81612853565b82525050565b60008115159050919050565b61288981612874565b82525050565b60006101408201905081810360008301526128aa818d6127eb565b90506128b9602083018c612824565b6128c6604083018b612824565b6128d3606083018a612824565b6128e06080830189612865565b6128ed60a0830188612880565b6128fa60c0830187612880565b61290760e0830186612824565b81810361010083015261291a81856127eb565b905081810361012083015261292f81846127eb565b90509b9a5050505050505050505050565b600061294b82612833565b9050919050565b61295b81612940565b811461296657600080fd5b50565b60008135905061297881612952565b92915050565b6000602082840312156129945761299361271e565b5b60006129a284828501612969565b91505092915050565b600081519050919050565b600082825260208201905092915050565b6000819050602082019050919050565b6129e081612728565b82525050565b60006129f283836129d7565b60208301905092915050565b6000602082019050919050565b6000612a16826129ab565b612a2081856129b6565b9350612a2b836129c7565b8060005b83811015612a5c578151612a4388826129e6565b9750612a4e836129fe565b925050600181019050612a2f565b5085935050505092915050565b60006020820190508181036000830152612a838184612a0b565b905092915050565b6000602082019050612aa06000830184612824565b92915050565b600081519050919050565b600082825260208201905092915050565b6000819050602082019050919050565b600082825260208201905092915050565b6000612aee8261278b565b612af88185612ad2565b9350612b088185602086016127a7565b612b11816127da565b840191505092915050565b612b2581612874565b82525050565b6000610120830160008301518482036000860152612b498282612ae3565b9150506020830151612b5e60208601826129d7565b506040830151612b7160408601826129d7565b506060830151612b8460608601826129d7565b506080830151612b976080860182612b1c565b5060a0830151612baa60a0860182612b1c565b5060c0830151612bbd60c08601826129d7565b5060e083015184820360e0860152612bd58282612ae3565b915050610100830151848203610100860152612bf18282612ae3565b9150508091505092915050565b6000612c0a8383612b2b565b905092915050565b6000602082019050919050565b6000612c2a82612aa6565b612c348185612ab1565b935083602082028501612c4685612ac2565b8060005b85811015612c825784840389528151612c638582612bfe565b9450612c6e83612c12565b925060208a01995050600181019050612c4a565b50829750879550505050505092915050565b60006020820190508181036000830152612cae8184612c1f565b905092915050565b6000610120820190508181036000830152612cd1818c6127eb565b9050612ce0602083018b612824565b612ced604083018a612824565b612cfa6060830189612824565b612d076080830188612880565b612d1460a0830187612880565b612d2160c0830186612824565b81810360e0830152612d3381856127eb565b9050818103610100830152612d4881846127eb565b90509a9950505050505050505050565b600080fd5b600080fd5b7f4e487b7100000000000000000000000000000000000000000000000000000000600052604160045260246000fd5b612d9a826127da565b810181811067ffffffffffffffff82111715612db957612db8612d62565b5b80604052505050565b6000612dcc612714565b9050612dd88282612d91565b919050565b600067ffffffffffffffff821115612df857612df7612d62565b5b612e01826127da565b9050602081019050919050565b82818337600083830152505050565b6000612e30612e2b84612ddd565b612dc2565b905082815260208101848484011115612e4c57612e4b612d5d565b5b612e57848285612e0e565b509392505050565b600082601f830112612e7457612e73612d58565b5b8135612e84848260208601612e1d565b91505092915050565b60008060008060008060c08789031215612eaa57612ea961271e565b5b600087013567ffffffffffffffff811115612ec857612ec7612723565b5b612ed489828a01612e5f565b9650506020612ee589828a01612749565b9550506040612ef689828a01612749565b9450506060612f0789828a01612749565b9350506080612f1889828a01612749565b92505060a087013567ffffffffffffffff811115612f3957612f38612723565b5b612f4589828a01612e5f565b9150509295509295509295565b60008060408385031215612f6957612f6861271e565b5b6000612f7785828601612749565b9250506020612f8885828601612749565b9150509250929050565b6000606082019050612fa76000830186612865565b612fb46020830185612824565b8181036040830152612fc681846127eb565b9050949350505050565b60006020820190508181036000830152612fea81846127eb565b905092915050565b600080604083850312156130095761300861271e565b5b600061301785828601612969565b925050602061302885828601612749565b9150509250929050565b60006020820190506130476000830184612880565b92915050565b600080604083850312156130645761306361271e565b5b600061307285828601612749565b925050602083013567ffffffffffffffff81111561309357613092612723565b5b61309f85828601612e5f565b9150509250929050565b6130b281612940565b82525050565b60006060820190506130cd6000830186612824565b6130da60208301856130a9565b81810360408301526130ec81846127eb565b9050949350505050565b7f4e487b7100000000000000000000000000000000000000000000000000000000600052603260045260246000fd5b7f4e487b7100000000000000000000000000000000000000000000000000000000600052602260045260246000fd5b6000600282049050600182168061316c57607f821691505b60208210810361317f5761317e613125565b5b50919050565b61318e81612853565b811461319957600080fd5b50565b6000815190506131ab81613185565b92915050565b6000602082840312156131c7576131c661271e565b5b60006131d58482850161319c565b91505092915050565b60006040820190506131f360008301856130a9565b6132006020830184612824565b9392505050565b60008190508160005260206000209050919050565b60006020601f8301049050919050565b600082821b905092915050565b6000600883026132697fffffffffffffffffffffffffffffffffffffffffffffffffffffffffffffffff8261322c565b613273868361322c565b95508019841693508086168417925050509392505050565b6000819050919050565b60006132b06132ab6132a684612728565b61328b565b612728565b9050919050565b6000819050919050565b6132ca83613295565b6132de6132d6826132b7565b848454613239565b825550505050565b600090565b6132f36132e6565b6132fe8184846132c1565b505050565b5b81811015613322576133176000826132eb565b600181019050613304565b5050565b601f8211156133675761333881613207565b6133418461321c565b81016020851015613350578190505b61336461335c8561321c565b830182613303565b50505b505050565b600082821c905092915050565b600061338a6000198460080261336c565b1980831691505092915050565b60006133a38383613379565b9150826002028217905092915050565b6133bc8261278b565b67ffffffffffffffff8111156133d5576133d4612d62565b5b6133df8254613154565b6133ea828285613326565b600060209050601f83116001811461341d576000841561340b578287015190505b6134158582613397565b86555061347d565b601f19841661342b86613207565b60005b828110156134535784890151825560018201915060208501945060208101905061342e565b86831015613470578489015161346c601f891682613379565b8355505b6001600288020188555050505b505050505050565b7f4e487b7100000000000000000000000000000000000000000000000000000000600052601160045260246000fd5b60006134bf82612728565b91506134ca83612728565b9250828210156134dd576134dc613485565b5b828203905092915050565b60006060820190506134fd60008301866130a9565b61350a6020830185612824565b6135176040830184612824565b949350505050565b600060808201905061353460008301876130a9565b6135416020830186612824565b61354e6040830185612824565b61355b6060830184612824565b95945050505050565b7f6661696c656420746f20726566756e642e000000000000000000000000000000600082015250565b600061359a601183612796565b91506135a582613564565b602082019050919050565b600060208201905081810360008301526135c98161358d565b9050919050565b60006135eb6135e66135e184612833565b61328b565b612833565b9050919050565b60006135fd826135d0565b9050919050565b600061360f826135f2565b9050919050565b61361f81613604565b82525050565b600060808201905061363a6000830187613616565b6136476020830186613616565b6136546040830185612824565b6136616060830184612824565b95945050505050565b600060a08201905061367f6000830188612824565b61368c6020830187613616565b6136996040830186613616565b81810360608301526136ab81856127eb565b905081810360808301526136bf81846127eb565b9050969550505050505056fea264697066735822122030fc4a2aa998ef6daed6068d421fdebc20b876e3989b3450fa3d2a805b0eb2c664736f6c634300080f0033",
  "immutableReferences": {},
  "source": "// SPDX-License-Identifier: MIT\r\n\r\npragma solidity >=0.5.16;\r\n\r\nimport \"./OwnerData.sol\";\r\nimport \"./SupplyManaging.sol\";\r\n\r\ncontract AuctionContract{\r\n\r\n    OwnerDataContract ownerDataContract;\r\n\r\n    SupplyManagingContract supplyManagingContract;\r\n\r\n    constructor(address _ownerDataContract, address _supplyManagingContract) {\r\n        ownerDataContract = OwnerDataContract(_ownerDataContract);\r\n        supplyManagingContract = SupplyManagingContract(_supplyManagingContract);\r\n    }\r\n\r\n    Auction[] public auctions;\r\n\r\n    mapping(uint256 => Bid[] ) public auctionBids;\r\n    mapping(address => uint[]) public auctionOwner;\r\n    mapping(uint256 => bool  ) public itemActive;\r\n            \r\n    struct Bid{\r\n        address payable from;\r\n        uint256 amount;\r\n        string shippingTo;\r\n    }\r\n\r\n    struct Auction{\r\n        string name;\r\n        uint256 startTime;\r\n        uint256 blockDeadline;\r\n        uint256 startPrice;\r\n        bool active;\r\n        bool finalized;\r\n        uint256 itemId;\r\n        string shippingFrom; \r\n        string shippingTo;  \r\n    }\r\n\r\n    event AlreadyActive(address _user, uint256 _itemId);\r\n    event EarlyToFinalize(address _user, uint256 timeStamp, uint256  blockDeadline);\r\n    event CancelAuction(address _user, uint256 _auctionId);\r\n    event ItemAlreadyActive(address _user, uint256 _itemId);\r\n    event DeadlineExceeded(address _user, uint256 _auctionId, uint256 _timestamp, uint256 _deadline);\r\n    event AuctionFinalized(address _user, uint256 _auctionId);\r\n    event sendFailed(address _user, uint256 _amount, uint256 _auctionId);\r\n\r\n\r\n    modifier isOwnerAuc(uint _auctionId) {\r\n        address owner = ownerDataContract.getOwnerByAucId(_auctionId);\r\n        require(owner == msg.sender);\r\n        _;\r\n    }\r\n\r\n    function getAllOfAuctions() public view returns(Auction[] memory){\r\n        return auctions;\r\n    }\r\n\r\n    function getItemByAuction(uint256 _auctionId) public view returns(uint256){\r\n        return auctions[_auctionId].itemId;\r\n    }\r\n\r\n    function getBidsCount(uint _auctionId) public view returns(uint){\r\n        return auctionBids[_auctionId].length;\r\n    }\r\n\r\n    function getAuctionsOfOwner(address _owner) public view returns(uint[] memory){\r\n        uint[] memory ownedAuctions = auctionOwner[_owner];\r\n        return ownedAuctions;\r\n    }\r\n\r\n    \r\n    function getCurrentBid(uint _auctionId) public view returns(uint256, address, string memory) {\r\n        uint bidsLength =auctionBids[_auctionId].length;\r\n\r\n        if(bidsLength > 0){\r\n            Bid memory lastBid = auctionBids[_auctionId][bidsLength - 1];\r\n            return (lastBid.amount, lastBid.from, lastBid.shippingTo);\r\n        }\r\n\r\n        return (uint256(0), address(0), string(\"\"));\r\n    }\r\n\r\n    function getAuctionOwnerLength(address _owner) public view returns(uint) {\r\n        return auctionOwner[_owner].length;\r\n    }\r\n\r\n    function getAuctionById(uint _auctionId) public view returns(\r\n        string memory name,\r\n        uint256 startTime,\r\n        uint256 blockDeadline,\r\n        uint256 startPrice,\r\n        address payable owner,\r\n        bool active,\r\n        bool finalized,\r\n        uint256 itemId,\r\n        string memory shippingFrom,\r\n        string memory shippingTo\r\n    ){\r\n        Auction memory auc = auctions[_auctionId];\r\n        address _owner = ownerDataContract.getOwnerByAucId(_auctionId);\r\n        return (\r\n            auc.name,\r\n            auc.startTime,\r\n            auc.blockDeadline,\r\n            auc.startPrice,\r\n            payable(_owner),\r\n            auc.active,\r\n            auc.finalized,\r\n            auc.itemId,\r\n            auc.shippingFrom,\r\n            auc.shippingTo\r\n        );\r\n    }\r\n\r\n    function getAuctionNameByAuctionId(uint256 _auctionId) public view returns(string memory){\r\n        return auctions[_auctionId].name;\r\n    }\r\n\r\n    function createAuction(string memory _auctionTitle, uint256 _startPrice, uint256 _itemId, \r\n       uint256 _startTime,  uint256 _blockDeadline, string memory _shippingFrom) public {\r\n\r\n        \r\n        uint256 auctionId = auctions.length;\r\n\r\n        Auction memory newAuction;\r\n\r\n        if(itemActive[_itemId] == true){\r\n            emit AlreadyActive(msg.sender, _itemId);\r\n            revert();\r\n        }\r\n\r\n        newAuction.name = _auctionTitle;\r\n        newAuction.startTime = _startTime;\r\n        newAuction.blockDeadline = _blockDeadline;\r\n        newAuction.startPrice = _startPrice;\r\n        newAuction.active = true;\r\n        newAuction.finalized = false;\r\n        newAuction.itemId = _itemId;\r\n        newAuction.shippingFrom = _shippingFrom;\r\n        newAuction.shippingTo = \"none\";\r\n\r\n        auctions.push(newAuction);\r\n        ownerDataContract.updateAuctionOwner(msg.sender, auctionId);\r\n        itemActive[_itemId] = true;\r\n        //ownerDataContract.updateItemOwner(msg.sender, _itemId);\r\n        //ownerData.pushOwnedBy(msg.sender, _itemId);\r\n    }\r\n\r\n    //function restartAuction(uint256 _auctionId, )\r\n\r\n    function cancelAuction(uint _auctionId) public isOwnerAuc(_auctionId){\r\n        uint bidsLength = auctionBids[_auctionId].length;\r\n\r\n        if(bidsLength > 0){\r\n            Bid memory lastBid = auctionBids[_auctionId][bidsLength -1];\r\n            if(!lastBid.from.send(lastBid.amount)){\r\n                emit sendFailed(msg.sender, lastBid.amount, _auctionId);\r\n                revert();\r\n            }\r\n        }\r\n\r\n        emit CancelAuction(msg.sender, _auctionId);\r\n    }\r\n\r\n    function finalizeAuction(uint256 _auctionId) public returns(uint256){\r\n        Auction memory myAuction = auctions[_auctionId];\r\n        uint256 _itemId = myAuction.itemId;\r\n        uint256 bidsLength = auctionBids[_auctionId].length;\r\n        uint256 timeStamp = block.timestamp;\r\n        address payable aucOwner = ownerDataContract.getOwnerByAucId(_auctionId);\r\n        \r\n\r\n        if(timeStamp < myAuction.blockDeadline){\r\n            emit EarlyToFinalize(msg.sender, timeStamp, myAuction.blockDeadline);\r\n            revert();\r\n        }\r\n        \r\n        if(bidsLength == 0) {\r\n            cancelAuction(_auctionId);\r\n        }else{\r\n\r\n            Bid memory lastBid = auctionBids[_auctionId][bidsLength - 1];\r\n\r\n            if(!aucOwner.send(lastBid.amount)){\r\n                emit sendFailed(msg.sender, lastBid.amount, _auctionId);\r\n                revert();\r\n            }\r\n            else{\r\n                ownerDataContract.handoverOwnerData(aucOwner, lastBid.from, _itemId, _auctionId);\r\n                supplyManagingContract.setAddrToShippingByItemId(_itemId, aucOwner, lastBid.from, myAuction.shippingFrom, lastBid.shippingTo);\r\n                myAuction.shippingTo = lastBid.shippingTo;\r\n                auctions[_auctionId].finalized = true;\r\n                emit AuctionFinalized(msg.sender, _auctionId);\r\n            }\r\n        }\r\n\r\n        auctions[_auctionId].active = false;\r\n        itemActive[_itemId] = false;        \r\n        return 0;\r\n    }\r\n\r\n\r\n    function bidOnAuction(uint _auctionId, string memory _to) external payable {\r\n        uint256 timestamp = block.timestamp;\r\n\r\n        uint256 ethAmountSent = msg.value;\r\n        address aucOwner = ownerDataContract.getOwnerByAucId(_auctionId);\r\n        Auction memory myAuction = auctions[_auctionId];\r\n        uint256 startTime = myAuction.startTime;\r\n        uint256 deadline = myAuction.blockDeadline;\r\n\r\n        if(aucOwner == msg.sender){\r\n            revert();\r\n        }\r\n\r\n        if( (timestamp > deadline) || (timestamp < startTime) ){\r\n            emit DeadlineExceeded(msg.sender, _auctionId, timestamp, deadline);\r\n            revert();\r\n        }\r\n        \r\n        uint256 bidsLength = auctionBids[_auctionId].length;\r\n        uint256 tempAmount = myAuction.startPrice;\r\n        Bid memory lastBid;\r\n        \r\n        if(ethAmountSent < tempAmount){\r\n            revert();\r\n        }\r\n\r\n        if(bidsLength > 0){\r\n            lastBid = auctionBids[_auctionId][bidsLength -1];\r\n            tempAmount = lastBid.amount;\r\n\r\n            if(ethAmountSent < tempAmount){\r\n                revert();\r\n            }\r\n\r\n            require(lastBid.from.send(lastBid.amount), \"failed to refund.\");\r\n        }\r\n        \r\n        Bid memory newBid;\r\n        newBid.from = payable(msg.sender);\r\n        newBid.amount = ethAmountSent;\r\n        newBid.shippingTo = _to;\r\n        auctionBids[_auctionId].push(newBid);\r\n    }\r\n\r\n    function getActiveByAuctionId(uint256 _auctionId) public view returns(bool){\r\n        return auctions[_auctionId].active;\r\n    }\r\n\r\n    function getActiveByItemId(uint256 _itemId) public view returns(bool){\r\n        return itemActive[_itemId];\r\n    }\r\n\r\n    function getWinningPrice(uint256 _auctionId) public view returns(uint256){\r\n        uint256 len = auctionBids[_auctionId].length;\r\n        return auctionBids[_auctionId][len-1].amount;\r\n    } //    \r\n\r\n    //function getPathLenByItemIdAuc(uint256 _itemId) public view returns(uint256){}\r\n\r\n    //  method, rwData = getRwSupplyData productTracing   \r\n\r\n}\r\n\r\n",
  "sourcePath": "/Users/c_rbi/testNet/back-end/smart_contract/contracts/Auction.sol",
  "compiler": {
    "name": "solc",
    "version": "0.8.15+commit.e14f2714.Emscripten.clang"
  },
  "schemaVersion": "3.4.8",
  "updatedAt": "2022-08-11T23:49:34.129Z",
  "networkType": "ethereum",
  "devdoc": {
    "kind": "dev",
    "methods": {},
    "version": 1
  },
  "userdoc": {
    "kind": "user",
    "methods": {},
    "version": 1
  }
}