{
  "contractName": "AuctionContract",
  "abi": [
    {
      "inputs": [
        {
          "internalType": "uint256",
          "name": "",
          "type": "uint256"
        },
        {
          "internalType": "uint256",
          "name": "",
          "type": "uint256"
        }
      ],
      "name": "auctionBids",
      "outputs": [
        {
          "internalType": "address payable",
          "name": "from",
          "type": "address"
        },
        {
          "internalType": "uint256",
          "name": "amount",
          "type": "uint256"
        },
        {
          "internalType": "string",
          "name": "shippingTo",
          "type": "string"
        }
      ],
      "stateMutability": "view",
      "type": "function",
      "constant": true
    },
    {
      "inputs": [
        {
          "internalType": "address",
          "name": "",
          "type": "address"
        },
        {
          "internalType": "uint256",
          "name": "",
          "type": "uint256"
        }
      ],
      "name": "auctionOwner",
      "outputs": [
        {
          "internalType": "uint256",
          "name": "",
          "type": "uint256"
        }
      ],
      "stateMutability": "view",
      "type": "function",
      "constant": true
    },
    {
      "inputs": [
        {
          "internalType": "uint256",
          "name": "",
          "type": "uint256"
        }
      ],
      "name": "auctions",
      "outputs": [
        {
          "internalType": "string",
          "name": "name",
          "type": "string"
        },
        {
          "internalType": "uint256",
          "name": "blockDeadline",
          "type": "uint256"
        },
        {
          "internalType": "uint256",
          "name": "startPrice",
          "type": "uint256"
        },
        {
          "internalType": "address payable",
          "name": "owner",
          "type": "address"
        },
        {
          "internalType": "bool",
          "name": "active",
          "type": "bool"
        },
        {
          "internalType": "bool",
          "name": "finalized",
          "type": "bool"
        },
        {
          "internalType": "uint256",
          "name": "itemId",
          "type": "uint256"
        },
        {
          "internalType": "string",
          "name": "shippingFrom",
          "type": "string"
        },
        {
          "internalType": "string",
          "name": "shippingTo",
          "type": "string"
        }
      ],
      "stateMutability": "view",
      "type": "function",
      "constant": true
    },
    {
      "inputs": [
        {
          "internalType": "address",
          "name": "",
          "type": "address"
        },
        {
          "internalType": "uint256",
          "name": "",
          "type": "uint256"
        }
      ],
      "name": "ownedBy",
      "outputs": [
        {
          "internalType": "uint256",
          "name": "",
          "type": "uint256"
        }
      ],
      "stateMutability": "view",
      "type": "function",
      "constant": true
    },
    {
      "inputs": [],
      "name": "getAllOfAuctions",
      "outputs": [
        {
          "components": [
            {
              "internalType": "string",
              "name": "name",
              "type": "string"
            },
            {
              "internalType": "uint256",
              "name": "blockDeadline",
              "type": "uint256"
            },
            {
              "internalType": "uint256",
              "name": "startPrice",
              "type": "uint256"
            },
            {
              "internalType": "address payable",
              "name": "owner",
              "type": "address"
            },
            {
              "internalType": "bool",
              "name": "active",
              "type": "bool"
            },
            {
              "internalType": "bool",
              "name": "finalized",
              "type": "bool"
            },
            {
              "internalType": "uint256",
              "name": "itemId",
              "type": "uint256"
            },
            {
              "internalType": "string",
              "name": "shippingFrom",
              "type": "string"
            },
            {
              "internalType": "string",
              "name": "shippingTo",
              "type": "string"
            }
          ],
          "internalType": "struct AuctionContract.Auction[]",
          "name": "",
          "type": "tuple[]"
        }
      ],
      "stateMutability": "view",
      "type": "function",
      "constant": true
    },
    {
      "inputs": [
        {
          "internalType": "uint256",
          "name": "_auctionId",
          "type": "uint256"
        }
      ],
      "name": "getItemByAuction",
      "outputs": [
        {
          "internalType": "uint256",
          "name": "",
          "type": "uint256"
        }
      ],
      "stateMutability": "view",
      "type": "function",
      "constant": true
    },
    {
      "inputs": [
        {
          "internalType": "uint256",
          "name": "_auctionId",
          "type": "uint256"
        }
      ],
      "name": "getBidsCount",
      "outputs": [
        {
          "internalType": "uint256",
          "name": "",
          "type": "uint256"
        }
      ],
      "stateMutability": "view",
      "type": "function",
      "constant": true
    },
    {
      "inputs": [
        {
          "internalType": "address",
          "name": "_owner",
          "type": "address"
        }
      ],
      "name": "getAuctionsOfOwner",
      "outputs": [
        {
          "internalType": "uint256[]",
          "name": "",
          "type": "uint256[]"
        }
      ],
      "stateMutability": "view",
      "type": "function",
      "constant": true
    },
    {
      "inputs": [
        {
          "internalType": "uint256",
          "name": "_auctionId",
          "type": "uint256"
        }
      ],
      "name": "getCurrentBid",
      "outputs": [
        {
          "internalType": "uint256",
          "name": "",
          "type": "uint256"
        },
        {
          "internalType": "address",
          "name": "",
          "type": "address"
        },
        {
          "internalType": "string",
          "name": "",
          "type": "string"
        }
      ],
      "stateMutability": "view",
      "type": "function",
      "constant": true
    },
    {
      "inputs": [
        {
          "internalType": "address",
          "name": "_owner",
          "type": "address"
        }
      ],
      "name": "getAuctionOwnerLength",
      "outputs": [
        {
          "internalType": "uint256",
          "name": "",
          "type": "uint256"
        }
      ],
      "stateMutability": "view",
      "type": "function",
      "constant": true
    },
    {
      "inputs": [
        {
          "internalType": "address",
          "name": "_user",
          "type": "address"
        }
      ],
      "name": "getOwnedBy",
      "outputs": [
        {
          "internalType": "uint256[]",
          "name": "",
          "type": "uint256[]"
        }
      ],
      "stateMutability": "view",
      "type": "function",
      "constant": true
    },
    {
      "inputs": [
        {
          "internalType": "uint256",
          "name": "_itemId",
          "type": "uint256"
        }
      ],
      "name": "pushOwnedBy",
      "outputs": [
        {
          "internalType": "uint256",
          "name": "",
          "type": "uint256"
        }
      ],
      "stateMutability": "nonpayable",
      "type": "function"
    },
    {
      "inputs": [
        {
          "internalType": "uint256",
          "name": "_auctionId",
          "type": "uint256"
        }
      ],
      "name": "getAuctionById",
      "outputs": [
        {
          "internalType": "string",
          "name": "name",
          "type": "string"
        },
        {
          "internalType": "uint256",
          "name": "blockDeadline",
          "type": "uint256"
        },
        {
          "internalType": "uint256",
          "name": "startPrice",
          "type": "uint256"
        },
        {
          "internalType": "address payable",
          "name": "owner",
          "type": "address"
        },
        {
          "internalType": "bool",
          "name": "active",
          "type": "bool"
        },
        {
          "internalType": "bool",
          "name": "finalized",
          "type": "bool"
        },
        {
          "internalType": "uint256",
          "name": "itemId",
          "type": "uint256"
        },
        {
          "internalType": "string",
          "name": "shippingFrom",
          "type": "string"
        },
        {
          "internalType": "string",
          "name": "shippingTo",
          "type": "string"
        }
      ],
      "stateMutability": "view",
      "type": "function",
      "constant": true
    },
    {
      "inputs": [
        {
          "internalType": "string",
          "name": "_auctionTitle",
          "type": "string"
        },
        {
          "internalType": "uint256",
          "name": "_startPrice",
          "type": "uint256"
        },
        {
          "internalType": "uint256",
          "name": "_itemId",
          "type": "uint256"
        },
        {
          "internalType": "uint256",
          "name": "_blockDeadline",
          "type": "uint256"
        },
        {
          "internalType": "string",
          "name": "_shippingFrom",
          "type": "string"
        }
      ],
      "name": "createAuction",
      "outputs": [],
      "stateMutability": "nonpayable",
      "type": "function"
    },
    {
      "inputs": [
        {
          "internalType": "uint256",
          "name": "_auctionId",
          "type": "uint256"
        }
      ],
      "name": "cancelAuction",
      "outputs": [],
      "stateMutability": "nonpayable",
      "type": "function"
    },
    {
      "inputs": [
        {
          "internalType": "uint256",
          "name": "_auctionId",
          "type": "uint256"
        }
      ],
      "name": "finalizeAuction",
      "outputs": [
        {
          "internalType": "uint256",
          "name": "",
          "type": "uint256"
        }
      ],
      "stateMutability": "nonpayable",
      "type": "function"
    },
    {
      "inputs": [
        {
          "internalType": "uint256",
          "name": "_auctionId",
          "type": "uint256"
        },
        {
          "internalType": "address",
          "name": "_to",
          "type": "address"
        }
      ],
      "name": "handover",
      "outputs": [],
      "stateMutability": "nonpayable",
      "type": "function"
    },
    {
      "inputs": [
        {
          "internalType": "address payable",
          "name": "_from",
          "type": "address"
        },
        {
          "internalType": "uint256",
          "name": "_amount",
          "type": "uint256"
        },
        {
          "internalType": "uint256",
          "name": "_auctionId",
          "type": "uint256"
        }
      ],
      "name": "sendNow",
      "outputs": [
        {
          "internalType": "bool",
          "name": "",
          "type": "bool"
        }
      ],
      "stateMutability": "payable",
      "type": "function",
      "payable": true
    },
    {
      "inputs": [
        {
          "internalType": "uint256",
          "name": "_auctionId",
          "type": "uint256"
        },
        {
          "internalType": "string",
          "name": "_to",
          "type": "string"
        }
      ],
      "name": "bidOnAuction",
      "outputs": [],
      "stateMutability": "payable",
      "type": "function",
      "payable": true
    },
    {
      "inputs": [
        {
          "internalType": "uint256",
          "name": "_itemId",
          "type": "uint256"
        }
      ],
      "name": "getActiveByItemId",
      "outputs": [
        {
          "internalType": "bool",
          "name": "",
          "type": "bool"
        }
      ],
      "stateMutability": "view",
      "type": "function",
      "constant": true
    },
    {
      "inputs": [
        {
          "internalType": "uint256",
          "name": "_itemId",
          "type": "uint256"
        }
      ],
      "name": "createSupplyData",
      "outputs": [],
      "stateMutability": "nonpayable",
      "type": "function"
    },
    {
      "inputs": [
        {
          "internalType": "uint256",
          "name": "_itemId",
          "type": "uint256"
        },
        {
          "internalType": "bool",
          "name": "_active",
          "type": "bool"
        }
      ],
      "name": "setActiveByItemId",
      "outputs": [
        {
          "internalType": "bool",
          "name": "",
          "type": "bool"
        }
      ],
      "stateMutability": "nonpayable",
      "type": "function"
    },
    {
      "inputs": [
        {
          "internalType": "uint256",
          "name": "_auctionId",
          "type": "uint256"
        }
      ],
      "name": "getActiveByAuctionId",
      "outputs": [
        {
          "internalType": "bool",
          "name": "",
          "type": "bool"
        }
      ],
      "stateMutability": "view",
      "type": "function",
      "constant": true
    },
    {
      "inputs": [],
      "name": "getRwSupplyData",
      "outputs": [
        {
          "internalType": "contract rwSupplyData",
          "name": "",
          "type": "address"
        }
      ],
      "stateMutability": "view",
      "type": "function",
      "constant": true
    },
    {
      "inputs": [
        {
          "internalType": "uint256",
          "name": "auctionId",
          "type": "uint256"
        }
      ],
      "name": "getWinnigBid",
      "outputs": [
        {
          "internalType": "uint256",
          "name": "",
          "type": "uint256"
        }
      ],
      "stateMutability": "view",
      "type": "function",
      "constant": true
    }
  ],
  "bytecode": "0x6080604052604051620000129062000083565b604051809103906000f0801580156200002f573d6000803e3d6000fd5b506000806101000a81548173ffffffffffffffffffffffffffffffffffffffff021916908373ffffffffffffffffffffffffffffffffffffffff1602179055503480156200007c57600080fd5b5062000091565b61275480620041af83390190565b61410e80620000a16000396000f3fe6080604052600436106101665760003560e01c80637af26345116100d1578063cc468eaf1161008a578063e291298f11610064578063e291298f146105de578063e80838631461061b578063ea9c6cf114610658578063ee3ab9e31461069557610166565b8063cc468eaf14610546578063da09bcf714610583578063da4e364f1461059f57610166565b80637af263451461040d5780637b474bea1461043d57806396b5a7551461047a578063a15aea8b146104a3578063c276c71f146104e0578063c8756cda1461050957610166565b8063487ec05411610123578063487ec054146102cd57806349ce7ef1146102f8578063571a26a0146103355780635f93de491461037a5780637706390b146103b95780637a30ddca146103e257610166565b806318111ada1461016b5780633481f0c8146101b05780634008f9c0146101ed57806341e776ac1461022a57806342d55cd514610253578063438c567014610290575b600080fd5b34801561017757600080fd5b50610192600480360381019061018d919061303f565b6106d2565b6040516101a799989796959493929190613170565b60405180910390f35b3480156101bc57600080fd5b506101d760048036038101906101d29190613250565b6109c0565b6040516101e4919061333b565b60405180910390f35b3480156101f957600080fd5b50610214600480360381019061020f919061303f565b610a5d565b604051610221919061335d565b60405180910390f35b34801561023657600080fd5b50610251600480360381019061024c91906134ad565b610a7d565b005b34801561025f57600080fd5b5061027a6004803603810190610275919061358c565b610d7d565b60405161028791906135cc565b60405180910390f35b34801561029c57600080fd5b506102b760048036038101906102b291906135e7565b610ec1565b6040516102c4919061335d565b60405180910390f35b3480156102d957600080fd5b506102e2610ef2565b6040516102ef9190613824565b60405180910390f35b34801561030457600080fd5b5061031f600480360381019061031a919061303f565b6111b2565b60405161032c919061335d565b60405180910390f35b34801561034157600080fd5b5061035c6004803603810190610357919061303f565b611219565b60405161037199989796959493929190613170565b60405180910390f35b34801561038657600080fd5b506103a1600480360381019061039c9190613846565b611449565b6040516103b093929190613886565b60405180910390f35b3480156103c557600080fd5b506103e060048036038101906103db91906138c4565b611538565b005b3480156103ee57600080fd5b506103f76119ce565b6040516104049190613963565b60405180910390f35b610427600480360381019061042291906139aa565b6119f7565b60405161043491906135cc565b60405180910390f35b34801561044957600080fd5b50610464600480360381019061045f919061303f565b611af7565b604051610471919061335d565b60405180910390f35b34801561048657600080fd5b506104a1600480360381019061049c919061303f565b611ba9565b005b3480156104af57600080fd5b506104ca60048036038101906104c59190613250565b611e0e565b6040516104d7919061335d565b60405180910390f35b3480156104ec57600080fd5b506105076004803603810190610502919061303f565b611e5a565b005b34801561051557600080fd5b50610530600480360381019061052b91906135e7565b611ee8565b60405161053d919061335d565b60405180910390f35b34801561055257600080fd5b5061056d6004803603810190610568919061303f565b611f19565b60405161057a91906135cc565b60405180910390f35b61059d600480360381019061059891906139fd565b611fbd565b005b3480156105ab57600080fd5b506105c660048036038101906105c1919061303f565b612621565b6040516105d593929190613a68565b60405180910390f35b3480156105ea57600080fd5b5061060560048036038101906106009190613250565b6127c8565b604051610612919061333b565b60405180910390f35b34801561062757600080fd5b50610642600480360381019061063d919061303f565b612865565b60405161064f919061335d565b60405180910390f35b34801561066457600080fd5b5061067f600480360381019061067a919061303f565b612eed565b60405161068c91906135cc565b60405180910390f35b3480156106a157600080fd5b506106bc60048036038101906106b7919061303f565b612f29565b6040516106c9919061335d565b60405180910390f35b6060600080600080600080606080600060018b815481106106f6576106f5613aa6565b5b90600052602060002090600702016040518061012001604052908160008201805461072090613b04565b80601f016020809104026020016040519081016040528092919081815260200182805461074c90613b04565b80156107995780601f1061076e57610100808354040283529160200191610799565b820191906000526020600020905b81548152906001019060200180831161077c57829003601f168201915b5050505050815260200160018201548152602001600282015481526020016003820160009054906101000a900473ffffffffffffffffffffffffffffffffffffffff1673ffffffffffffffffffffffffffffffffffffffff1673ffffffffffffffffffffffffffffffffffffffff1681526020016003820160149054906101000a900460ff161515151581526020016003820160159054906101000a900460ff161515151581526020016004820154815260200160058201805461085c90613b04565b80601f016020809104026020016040519081016040528092919081815260200182805461088890613b04565b80156108d55780601f106108aa576101008083540402835291602001916108d5565b820191906000526020600020905b8154815290600101906020018083116108b857829003601f168201915b505050505081526020016006820180546108ee90613b04565b80601f016020809104026020016040519081016040528092919081815260200182805461091a90613b04565b80156109675780601f1061093c57610100808354040283529160200191610967565b820191906000526020600020905b81548152906001019060200180831161094a57829003601f168201915b5050505050815250509050806000015181602001518260400151836060015184608001518560a001518660c001518760e00151886101000151995099509950995099509950995099509950509193959799909294969850565b60606000600360008473ffffffffffffffffffffffffffffffffffffffff1673ffffffffffffffffffffffffffffffffffffffff168152602001908152602001600020805480602002602001604051908101604052809291908181526020018280548015610a4d57602002820191906000526020600020905b815481526020019060010190808311610a39575b5050505050905080915050919050565b600060026000838152602001908152602001600020805490509050919050565b60006001805490509050610a8f612f58565b868160000181905250838160200181815250508581604001818152505033816060019073ffffffffffffffffffffffffffffffffffffffff16908173ffffffffffffffffffffffffffffffffffffffff1681525050600181608001901515908115158152505060008160a0019015159081151581525050848160c0018181525050828160e001819052506040518060400160405280600481526020017f6e6f6e650000000000000000000000000000000000000000000000000000000081525081610100018190525060018190806001815401808255809150506001900390600052602060002090600702016000909190919091506000820151816000019081610b999190613cd7565b50602082015181600101556040820151816002015560608201518160030160006101000a81548173ffffffffffffffffffffffffffffffffffffffff021916908373ffffffffffffffffffffffffffffffffffffffff16021790555060808201518160030160146101000a81548160ff02191690831515021790555060a08201518160030160156101000a81548160ff02191690831515021790555060c0820151816004015560e0820151816005019081610c549190613cd7565b50610100820151816006019081610c6b9190613cd7565b505050600360003373ffffffffffffffffffffffffffffffffffffffff1673ffffffffffffffffffffffffffffffffffffffff16815260200190815260200160002082908060018154018082558091505060019003906000526020600020016000909190919091505560008054906101000a900473ffffffffffffffffffffffffffffffffffffffff1673ffffffffffffffffffffffffffffffffffffffff166342d55cd58660016040518363ffffffff1660e01b8152600401610d30929190613da9565b6020604051808303816000875af1158015610d4f573d6000803e3d6000fd5b505050506040513d601f19601f82011682018060405250810190610d739190613de7565b5050505050505050565b60008060009054906101000a900473ffffffffffffffffffffffffffffffffffffffff1673ffffffffffffffffffffffffffffffffffffffff166342d55cd584846040518363ffffffff1660e01b8152600401610ddb929190613da9565b6020604051808303816000875af1158015610dfa573d6000803e3d6000fd5b505050506040513d601f19601f82011682018060405250810190610e1e9190613de7565b5060008054906101000a900473ffffffffffffffffffffffffffffffffffffffff1673ffffffffffffffffffffffffffffffffffffffff1663cc468eaf846040518263ffffffff1660e01b8152600401610e78919061335d565b602060405180830381865afa158015610e95573d6000803e3d6000fd5b505050506040513d601f19601f82011682018060405250810190610eb99190613de7565b905092915050565b60046020528160005260406000208181548110610edd57600080fd5b90600052602060002001600091509150505481565b60606001805480602002602001604051908101604052809291908181526020016000905b828210156111a9578382906000526020600020906007020160405180610120016040529081600082018054610f4a90613b04565b80601f0160208091040260200160405190810160405280929190818152602001828054610f7690613b04565b8015610fc35780601f10610f9857610100808354040283529160200191610fc3565b820191906000526020600020905b815481529060010190602001808311610fa657829003601f168201915b5050505050815260200160018201548152602001600282015481526020016003820160009054906101000a900473ffffffffffffffffffffffffffffffffffffffff1673ffffffffffffffffffffffffffffffffffffffff1673ffffffffffffffffffffffffffffffffffffffff1681526020016003820160149054906101000a900460ff161515151581526020016003820160159054906101000a900460ff161515151581526020016004820154815260200160058201805461108690613b04565b80601f01602080910402602001604051908101604052809291908181526020018280546110b290613b04565b80156110ff5780601f106110d4576101008083540402835291602001916110ff565b820191906000526020600020905b8154815290600101906020018083116110e257829003601f168201915b5050505050815260200160068201805461111890613b04565b80601f016020809104026020016040519081016040528092919081815260200182805461114490613b04565b80156111915780601f1061116657610100808354040283529160200191611191565b820191906000526020600020905b81548152906001019060200180831161117457829003601f168201915b50505050508152505081526020019060010190610f16565b50505050905090565b60008060026000848152602001908152602001600020805490509050600260008481526020019081526020016000206001826111ee9190613e43565b815481106111ff576111fe613aa6565b5b906000526020600020906003020160010154915050919050565b6001818154811061122957600080fd5b906000526020600020906007020160009150905080600001805461124c90613b04565b80601f016020809104026020016040519081016040528092919081815260200182805461127890613b04565b80156112c55780601f1061129a576101008083540402835291602001916112c5565b820191906000526020600020905b8154815290600101906020018083116112a857829003601f168201915b5050505050908060010154908060020154908060030160009054906101000a900473ffffffffffffffffffffffffffffffffffffffff16908060030160149054906101000a900460ff16908060030160159054906101000a900460ff169080600401549080600501805461133890613b04565b80601f016020809104026020016040519081016040528092919081815260200182805461136490613b04565b80156113b15780601f10611386576101008083540402835291602001916113b1565b820191906000526020600020905b81548152906001019060200180831161139457829003601f168201915b5050505050908060060180546113c690613b04565b80601f01602080910402602001604051908101604052809291908181526020018280546113f290613b04565b801561143f5780601f106114145761010080835404028352916020019161143f565b820191906000526020600020905b81548152906001019060200180831161142257829003601f168201915b5050505050905089565b6002602052816000526040600020818154811061146557600080fd5b9060005260206000209060030201600091509150508060000160009054906101000a900473ffffffffffffffffffffffffffffffffffffffff16908060010154908060020180546114b590613b04565b80601f01602080910402602001604051908101604052809291908181526020018280546114e190613b04565b801561152e5780601f106115035761010080835404028352916020019161152e565b820191906000526020600020905b81548152906001019060200180831161151157829003601f168201915b5050505050905083565b60006001838154811061154e5761154d613aa6565b5b90600052602060002090600702016040518061012001604052908160008201805461157890613b04565b80601f01602080910402602001604051908101604052809291908181526020018280546115a490613b04565b80156115f15780601f106115c6576101008083540402835291602001916115f1565b820191906000526020600020905b8154815290600101906020018083116115d457829003601f168201915b5050505050815260200160018201548152602001600282015481526020016003820160009054906101000a900473ffffffffffffffffffffffffffffffffffffffff1673ffffffffffffffffffffffffffffffffffffffff1673ffffffffffffffffffffffffffffffffffffffff1681526020016003820160149054906101000a900460ff161515151581526020016003820160159054906101000a900460ff16151515158152602001600482015481526020016005820180546116b490613b04565b80601f01602080910402602001604051908101604052809291908181526020018280546116e090613b04565b801561172d5780601f106117025761010080835404028352916020019161172d565b820191906000526020600020905b81548152906001019060200180831161171057829003601f168201915b5050505050815260200160068201805461174690613b04565b80601f016020809104026020016040519081016040528092919081815260200182805461177290613b04565b80156117bf5780601f10611794576101008083540402835291602001916117bf565b820191906000526020600020905b8154815290600101906020018083116117a257829003601f168201915b505050505081525050905060008160600151905060008260c0015190506000600460008473ffffffffffffffffffffffffffffffffffffffff1673ffffffffffffffffffffffffffffffffffffffff16815260200190815260200160002080548060200260200160405190810160405280929190818152602001828054801561186757602002820191906000526020600020905b815481526020019060010190808311611853575b50505050509050600081519050816001826118829190613e43565b8151811061189357611892613aa6565b5b6020026020010151600460008673ffffffffffffffffffffffffffffffffffffffff1673ffffffffffffffffffffffffffffffffffffffff16815260200190815260200160002084815481106118ec576118eb613aa6565b5b9060005260206000200181905550600460008573ffffffffffffffffffffffffffffffffffffffff1673ffffffffffffffffffffffffffffffffffffffff16815260200190815260200160002080548061194957611948613e77565b5b60019003818190600052602060002001600090559055600460008773ffffffffffffffffffffffffffffffffffffffff1673ffffffffffffffffffffffffffffffffffffffff16815260200190815260200160002083908060018154018082558091505060019003906000526020600020016000909190919091505550505050505050565b60008060009054906101000a900473ffffffffffffffffffffffffffffffffffffffff16905090565b6000808473ffffffffffffffffffffffffffffffffffffffff166108fc859081150290604051600060405180830381858888f19350505050905080611a71576040517f08c379a0000000000000000000000000000000000000000000000000000000008152600401611a6890613ef2565b60405180910390fd5b600060018481548110611a8757611a86613aa6565b5b906000526020600020906007020160030160146101000a81548160ff0219169083151502179055506001808481548110611ac457611ac3613aa6565b5b906000526020600020906007020160030160156101000a81548160ff021916908315150217905550809150509392505050565b6000600460003373ffffffffffffffffffffffffffffffffffffffff1673ffffffffffffffffffffffffffffffffffffffff168152602001908152602001600020829080600181540180825580915050600190039060005260206000200160009091909190915055600460003373ffffffffffffffffffffffffffffffffffffffff1673ffffffffffffffffffffffffffffffffffffffff168152602001908152602001600020805490509050919050565b803373ffffffffffffffffffffffffffffffffffffffff1660018281548110611bd557611bd4613aa6565b5b906000526020600020906007020160030160009054906101000a900473ffffffffffffffffffffffffffffffffffffffff1673ffffffffffffffffffffffffffffffffffffffff1614611c2757600080fd5b6000600260008481526020019081526020016000208054905090506000811115611e0957600060026000858152602001908152602001600020600183611c6d9190613e43565b81548110611c7e57611c7d613aa6565b5b90600052602060002090600302016040518060600160405290816000820160009054906101000a900473ffffffffffffffffffffffffffffffffffffffff1673ffffffffffffffffffffffffffffffffffffffff1673ffffffffffffffffffffffffffffffffffffffff16815260200160018201548152602001600282018054611d0790613b04565b80601f0160208091040260200160405190810160405280929190818152602001828054611d3390613b04565b8015611d805780601f10611d5557610100808354040283529160200191611d80565b820191906000526020600020905b815481529060010190602001808311611d6357829003601f168201915b5050505050815250509050806000015173ffffffffffffffffffffffffffffffffffffffff166108fc82602001519081150290604051600060405180830381858888f19350505050611e07576040517f08c379a0000000000000000000000000000000000000000000000000000000008152600401611dfe90613f5e565b60405180910390fd5b505b505050565b6000600360008373ffffffffffffffffffffffffffffffffffffffff1673ffffffffffffffffffffffffffffffffffffffff168152602001908152602001600020805490509050919050565b60008054906101000a900473ffffffffffffffffffffffffffffffffffffffff1673ffffffffffffffffffffffffffffffffffffffff1663ef5ed396826040518263ffffffff1660e01b8152600401611eb3919061335d565b600060405180830381600087803b158015611ecd57600080fd5b505af1158015611ee1573d6000803e3d6000fd5b5050505050565b60036020528160005260406000208181548110611f0457600080fd5b90600052602060002001600091509150505481565b60008060009054906101000a900473ffffffffffffffffffffffffffffffffffffffff1673ffffffffffffffffffffffffffffffffffffffff1663cc468eaf836040518263ffffffff1660e01b8152600401611f75919061335d565b602060405180830381865afa158015611f92573d6000803e3d6000fd5b505050506040513d601f19601f82011682018060405250810190611fb69190613de7565b9050919050565b6000349050600060018481548110611fd857611fd7613aa6565b5b90600052602060002090600702016040518061012001604052908160008201805461200290613b04565b80601f016020809104026020016040519081016040528092919081815260200182805461202e90613b04565b801561207b5780601f106120505761010080835404028352916020019161207b565b820191906000526020600020905b81548152906001019060200180831161205e57829003601f168201915b5050505050815260200160018201548152602001600282015481526020016003820160009054906101000a900473ffffffffffffffffffffffffffffffffffffffff1673ffffffffffffffffffffffffffffffffffffffff1673ffffffffffffffffffffffffffffffffffffffff1681526020016003820160149054906101000a900460ff161515151581526020016003820160159054906101000a900460ff161515151581526020016004820154815260200160058201805461213e90613b04565b80601f016020809104026020016040519081016040528092919081815260200182805461216a90613b04565b80156121b75780601f1061218c576101008083540402835291602001916121b7565b820191906000526020600020905b81548152906001019060200180831161219a57829003601f168201915b505050505081526020016006820180546121d090613b04565b80601f01602080910402602001604051908101604052809291908181526020018280546121fc90613b04565b80156122495780601f1061221e57610100808354040283529160200191612249565b820191906000526020600020905b81548152906001019060200180831161222c57829003601f168201915b50505050508152505090503373ffffffffffffffffffffffffffffffffffffffff16816060015173ffffffffffffffffffffffffffffffffffffffff16036122c6576040517f08c379a00000000000000000000000000000000000000000000000000000000081526004016122bd90613fca565b60405180910390fd5b806020015142111561230d576040517f08c379a000000000000000000000000000000000000000000000000000000000815260040161230490614036565b60405180910390fd5b600060026000868152602001908152602001600020805490509050600082604001519050612339612fbe565b8185101561234657600080fd5b600083111561251e576002600088815260200190815260200160002060018461236f9190613e43565b815481106123805761237f613aa6565b5b90600052602060002090600302016040518060600160405290816000820160009054906101000a900473ffffffffffffffffffffffffffffffffffffffff1673ffffffffffffffffffffffffffffffffffffffff1673ffffffffffffffffffffffffffffffffffffffff1681526020016001820154815260200160028201805461240990613b04565b80601f016020809104026020016040519081016040528092919081815260200182805461243590613b04565b80156124825780601f1061245757610100808354040283529160200191612482565b820191906000526020600020905b81548152906001019060200180831161246557829003601f168201915b505050505081525050905080602001519150818510156124a157600080fd5b806000015173ffffffffffffffffffffffffffffffffffffffff166108fc82602001519081150290604051600060405180830381858888f1935050505061251d576040517f08c379a000000000000000000000000000000000000000000000000000000000815260040161251490613f5e565b60405180910390fd5b5b612526612fbe565b33816000019073ffffffffffffffffffffffffffffffffffffffff16908173ffffffffffffffffffffffffffffffffffffffff1681525050858160200181815250508681604001819052506002600089815260200190815260200160002081908060018154018082558091505060019003906000526020600020906003020160009091909190915060008201518160000160006101000a81548173ffffffffffffffffffffffffffffffffffffffff021916908373ffffffffffffffffffffffffffffffffffffffff1602179055506020820151816001015560408201518160020190816126149190613cd7565b5050505050505050505050565b600080606060006002600086815260200190815260200160002080549050905060008111156127a65760006002600087815260200190815260200160002060018361266c9190613e43565b8154811061267d5761267c613aa6565b5b90600052602060002090600302016040518060600160405290816000820160009054906101000a900473ffffffffffffffffffffffffffffffffffffffff1673ffffffffffffffffffffffffffffffffffffffff1673ffffffffffffffffffffffffffffffffffffffff1681526020016001820154815260200160028201805461270690613b04565b80601f016020809104026020016040519081016040528092919081815260200182805461273290613b04565b801561277f5780601f106127545761010080835404028352916020019161277f565b820191906000526020600020905b81548152906001019060200180831161276257829003601f168201915b505050505081525050905080602001518160000151826040015194509450945050506127c1565b60008060405180602001604052806000815250935093509350505b9193909250565b60606000600460008473ffffffffffffffffffffffffffffffffffffffff1673ffffffffffffffffffffffffffffffffffffffff16815260200190815260200160002080548060200260200160405190810160405280929190818152602001828054801561285557602002820191906000526020600020905b815481526020019060010190808311612841575b5050505050905080915050919050565b6000806001838154811061287c5761287b613aa6565b5b9060005260206000209060070201604051806101200160405290816000820180546128a690613b04565b80601f01602080910402602001604051908101604052809291908181526020018280546128d290613b04565b801561291f5780601f106128f45761010080835404028352916020019161291f565b820191906000526020600020905b81548152906001019060200180831161290257829003601f168201915b5050505050815260200160018201548152602001600282015481526020016003820160009054906101000a900473ffffffffffffffffffffffffffffffffffffffff1673ffffffffffffffffffffffffffffffffffffffff1673ffffffffffffffffffffffffffffffffffffffff1681526020016003820160149054906101000a900460ff161515151581526020016003820160159054906101000a900460ff16151515158152602001600482015481526020016005820180546129e290613b04565b80601f0160208091040260200160405190810160405280929190818152602001828054612a0e90613b04565b8015612a5b5780601f10612a3057610100808354040283529160200191612a5b565b820191906000526020600020905b815481529060010190602001808311612a3e57829003601f168201915b50505050508152602001600682018054612a7490613b04565b80601f0160208091040260200160405190810160405280929190818152602001828054612aa090613b04565b8015612aed5780601f10612ac257610100808354040283529160200191612aed565b820191906000526020600020905b815481529060010190602001808311612ad057829003601f168201915b505050505081525050905060008160c00151905060006002600086815260200190815260200160002080549050905060004290508360200151811015612b3257600080fd5b60008203612b4857612b4386611ba9565b612dc5565b600060026000888152602001908152602001600020600184612b6a9190613e43565b81548110612b7b57612b7a613aa6565b5b90600052602060002090600302016040518060600160405290816000820160009054906101000a900473ffffffffffffffffffffffffffffffffffffffff1673ffffffffffffffffffffffffffffffffffffffff1673ffffffffffffffffffffffffffffffffffffffff16815260200160018201548152602001600282018054612c0490613b04565b80601f0160208091040260200160405190810160405280929190818152602001828054612c3090613b04565b8015612c7d5780601f10612c5257610100808354040283529160200191612c7d565b820191906000526020600020905b815481529060010190602001808311612c6057829003601f168201915b5050505050815250509050846060015173ffffffffffffffffffffffffffffffffffffffff166108fc82602001519081150290604051600060405180830381858888f19350505050612d04576040517f08c379a0000000000000000000000000000000000000000000000000000000008152600401612cfb90613ef2565b60405180910390fd5b612d12878260000151611538565b60008054906101000a900473ffffffffffffffffffffffffffffffffffffffff1673ffffffffffffffffffffffffffffffffffffffff16639f4a0ae485876060015184600001518960e0015186604001516040518663ffffffff1660e01b8152600401612d83959493929190614077565b600060405180830381600087803b158015612d9d57600080fd5b505af1158015612db1573d6000803e3d6000fd5b505050508060400151856101000181905250505b600060018781548110612ddb57612dda613aa6565b5b906000526020600020906007020160030160146101000a81548160ff0219169083151502179055506001808781548110612e1857612e17613aa6565b5b906000526020600020906007020160030160156101000a81548160ff02191690831515021790555060008054906101000a900473ffffffffffffffffffffffffffffffffffffffff1673ffffffffffffffffffffffffffffffffffffffff166342d55cd58460006040518363ffffffff1660e01b8152600401612e9c929190613da9565b6020604051808303816000875af1158015612ebb573d6000803e3d6000fd5b505050506040513d601f19601f82011682018060405250810190612edf9190613de7565b506000945050505050919050565b600060018281548110612f0357612f02613aa6565b5b906000526020600020906007020160030160149054906101000a900460ff169050919050565b600060018281548110612f3f57612f3e613aa6565b5b9060005260206000209060070201600401549050919050565b604051806101200160405280606081526020016000815260200160008152602001600073ffffffffffffffffffffffffffffffffffffffff1681526020016000151581526020016000151581526020016000815260200160608152602001606081525090565b6040518060600160405280600073ffffffffffffffffffffffffffffffffffffffff16815260200160008152602001606081525090565b6000604051905090565b600080fd5b600080fd5b6000819050919050565b61301c81613009565b811461302757600080fd5b50565b60008135905061303981613013565b92915050565b60006020828403121561305557613054612fff565b5b60006130638482850161302a565b91505092915050565b600081519050919050565b600082825260208201905092915050565b60005b838110156130a657808201518184015260208101905061308b565b838111156130b5576000848401525b50505050565b6000601f19601f8301169050919050565b60006130d78261306c565b6130e18185613077565b93506130f1818560208601613088565b6130fa816130bb565b840191505092915050565b61310e81613009565b82525050565b600073ffffffffffffffffffffffffffffffffffffffff82169050919050565b600061313f82613114565b9050919050565b61314f81613134565b82525050565b60008115159050919050565b61316a81613155565b82525050565b600061012082019050818103600083015261318b818c6130cc565b905061319a602083018b613105565b6131a7604083018a613105565b6131b46060830189613146565b6131c16080830188613161565b6131ce60a0830187613161565b6131db60c0830186613105565b81810360e08301526131ed81856130cc565b905081810361010083015261320281846130cc565b90509a9950505050505050505050565b600061321d82613114565b9050919050565b61322d81613212565b811461323857600080fd5b50565b60008135905061324a81613224565b92915050565b60006020828403121561326657613265612fff565b5b60006132748482850161323b565b91505092915050565b600081519050919050565b600082825260208201905092915050565b6000819050602082019050919050565b6132b281613009565b82525050565b60006132c483836132a9565b60208301905092915050565b6000602082019050919050565b60006132e88261327d565b6132f28185613288565b93506132fd83613299565b8060005b8381101561332e57815161331588826132b8565b9750613320836132d0565b925050600181019050613301565b5085935050505092915050565b6000602082019050818103600083015261335581846132dd565b905092915050565b60006020820190506133726000830184613105565b92915050565b600080fd5b600080fd5b7f4e487b7100000000000000000000000000000000000000000000000000000000600052604160045260246000fd5b6133ba826130bb565b810181811067ffffffffffffffff821117156133d9576133d8613382565b5b80604052505050565b60006133ec612ff5565b90506133f882826133b1565b919050565b600067ffffffffffffffff82111561341857613417613382565b5b613421826130bb565b9050602081019050919050565b82818337600083830152505050565b600061345061344b846133fd565b6133e2565b90508281526020810184848401111561346c5761346b61337d565b5b61347784828561342e565b509392505050565b600082601f83011261349457613493613378565b5b81356134a484826020860161343d565b91505092915050565b600080600080600060a086880312156134c9576134c8612fff565b5b600086013567ffffffffffffffff8111156134e7576134e6613004565b5b6134f38882890161347f565b95505060206135048882890161302a565b94505060406135158882890161302a565b93505060606135268882890161302a565b925050608086013567ffffffffffffffff81111561354757613546613004565b5b6135538882890161347f565b9150509295509295909350565b61356981613155565b811461357457600080fd5b50565b60008135905061358681613560565b92915050565b600080604083850312156135a3576135a2612fff565b5b60006135b18582860161302a565b92505060206135c285828601613577565b9150509250929050565b60006020820190506135e16000830184613161565b92915050565b600080604083850312156135fe576135fd612fff565b5b600061360c8582860161323b565b925050602061361d8582860161302a565b9150509250929050565b600081519050919050565b600082825260208201905092915050565b6000819050602082019050919050565b600082825260208201905092915050565b600061366f8261306c565b6136798185613653565b9350613689818560208601613088565b613692816130bb565b840191505092915050565b6136a681613134565b82525050565b6136b581613155565b82525050565b60006101208301600083015184820360008601526136d98282613664565b91505060208301516136ee60208601826132a9565b50604083015161370160408601826132a9565b506060830151613714606086018261369d565b50608083015161372760808601826136ac565b5060a083015161373a60a08601826136ac565b5060c083015161374d60c08601826132a9565b5060e083015184820360e08601526137658282613664565b9150506101008301518482036101008601526137818282613664565b9150508091505092915050565b600061379a83836136bb565b905092915050565b6000602082019050919050565b60006137ba82613627565b6137c48185613632565b9350836020820285016137d685613643565b8060005b8581101561381257848403895281516137f3858261378e565b94506137fe836137a2565b925060208a019950506001810190506137da565b50829750879550505050505092915050565b6000602082019050818103600083015261383e81846137af565b905092915050565b6000806040838503121561385d5761385c612fff565b5b600061386b8582860161302a565b925050602061387c8582860161302a565b9150509250929050565b600060608201905061389b6000830186613146565b6138a86020830185613105565b81810360408301526138ba81846130cc565b9050949350505050565b600080604083850312156138db576138da612fff565b5b60006138e98582860161302a565b92505060206138fa8582860161323b565b9150509250929050565b6000819050919050565b600061392961392461391f84613114565b613904565b613114565b9050919050565b600061393b8261390e565b9050919050565b600061394d82613930565b9050919050565b61395d81613942565b82525050565b60006020820190506139786000830184613954565b92915050565b61398781613134565b811461399257600080fd5b50565b6000813590506139a48161397e565b92915050565b6000806000606084860312156139c3576139c2612fff565b5b60006139d186828701613995565b93505060206139e28682870161302a565b92505060406139f38682870161302a565b9150509250925092565b60008060408385031215613a1457613a13612fff565b5b6000613a228582860161302a565b925050602083013567ffffffffffffffff811115613a4357613a42613004565b5b613a4f8582860161347f565b9150509250929050565b613a6281613212565b82525050565b6000606082019050613a7d6000830186613105565b613a8a6020830185613a59565b8181036040830152613a9c81846130cc565b9050949350505050565b7f4e487b7100000000000000000000000000000000000000000000000000000000600052603260045260246000fd5b7f4e487b7100000000000000000000000000000000000000000000000000000000600052602260045260246000fd5b60006002820490506001821680613b1c57607f821691505b602082108103613b2f57613b2e613ad5565b5b50919050565b60008190508160005260206000209050919050565b60006020601f8301049050919050565b600082821b905092915050565b600060088302613b977fffffffffffffffffffffffffffffffffffffffffffffffffffffffffffffffff82613b5a565b613ba18683613b5a565b95508019841693508086168417925050509392505050565b6000613bd4613bcf613bca84613009565b613904565b613009565b9050919050565b6000819050919050565b613bee83613bb9565b613c02613bfa82613bdb565b848454613b67565b825550505050565b600090565b613c17613c0a565b613c22818484613be5565b505050565b5b81811015613c4657613c3b600082613c0f565b600181019050613c28565b5050565b601f821115613c8b57613c5c81613b35565b613c6584613b4a565b81016020851015613c74578190505b613c88613c8085613b4a565b830182613c27565b50505b505050565b600082821c905092915050565b6000613cae60001984600802613c90565b1980831691505092915050565b6000613cc78383613c9d565b9150826002028217905092915050565b613ce08261306c565b67ffffffffffffffff811115613cf957613cf8613382565b5b613d038254613b04565b613d0e828285613c4a565b600060209050601f831160018114613d415760008415613d2f578287015190505b613d398582613cbb565b865550613da1565b601f198416613d4f86613b35565b60005b82811015613d7757848901518255600182019150602085019450602081019050613d52565b86831015613d945784890151613d90601f891682613c9d565b8355505b6001600288020188555050505b505050505050565b6000604082019050613dbe6000830185613105565b613dcb6020830184613161565b9392505050565b600081519050613de181613560565b92915050565b600060208284031215613dfd57613dfc612fff565b5b6000613e0b84828501613dd2565b91505092915050565b7f4e487b7100000000000000000000000000000000000000000000000000000000600052601160045260246000fd5b6000613e4e82613009565b9150613e5983613009565b925082821015613e6c57613e6b613e14565b5b828203905092915050565b7f4e487b7100000000000000000000000000000000000000000000000000000000600052603160045260246000fd5b7f4661696c656420746f2073656e64206569746865722e00000000000000000000600082015250565b6000613edc601683613077565b9150613ee782613ea6565b602082019050919050565b60006020820190508181036000830152613f0b81613ecf565b9050919050565b7f6661696c656420746f20726566756e642e000000000000000000000000000000600082015250565b6000613f48601183613077565b9150613f5382613f12565b602082019050919050565b60006020820190508181036000830152613f7781613f3b565b9050919050565b7f4f776e65722063616e27742070617274696369706174652061756374696f6e2e600082015250565b6000613fb4602083613077565b9150613fbf82613f7e565b602082019050919050565b60006020820190508181036000830152613fe381613fa7565b9050919050565b7f54494d45204f5645522e00000000000000000000000000000000000000000000600082015250565b6000614020600a83613077565b915061402b82613fea565b602082019050919050565b6000602082019050818103600083015261404f81614013565b9050919050565b600061406182613930565b9050919050565b61407181614056565b82525050565b600060a08201905061408c6000830188613105565b6140996020830187614068565b6140a66040830186614068565b81810360608301526140b881856130cc565b905081810360808301526140cc81846130cc565b9050969550505050505056fea2646970667358221220bd9c84459521f78402d2faaaca3f7198652674d78dbfbaf2cc40a9a3d90edd0d64736f6c634300080f0033608060405234801561001057600080fd5b50612734806100206000396000f3fe608060405234801561001057600080fd5b50600436106100885760003560e01c80639f4a0ae41161005b5780639f4a0ae41461014d578063cc468eaf14610169578063e019ed1114610199578063ef5ed396146101c957610088565b806311ac07dd1461008d57806342d55cd5146100bd5780636e722137146100ed578063987a34f81461011d575b600080fd5b6100a760048036038101906100a29190610715565b6101e5565b6040516100b49190610751565b60405180910390f35b6100d760048036038101906100d291906107a4565b61029a565b6040516100e491906107f3565b60405180910390f35b61010760048036038101906101029190610715565b610352565b6040516101149190610969565b60405180910390f35b61013760048036038101906101329190610715565b610401565b6040516101449190610a0a565b60405180910390f35b61016760048036038101906101629190610b98565b610434565b005b610183600480360381019061017e9190610715565b6104de565b60405161019091906107f3565b60405180910390f35b6101b360048036038101906101ae9190610c4b565b610587565b6040516101c09190610cd5565b60405180910390f35b6101e360048036038101906101de9190610715565b610642565b005b600080600083815260200190815260200160002060009054906101000a900473ffffffffffffffffffffffffffffffffffffffff1673ffffffffffffffffffffffffffffffffffffffff1663a192db60336040518263ffffffff1660e01b81526004016102529190610d06565b602060405180830381865afa15801561026f573d6000803e3d6000fd5b505050506040513d601f19601f820116820180604052508101906102939190610d36565b9050919050565b600080600084815260200190815260200160002060009054906101000a900473ffffffffffffffffffffffffffffffffffffffff1673ffffffffffffffffffffffffffffffffffffffff1663acec338a836040518263ffffffff1660e01b815260040161030791906107f3565b6020604051808303816000875af1158015610326573d6000803e3d6000fd5b505050506040513d601f19601f8201168201806040525081019061034a9190610d78565b905092915050565b606060008083815260200190815260200160002060009054906101000a900473ffffffffffffffffffffffffffffffffffffffff1673ffffffffffffffffffffffffffffffffffffffff166343e6643e6040518163ffffffff1660e01b8152600401600060405180830381865afa1580156103d1573d6000803e3d6000fd5b505050506040513d6000823e3d601f19601f820116820180604052508101906103fa9190610efb565b9050919050565b60006020528060005260406000206000915054906101000a900473ffffffffffffffffffffffffffffffffffffffff1681565b60008086815260200190815260200160002060009054906101000a900473ffffffffffffffffffffffffffffffffffffffff1673ffffffffffffffffffffffffffffffffffffffff1663b4825f37858585856040518563ffffffff1660e01b81526004016104a59493929190610f44565b600060405180830381600087803b1580156104bf57600080fd5b505af11580156104d3573d6000803e3d6000fd5b505050505050505050565b600080600083815260200190815260200160002060009054906101000a900473ffffffffffffffffffffffffffffffffffffffff1673ffffffffffffffffffffffffffffffffffffffff16629ebb106040518163ffffffff1660e01b8152600401602060405180830381865afa15801561055c573d6000803e3d6000fd5b505050506040513d601f19601f820116820180604052508101906105809190610d78565b9050919050565b606060008084815260200190815260200160002060009054906101000a900473ffffffffffffffffffffffffffffffffffffffff1673ffffffffffffffffffffffffffffffffffffffff1663f8fe697f836040518263ffffffff1660e01b81526004016105f49190610751565b600060405180830381865afa158015610611573d6000803e3d6000fd5b505050506040513d6000823e3d601f19601f8201168201806040525081019061063a9190610f97565b905092915050565b60405161064e906106be565b604051809103906000f08015801561066a573d6000803e3d6000fd5b5060008083815260200190815260200160002060006101000a81548173ffffffffffffffffffffffffffffffffffffffff021916908373ffffffffffffffffffffffffffffffffffffffff16021790555050565b61171e80610fe183390190565b6000604051905090565b600080fd5b600080fd5b6000819050919050565b6106f2816106df565b81146106fd57600080fd5b50565b60008135905061070f816106e9565b92915050565b60006020828403121561072b5761072a6106d5565b5b600061073984828501610700565b91505092915050565b61074b816106df565b82525050565b60006020820190506107666000830184610742565b92915050565b60008115159050919050565b6107818161076c565b811461078c57600080fd5b50565b60008135905061079e81610778565b92915050565b600080604083850312156107bb576107ba6106d5565b5b60006107c985828601610700565b92505060206107da8582860161078f565b9150509250929050565b6107ed8161076c565b82525050565b600060208201905061080860008301846107e4565b92915050565b600081519050919050565b600082825260208201905092915050565b6000819050602082019050919050565b600081519050919050565b600082825260208201905092915050565b60005b83811015610874578082015181840152602081019050610859565b83811115610883576000848401525b50505050565b6000601f19601f8301169050919050565b60006108a58261083a565b6108af8185610845565b93506108bf818560208601610856565b6108c881610889565b840191505092915050565b60006108df838361089a565b905092915050565b6000602082019050919050565b60006108ff8261080e565b6109098185610819565b93508360208202850161091b8561082a565b8060005b85811015610957578484038952815161093885826108d3565b9450610943836108e7565b925060208a0199505060018101905061091f565b50829750879550505050505092915050565b6000602082019050818103600083015261098381846108f4565b905092915050565b600073ffffffffffffffffffffffffffffffffffffffff82169050919050565b6000819050919050565b60006109d06109cb6109c68461098b565b6109ab565b61098b565b9050919050565b60006109e2826109b5565b9050919050565b60006109f4826109d7565b9050919050565b610a04816109e9565b82525050565b6000602082019050610a1f60008301846109fb565b92915050565b6000610a308261098b565b9050919050565b610a4081610a25565b8114610a4b57600080fd5b50565b600081359050610a5d81610a37565b92915050565b600080fd5b600080fd5b7f4e487b7100000000000000000000000000000000000000000000000000000000600052604160045260246000fd5b610aa582610889565b810181811067ffffffffffffffff82111715610ac457610ac3610a6d565b5b80604052505050565b6000610ad76106cb565b9050610ae38282610a9c565b919050565b600067ffffffffffffffff821115610b0357610b02610a6d565b5b610b0c82610889565b9050602081019050919050565b82818337600083830152505050565b6000610b3b610b3684610ae8565b610acd565b905082815260208101848484011115610b5757610b56610a68565b5b610b62848285610b19565b509392505050565b600082601f830112610b7f57610b7e610a63565b5b8135610b8f848260208601610b28565b91505092915050565b600080600080600060a08688031215610bb457610bb36106d5565b5b6000610bc288828901610700565b9550506020610bd388828901610a4e565b9450506040610be488828901610a4e565b935050606086013567ffffffffffffffff811115610c0557610c046106da565b5b610c1188828901610b6a565b925050608086013567ffffffffffffffff811115610c3257610c316106da565b5b610c3e88828901610b6a565b9150509295509295909350565b60008060408385031215610c6257610c616106d5565b5b6000610c7085828601610700565b9250506020610c8185828601610700565b9150509250929050565b600082825260208201905092915050565b6000610ca78261083a565b610cb18185610c8b565b9350610cc1818560208601610856565b610cca81610889565b840191505092915050565b60006020820190508181036000830152610cef8184610c9c565b905092915050565b610d0081610a25565b82525050565b6000602082019050610d1b6000830184610cf7565b92915050565b600081519050610d30816106e9565b92915050565b600060208284031215610d4c57610d4b6106d5565b5b6000610d5a84828501610d21565b91505092915050565b600081519050610d7281610778565b92915050565b600060208284031215610d8e57610d8d6106d5565b5b6000610d9c84828501610d63565b91505092915050565b600067ffffffffffffffff821115610dc057610dbf610a6d565b5b602082029050602081019050919050565b600080fd5b6000610de9610de484610ae8565b610acd565b905082815260208101848484011115610e0557610e04610a68565b5b610e10848285610856565b509392505050565b600082601f830112610e2d57610e2c610a63565b5b8151610e3d848260208601610dd6565b91505092915050565b6000610e59610e5484610da5565b610acd565b90508083825260208201905060208402830185811115610e7c57610e7b610dd1565b5b835b81811015610ec357805167ffffffffffffffff811115610ea157610ea0610a63565b5b808601610eae8982610e18565b85526020850194505050602081019050610e7e565b5050509392505050565b600082601f830112610ee257610ee1610a63565b5b8151610ef2848260208601610e46565b91505092915050565b600060208284031215610f1157610f106106d5565b5b600082015167ffffffffffffffff811115610f2f57610f2e6106da565b5b610f3b84828501610ecd565b91505092915050565b6000608082019050610f596000830187610cf7565b610f666020830186610cf7565b8181036040830152610f788185610c9c565b90508181036060830152610f8c8184610c9c565b905095945050505050565b600060208284031215610fad57610fac6106d5565b5b600082015167ffffffffffffffff811115610fcb57610fca6106da565b5b610fd784828501610e18565b9150509291505056fe60806040526000600560006101000a81548160ff02191690831515021790555034801561002b57600080fd5b506116e38061003b6000396000f3fe608060405234801561001057600080fd5b50600436106100f45760003560e01c80638214411111610097578063bca34c5011610066578063bca34c50146102bd578063e6609efd146102ed578063ee7ba13a1461031d578063f8fe697f1461034d576100f4565b80638214411114610211578063a192db6014610241578063acec338a14610271578063b4825f37146102a1576100f4565b806343e6643e116100d357806343e6643e1461017757806346cd18ad146101955780635e57de03146101c557806378de034f146101e1576100f4565b80629ebb10146100f957806319a247d5146101175780633a55c65814610147575b600080fd5b61010161037d565b60405161010e9190610d2e565b60405180910390f35b610131600480360381019061012c9190610dbb565b610394565b60405161013e9190610d2e565b60405180910390f35b610161600480360381019061015c9190610dbb565b6103b4565b60405161016e9190610e81565b60405180910390f35b61017f610454565b60405161018c9190610faf565b60405180910390f35b6101af60048036038101906101aa9190611007565b61052d565b6040516101bc9190610e81565b60405180910390f35b6101df60048036038101906101da9190611034565b6105d9565b005b6101fb60048036038101906101f69190611007565b61065a565b6040516102089190611083565b60405180910390f35b61022b60048036038101906102269190610dbb565b61068d565b6040516102389190611083565b60405180910390f35b61025b60048036038101906102569190610dbb565b6106c0565b60405161026891906110ad565b60405180910390f35b61028b600480360381019061028691906110f4565b610709565b6040516102989190610d2e565b60405180910390f35b6102bb60048036038101906102b69190611256565b61073c565b005b6102d760048036038101906102d29190610dbb565b6108ec565b6040516102e49190610faf565b60405180910390f35b61030760048036038101906103029190611034565b610905565b6040516103149190610faf565b60405180910390f35b61033760048036038101906103329190610dbb565b610c4b565b60405161034491906110ad565b60405180910390f35b61036760048036038101906103629190611007565b610c63565b6040516103749190610e81565b60405180910390f35b6000600560009054906101000a900460ff16905090565b60066020528060005260406000206000915054906101000a900460ff1681565b600160205280600052604060002060009150905080546103d390611324565b80601f01602080910402602001604051908101604052809291908181526020018280546103ff90611324565b801561044c5780601f106104215761010080835404028352916020019161044c565b820191906000526020600020905b81548152906001019060200180831161042f57829003601f168201915b505050505081565b60606004805480602002602001604051908101604052809291908181526020016000905b8282101561052457838290600052602060002001805461049790611324565b80601f01602080910402602001604051908101604052809291908181526020018280546104c390611324565b80156105105780601f106104e557610100808354040283529160200191610510565b820191906000526020600020905b8154815290600101906020018083116104f357829003601f168201915b505050505081526020019060010190610478565b50505050905090565b6004818154811061053d57600080fd5b90600052602060002001600091509050805461055890611324565b80601f016020809104026020016040519081016040528092919081815260200182805461058490611324565b80156105d15780601f106105a6576101008083540402835291602001916105d1565b820191906000526020600020905b8154815290600101906020018083116105b457829003601f168201915b505050505081565b816000808373ffffffffffffffffffffffffffffffffffffffff1673ffffffffffffffffffffffffffffffffffffffff16815260200190815260200160002060006101000a81548173ffffffffffffffffffffffffffffffffffffffff021916908373ffffffffffffffffffffffffffffffffffffffff1602179055505050565b60036020528060005260406000206000915054906101000a900473ffffffffffffffffffffffffffffffffffffffff1681565b60006020528060005260406000206000915054906101000a900473ffffffffffffffffffffffffffffffffffffffff1681565b6000600260008373ffffffffffffffffffffffffffffffffffffffff1673ffffffffffffffffffffffffffffffffffffffff168152602001908152602001600020549050919050565b600081600560006101000a81548160ff021916908315150217905550600560009054906101000a900460ff169050919050565b8360036000600480549050815260200190815260200160002060006101000a81548173ffffffffffffffffffffffffffffffffffffffff021916908373ffffffffffffffffffffffffffffffffffffffff160217905550600480549050600260008673ffffffffffffffffffffffffffffffffffffffff1673ffffffffffffffffffffffffffffffffffffffff168152602001908152602001600020819055506004829080600181540180825580915050600190039060005260206000200160009091909190915090816108109190611501565b508260036000600480549050815260200190815260200160002060006101000a81548173ffffffffffffffffffffffffffffffffffffffff021916908373ffffffffffffffffffffffffffffffffffffffff160217905550600480549050600260008573ffffffffffffffffffffffffffffffffffffffff1673ffffffffffffffffffffffffffffffffffffffff168152602001908152602001600020819055506004819080600181540180825580915050600190039060005260206000200160009091909190915090816108e59190611501565b5050505050565b606060006108fa3384610905565b905080915050919050565b60608173ffffffffffffffffffffffffffffffffffffffff168373ffffffffffffffffffffffffffffffffffffffff160361093f57600080fd5b600080600480549050905060008167ffffffffffffffff8111156109665761096561112b565b5b60405190808252806020026020018201604052801561099957816020015b60608152602001906001900390816109845790505b509050600160008773ffffffffffffffffffffffffffffffffffffffff1673ffffffffffffffffffffffffffffffffffffffff16815260200190815260200160002080546109e690611324565b80601f0160208091040260200160405190810160405280929190818152602001828054610a1290611324565b8015610a5f5780601f10610a3457610100808354040283529160200191610a5f565b820191906000526020600020905b815481529060010190602001808311610a4257829003601f168201915b5050505050818480610a7090611602565b955081518110610a8357610a8261164a565b5b60200260200101819052505b600115610c22576000808773ffffffffffffffffffffffffffffffffffffffff1673ffffffffffffffffffffffffffffffffffffffff16815260200190815260200160002060009054906101000a900473ffffffffffffffffffffffffffffffffffffffff1695508473ffffffffffffffffffffffffffffffffffffffff168673ffffffffffffffffffffffffffffffffffffffff160315610c2257600160008773ffffffffffffffffffffffffffffffffffffffff1673ffffffffffffffffffffffffffffffffffffffff1681526020019081526020016000208054610b7590611324565b80601f0160208091040260200160405190810160405280929190818152602001828054610ba190611324565b8015610bee5780601f10610bc357610100808354040283529160200191610bee565b820191906000526020600020905b815481529060010190602001808311610bd157829003601f168201915b5050505050818480610bff90611602565b955081518110610c1257610c1161164a565b5b6020026020010181905250610a8f565b81831015610c3f578282610c369190611679565b91508181510381525b80935050505092915050565b60026020528060005260406000206000915090505481565b606060048281548110610c7957610c7861164a565b5b906000526020600020018054610c8e90611324565b80601f0160208091040260200160405190810160405280929190818152602001828054610cba90611324565b8015610d075780601f10610cdc57610100808354040283529160200191610d07565b820191906000526020600020905b815481529060010190602001808311610cea57829003601f168201915b50505050509050919050565b60008115159050919050565b610d2881610d13565b82525050565b6000602082019050610d436000830184610d1f565b92915050565b6000604051905090565b600080fd5b600080fd5b600073ffffffffffffffffffffffffffffffffffffffff82169050919050565b6000610d8882610d5d565b9050919050565b610d9881610d7d565b8114610da357600080fd5b50565b600081359050610db581610d8f565b92915050565b600060208284031215610dd157610dd0610d53565b5b6000610ddf84828501610da6565b91505092915050565b600081519050919050565b600082825260208201905092915050565b60005b83811015610e22578082015181840152602081019050610e07565b83811115610e31576000848401525b50505050565b6000601f19601f8301169050919050565b6000610e5382610de8565b610e5d8185610df3565b9350610e6d818560208601610e04565b610e7681610e37565b840191505092915050565b60006020820190508181036000830152610e9b8184610e48565b905092915050565b600081519050919050565b600082825260208201905092915050565b6000819050602082019050919050565b600082825260208201905092915050565b6000610eeb82610de8565b610ef58185610ecf565b9350610f05818560208601610e04565b610f0e81610e37565b840191505092915050565b6000610f258383610ee0565b905092915050565b6000602082019050919050565b6000610f4582610ea3565b610f4f8185610eae565b935083602082028501610f6185610ebf565b8060005b85811015610f9d5784840389528151610f7e8582610f19565b9450610f8983610f2d565b925060208a01995050600181019050610f65565b50829750879550505050505092915050565b60006020820190508181036000830152610fc98184610f3a565b905092915050565b6000819050919050565b610fe481610fd1565b8114610fef57600080fd5b50565b60008135905061100181610fdb565b92915050565b60006020828403121561101d5761101c610d53565b5b600061102b84828501610ff2565b91505092915050565b6000806040838503121561104b5761104a610d53565b5b600061105985828601610da6565b925050602061106a85828601610da6565b9150509250929050565b61107d81610d7d565b82525050565b60006020820190506110986000830184611074565b92915050565b6110a781610fd1565b82525050565b60006020820190506110c2600083018461109e565b92915050565b6110d181610d13565b81146110dc57600080fd5b50565b6000813590506110ee816110c8565b92915050565b60006020828403121561110a57611109610d53565b5b6000611118848285016110df565b91505092915050565b600080fd5b600080fd5b7f4e487b7100000000000000000000000000000000000000000000000000000000600052604160045260246000fd5b61116382610e37565b810181811067ffffffffffffffff821117156111825761118161112b565b5b80604052505050565b6000611195610d49565b90506111a1828261115a565b919050565b600067ffffffffffffffff8211156111c1576111c061112b565b5b6111ca82610e37565b9050602081019050919050565b82818337600083830152505050565b60006111f96111f4846111a6565b61118b565b90508281526020810184848401111561121557611214611126565b5b6112208482856111d7565b509392505050565b600082601f83011261123d5761123c611121565b5b813561124d8482602086016111e6565b91505092915050565b600080600080608085870312156112705761126f610d53565b5b600061127e87828801610da6565b945050602061128f87828801610da6565b935050604085013567ffffffffffffffff8111156112b0576112af610d58565b5b6112bc87828801611228565b925050606085013567ffffffffffffffff8111156112dd576112dc610d58565b5b6112e987828801611228565b91505092959194509250565b7f4e487b7100000000000000000000000000000000000000000000000000000000600052602260045260246000fd5b6000600282049050600182168061133c57607f821691505b60208210810361134f5761134e6112f5565b5b50919050565b60008190508160005260206000209050919050565b60006020601f8301049050919050565b600082821b905092915050565b6000600883026113b77fffffffffffffffffffffffffffffffffffffffffffffffffffffffffffffffff8261137a565b6113c1868361137a565b95508019841693508086168417925050509392505050565b6000819050919050565b60006113fe6113f96113f484610fd1565b6113d9565b610fd1565b9050919050565b6000819050919050565b611418836113e3565b61142c61142482611405565b848454611387565b825550505050565b600090565b611441611434565b61144c81848461140f565b505050565b5b8181101561147057611465600082611439565b600181019050611452565b5050565b601f8211156114b55761148681611355565b61148f8461136a565b8101602085101561149e578190505b6114b26114aa8561136a565b830182611451565b50505b505050565b600082821c905092915050565b60006114d8600019846008026114ba565b1980831691505092915050565b60006114f183836114c7565b9150826002028217905092915050565b61150a82610de8565b67ffffffffffffffff8111156115235761152261112b565b5b61152d8254611324565b611538828285611474565b600060209050601f83116001811461156b5760008415611559578287015190505b61156385826114e5565b8655506115cb565b601f19841661157986611355565b60005b828110156115a15784890151825560018201915060208501945060208101905061157c565b868310156115be57848901516115ba601f8916826114c7565b8355505b6001600288020188555050505b505050505050565b7f4e487b7100000000000000000000000000000000000000000000000000000000600052601160045260246000fd5b600061160d82610fd1565b91507fffffffffffffffffffffffffffffffffffffffffffffffffffffffffffffffff820361163f5761163e6115d3565b5b600182019050919050565b7f4e487b7100000000000000000000000000000000000000000000000000000000600052603260045260246000fd5b600061168482610fd1565b915061168f83610fd1565b9250828210156116a2576116a16115d3565b5b82820390509291505056fea26469706673582212200c398a41975ae2590a1d447f2b7b9a0aa0d802d342f583a673309cb6b214469064736f6c634300080f0033a264697066735822122042de4a7ad967235133f292ad892b0d89919552b33a494e804e970e524cad719f64736f6c634300080f0033",
  "immutableReferences": {},
  "source": "// SPDX-License-Identifier: MIT\r\n\r\npragma solidity >=0.5.16;\r\n\r\nimport \"./Supply.sol\";\r\n\r\ncontract AuctionContract {\r\n\r\n    rwSupplyData rwData = new rwSupplyData();\r\n\r\n    Auction[] public auctions;\r\n\r\n    mapping(uint256 => Bid[]) public auctionBids;\r\n    mapping(address => uint[]) public auctionOwner;\r\n            \r\n    mapping(address => uint256[]) public ownedBy;\r\n\r\n    struct Bid{\r\n        address payable from;\r\n        uint256 amount;\r\n        string shippingTo;\r\n    }\r\n\r\n    struct Auction{\r\n        string name;\r\n        uint blockDeadline;\r\n        uint256 startPrice;\r\n        address payable owner;\r\n        bool active;\r\n        bool finalized;\r\n        uint256 itemId;\r\n        string shippingFrom; \r\n        string shippingTo;  \r\n    }\r\n\r\n    modifier isOwnerAuc(uint _auctionId) {\r\n        require(auctions[_auctionId].owner == msg.sender);\r\n        _;\r\n    }\r\n\r\n    function getAllOfAuctions() public view returns(Auction[] memory){\r\n        return auctions;\r\n    }\r\n\r\n    function getItemByAuction(uint256 _auctionId) public view returns(uint256){\r\n        return auctions[_auctionId].itemId;\r\n    }\r\n\r\n    function getBidsCount(uint _auctionId) public view returns(uint){\r\n        return auctionBids[_auctionId].length;\r\n    }\r\n\r\n    function getAuctionsOfOwner(address _owner) public view returns(uint[] memory){\r\n        uint[] memory ownedAuctions = auctionOwner[_owner];\r\n        return ownedAuctions;\r\n    }\r\n\r\n    \r\n    function getCurrentBid(uint _auctionId) public view returns(uint256, address, string memory) {\r\n        uint bidsLength =auctionBids[_auctionId].length;\r\n\r\n        if(bidsLength > 0){\r\n            Bid memory lastBid = auctionBids[_auctionId][bidsLength - 1];\r\n            return (lastBid.amount, lastBid.from, lastBid.shippingTo);\r\n        }\r\n\r\n        return (uint256(0), address(0), string(\"\"));\r\n    }\r\n\r\n    function getAuctionOwnerLength(address _owner) public view returns(uint) {\r\n        return auctionOwner[_owner].length;\r\n    }\r\n\r\n   \r\n    function getOwnedBy(address _user) public view returns(uint256[] memory){\r\n        uint256[] memory _ownedBy = ownedBy[_user];\r\n        return _ownedBy;\r\n    }\r\n\r\n    function pushOwnedBy(uint256 _itemId) public returns(uint256){\r\n        ownedBy[msg.sender].push(_itemId);\r\n        return ownedBy[msg.sender].length;\r\n    }\r\n\r\n    function getAuctionById(uint _auctionId) public view returns(\r\n        string memory name,\r\n        uint256 blockDeadline,\r\n        uint256 startPrice,\r\n        address payable owner,\r\n        bool active,\r\n        bool finalized,\r\n        uint256 itemId,\r\n        string memory shippingFrom,\r\n        string memory shippingTo\r\n    ){\r\n        Auction memory auc = auctions[_auctionId];\r\n        return (\r\n            auc.name,\r\n            auc.blockDeadline,\r\n            auc.startPrice,\r\n            auc.owner,\r\n            auc.active,\r\n            auc.finalized,\r\n            auc.itemId,\r\n            auc.shippingFrom,\r\n            auc.shippingTo\r\n        );\r\n    }\r\n\r\n    function createAuction(string memory _auctionTitle, uint256 _startPrice, uint256 _itemId, \r\n        uint _blockDeadline, string memory _shippingFrom) public {\r\n        \r\n        uint256 auctionId = auctions.length;\r\n\r\n        Auction memory newAuction;\r\n\r\n        newAuction.name = _auctionTitle;\r\n        newAuction.blockDeadline = _blockDeadline;\r\n        newAuction.startPrice = _startPrice;\r\n        newAuction.owner = payable(msg.sender);\r\n        newAuction.active = true;\r\n        newAuction.finalized = false;\r\n        newAuction.itemId = _itemId;\r\n        newAuction.shippingFrom = _shippingFrom;\r\n        newAuction.shippingTo = \"none\";\r\n\r\n        auctions.push(newAuction);\r\n        auctionOwner[msg.sender].push(auctionId);\r\n        rwData.setActiveByItemId(_itemId, true);\r\n\r\n    }\r\n\r\n    function cancelAuction(uint _auctionId) public isOwnerAuc(_auctionId){\r\n        uint bidsLength = auctionBids[_auctionId].length;\r\n\r\n        if(bidsLength > 0){\r\n            Bid memory lastBid = auctionBids[_auctionId][bidsLength -1];\r\n            require(lastBid.from.send(lastBid.amount), \"failed to refund.\");\r\n\r\n        }\r\n    }\r\n\r\n    function finalizeAuction(uint256 _auctionId) public returns(uint256){\r\n        Auction memory myAuction = auctions[_auctionId];\r\n        uint256 _itemId = myAuction.itemId;\r\n        uint256 bidsLength = auctionBids[_auctionId].length;\r\n        uint256 timeStamp = block.timestamp;\r\n        \r\n\r\n        if(timeStamp < myAuction.blockDeadline){\r\n            revert();\r\n        }\r\n        \r\n        if(bidsLength == 0) {\r\n            cancelAuction(_auctionId);\r\n        }else{\r\n\r\n            Bid memory lastBid = auctionBids[_auctionId][bidsLength - 1];\r\n            \r\n\r\n            require(myAuction.owner.send(lastBid.amount), \"Failed to send either.\" );\r\n            handover(_auctionId, lastBid.from);\r\n            rwData.setAddrToShippingByItemId(_itemId, myAuction.owner, lastBid.from, myAuction.shippingFrom, lastBid.shippingTo);\r\n            myAuction.shippingTo = lastBid.shippingTo;\r\n            \r\n        }\r\n\r\n        auctions[_auctionId].active = false;\r\n        auctions[_auctionId].finalized = true;\r\n\r\n        rwData.setActiveByItemId(_itemId, false);\r\n        \r\n        return 0;\r\n    }\r\n\r\n\r\n    function handover(uint256 _auctionId, address _to) public {\r\n        Auction memory myAuction = auctions[_auctionId];\r\n        address _owner = myAuction.owner; \r\n        uint256 _itemId = myAuction.itemId;\r\n        uint256[] memory ownedByFrom = ownedBy[_owner];\r\n        uint256 len = ownedByFrom.length;\r\n\r\n        ownedBy[_owner][_itemId] = ownedByFrom[len-1];\r\n        ownedBy[_owner].pop();\r\n\r\n        ownedBy[_to].push(_itemId);\r\n    }\r\n\r\n    function sendNow(address payable _from, uint256 _amount, uint256 _auctionId) public payable returns(bool){\r\n        bool sent = _from.send(_amount); \r\n        require(sent,\"Failed to send either.\");\r\n        \r\n        auctions[_auctionId].active = false;\r\n        auctions[_auctionId].finalized = true;\r\n\r\n        return sent;\r\n    }\r\n\r\n\r\n    function bidOnAuction(uint _auctionId, string memory _to) external payable {\r\n        uint256 ethAmountSent = msg.value;\r\n\r\n        Auction memory myAuction = auctions[_auctionId];\r\n        require(myAuction.owner != msg.sender, \"Owner can't participate auction.\");\r\n        require(block.timestamp <= myAuction.blockDeadline, \"TIME OVER.\");\r\n        \r\n        uint256 bidsLength = auctionBids[_auctionId].length;\r\n        uint256 tempAmount = myAuction.startPrice;\r\n        Bid memory lastBid;\r\n        \r\n        \r\n        if(ethAmountSent < tempAmount){\r\n            revert();\r\n        }\r\n\r\n        if(bidsLength > 0){\r\n            lastBid = auctionBids[_auctionId][bidsLength -1];\r\n            tempAmount = lastBid.amount;\r\n\r\n            if(ethAmountSent < tempAmount){\r\n                revert();\r\n            }\r\n\r\n            require(lastBid.from.send(lastBid.amount), \"failed to refund.\");\r\n        }\r\n        \r\n        Bid memory newBid;\r\n        newBid.from = payable(msg.sender);\r\n        newBid.amount = ethAmountSent;\r\n        newBid.shippingTo = _to;\r\n        auctionBids[_auctionId].push(newBid);\r\n    }\r\n\r\n    function getActiveByItemId(uint256 _itemId) public view returns(bool){\r\n        return rwData.getActiveByItemId(_itemId);\r\n    }\r\n\r\n    function createSupplyData(uint256 _itemId) public{\r\n        rwData.constructorSupplyData(_itemId);\r\n    }\r\n\r\n    function setActiveByItemId(uint256 _itemId, bool _active) public returns(bool){\r\n        rwData.setActiveByItemId(_itemId, _active);\r\n        return rwData.getActiveByItemId(_itemId);\r\n    }\r\n\r\n    function getActiveByAuctionId(uint256 _auctionId) public view returns(bool){\r\n        return auctions[_auctionId].active;\r\n    }\r\n\r\n    //_08_01\r\n\r\n    function getRwSupplyData() public view returns(rwSupplyData){\r\n        return rwData;\r\n    }\r\n\r\n    function getWinnigBid(uint256 auctionId) public view returns(uint256){\r\n        uint256 len = auctionBids[auctionId].length;\r\n        return auctionBids[auctionId][len-1].amount;\r\n    } //    \r\n\r\n    //function getPathLenByItemIdAuc(uint256 _itemId) public view returns(uint256){}\r\n\r\n    //  method, rwData = getRwSupplyData productTracing   \r\n\r\n}\r\n\r\ncontract rwSupplyData {\r\n\r\n    mapping(uint256 => SupplyContract) public supplyData;\r\n\r\n    function constructorSupplyData(uint256 _itemId) public{\r\n        supplyData[_itemId] = new SupplyContract();\r\n    }\r\n\r\n    function getPathMaxByItemId(uint256 _itemId) public view returns(string[] memory){\r\n        return supplyData[_itemId].getPathMax();\r\n    }\r\n\r\n    function getPathLenByItemId(uint256 _itemId) public view returns(uint256){\r\n        return supplyData[_itemId].getPathLenByAddr(msg.sender);\r\n    }\r\n\r\n    function getShippingAddrByItemId(uint256 _itemId, uint256 _idx) public view returns(string memory){\r\n        return supplyData[_itemId].getShippingAddrByIdx(_idx);\r\n    }\r\n\r\n    function setAddrToShippingByItemId(uint256 _itemId, address _from, address _to, \r\n        string memory _fromStr, string memory _toStr) public{\r\n        supplyData[_itemId].setAddrToShippingAddr(_from, _to, _fromStr, _toStr);\r\n    }\r\n    \r\n    function getActiveByItemId(uint256 _itemId) public view returns(bool){\r\n        return supplyData[_itemId].getActive();\r\n    }\r\n\r\n    function setActiveByItemId(uint256 _itemId, bool _active) public returns(bool){\r\n        return supplyData[_itemId].setActive(_active);\r\n    }\r\n\r\n}",
  "sourcePath": "/Users/c_rbi/ethNet/smart_contract/contracts/Auction.sol",
  "compiler": {
    "name": "solc",
    "version": "0.8.15+commit.e14f2714.Emscripten.clang"
  },
  "schemaVersion": "3.4.8",
  "updatedAt": "2022-08-02T22:45:05.128Z",
  "networkType": "ethereum",
  "devdoc": {
    "kind": "dev",
    "methods": {},
    "version": 1
  },
  "userdoc": {
    "kind": "user",
    "methods": {},
    "version": 1
  }
}