{
  "contractName": "ItemContract",
  "abi": [
    {
      "inputs": [
        {
          "internalType": "address",
          "name": "_ownerDataContract",
          "type": "address"
        },
        {
          "internalType": "address",
          "name": "_supplyManagingContract",
          "type": "address"
        }
      ],
      "stateMutability": "nonpayable",
      "type": "constructor"
    },
    {
      "anonymous": false,
      "inputs": [
        {
          "indexed": false,
          "internalType": "string",
          "name": "_itemTitle",
          "type": "string"
        },
        {
          "indexed": false,
          "internalType": "uint256",
          "name": "_weight",
          "type": "uint256"
        },
        {
          "indexed": false,
          "internalType": "uint256",
          "name": "_stock",
          "type": "uint256"
        },
        {
          "indexed": false,
          "internalType": "string",
          "name": "_origin",
          "type": "string"
        }
      ],
      "name": "CreateItemEvent",
      "type": "event"
    },
    {
      "anonymous": false,
      "inputs": [
        {
          "indexed": false,
          "internalType": "address",
          "name": "_user",
          "type": "address"
        },
        {
          "indexed": false,
          "internalType": "uint256",
          "name": "_itmeId",
          "type": "uint256"
        }
      ],
      "name": "CreateSuccess",
      "type": "event"
    },
    {
      "anonymous": false,
      "inputs": [
        {
          "indexed": false,
          "internalType": "bool",
          "name": "flag",
          "type": "bool"
        }
      ],
      "name": "SetOwnerToProducerEvent",
      "type": "event"
    },
    {
      "inputs": [
        {
          "internalType": "uint256",
          "name": "",
          "type": "uint256"
        }
      ],
      "name": "items",
      "outputs": [
        {
          "internalType": "string",
          "name": "name",
          "type": "string"
        },
        {
          "internalType": "uint256",
          "name": "weight",
          "type": "uint256"
        },
        {
          "internalType": "uint256",
          "name": "stock",
          "type": "uint256"
        },
        {
          "internalType": "address payable",
          "name": "producer",
          "type": "address"
        },
        {
          "internalType": "string",
          "name": "origin",
          "type": "string"
        },
        {
          "internalType": "uint256",
          "name": "itemId",
          "type": "uint256"
        },
        {
          "internalType": "bool",
          "name": "active",
          "type": "bool"
        }
      ],
      "stateMutability": "view",
      "type": "function",
      "constant": true
    },
    {
      "inputs": [
        {
          "internalType": "address",
          "name": "",
          "type": "address"
        }
      ],
      "name": "producerCheck",
      "outputs": [
        {
          "internalType": "bool",
          "name": "",
          "type": "bool"
        }
      ],
      "stateMutability": "view",
      "type": "function",
      "constant": true
    },
    {
      "inputs": [],
      "name": "getOwnerDataContract",
      "outputs": [
        {
          "internalType": "contract OwnerDataContract",
          "name": "odc",
          "type": "address"
        }
      ],
      "stateMutability": "view",
      "type": "function",
      "constant": true
    },
    {
      "inputs": [
        {
          "internalType": "string",
          "name": "_itemTitle",
          "type": "string"
        },
        {
          "internalType": "uint256",
          "name": "_weight",
          "type": "uint256"
        },
        {
          "internalType": "uint256",
          "name": "_stock",
          "type": "uint256"
        },
        {
          "internalType": "string",
          "name": "_origin",
          "type": "string"
        },
        {
          "internalType": "string[]",
          "name": "_imgCID",
          "type": "string[]"
        }
      ],
      "name": "createItem",
      "outputs": [],
      "stateMutability": "nonpayable",
      "type": "function"
    },
    {
      "inputs": [],
      "name": "getNewItemId",
      "outputs": [
        {
          "internalType": "uint256",
          "name": "",
          "type": "uint256"
        }
      ],
      "stateMutability": "view",
      "type": "function",
      "constant": true
    },
    {
      "inputs": [
        {
          "internalType": "uint256",
          "name": "_itemId",
          "type": "uint256"
        }
      ],
      "name": "getStockById",
      "outputs": [
        {
          "internalType": "uint256",
          "name": "",
          "type": "uint256"
        }
      ],
      "stateMutability": "view",
      "type": "function",
      "constant": true
    },
    {
      "inputs": [],
      "name": "getAllOfItems",
      "outputs": [
        {
          "components": [
            {
              "internalType": "string",
              "name": "name",
              "type": "string"
            },
            {
              "internalType": "uint256",
              "name": "weight",
              "type": "uint256"
            },
            {
              "internalType": "uint256",
              "name": "stock",
              "type": "uint256"
            },
            {
              "internalType": "address payable",
              "name": "producer",
              "type": "address"
            },
            {
              "internalType": "string",
              "name": "origin",
              "type": "string"
            },
            {
              "internalType": "uint256",
              "name": "itemId",
              "type": "uint256"
            },
            {
              "internalType": "string[]",
              "name": "imgCIDs",
              "type": "string[]"
            },
            {
              "internalType": "bool",
              "name": "active",
              "type": "bool"
            }
          ],
          "internalType": "struct ItemContract.Item[]",
          "name": "",
          "type": "tuple[]"
        }
      ],
      "stateMutability": "view",
      "type": "function",
      "constant": true
    },
    {
      "inputs": [
        {
          "internalType": "address",
          "name": "_user",
          "type": "address"
        }
      ],
      "name": "getProducerCheck",
      "outputs": [
        {
          "internalType": "bool",
          "name": "",
          "type": "bool"
        }
      ],
      "stateMutability": "view",
      "type": "function",
      "constant": true
    },
    {
      "inputs": [
        {
          "internalType": "uint256",
          "name": "_itemId",
          "type": "uint256"
        }
      ],
      "name": "getImageCIDsById",
      "outputs": [
        {
          "internalType": "string[]",
          "name": "",
          "type": "string[]"
        }
      ],
      "stateMutability": "view",
      "type": "function",
      "constant": true
    },
    {
      "inputs": [
        {
          "internalType": "uint256",
          "name": "_itemId",
          "type": "uint256"
        }
      ],
      "name": "getOriginById",
      "outputs": [
        {
          "internalType": "string",
          "name": "",
          "type": "string"
        }
      ],
      "stateMutability": "view",
      "type": "function",
      "constant": true
    },
    {
      "inputs": [
        {
          "internalType": "uint256",
          "name": "_itemId",
          "type": "uint256"
        }
      ],
      "name": "getProducerById",
      "outputs": [
        {
          "internalType": "address",
          "name": "_proudcer",
          "type": "address"
        }
      ],
      "stateMutability": "view",
      "type": "function",
      "constant": true
    },
    {
      "inputs": [
        {
          "internalType": "uint256",
          "name": "_itemId",
          "type": "uint256"
        }
      ],
      "name": "getItemNameById",
      "outputs": [
        {
          "internalType": "string",
          "name": "",
          "type": "string"
        }
      ],
      "stateMutability": "view",
      "type": "function",
      "constant": true
    },
    {
      "inputs": [
        {
          "internalType": "uint256",
          "name": "_itemId",
          "type": "uint256"
        }
      ],
      "name": "getBidOrNotById",
      "outputs": [
        {
          "internalType": "bool",
          "name": "",
          "type": "bool"
        }
      ],
      "stateMutability": "view",
      "type": "function",
      "constant": true
    },
    {
      "inputs": [
        {
          "internalType": "uint256",
          "name": "_itemId",
          "type": "uint256"
        }
      ],
      "name": "viewItemById",
      "outputs": [
        {
          "internalType": "string",
          "name": "name",
          "type": "string"
        },
        {
          "internalType": "uint256",
          "name": "weight",
          "type": "uint256"
        },
        {
          "internalType": "uint256",
          "name": "stock",
          "type": "uint256"
        },
        {
          "internalType": "address payable",
          "name": "producer",
          "type": "address"
        },
        {
          "internalType": "string",
          "name": "origin",
          "type": "string"
        },
        {
          "internalType": "uint256",
          "name": "itemId",
          "type": "uint256"
        },
        {
          "internalType": "string[]",
          "name": "imgCIDs",
          "type": "string[]"
        }
      ],
      "stateMutability": "view",
      "type": "function",
      "constant": true
    },
    {
      "inputs": [
        {
          "internalType": "uint256",
          "name": "_itemId",
          "type": "uint256"
        }
      ],
      "name": "getItemById",
      "outputs": [
        {
          "components": [
            {
              "internalType": "string",
              "name": "name",
              "type": "string"
            },
            {
              "internalType": "uint256",
              "name": "weight",
              "type": "uint256"
            },
            {
              "internalType": "uint256",
              "name": "stock",
              "type": "uint256"
            },
            {
              "internalType": "address payable",
              "name": "producer",
              "type": "address"
            },
            {
              "internalType": "string",
              "name": "origin",
              "type": "string"
            },
            {
              "internalType": "uint256",
              "name": "itemId",
              "type": "uint256"
            },
            {
              "internalType": "string[]",
              "name": "imgCIDs",
              "type": "string[]"
            },
            {
              "internalType": "bool",
              "name": "active",
              "type": "bool"
            }
          ],
          "internalType": "struct ItemContract.Item",
          "name": "",
          "type": "tuple"
        }
      ],
      "stateMutability": "view",
      "type": "function",
      "constant": true
    },
    {
      "inputs": [],
      "name": "isProducer",
      "outputs": [
        {
          "internalType": "bool",
          "name": "",
          "type": "bool"
        }
      ],
      "stateMutability": "view",
      "type": "function",
      "constant": true
    },
    {
      "inputs": [
        {
          "internalType": "bool",
          "name": "flag",
          "type": "bool"
        }
      ],
      "name": "setUserToProducer",
      "outputs": [
        {
          "internalType": "bool",
          "name": "",
          "type": "bool"
        }
      ],
      "stateMutability": "nonpayable",
      "type": "function"
    }
  ],
  "bytecode": "0x60806040523480156200001157600080fd5b50604051620027d4380380620027d483398181016040528101906200003791906200012a565b816000806101000a81548173ffffffffffffffffffffffffffffffffffffffff021916908373ffffffffffffffffffffffffffffffffffffffff16021790555080600160006101000a81548173ffffffffffffffffffffffffffffffffffffffff021916908373ffffffffffffffffffffffffffffffffffffffff160217905550505062000171565b600080fd5b600073ffffffffffffffffffffffffffffffffffffffff82169050919050565b6000620000f282620000c5565b9050919050565b6200010481620000e5565b81146200011057600080fd5b50565b6000815190506200012481620000f9565b92915050565b60008060408385031215620001445762000143620000c0565b5b6000620001548582860162000113565b9250506020620001678582860162000113565b9150509250929050565b61265380620001816000396000f3fe608060405234801561001057600080fd5b506004361061010b5760003560e01c80638303c7a1116100a2578063b540257c11610071578063b540257c14610306578063bfb231d214610324578063ca21ec1b1461035a578063cd2f07101461038a578063f37512e8146103ba5761010b565b80638303c7a11461026a5780638a3e9b95146102885780638d0563db146102a6578063a754c331146102d65761010b565b806330d7ffba116100de57806330d7ffba146101d057806352791f51146102005780635f515a3a14610230578063755660be1461024e5761010b565b80630c8d79a41461011057806319a247d514610140578063220511e6146101705780632d218cbd146101a0575b600080fd5b61012a600480360381019061012591906117b2565b6103f0565b604051610137919061193a565b60405180910390f35b61015a600480360381019061015591906119ba565b6104ee565b6040516101679190611a02565b60405180910390f35b61018a600480360381019061018591906117b2565b61050e565b6040516101979190611a2c565b60405180910390f35b6101ba60048036038101906101b591906119ba565b61055d565b6040516101c79190611a02565b60405180910390f35b6101ea60048036038101906101e59190611a73565b6105b8565b6040516101f79190611a02565b60405180910390f35b61021a600480360381019061021591906117b2565b610665565b6040516102279190611a02565b60405180910390f35b6102386106e3565b6040516102459190611a02565b60405180910390f35b61026860048036038101906102639190611cbb565b610737565b005b610272610a12565b60405161027f9190611fcf565b60405180910390f35b610290610cfe565b60405161029d9190612050565b60405180910390f35b6102c060048036038101906102bb91906117b2565b610d27565b6040516102cd91906120b5565b60405180910390f35b6102f060048036038101906102eb91906117b2565b610dde565b6040516102fd91906120e6565b60405180910390f35b61030e610e0d565b60405161031b91906120e6565b60405180910390f35b61033e600480360381019061033991906117b2565b610e1a565b6040516103519796959493929190612110565b60405180910390f35b610374600480360381019061036f91906117b2565b610fa9565b60405161038191906120b5565b60405180910390f35b6103a4600480360381019061039f91906117b2565b611060565b6040516103b1919061224b565b60405180910390f35b6103d460048036038101906103cf91906117b2565b611329565b6040516103e7979695949392919061226d565b60405180910390f35b606060028281548110610406576104056122f1565b5b9060005260206000209060080201600601805480602002602001604051908101604052809291908181526020016000905b828210156104e35783829060005260206000200180546104569061234f565b80601f01602080910402602001604051908101604052809291908181526020018280546104829061234f565b80156104cf5780601f106104a4576101008083540402835291602001916104cf565b820191906000526020600020905b8154815290600101906020018083116104b257829003601f168201915b505050505081526020019060010190610437565b505050509050919050565b60036020528060005260406000206000915054906101000a900460ff1681565b600060028281548110610524576105236122f1565b5b906000526020600020906008020160030160009054906101000a900473ffffffffffffffffffffffffffffffffffffffff169050919050565b600080600360008473ffffffffffffffffffffffffffffffffffffffff1673ffffffffffffffffffffffffffffffffffffffff16815260200190815260200160002060009054906101000a900460ff16905080915050919050565b600081600360003373ffffffffffffffffffffffffffffffffffffffff1673ffffffffffffffffffffffffffffffffffffffff16815260200190815260200160002060006101000a81548160ff021916908315150217905550600360003373ffffffffffffffffffffffffffffffffffffffff1673ffffffffffffffffffffffffffffffffffffffff16815260200190815260200160002060009054906101000a900460ff169050919050565b60006002828154811061067b5761067a6122f1565b5b906000526020600020906008020160030160009054906101000a900473ffffffffffffffffffffffffffffffffffffffff1673ffffffffffffffffffffffffffffffffffffffff163373ffffffffffffffffffffffffffffffffffffffff1614159050919050565b6000600360003373ffffffffffffffffffffffffffffffffffffffff1673ffffffffffffffffffffffffffffffffffffffff16815260200190815260200160002060009054906101000a900460ff16905090565b60006002805490509050610749611631565b868160000181905250858160200181815250508481604001818152505033816060019073ffffffffffffffffffffffffffffffffffffffff16908173ffffffffffffffffffffffffffffffffffffffff1681525050838160800181905250818160a0018181525050828160c00181905250600281908060018154018082558091505060019003906000526020600020906008020160009091909190915060008201518160000190816107fb9190612522565b50602082015181600101556040820151816002015560608201518160030160006101000a81548173ffffffffffffffffffffffffffffffffffffffff021916908373ffffffffffffffffffffffffffffffffffffffff160217905550608082015181600401908161086c9190612522565b5060a0820151816005015560c082015181600601908051906020019061089392919061168e565b5060e08201518160070160006101000a81548160ff021916908315150217905550505060008054906101000a900473ffffffffffffffffffffffffffffffffffffffff1673ffffffffffffffffffffffffffffffffffffffff166384fd099133846040518363ffffffff1660e01b81526004016109119291906125f4565b600060405180830381600087803b15801561092b57600080fd5b505af115801561093f573d6000803e3d6000fd5b50505050600160009054906101000a900473ffffffffffffffffffffffffffffffffffffffff1673ffffffffffffffffffffffffffffffffffffffff1663ef5ed396836040518263ffffffff1660e01b815260040161099e91906120e6565b600060405180830381600087803b1580156109b857600080fd5b505af11580156109cc573d6000803e3d6000fd5b505050507f272354479408536e7d87366f3ae6c7beac79cf606b31522fb7b1582c8b29a8fc3383604051610a019291906125f4565b60405180910390a150505050505050565b60606002805480602002602001604051908101604052809291908181526020016000905b82821015610cf5578382906000526020600020906008020160405180610100016040529081600082018054610a6a9061234f565b80601f0160208091040260200160405190810160405280929190818152602001828054610a969061234f565b8015610ae35780601f10610ab857610100808354040283529160200191610ae3565b820191906000526020600020905b815481529060010190602001808311610ac657829003601f168201915b5050505050815260200160018201548152602001600282015481526020016003820160009054906101000a900473ffffffffffffffffffffffffffffffffffffffff1673ffffffffffffffffffffffffffffffffffffffff1673ffffffffffffffffffffffffffffffffffffffff168152602001600482018054610b669061234f565b80601f0160208091040260200160405190810160405280929190818152602001828054610b929061234f565b8015610bdf5780601f10610bb457610100808354040283529160200191610bdf565b820191906000526020600020905b815481529060010190602001808311610bc257829003601f168201915b505050505081526020016005820154815260200160068201805480602002602001604051908101604052809291908181526020016000905b82821015610cc3578382906000526020600020018054610c369061234f565b80601f0160208091040260200160405190810160405280929190818152602001828054610c629061234f565b8015610caf5780601f10610c8457610100808354040283529160200191610caf565b820191906000526020600020905b815481529060010190602001808311610c9257829003601f168201915b505050505081526020019060010190610c17565b5050505081526020016007820160009054906101000a900460ff16151515158152505081526020019060010190610a36565b50505050905090565b60008060009054906101000a900473ffffffffffffffffffffffffffffffffffffffff16905090565b606060028281548110610d3d57610d3c6122f1565b5b90600052602060002090600802016000018054610d599061234f565b80601f0160208091040260200160405190810160405280929190818152602001828054610d859061234f565b8015610dd25780601f10610da757610100808354040283529160200191610dd2565b820191906000526020600020905b815481529060010190602001808311610db557829003601f168201915b50505050509050919050565b600060028281548110610df457610df36122f1565b5b9060005260206000209060080201600201549050919050565b6000600280549050905090565b60028181548110610e2a57600080fd5b9060005260206000209060080201600091509050806000018054610e4d9061234f565b80601f0160208091040260200160405190810160405280929190818152602001828054610e799061234f565b8015610ec65780601f10610e9b57610100808354040283529160200191610ec6565b820191906000526020600020905b815481529060010190602001808311610ea957829003601f168201915b5050505050908060010154908060020154908060030160009054906101000a900473ffffffffffffffffffffffffffffffffffffffff1690806004018054610f0d9061234f565b80601f0160208091040260200160405190810160405280929190818152602001828054610f399061234f565b8015610f865780601f10610f5b57610100808354040283529160200191610f86565b820191906000526020600020905b815481529060010190602001808311610f6957829003601f168201915b5050505050908060050154908060070160009054906101000a900460ff16905087565b606060028281548110610fbf57610fbe6122f1565b5b90600052602060002090600802016004018054610fdb9061234f565b80601f01602080910402602001604051908101604052809291908181526020018280546110079061234f565b80156110545780601f1061102957610100808354040283529160200191611054565b820191906000526020600020905b81548152906001019060200180831161103757829003601f168201915b50505050509050919050565b611068611631565b6002828154811061107c5761107b6122f1565b5b9060005260206000209060080201604051806101000160405290816000820180546110a69061234f565b80601f01602080910402602001604051908101604052809291908181526020018280546110d29061234f565b801561111f5780601f106110f45761010080835404028352916020019161111f565b820191906000526020600020905b81548152906001019060200180831161110257829003601f168201915b5050505050815260200160018201548152602001600282015481526020016003820160009054906101000a900473ffffffffffffffffffffffffffffffffffffffff1673ffffffffffffffffffffffffffffffffffffffff1673ffffffffffffffffffffffffffffffffffffffff1681526020016004820180546111a29061234f565b80601f01602080910402602001604051908101604052809291908181526020018280546111ce9061234f565b801561121b5780601f106111f05761010080835404028352916020019161121b565b820191906000526020600020905b8154815290600101906020018083116111fe57829003601f168201915b505050505081526020016005820154815260200160068201805480602002602001604051908101604052809291908181526020016000905b828210156112ff5783829060005260206000200180546112729061234f565b80601f016020809104026020016040519081016040528092919081815260200182805461129e9061234f565b80156112eb5780601f106112c0576101008083540402835291602001916112eb565b820191906000526020600020905b8154815290600101906020018083116112ce57829003601f168201915b505050505081526020019060010190611253565b5050505081526020016007820160009054906101000a900460ff1615151515815250509050919050565b6060600080600060606000606060006002898154811061134c5761134b6122f1565b5b9060005260206000209060080201604051806101000160405290816000820180546113769061234f565b80601f01602080910402602001604051908101604052809291908181526020018280546113a29061234f565b80156113ef5780601f106113c4576101008083540402835291602001916113ef565b820191906000526020600020905b8154815290600101906020018083116113d257829003601f168201915b5050505050815260200160018201548152602001600282015481526020016003820160009054906101000a900473ffffffffffffffffffffffffffffffffffffffff1673ffffffffffffffffffffffffffffffffffffffff1673ffffffffffffffffffffffffffffffffffffffff1681526020016004820180546114729061234f565b80601f016020809104026020016040519081016040528092919081815260200182805461149e9061234f565b80156114eb5780601f106114c0576101008083540402835291602001916114eb565b820191906000526020600020905b8154815290600101906020018083116114ce57829003601f168201915b505050505081526020016005820154815260200160068201805480602002602001604051908101604052809291908181526020016000905b828210156115cf5783829060005260206000200180546115429061234f565b80601f016020809104026020016040519081016040528092919081815260200182805461156e9061234f565b80156115bb5780601f10611590576101008083540402835291602001916115bb565b820191906000526020600020905b81548152906001019060200180831161159e57829003601f168201915b505050505081526020019060010190611523565b5050505081526020016007820160009054906101000a900460ff1615151515815250509050806000015181602001518260400151836060015184608001518560a001518660c00151975097509750975097509750975050919395979092949650565b604051806101000160405280606081526020016000815260200160008152602001600073ffffffffffffffffffffffffffffffffffffffff1681526020016060815260200160008152602001606081526020016000151581525090565b8280548282559060005260206000209081019282156116d6579160200282015b828111156116d55782518290816116c59190612522565b50916020019190600101906116ae565b5b5090506116e391906116e7565b5090565b5b8082111561170757600081816116fe919061170b565b506001016116e8565b5090565b5080546117179061234f565b6000825580601f106117295750611748565b601f016020900490600052602060002090810190611747919061174b565b5b50565b5b8082111561176457600081600090555060010161174c565b5090565b6000604051905090565b600080fd5b600080fd5b6000819050919050565b61178f8161177c565b811461179a57600080fd5b50565b6000813590506117ac81611786565b92915050565b6000602082840312156117c8576117c7611772565b5b60006117d68482850161179d565b91505092915050565b600081519050919050565b600082825260208201905092915050565b6000819050602082019050919050565b600081519050919050565b600082825260208201905092915050565b60005b8381101561184557808201518184015260208101905061182a565b83811115611854576000848401525b50505050565b6000601f19601f8301169050919050565b60006118768261180b565b6118808185611816565b9350611890818560208601611827565b6118998161185a565b840191505092915050565b60006118b0838361186b565b905092915050565b6000602082019050919050565b60006118d0826117df565b6118da81856117ea565b9350836020820285016118ec856117fb565b8060005b85811015611928578484038952815161190985826118a4565b9450611914836118b8565b925060208a019950506001810190506118f0565b50829750879550505050505092915050565b6000602082019050818103600083015261195481846118c5565b905092915050565b600073ffffffffffffffffffffffffffffffffffffffff82169050919050565b60006119878261195c565b9050919050565b6119978161197c565b81146119a257600080fd5b50565b6000813590506119b48161198e565b92915050565b6000602082840312156119d0576119cf611772565b5b60006119de848285016119a5565b91505092915050565b60008115159050919050565b6119fc816119e7565b82525050565b6000602082019050611a1760008301846119f3565b92915050565b611a268161197c565b82525050565b6000602082019050611a416000830184611a1d565b92915050565b611a50816119e7565b8114611a5b57600080fd5b50565b600081359050611a6d81611a47565b92915050565b600060208284031215611a8957611a88611772565b5b6000611a9784828501611a5e565b91505092915050565b600080fd5b600080fd5b7f4e487b7100000000000000000000000000000000000000000000000000000000600052604160045260246000fd5b611ae28261185a565b810181811067ffffffffffffffff82111715611b0157611b00611aaa565b5b80604052505050565b6000611b14611768565b9050611b208282611ad9565b919050565b600067ffffffffffffffff821115611b4057611b3f611aaa565b5b611b498261185a565b9050602081019050919050565b82818337600083830152505050565b6000611b78611b7384611b25565b611b0a565b905082815260208101848484011115611b9457611b93611aa5565b5b611b9f848285611b56565b509392505050565b600082601f830112611bbc57611bbb611aa0565b5b8135611bcc848260208601611b65565b91505092915050565b600067ffffffffffffffff821115611bf057611bef611aaa565b5b602082029050602081019050919050565b600080fd5b6000611c19611c1484611bd5565b611b0a565b90508083825260208201905060208402830185811115611c3c57611c3b611c01565b5b835b81811015611c8357803567ffffffffffffffff811115611c6157611c60611aa0565b5b808601611c6e8982611ba7565b85526020850194505050602081019050611c3e565b5050509392505050565b600082601f830112611ca257611ca1611aa0565b5b8135611cb2848260208601611c06565b91505092915050565b600080600080600060a08688031215611cd757611cd6611772565b5b600086013567ffffffffffffffff811115611cf557611cf4611777565b5b611d0188828901611ba7565b9550506020611d128882890161179d565b9450506040611d238882890161179d565b935050606086013567ffffffffffffffff811115611d4457611d43611777565b5b611d5088828901611ba7565b925050608086013567ffffffffffffffff811115611d7157611d70611777565b5b611d7d88828901611c8d565b9150509295509295909350565b600081519050919050565b600082825260208201905092915050565b6000819050602082019050919050565b611dbf8161177c565b82525050565b6000611dd08261195c565b9050919050565b611de081611dc5565b82525050565b600082825260208201905092915050565b6000611e02826117df565b611e0c8185611de6565b935083602082028501611e1e856117fb565b8060005b85811015611e5a5784840389528151611e3b85826118a4565b9450611e46836118b8565b925060208a01995050600181019050611e22565b50829750879550505050505092915050565b611e75816119e7565b82525050565b6000610100830160008301518482036000860152611e99828261186b565b9150506020830151611eae6020860182611db6565b506040830151611ec16040860182611db6565b506060830151611ed46060860182611dd7565b5060808301518482036080860152611eec828261186b565b91505060a0830151611f0160a0860182611db6565b5060c083015184820360c0860152611f198282611df7565b91505060e0830151611f2e60e0860182611e6c565b508091505092915050565b6000611f458383611e7b565b905092915050565b6000602082019050919050565b6000611f6582611d8a565b611f6f8185611d95565b935083602082028501611f8185611da6565b8060005b85811015611fbd5784840389528151611f9e8582611f39565b9450611fa983611f4d565b925060208a01995050600181019050611f85565b50829750879550505050505092915050565b60006020820190508181036000830152611fe98184611f5a565b905092915050565b6000819050919050565b600061201661201161200c8461195c565b611ff1565b61195c565b9050919050565b600061202882611ffb565b9050919050565b600061203a8261201d565b9050919050565b61204a8161202f565b82525050565b60006020820190506120656000830184612041565b92915050565b600082825260208201905092915050565b60006120878261180b565b612091818561206b565b93506120a1818560208601611827565b6120aa8161185a565b840191505092915050565b600060208201905081810360008301526120cf818461207c565b905092915050565b6120e08161177c565b82525050565b60006020820190506120fb60008301846120d7565b92915050565b61210a81611dc5565b82525050565b600060e082019050818103600083015261212a818a61207c565b905061213960208301896120d7565b61214660408301886120d7565b6121536060830187612101565b8181036080830152612165818661207c565b905061217460a08301856120d7565b61218160c08301846119f3565b98975050505050505050565b60006101008301600083015184820360008601526121ab828261186b565b91505060208301516121c06020860182611db6565b5060408301516121d36040860182611db6565b5060608301516121e66060860182611dd7565b50608083015184820360808601526121fe828261186b565b91505060a083015161221360a0860182611db6565b5060c083015184820360c086015261222b8282611df7565b91505060e083015161224060e0860182611e6c565b508091505092915050565b60006020820190508181036000830152612265818461218d565b905092915050565b600060e0820190508181036000830152612287818a61207c565b905061229660208301896120d7565b6122a360408301886120d7565b6122b06060830187612101565b81810360808301526122c2818661207c565b90506122d160a08301856120d7565b81810360c08301526122e381846118c5565b905098975050505050505050565b7f4e487b7100000000000000000000000000000000000000000000000000000000600052603260045260246000fd5b7f4e487b7100000000000000000000000000000000000000000000000000000000600052602260045260246000fd5b6000600282049050600182168061236757607f821691505b60208210810361237a57612379612320565b5b50919050565b60008190508160005260206000209050919050565b60006020601f8301049050919050565b600082821b905092915050565b6000600883026123e27fffffffffffffffffffffffffffffffffffffffffffffffffffffffffffffffff826123a5565b6123ec86836123a5565b95508019841693508086168417925050509392505050565b600061241f61241a6124158461177c565b611ff1565b61177c565b9050919050565b6000819050919050565b61243983612404565b61244d61244582612426565b8484546123b2565b825550505050565b600090565b612462612455565b61246d818484612430565b505050565b5b818110156124915761248660008261245a565b600181019050612473565b5050565b601f8211156124d6576124a781612380565b6124b084612395565b810160208510156124bf578190505b6124d36124cb85612395565b830182612472565b50505b505050565b600082821c905092915050565b60006124f9600019846008026124db565b1980831691505092915050565b600061251283836124e8565b9150826002028217905092915050565b61252b8261180b565b67ffffffffffffffff81111561254457612543611aaa565b5b61254e825461234f565b612559828285612495565b600060209050601f83116001811461258c576000841561257a578287015190505b6125848582612506565b8655506125ec565b601f19841661259a86612380565b60005b828110156125c25784890151825560018201915060208501945060208101905061259d565b868310156125df57848901516125db601f8916826124e8565b8355505b6001600288020188555050505b505050505050565b60006040820190506126096000830185611a1d565b61261660208301846120d7565b939250505056fea2646970667358221220db3bb49f1efc9257a3d46563b26f46fdf0599799a8f9a9f8abe580e7dab60d6d64736f6c634300080f0033",
  "immutableReferences": {},
  "source": "// SPDX-License-Identifier: MIT\r\n\r\nimport \"./OwnerData.sol\";\r\nimport \"./SupplyManaging.sol\";\r\n\r\npragma solidity >=0.5.16;\r\n\r\ncontract ItemContract{\r\n    OwnerDataContract ownerDataContract;\r\n    SupplyManagingContract supplyManagingContract;\r\n\r\n\r\n    //OwnerDataContract ownerData;\r\n\r\n    constructor(address _ownerDataContract, address _supplyManagingContract) {\r\n        ownerDataContract = OwnerDataContract(_ownerDataContract);\r\n        supplyManagingContract = SupplyManagingContract(_supplyManagingContract);\r\n\r\n        //ownerData = OwnerDataContract(ownerDataAddress);\r\n    }\r\n\r\n    struct Item{\r\n        string name;\r\n        uint256 weight; \r\n        uint256 stock;     \r\n        address payable producer;\r\n        string origin;  \r\n        uint256 itemId;    \r\n        string[] imgCIDs;\r\n        bool active;\r\n    } \r\n\r\n    function getOwnerDataContract() public view returns(OwnerDataContract odc){\r\n        return ownerDataContract;\r\n    }\r\n\r\n    Item[] public items;\r\n\r\n    mapping(address => bool             ) public producerCheck;\r\n\r\n    event CreateSuccess(address _user, uint256 _itmeId);\r\n\r\n\r\n    function createItem(string memory _itemTitle, uint256 _weight, uint256 _stock, string memory _origin, string[] memory _imgCID) public {\r\n        \r\n        uint256 _itemId = items.length;\r\n\r\n        \r\n        Item memory newItem;\r\n        \r\n        newItem.name = _itemTitle;\r\n        newItem.weight = _weight;\r\n        newItem.stock = _stock;\r\n        newItem.producer = payable(msg.sender); \r\n        newItem.origin = _origin;\r\n        newItem.itemId = _itemId;\r\n        newItem.imgCIDs = _imgCID;\r\n\r\n        items.push(newItem);\r\n\r\n        ownerDataContract.updateItemOwner(msg.sender, _itemId);\r\n        supplyManagingContract.constructorSupplyData(_itemId);\r\n        emit CreateSuccess(msg.sender, _itemId);\r\n        //ownerData.setOwnerByItemId(msg.sender, _itemId);\r\n        //ownerData.pushOwnedBy(msg.sender, _itemId);\r\n    }\r\n\r\n    function getNewItemId() public view returns(uint256){\r\n        return items.length;\r\n    }\r\n    \r\n    function getStockById(uint256 _itemId) public view returns(uint256){\r\n        return items[_itemId].stock;\r\n    }\r\n\r\n    function getAllOfItems() public view returns(Item[] memory){\r\n        return items;\r\n    }\r\n    \r\n    function getProducerCheck(address _user) public view returns(bool){\r\n        bool rtn = producerCheck[_user];\r\n        return rtn;\r\n    }\r\n\r\n    function getImageCIDsById(uint256 _itemId) public view returns(string[] memory){\r\n        return items[_itemId].imgCIDs;\r\n    }\r\n\r\n    function getOriginById(uint256 _itemId) public view returns(string memory){\r\n        return items[_itemId].origin;\r\n    }    \r\n\r\n    function getProducerById(uint256 _itemId) public view returns(address _proudcer){\r\n        return items[_itemId].producer;\r\n    }\r\n\r\n    function getItemNameById(uint256 _itemId) public view returns(string memory){\r\n        return items[_itemId].name;\r\n    }\r\n\r\n    function getBidOrNotById(uint256 _itemId) public view returns(bool){\r\n        return msg.sender != items[_itemId].producer;\r\n    }\r\n\r\n    function viewItemById(uint _itemId) public view returns(\r\n        string memory name,\r\n        uint256 weight,\r\n        uint256 stock,\r\n        address payable producer,\r\n        string memory origin,\r\n        uint256 itemId,\r\n        string[] memory imgCIDs\r\n    ){\r\n        Item memory item = items[_itemId];\r\n        return(\r\n            item.name,\r\n            item.weight,\r\n            item.stock,\r\n            item.producer,\r\n            item.origin,\r\n            item.itemId,\r\n            item.imgCIDs\r\n            );\r\n    }\r\n\r\n    function getItemById(uint256 _itemId) public view returns(Item memory){\r\n        return items[_itemId];\r\n    }\r\n\r\n    function isProducer() public view returns(bool){\r\n        return producerCheck[msg.sender];\r\n    }\r\n        \r\n\r\n    function setUserToProducer(bool flag) public returns(bool){\r\n        producerCheck[msg.sender] = flag;\r\n        return producerCheck[msg.sender];\r\n    }\r\n\r\n    event SetOwnerToProducerEvent(bool flag);\r\n    event CreateItemEvent(string _itemTitle, uint256 _weight, uint256 _stock, string _origin);\r\n}",
  "sourcePath": "/Users/c_rbi/testNet/back-end/smart_contract/contracts/Item.sol",
  "compiler": {
    "name": "solc",
    "version": "0.8.15+commit.e14f2714.Emscripten.clang"
  },
  "schemaVersion": "3.4.8",
  "updatedAt": "2022-08-11T23:49:34.114Z",
  "networkType": "ethereum",
  "devdoc": {
    "kind": "dev",
    "methods": {},
    "version": 1
  },
  "userdoc": {
    "kind": "user",
    "methods": {},
    "version": 1
  }
}