{
  "contractName": "ItemContract",
  "abi": [
    {
      "anonymous": false,
      "inputs": [
        {
          "indexed": false,
          "internalType": "string",
          "name": "_itemTitle",
          "type": "string"
        },
        {
          "indexed": false,
          "internalType": "uint256",
          "name": "_weight",
          "type": "uint256"
        },
        {
          "indexed": false,
          "internalType": "uint256",
          "name": "_stock",
          "type": "uint256"
        },
        {
          "indexed": false,
          "internalType": "string",
          "name": "_origin",
          "type": "string"
        }
      ],
      "name": "CreateItemEvent",
      "type": "event"
    },
    {
      "anonymous": false,
      "inputs": [
        {
          "indexed": false,
          "internalType": "bool",
          "name": "flag",
          "type": "bool"
        }
      ],
      "name": "SetOwnerToProducerEvent",
      "type": "event"
    },
    {
      "inputs": [
        {
          "internalType": "uint256",
          "name": "",
          "type": "uint256"
        },
        {
          "internalType": "uint256",
          "name": "",
          "type": "uint256"
        }
      ],
      "name": "auctionTracking",
      "outputs": [
        {
          "internalType": "uint256",
          "name": "",
          "type": "uint256"
        }
      ],
      "stateMutability": "view",
      "type": "function",
      "constant": true
    },
    {
      "inputs": [
        {
          "internalType": "uint256",
          "name": "",
          "type": "uint256"
        }
      ],
      "name": "items",
      "outputs": [
        {
          "internalType": "string",
          "name": "name",
          "type": "string"
        },
        {
          "internalType": "uint256",
          "name": "weight",
          "type": "uint256"
        },
        {
          "internalType": "uint256",
          "name": "stock",
          "type": "uint256"
        },
        {
          "internalType": "address payable",
          "name": "producer",
          "type": "address"
        },
        {
          "internalType": "string",
          "name": "origin",
          "type": "string"
        },
        {
          "internalType": "uint256",
          "name": "itemId",
          "type": "uint256"
        },
        {
          "internalType": "string",
          "name": "imgCID",
          "type": "string"
        },
        {
          "internalType": "address payable",
          "name": "owner",
          "type": "address"
        },
        {
          "internalType": "bool",
          "name": "active",
          "type": "bool"
        }
      ],
      "stateMutability": "view",
      "type": "function",
      "constant": true
    },
    {
      "inputs": [
        {
          "internalType": "address",
          "name": "",
          "type": "address"
        }
      ],
      "name": "producerCheck",
      "outputs": [
        {
          "internalType": "bool",
          "name": "",
          "type": "bool"
        }
      ],
      "stateMutability": "view",
      "type": "function",
      "constant": true
    },
    {
      "inputs": [
        {
          "internalType": "string",
          "name": "_itemTitle",
          "type": "string"
        },
        {
          "internalType": "uint256",
          "name": "_weight",
          "type": "uint256"
        },
        {
          "internalType": "uint256",
          "name": "_stock",
          "type": "uint256"
        },
        {
          "internalType": "string",
          "name": "_origin",
          "type": "string"
        }
      ],
      "name": "createItem",
      "outputs": [
        {
          "internalType": "uint256",
          "name": "",
          "type": "uint256"
        }
      ],
      "stateMutability": "nonpayable",
      "type": "function"
    },
    {
      "inputs": [
        {
          "internalType": "uint256",
          "name": "_itemId",
          "type": "uint256"
        }
      ],
      "name": "getStockById",
      "outputs": [
        {
          "internalType": "uint256",
          "name": "",
          "type": "uint256"
        }
      ],
      "stateMutability": "view",
      "type": "function",
      "constant": true
    },
    {
      "inputs": [],
      "name": "getAllOfItems",
      "outputs": [
        {
          "components": [
            {
              "internalType": "string",
              "name": "name",
              "type": "string"
            },
            {
              "internalType": "uint256",
              "name": "weight",
              "type": "uint256"
            },
            {
              "internalType": "uint256",
              "name": "stock",
              "type": "uint256"
            },
            {
              "internalType": "address payable",
              "name": "producer",
              "type": "address"
            },
            {
              "internalType": "string",
              "name": "origin",
              "type": "string"
            },
            {
              "internalType": "uint256",
              "name": "itemId",
              "type": "uint256"
            },
            {
              "internalType": "string",
              "name": "imgCID",
              "type": "string"
            },
            {
              "internalType": "address payable",
              "name": "owner",
              "type": "address"
            },
            {
              "internalType": "bool",
              "name": "active",
              "type": "bool"
            }
          ],
          "internalType": "struct ItemContract.Item[]",
          "name": "",
          "type": "tuple[]"
        }
      ],
      "stateMutability": "view",
      "type": "function",
      "constant": true
    },
    {
      "inputs": [
        {
          "internalType": "address",
          "name": "_user",
          "type": "address"
        }
      ],
      "name": "getProducerCheck",
      "outputs": [
        {
          "internalType": "bool",
          "name": "",
          "type": "bool"
        }
      ],
      "stateMutability": "view",
      "type": "function",
      "constant": true
    },
    {
      "inputs": [
        {
          "internalType": "uint256",
          "name": "_itemId",
          "type": "uint256"
        }
      ],
      "name": "getOriginById",
      "outputs": [
        {
          "internalType": "string",
          "name": "",
          "type": "string"
        }
      ],
      "stateMutability": "view",
      "type": "function",
      "constant": true
    },
    {
      "inputs": [
        {
          "internalType": "uint256",
          "name": "_itemId",
          "type": "uint256"
        }
      ],
      "name": "getProducerById",
      "outputs": [
        {
          "internalType": "address",
          "name": "_proudcer",
          "type": "address"
        }
      ],
      "stateMutability": "view",
      "type": "function",
      "constant": true
    },
    {
      "inputs": [
        {
          "internalType": "uint256",
          "name": "_itemId",
          "type": "uint256"
        }
      ],
      "name": "getItemNameById",
      "outputs": [
        {
          "internalType": "string",
          "name": "",
          "type": "string"
        }
      ],
      "stateMutability": "view",
      "type": "function",
      "constant": true
    },
    {
      "inputs": [
        {
          "internalType": "uint256",
          "name": "_itemId",
          "type": "uint256"
        }
      ],
      "name": "getBidOrNotById",
      "outputs": [
        {
          "internalType": "bool",
          "name": "",
          "type": "bool"
        }
      ],
      "stateMutability": "view",
      "type": "function",
      "constant": true
    },
    {
      "inputs": [
        {
          "internalType": "uint256",
          "name": "_itemId",
          "type": "uint256"
        }
      ],
      "name": "viewItemById",
      "outputs": [
        {
          "internalType": "string",
          "name": "name",
          "type": "string"
        },
        {
          "internalType": "uint256",
          "name": "weight",
          "type": "uint256"
        },
        {
          "internalType": "uint256",
          "name": "stock",
          "type": "uint256"
        },
        {
          "internalType": "address payable",
          "name": "producer",
          "type": "address"
        },
        {
          "internalType": "string",
          "name": "origin",
          "type": "string"
        },
        {
          "internalType": "uint256",
          "name": "itemId",
          "type": "uint256"
        }
      ],
      "stateMutability": "view",
      "type": "function",
      "constant": true
    },
    {
      "inputs": [
        {
          "internalType": "uint256",
          "name": "_itemId",
          "type": "uint256"
        }
      ],
      "name": "getItemById",
      "outputs": [
        {
          "components": [
            {
              "internalType": "string",
              "name": "name",
              "type": "string"
            },
            {
              "internalType": "uint256",
              "name": "weight",
              "type": "uint256"
            },
            {
              "internalType": "uint256",
              "name": "stock",
              "type": "uint256"
            },
            {
              "internalType": "address payable",
              "name": "producer",
              "type": "address"
            },
            {
              "internalType": "string",
              "name": "origin",
              "type": "string"
            },
            {
              "internalType": "uint256",
              "name": "itemId",
              "type": "uint256"
            },
            {
              "internalType": "string",
              "name": "imgCID",
              "type": "string"
            },
            {
              "internalType": "address payable",
              "name": "owner",
              "type": "address"
            },
            {
              "internalType": "bool",
              "name": "active",
              "type": "bool"
            }
          ],
          "internalType": "struct ItemContract.Item",
          "name": "",
          "type": "tuple"
        }
      ],
      "stateMutability": "view",
      "type": "function",
      "constant": true
    },
    {
      "inputs": [],
      "name": "isProducer",
      "outputs": [
        {
          "internalType": "bool",
          "name": "",
          "type": "bool"
        }
      ],
      "stateMutability": "view",
      "type": "function",
      "constant": true
    },
    {
      "inputs": [
        {
          "internalType": "bool",
          "name": "flag",
          "type": "bool"
        }
      ],
      "name": "setOwnerToProducer",
      "outputs": [
        {
          "internalType": "bool",
          "name": "",
          "type": "bool"
        }
      ],
      "stateMutability": "nonpayable",
      "type": "function"
    }
  ],
  "bytecode": "0x608060405234801561001057600080fd5b50612272806100206000396000f3fe608060405234801561001057600080fd5b50600436106100f55760003560e01c80638303c7a111610097578063ca21ec1b11610066578063ca21ec1b146102ee578063cd2f07101461031e578063cd8ed5071461034e578063f37512e81461037e576100f5565b80638303c7a1146102385780638d0563db14610256578063a754c33114610286578063bfb231d2146102b6576100f5565b80632d218cbd116100d35780632d218cbd1461018a5780634e3a3871146101ba57806352791f51146101ea5780635f515a3a1461021a576100f5565b806319a247d5146100fa578063220511e61461012a57806324757e0d1461015a575b600080fd5b610114600480360381019061010f9190611645565b6103b3565b604051610121919061168d565b60405180910390f35b610144600480360381019061013f91906116de565b6103d3565b604051610151919061171a565b60405180910390f35b610174600480360381019061016f9190611761565b610421565b604051610181919061168d565b60405180910390f35b6101a4600480360381019061019f9190611645565b610505565b6040516101b1919061168d565b60405180910390f35b6101d460048036038101906101cf91906118d4565b610560565b6040516101e19190611982565b60405180910390f35b61020460048036038101906101ff91906116de565b61079a565b604051610211919061168d565b60405180910390f35b610222610817565b60405161022f919061168d565b60405180910390f35b61024061086b565b60405161024d9190611bf9565b60405180910390f35b610270600480360381019061026b91906116de565b610b66565b60405161027d9190611c65565b60405180910390f35b6102a0600480360381019061029b91906116de565b610c1d565b6040516102ad9190611982565b60405180910390f35b6102d060048036038101906102cb91906116de565b610c4b565b6040516102e599989796959493929190611c96565b60405180910390f35b610308600480360381019061030391906116de565b610e8e565b6040516103159190611c65565b60405180910390f35b610338600480360381019061033391906116de565b610f45565b6040516103459190611e0b565b60405180910390f35b61036860048036038101906103639190611e2d565b61121d565b6040516103759190611982565b60405180910390f35b610398600480360381019061039391906116de565b61124e565b6040516103aa96959493929190611e6d565b60405180910390f35b60016020528060005260406000206000915054906101000a900460ff1681565b60008082815481106103e8576103e7611edc565b5b906000526020600020906008020160030160009054906101000a900473ffffffffffffffffffffffffffffffffffffffff169050919050565b600081600160003373ffffffffffffffffffffffffffffffffffffffff1673ffffffffffffffffffffffffffffffffffffffff16815260200190815260200160002060006101000a81548160ff0219169083151502179055507f2ba058f8cd666d85b9312847d87c5e9008b3cacdc2e01e6ee84c0c690013e6e7826040516104a9919061168d565b60405180910390a1600160003373ffffffffffffffffffffffffffffffffffffffff1673ffffffffffffffffffffffffffffffffffffffff16815260200190815260200160002060009054906101000a900460ff169050919050565b600080600160008473ffffffffffffffffffffffffffffffffffffffff1673ffffffffffffffffffffffffffffffffffffffff16815260200190815260200160002060009054906101000a900460ff16905080915050919050565b6000806000805490509050610573611559565b868160000181905250858160200181815250508481604001818152505033816060019073ffffffffffffffffffffffffffffffffffffffff16908173ffffffffffffffffffffffffffffffffffffffff1681525050838160800181905250818160a0018181525050338160e0019073ffffffffffffffffffffffffffffffffffffffff16908173ffffffffffffffffffffffffffffffffffffffff1681525050600081908060018154018082558091505060019003906000526020600020906008020160009091909190915060008201518160000190816106549190612117565b50602082015181600101556040820151816002015560608201518160030160006101000a81548173ffffffffffffffffffffffffffffffffffffffff021916908373ffffffffffffffffffffffffffffffffffffffff16021790555060808201518160040190816106c59190612117565b5060a0820151816005015560c08201518160060190816106e59190612117565b5060e08201518160070160006101000a81548173ffffffffffffffffffffffffffffffffffffffff021916908373ffffffffffffffffffffffffffffffffffffffff1602179055506101008201518160070160146101000a81548160ff02191690831515021790555050507f64ee80e49474704f80a5ff841a6efbc6f8ee570b013b541dbf8bf10c3335691e8787878760405161078594939291906121e9565b60405180910390a18192505050949350505050565b60008082815481106107af576107ae611edc565b5b906000526020600020906008020160030160009054906101000a900473ffffffffffffffffffffffffffffffffffffffff1673ffffffffffffffffffffffffffffffffffffffff163373ffffffffffffffffffffffffffffffffffffffff1614159050919050565b6000600160003373ffffffffffffffffffffffffffffffffffffffff1673ffffffffffffffffffffffffffffffffffffffff16815260200190815260200160002060009054906101000a900460ff16905090565b60606000805480602002602001604051908101604052809291908181526020016000905b82821015610b5d5783829060005260206000209060080201604051806101200160405290816000820180546108c390611f3a565b80601f01602080910402602001604051908101604052809291908181526020018280546108ef90611f3a565b801561093c5780601f106109115761010080835404028352916020019161093c565b820191906000526020600020905b81548152906001019060200180831161091f57829003601f168201915b5050505050815260200160018201548152602001600282015481526020016003820160009054906101000a900473ffffffffffffffffffffffffffffffffffffffff1673ffffffffffffffffffffffffffffffffffffffff1673ffffffffffffffffffffffffffffffffffffffff1681526020016004820180546109bf90611f3a565b80601f01602080910402602001604051908101604052809291908181526020018280546109eb90611f3a565b8015610a385780601f10610a0d57610100808354040283529160200191610a38565b820191906000526020600020905b815481529060010190602001808311610a1b57829003601f168201915b5050505050815260200160058201548152602001600682018054610a5b90611f3a565b80601f0160208091040260200160405190810160405280929190818152602001828054610a8790611f3a565b8015610ad45780601f10610aa957610100808354040283529160200191610ad4565b820191906000526020600020905b815481529060010190602001808311610ab757829003601f168201915b505050505081526020016007820160009054906101000a900473ffffffffffffffffffffffffffffffffffffffff1673ffffffffffffffffffffffffffffffffffffffff1673ffffffffffffffffffffffffffffffffffffffff1681526020016007820160149054906101000a900460ff1615151515815250508152602001906001019061088f565b50505050905090565b606060008281548110610b7c57610b7b611edc565b5b90600052602060002090600802016000018054610b9890611f3a565b80601f0160208091040260200160405190810160405280929190818152602001828054610bc490611f3a565b8015610c115780601f10610be657610100808354040283529160200191610c11565b820191906000526020600020905b815481529060010190602001808311610bf457829003601f168201915b50505050509050919050565b6000808281548110610c3257610c31611edc565b5b9060005260206000209060080201600201549050919050565b60008181548110610c5b57600080fd5b9060005260206000209060080201600091509050806000018054610c7e90611f3a565b80601f0160208091040260200160405190810160405280929190818152602001828054610caa90611f3a565b8015610cf75780601f10610ccc57610100808354040283529160200191610cf7565b820191906000526020600020905b815481529060010190602001808311610cda57829003601f168201915b5050505050908060010154908060020154908060030160009054906101000a900473ffffffffffffffffffffffffffffffffffffffff1690806004018054610d3e90611f3a565b80601f0160208091040260200160405190810160405280929190818152602001828054610d6a90611f3a565b8015610db75780601f10610d8c57610100808354040283529160200191610db7565b820191906000526020600020905b815481529060010190602001808311610d9a57829003601f168201915b505050505090806005015490806006018054610dd290611f3a565b80601f0160208091040260200160405190810160405280929190818152602001828054610dfe90611f3a565b8015610e4b5780601f10610e2057610100808354040283529160200191610e4b565b820191906000526020600020905b815481529060010190602001808311610e2e57829003601f168201915b5050505050908060070160009054906101000a900473ffffffffffffffffffffffffffffffffffffffff16908060070160149054906101000a900460ff16905089565b606060008281548110610ea457610ea3611edc565b5b90600052602060002090600802016004018054610ec090611f3a565b80601f0160208091040260200160405190810160405280929190818152602001828054610eec90611f3a565b8015610f395780601f10610f0e57610100808354040283529160200191610f39565b820191906000526020600020905b815481529060010190602001808311610f1c57829003601f168201915b50505050509050919050565b610f4d611559565b60008281548110610f6157610f60611edc565b5b906000526020600020906008020160405180610120016040529081600082018054610f8b90611f3a565b80601f0160208091040260200160405190810160405280929190818152602001828054610fb790611f3a565b80156110045780601f10610fd957610100808354040283529160200191611004565b820191906000526020600020905b815481529060010190602001808311610fe757829003601f168201915b5050505050815260200160018201548152602001600282015481526020016003820160009054906101000a900473ffffffffffffffffffffffffffffffffffffffff1673ffffffffffffffffffffffffffffffffffffffff1673ffffffffffffffffffffffffffffffffffffffff16815260200160048201805461108790611f3a565b80601f01602080910402602001604051908101604052809291908181526020018280546110b390611f3a565b80156111005780601f106110d557610100808354040283529160200191611100565b820191906000526020600020905b8154815290600101906020018083116110e357829003601f168201915b505050505081526020016005820154815260200160068201805461112390611f3a565b80601f016020809104026020016040519081016040528092919081815260200182805461114f90611f3a565b801561119c5780601f106111715761010080835404028352916020019161119c565b820191906000526020600020905b81548152906001019060200180831161117f57829003601f168201915b505050505081526020016007820160009054906101000a900473ffffffffffffffffffffffffffffffffffffffff1673ffffffffffffffffffffffffffffffffffffffff1673ffffffffffffffffffffffffffffffffffffffff1681526020016007820160149054906101000a900460ff1615151515815250509050919050565b6002602052816000526040600020818154811061123957600080fd5b90600052602060002001600091509150505481565b6060600080600060606000806000888154811061126e5761126d611edc565b5b90600052602060002090600802016040518061012001604052908160008201805461129890611f3a565b80601f01602080910402602001604051908101604052809291908181526020018280546112c490611f3a565b80156113115780601f106112e657610100808354040283529160200191611311565b820191906000526020600020905b8154815290600101906020018083116112f457829003601f168201915b5050505050815260200160018201548152602001600282015481526020016003820160009054906101000a900473ffffffffffffffffffffffffffffffffffffffff1673ffffffffffffffffffffffffffffffffffffffff1673ffffffffffffffffffffffffffffffffffffffff16815260200160048201805461139490611f3a565b80601f01602080910402602001604051908101604052809291908181526020018280546113c090611f3a565b801561140d5780601f106113e25761010080835404028352916020019161140d565b820191906000526020600020905b8154815290600101906020018083116113f057829003601f168201915b505050505081526020016005820154815260200160068201805461143090611f3a565b80601f016020809104026020016040519081016040528092919081815260200182805461145c90611f3a565b80156114a95780601f1061147e576101008083540402835291602001916114a9565b820191906000526020600020905b81548152906001019060200180831161148c57829003601f168201915b505050505081526020016007820160009054906101000a900473ffffffffffffffffffffffffffffffffffffffff1673ffffffffffffffffffffffffffffffffffffffff1673ffffffffffffffffffffffffffffffffffffffff1681526020016007820160149054906101000a900460ff1615151515815250509050806000015181602001518260400151836060015184608001518560a001519650965096509650965096505091939550919395565b604051806101200160405280606081526020016000815260200160008152602001600073ffffffffffffffffffffffffffffffffffffffff168152602001606081526020016000815260200160608152602001600073ffffffffffffffffffffffffffffffffffffffff1681526020016000151581525090565b6000604051905090565b600080fd5b600080fd5b600073ffffffffffffffffffffffffffffffffffffffff82169050919050565b6000611612826115e7565b9050919050565b61162281611607565b811461162d57600080fd5b50565b60008135905061163f81611619565b92915050565b60006020828403121561165b5761165a6115dd565b5b600061166984828501611630565b91505092915050565b60008115159050919050565b61168781611672565b82525050565b60006020820190506116a2600083018461167e565b92915050565b6000819050919050565b6116bb816116a8565b81146116c657600080fd5b50565b6000813590506116d8816116b2565b92915050565b6000602082840312156116f4576116f36115dd565b5b6000611702848285016116c9565b91505092915050565b61171481611607565b82525050565b600060208201905061172f600083018461170b565b92915050565b61173e81611672565b811461174957600080fd5b50565b60008135905061175b81611735565b92915050565b600060208284031215611777576117766115dd565b5b60006117858482850161174c565b91505092915050565b600080fd5b600080fd5b6000601f19601f8301169050919050565b7f4e487b7100000000000000000000000000000000000000000000000000000000600052604160045260246000fd5b6117e182611798565b810181811067ffffffffffffffff82111715611800576117ff6117a9565b5b80604052505050565b60006118136115d3565b905061181f82826117d8565b919050565b600067ffffffffffffffff82111561183f5761183e6117a9565b5b61184882611798565b9050602081019050919050565b82818337600083830152505050565b600061187761187284611824565b611809565b90508281526020810184848401111561189357611892611793565b5b61189e848285611855565b509392505050565b600082601f8301126118bb576118ba61178e565b5b81356118cb848260208601611864565b91505092915050565b600080600080608085870312156118ee576118ed6115dd565b5b600085013567ffffffffffffffff81111561190c5761190b6115e2565b5b611918878288016118a6565b9450506020611929878288016116c9565b935050604061193a878288016116c9565b925050606085013567ffffffffffffffff81111561195b5761195a6115e2565b5b611967878288016118a6565b91505092959194509250565b61197c816116a8565b82525050565b60006020820190506119976000830184611973565b92915050565b600081519050919050565b600082825260208201905092915050565b6000819050602082019050919050565b600081519050919050565b600082825260208201905092915050565b60005b83811015611a035780820151818401526020810190506119e8565b83811115611a12576000848401525b50505050565b6000611a23826119c9565b611a2d81856119d4565b9350611a3d8185602086016119e5565b611a4681611798565b840191505092915050565b611a5a816116a8565b82525050565b6000611a6b826115e7565b9050919050565b611a7b81611a60565b82525050565b611a8a81611672565b82525050565b6000610120830160008301518482036000860152611aae8282611a18565b9150506020830151611ac36020860182611a51565b506040830151611ad66040860182611a51565b506060830151611ae96060860182611a72565b5060808301518482036080860152611b018282611a18565b91505060a0830151611b1660a0860182611a51565b5060c083015184820360c0860152611b2e8282611a18565b91505060e0830151611b4360e0860182611a72565b50610100830151611b58610100860182611a81565b508091505092915050565b6000611b6f8383611a90565b905092915050565b6000602082019050919050565b6000611b8f8261199d565b611b9981856119a8565b935083602082028501611bab856119b9565b8060005b85811015611be75784840389528151611bc88582611b63565b9450611bd383611b77565b925060208a01995050600181019050611baf565b50829750879550505050505092915050565b60006020820190508181036000830152611c138184611b84565b905092915050565b600082825260208201905092915050565b6000611c37826119c9565b611c418185611c1b565b9350611c518185602086016119e5565b611c5a81611798565b840191505092915050565b60006020820190508181036000830152611c7f8184611c2c565b905092915050565b611c9081611a60565b82525050565b6000610120820190508181036000830152611cb1818c611c2c565b9050611cc0602083018b611973565b611ccd604083018a611973565b611cda6060830189611c87565b8181036080830152611cec8188611c2c565b9050611cfb60a0830187611973565b81810360c0830152611d0d8186611c2c565b9050611d1c60e0830185611c87565b611d2a61010083018461167e565b9a9950505050505050505050565b6000610120830160008301518482036000860152611d568282611a18565b9150506020830151611d6b6020860182611a51565b506040830151611d7e6040860182611a51565b506060830151611d916060860182611a72565b5060808301518482036080860152611da98282611a18565b91505060a0830151611dbe60a0860182611a51565b5060c083015184820360c0860152611dd68282611a18565b91505060e0830151611deb60e0860182611a72565b50610100830151611e00610100860182611a81565b508091505092915050565b60006020820190508181036000830152611e258184611d38565b905092915050565b60008060408385031215611e4457611e436115dd565b5b6000611e52858286016116c9565b9250506020611e63858286016116c9565b9150509250929050565b600060c0820190508181036000830152611e878189611c2c565b9050611e966020830188611973565b611ea36040830187611973565b611eb06060830186611c87565b8181036080830152611ec28185611c2c565b9050611ed160a0830184611973565b979650505050505050565b7f4e487b7100000000000000000000000000000000000000000000000000000000600052603260045260246000fd5b7f4e487b7100000000000000000000000000000000000000000000000000000000600052602260045260246000fd5b60006002820490506001821680611f5257607f821691505b602082108103611f6557611f64611f0b565b5b50919050565b60008190508160005260206000209050919050565b60006020601f8301049050919050565b600082821b905092915050565b600060088302611fcd7fffffffffffffffffffffffffffffffffffffffffffffffffffffffffffffffff82611f90565b611fd78683611f90565b95508019841693508086168417925050509392505050565b6000819050919050565b600061201461200f61200a846116a8565b611fef565b6116a8565b9050919050565b6000819050919050565b61202e83611ff9565b61204261203a8261201b565b848454611f9d565b825550505050565b600090565b61205761204a565b612062818484612025565b505050565b5b818110156120865761207b60008261204f565b600181019050612068565b5050565b601f8211156120cb5761209c81611f6b565b6120a584611f80565b810160208510156120b4578190505b6120c86120c085611f80565b830182612067565b50505b505050565b600082821c905092915050565b60006120ee600019846008026120d0565b1980831691505092915050565b600061210783836120dd565b9150826002028217905092915050565b612120826119c9565b67ffffffffffffffff811115612139576121386117a9565b5b6121438254611f3a565b61214e82828561208a565b600060209050601f831160018114612181576000841561216f578287015190505b61217985826120fb565b8655506121e1565b601f19841661218f86611f6b565b60005b828110156121b757848901518255600182019150602085019450602081019050612192565b868310156121d457848901516121d0601f8916826120dd565b8355505b6001600288020188555050505b505050505050565b600060808201905081810360008301526122038187611c2c565b90506122126020830186611973565b61221f6040830185611973565b81810360608301526122318184611c2c565b90509594505050505056fea2646970667358221220d470ae645d4d6bdabb23b49b71137af6c584b27f03a80cecf8f849b1dd74414e64736f6c634300080f0033",
  "immutableReferences": {},
  "source": "// SPDX-License-Identifier: MIT\r\n\r\npragma solidity >=0.5.16;\r\n\r\nimport \"./Auction.sol\";\r\n\r\ncontract ItemContract{\r\n\r\n    struct Item{\r\n        string name;\r\n        uint256 weight; \r\n        uint256 stock;     \r\n        address payable producer;   \r\n        string origin;  \r\n        uint256 itemId;    \r\n        string imgCID;\r\n        address payable owner;\r\n        bool active;\r\n    } \r\n\r\n    Item[] public items;\r\n\r\n\r\n    mapping(address => bool     ) public producerCheck;\r\n    mapping(uint256 => uint256[]) public auctionTracking;\r\n    \r\n\r\n\r\n    function createItem(string memory _itemTitle, uint256 _weight, uint256 _stock,  string memory _origin) public returns(uint256){\r\n        \r\n        uint256 _itemId = items.length;\r\n\r\n        \r\n        Item memory newItem;\r\n        \r\n        newItem.name = _itemTitle;\r\n        newItem.weight = _weight;\r\n        newItem.stock = _stock;\r\n        newItem.producer = payable(msg.sender); \r\n        newItem.origin = _origin;\r\n        newItem.itemId = _itemId;\r\n        newItem.owner = payable(msg.sender);\r\n\r\n        items.push(newItem);\r\n \r\n        emit CreateItemEvent(_itemTitle, _weight, _stock, _origin);\r\n        return _itemId;\r\n    }\r\n\r\n    function getStockById(uint256 _itemId) public view returns(uint256){\r\n        return items[_itemId].stock;\r\n    }\r\n\r\n    function getAllOfItems() public view returns(Item[] memory){\r\n        return items;\r\n    }\r\n    \r\n    function getProducerCheck(address _user) public view returns(bool){\r\n        bool rtn = producerCheck[_user];\r\n        return rtn;\r\n    }\r\n\r\n    function getOriginById(uint256 _itemId) public view returns(string memory){\r\n        return items[_itemId].origin;\r\n    }    \r\n\r\n    function getProducerById(uint256 _itemId) public view returns(address _proudcer){\r\n        return items[_itemId].producer;\r\n    }\r\n\r\n    function getItemNameById(uint256 _itemId) public view returns(string memory){\r\n        return items[_itemId].name;\r\n    }\r\n\r\n    function getBidOrNotById(uint256 _itemId) public view returns(bool){\r\n        return msg.sender != items[_itemId].producer;\r\n    }\r\n\r\n    \r\n    function viewItemById(uint _itemId) public view returns(\r\n        string memory name,\r\n        uint256 weight,\r\n        uint256 stock,\r\n        address payable producer,\r\n        string memory origin,\r\n        uint256 itemId\r\n    ){\r\n        Item memory item = items[_itemId];\r\n        return(\r\n            item.name,\r\n            item.weight,\r\n            item.stock,\r\n            item.producer,\r\n            item.origin,\r\n            item.itemId\r\n            );\r\n    }\r\n\r\n    function getItemById(uint256 _itemId) public view returns(Item memory){\r\n        return items[_itemId];\r\n    }\r\n\r\n\r\n    function isProducer() public view returns(bool){\r\n        return producerCheck[msg.sender];\r\n        }\r\n        \r\n\r\n    function setOwnerToProducer(bool flag) public returns(bool){\r\n        producerCheck[msg.sender] = flag;\r\n        emit SetOwnerToProducerEvent(flag);\r\n        return producerCheck[msg.sender];\r\n    }\r\n    \r\n\r\n\r\n    event SetOwnerToProducerEvent(bool flag);\r\n    event CreateItemEvent(string _itemTitle, uint256 _weight, uint256 _stock, string _origin);\r\n}",
  "sourcePath": "/Users/c_rbi/ethNet/smart_contract/contracts/Item.sol",
  "compiler": {
    "name": "solc",
    "version": "0.8.15+commit.e14f2714.Emscripten.clang"
  },
  "schemaVersion": "3.4.8",
  "updatedAt": "2022-08-02T22:45:05.113Z",
  "networkType": "ethereum",
  "devdoc": {
    "kind": "dev",
    "methods": {},
    "version": 1
  },
  "userdoc": {
    "kind": "user",
    "methods": {},
    "version": 1
  }
}