{
  "contractName": "ItemContract",
  "abi": [
    {
      "anonymous": false,
      "inputs": [
        {
          "indexed": false,
          "internalType": "string",
          "name": "_itemTitle",
          "type": "string"
        },
        {
          "indexed": false,
          "internalType": "uint256",
          "name": "_weight",
          "type": "uint256"
        },
        {
          "indexed": false,
          "internalType": "uint256",
          "name": "_stock",
          "type": "uint256"
        },
        {
          "indexed": false,
          "internalType": "string",
          "name": "_origin",
          "type": "string"
        }
      ],
      "name": "CreateItemEvent",
      "type": "event"
    },
    {
      "anonymous": false,
      "inputs": [
        {
          "indexed": false,
          "internalType": "bool",
          "name": "flag",
          "type": "bool"
        }
      ],
      "name": "SetOwnerToProducerEvent",
      "type": "event"
    },
    {
      "inputs": [
        {
          "internalType": "uint256",
          "name": "",
          "type": "uint256"
        },
        {
          "internalType": "uint256",
          "name": "",
          "type": "uint256"
        }
      ],
      "name": "auctionTracking",
      "outputs": [
        {
          "internalType": "uint256",
          "name": "",
          "type": "uint256"
        }
      ],
      "stateMutability": "view",
      "type": "function",
      "constant": true
    },
    {
      "inputs": [
        {
          "internalType": "uint256",
          "name": "",
          "type": "uint256"
        }
      ],
      "name": "items",
      "outputs": [
        {
          "internalType": "string",
          "name": "name",
          "type": "string"
        },
        {
          "internalType": "uint256",
          "name": "weight",
          "type": "uint256"
        },
        {
          "internalType": "uint256",
          "name": "stock",
          "type": "uint256"
        },
        {
          "internalType": "address payable",
          "name": "producer",
          "type": "address"
        },
        {
          "internalType": "string",
          "name": "origin",
          "type": "string"
        },
        {
          "internalType": "uint256",
          "name": "itemId",
          "type": "uint256"
        },
        {
          "internalType": "address payable",
          "name": "owner",
          "type": "address"
        },
        {
          "internalType": "bool",
          "name": "active",
          "type": "bool"
        }
      ],
      "stateMutability": "view",
      "type": "function",
      "constant": true
    },
    {
      "inputs": [
        {
          "internalType": "address",
          "name": "",
          "type": "address"
        }
      ],
      "name": "producerCheck",
      "outputs": [
        {
          "internalType": "bool",
          "name": "",
          "type": "bool"
        }
      ],
      "stateMutability": "view",
      "type": "function",
      "constant": true
    },
    {
      "inputs": [
        {
          "internalType": "string",
          "name": "_itemTitle",
          "type": "string"
        },
        {
          "internalType": "uint256",
          "name": "_weight",
          "type": "uint256"
        },
        {
          "internalType": "uint256",
          "name": "_stock",
          "type": "uint256"
        },
        {
          "internalType": "string",
          "name": "_origin",
          "type": "string"
        },
        {
          "internalType": "string[]",
          "name": "_imgCID",
          "type": "string[]"
        }
      ],
      "name": "createItem",
      "outputs": [
        {
          "internalType": "uint256",
          "name": "",
          "type": "uint256"
        }
      ],
      "stateMutability": "nonpayable",
      "type": "function"
    },
    {
      "inputs": [
        {
          "internalType": "uint256",
          "name": "_itemId",
          "type": "uint256"
        }
      ],
      "name": "getStockById",
      "outputs": [
        {
          "internalType": "uint256",
          "name": "",
          "type": "uint256"
        }
      ],
      "stateMutability": "view",
      "type": "function",
      "constant": true
    },
    {
      "inputs": [],
      "name": "getAllOfItems",
      "outputs": [
        {
          "components": [
            {
              "internalType": "string",
              "name": "name",
              "type": "string"
            },
            {
              "internalType": "uint256",
              "name": "weight",
              "type": "uint256"
            },
            {
              "internalType": "uint256",
              "name": "stock",
              "type": "uint256"
            },
            {
              "internalType": "address payable",
              "name": "producer",
              "type": "address"
            },
            {
              "internalType": "string",
              "name": "origin",
              "type": "string"
            },
            {
              "internalType": "uint256",
              "name": "itemId",
              "type": "uint256"
            },
            {
              "internalType": "string[]",
              "name": "imgCIDs",
              "type": "string[]"
            },
            {
              "internalType": "address payable",
              "name": "owner",
              "type": "address"
            },
            {
              "internalType": "bool",
              "name": "active",
              "type": "bool"
            }
          ],
          "internalType": "struct ItemContract.Item[]",
          "name": "",
          "type": "tuple[]"
        }
      ],
      "stateMutability": "view",
      "type": "function",
      "constant": true
    },
    {
      "inputs": [
        {
          "internalType": "address",
          "name": "_user",
          "type": "address"
        }
      ],
      "name": "getProducerCheck",
      "outputs": [
        {
          "internalType": "bool",
          "name": "",
          "type": "bool"
        }
      ],
      "stateMutability": "view",
      "type": "function",
      "constant": true
    },
    {
      "inputs": [
        {
          "internalType": "uint256",
          "name": "_itemId",
          "type": "uint256"
        }
      ],
      "name": "getImageCIDsById",
      "outputs": [
        {
          "internalType": "string[]",
          "name": "",
          "type": "string[]"
        }
      ],
      "stateMutability": "view",
      "type": "function",
      "constant": true
    },
    {
      "inputs": [
        {
          "internalType": "uint256",
          "name": "_itemId",
          "type": "uint256"
        }
      ],
      "name": "getOriginById",
      "outputs": [
        {
          "internalType": "string",
          "name": "",
          "type": "string"
        }
      ],
      "stateMutability": "view",
      "type": "function",
      "constant": true
    },
    {
      "inputs": [
        {
          "internalType": "uint256",
          "name": "_itemId",
          "type": "uint256"
        }
      ],
      "name": "getProducerById",
      "outputs": [
        {
          "internalType": "address",
          "name": "_proudcer",
          "type": "address"
        }
      ],
      "stateMutability": "view",
      "type": "function",
      "constant": true
    },
    {
      "inputs": [
        {
          "internalType": "uint256",
          "name": "_itemId",
          "type": "uint256"
        }
      ],
      "name": "getItemNameById",
      "outputs": [
        {
          "internalType": "string",
          "name": "",
          "type": "string"
        }
      ],
      "stateMutability": "view",
      "type": "function",
      "constant": true
    },
    {
      "inputs": [
        {
          "internalType": "uint256",
          "name": "_itemId",
          "type": "uint256"
        }
      ],
      "name": "getBidOrNotById",
      "outputs": [
        {
          "internalType": "bool",
          "name": "",
          "type": "bool"
        }
      ],
      "stateMutability": "view",
      "type": "function",
      "constant": true
    },
    {
      "inputs": [
        {
          "internalType": "uint256",
          "name": "_itemId",
          "type": "uint256"
        }
      ],
      "name": "viewItemById",
      "outputs": [
        {
          "internalType": "string",
          "name": "name",
          "type": "string"
        },
        {
          "internalType": "uint256",
          "name": "weight",
          "type": "uint256"
        },
        {
          "internalType": "uint256",
          "name": "stock",
          "type": "uint256"
        },
        {
          "internalType": "address payable",
          "name": "producer",
          "type": "address"
        },
        {
          "internalType": "string",
          "name": "origin",
          "type": "string"
        },
        {
          "internalType": "uint256",
          "name": "itemId",
          "type": "uint256"
        }
      ],
      "stateMutability": "view",
      "type": "function",
      "constant": true
    },
    {
      "inputs": [
        {
          "internalType": "uint256",
          "name": "_itemId",
          "type": "uint256"
        }
      ],
      "name": "getItemById",
      "outputs": [
        {
          "components": [
            {
              "internalType": "string",
              "name": "name",
              "type": "string"
            },
            {
              "internalType": "uint256",
              "name": "weight",
              "type": "uint256"
            },
            {
              "internalType": "uint256",
              "name": "stock",
              "type": "uint256"
            },
            {
              "internalType": "address payable",
              "name": "producer",
              "type": "address"
            },
            {
              "internalType": "string",
              "name": "origin",
              "type": "string"
            },
            {
              "internalType": "uint256",
              "name": "itemId",
              "type": "uint256"
            },
            {
              "internalType": "string[]",
              "name": "imgCIDs",
              "type": "string[]"
            },
            {
              "internalType": "address payable",
              "name": "owner",
              "type": "address"
            },
            {
              "internalType": "bool",
              "name": "active",
              "type": "bool"
            }
          ],
          "internalType": "struct ItemContract.Item",
          "name": "",
          "type": "tuple"
        }
      ],
      "stateMutability": "view",
      "type": "function",
      "constant": true
    },
    {
      "inputs": [],
      "name": "isProducer",
      "outputs": [
        {
          "internalType": "bool",
          "name": "",
          "type": "bool"
        }
      ],
      "stateMutability": "view",
      "type": "function",
      "constant": true
    },
    {
      "inputs": [
        {
          "internalType": "bool",
          "name": "flag",
          "type": "bool"
        }
      ],
      "name": "setOwnerToProducer",
      "outputs": [
        {
          "internalType": "bool",
          "name": "",
          "type": "bool"
        }
      ],
      "stateMutability": "nonpayable",
      "type": "function"
    }
  ],
  "bytecode": "0x608060405234801561001057600080fd5b50612746806100206000396000f3fe608060405234801561001057600080fd5b50600436106101005760003560e01c80638303c7a111610097578063ca21ec1b11610066578063ca21ec1b14610328578063cd2f071014610358578063cd8ed50714610388578063f37512e8146103b857610100565b80638303c7a1146102735780638d0563db14610291578063a754c331146102c1578063bfb231d2146102f157610100565b80632d218cbd116100d35780632d218cbd146101c557806352791f51146101f55780635f515a3a14610225578063755660be1461024357610100565b80630c8d79a41461010557806319a247d514610135578063220511e61461016557806324757e0d14610195575b600080fd5b61011f600480360381019061011a9190611887565b6103ed565b60405161012c9190611a0f565b60405180910390f35b61014f600480360381019061014a9190611a8f565b6104eb565b60405161015c9190611ad7565b60405180910390f35b61017f600480360381019061017a9190611887565b61050b565b60405161018c9190611b01565b60405180910390f35b6101af60048036038101906101aa9190611b48565b610559565b6040516101bc9190611ad7565b60405180910390f35b6101df60048036038101906101da9190611a8f565b61063d565b6040516101ec9190611ad7565b60405180910390f35b61020f600480360381019061020a9190611887565b610698565b60405161021c9190611ad7565b60405180910390f35b61022d610715565b60405161023a9190611ad7565b60405180910390f35b61025d60048036038101906102589190611d90565b610769565b60405161026a9190611e6e565b60405180910390f35b61027b6109b4565b60405161028891906120e3565b60405180910390f35b6102ab60048036038101906102a69190611887565b610cf6565b6040516102b8919061214f565b60405180910390f35b6102db60048036038101906102d69190611887565b610dad565b6040516102e89190611e6e565b60405180910390f35b61030b60048036038101906103069190611887565b610ddb565b60405161031f989796959493929190612180565b60405180910390f35b610342600480360381019061033d9190611887565b610f90565b60405161034f919061214f565b60405180910390f35b610372600480360381019061036d9190611887565b611047565b60405161037f91906122df565b60405180910390f35b6103a2600480360381019061039d9190612301565b611366565b6040516103af9190611e6e565b60405180910390f35b6103d260048036038101906103cd9190611887565b611397565b6040516103e496959493929190612341565b60405180910390f35b606060008281548110610403576104026123b0565b5b9060005260206000209060080201600601805480602002602001604051908101604052809291908181526020016000905b828210156104e05783829060005260206000200180546104539061240e565b80601f016020809104026020016040519081016040528092919081815260200182805461047f9061240e565b80156104cc5780601f106104a1576101008083540402835291602001916104cc565b820191906000526020600020905b8154815290600101906020018083116104af57829003601f168201915b505050505081526020019060010190610434565b505050509050919050565b60016020528060005260406000206000915054906101000a900460ff1681565b60008082815481106105205761051f6123b0565b5b906000526020600020906008020160030160009054906101000a900473ffffffffffffffffffffffffffffffffffffffff169050919050565b600081600160003373ffffffffffffffffffffffffffffffffffffffff1673ffffffffffffffffffffffffffffffffffffffff16815260200190815260200160002060006101000a81548160ff0219169083151502179055507f2ba058f8cd666d85b9312847d87c5e9008b3cacdc2e01e6ee84c0c690013e6e7826040516105e19190611ad7565b60405180910390a1600160003373ffffffffffffffffffffffffffffffffffffffff1673ffffffffffffffffffffffffffffffffffffffff16815260200190815260200160002060009054906101000a900460ff169050919050565b600080600160008473ffffffffffffffffffffffffffffffffffffffff1673ffffffffffffffffffffffffffffffffffffffff16815260200190815260200160002060009054906101000a900460ff16905080915050919050565b60008082815481106106ad576106ac6123b0565b5b906000526020600020906008020160030160009054906101000a900473ffffffffffffffffffffffffffffffffffffffff1673ffffffffffffffffffffffffffffffffffffffff163373ffffffffffffffffffffffffffffffffffffffff1614159050919050565b6000600160003373ffffffffffffffffffffffffffffffffffffffff1673ffffffffffffffffffffffffffffffffffffffff16815260200190815260200160002060009054906101000a900460ff16905090565b600080600080549050905061077c6116e9565b878160000181905250868160200181815250508581604001818152505033816060019073ffffffffffffffffffffffffffffffffffffffff16908173ffffffffffffffffffffffffffffffffffffffff1681525050848160800181905250818160a0018181525050338160e0019073ffffffffffffffffffffffffffffffffffffffff16908173ffffffffffffffffffffffffffffffffffffffff1681525050838160c001819052506000819080600181540180825580915050600190039060005260206000209060080201600090919091909150600082015181600001908161086691906125eb565b50602082015181600101556040820151816002015560608201518160030160006101000a81548173ffffffffffffffffffffffffffffffffffffffff021916908373ffffffffffffffffffffffffffffffffffffffff16021790555060808201518160040190816108d791906125eb565b5060a0820151816005015560c08201518160060190805190602001906108fe929190611763565b5060e08201518160070160006101000a81548173ffffffffffffffffffffffffffffffffffffffff021916908373ffffffffffffffffffffffffffffffffffffffff1602179055506101008201518160070160146101000a81548160ff02191690831515021790555050507f64ee80e49474704f80a5ff841a6efbc6f8ee570b013b541dbf8bf10c3335691e8888888860405161099e94939291906126bd565b60405180910390a1819250505095945050505050565b60606000805480602002602001604051908101604052809291908181526020016000905b82821015610ced578382906000526020600020906008020160405180610120016040529081600082018054610a0c9061240e565b80601f0160208091040260200160405190810160405280929190818152602001828054610a389061240e565b8015610a855780601f10610a5a57610100808354040283529160200191610a85565b820191906000526020600020905b815481529060010190602001808311610a6857829003601f168201915b5050505050815260200160018201548152602001600282015481526020016003820160009054906101000a900473ffffffffffffffffffffffffffffffffffffffff1673ffffffffffffffffffffffffffffffffffffffff1673ffffffffffffffffffffffffffffffffffffffff168152602001600482018054610b089061240e565b80601f0160208091040260200160405190810160405280929190818152602001828054610b349061240e565b8015610b815780601f10610b5657610100808354040283529160200191610b81565b820191906000526020600020905b815481529060010190602001808311610b6457829003601f168201915b505050505081526020016005820154815260200160068201805480602002602001604051908101604052809291908181526020016000905b82821015610c65578382906000526020600020018054610bd89061240e565b80601f0160208091040260200160405190810160405280929190818152602001828054610c049061240e565b8015610c515780601f10610c2657610100808354040283529160200191610c51565b820191906000526020600020905b815481529060010190602001808311610c3457829003601f168201915b505050505081526020019060010190610bb9565b5050505081526020016007820160009054906101000a900473ffffffffffffffffffffffffffffffffffffffff1673ffffffffffffffffffffffffffffffffffffffff1673ffffffffffffffffffffffffffffffffffffffff1681526020016007820160149054906101000a900460ff161515151581525050815260200190600101906109d8565b50505050905090565b606060008281548110610d0c57610d0b6123b0565b5b90600052602060002090600802016000018054610d289061240e565b80601f0160208091040260200160405190810160405280929190818152602001828054610d549061240e565b8015610da15780601f10610d7657610100808354040283529160200191610da1565b820191906000526020600020905b815481529060010190602001808311610d8457829003601f168201915b50505050509050919050565b6000808281548110610dc257610dc16123b0565b5b9060005260206000209060080201600201549050919050565b60008181548110610deb57600080fd5b9060005260206000209060080201600091509050806000018054610e0e9061240e565b80601f0160208091040260200160405190810160405280929190818152602001828054610e3a9061240e565b8015610e875780601f10610e5c57610100808354040283529160200191610e87565b820191906000526020600020905b815481529060010190602001808311610e6a57829003601f168201915b5050505050908060010154908060020154908060030160009054906101000a900473ffffffffffffffffffffffffffffffffffffffff1690806004018054610ece9061240e565b80601f0160208091040260200160405190810160405280929190818152602001828054610efa9061240e565b8015610f475780601f10610f1c57610100808354040283529160200191610f47565b820191906000526020600020905b815481529060010190602001808311610f2a57829003601f168201915b5050505050908060050154908060070160009054906101000a900473ffffffffffffffffffffffffffffffffffffffff16908060070160149054906101000a900460ff16905088565b606060008281548110610fa657610fa56123b0565b5b90600052602060002090600802016004018054610fc29061240e565b80601f0160208091040260200160405190810160405280929190818152602001828054610fee9061240e565b801561103b5780601f106110105761010080835404028352916020019161103b565b820191906000526020600020905b81548152906001019060200180831161101e57829003601f168201915b50505050509050919050565b61104f6116e9565b60008281548110611063576110626123b0565b5b90600052602060002090600802016040518061012001604052908160008201805461108d9061240e565b80601f01602080910402602001604051908101604052809291908181526020018280546110b99061240e565b80156111065780601f106110db57610100808354040283529160200191611106565b820191906000526020600020905b8154815290600101906020018083116110e957829003601f168201915b5050505050815260200160018201548152602001600282015481526020016003820160009054906101000a900473ffffffffffffffffffffffffffffffffffffffff1673ffffffffffffffffffffffffffffffffffffffff1673ffffffffffffffffffffffffffffffffffffffff1681526020016004820180546111899061240e565b80601f01602080910402602001604051908101604052809291908181526020018280546111b59061240e565b80156112025780601f106111d757610100808354040283529160200191611202565b820191906000526020600020905b8154815290600101906020018083116111e557829003601f168201915b505050505081526020016005820154815260200160068201805480602002602001604051908101604052809291908181526020016000905b828210156112e65783829060005260206000200180546112599061240e565b80601f01602080910402602001604051908101604052809291908181526020018280546112859061240e565b80156112d25780601f106112a7576101008083540402835291602001916112d2565b820191906000526020600020905b8154815290600101906020018083116112b557829003601f168201915b50505050508152602001906001019061123a565b5050505081526020016007820160009054906101000a900473ffffffffffffffffffffffffffffffffffffffff1673ffffffffffffffffffffffffffffffffffffffff1673ffffffffffffffffffffffffffffffffffffffff1681526020016007820160149054906101000a900460ff1615151515815250509050919050565b6002602052816000526040600020818154811061138257600080fd5b90600052602060002001600091509150505481565b606060008060006060600080600088815481106113b7576113b66123b0565b5b9060005260206000209060080201604051806101200160405290816000820180546113e19061240e565b80601f016020809104026020016040519081016040528092919081815260200182805461140d9061240e565b801561145a5780601f1061142f5761010080835404028352916020019161145a565b820191906000526020600020905b81548152906001019060200180831161143d57829003601f168201915b5050505050815260200160018201548152602001600282015481526020016003820160009054906101000a900473ffffffffffffffffffffffffffffffffffffffff1673ffffffffffffffffffffffffffffffffffffffff1673ffffffffffffffffffffffffffffffffffffffff1681526020016004820180546114dd9061240e565b80601f01602080910402602001604051908101604052809291908181526020018280546115099061240e565b80156115565780601f1061152b57610100808354040283529160200191611556565b820191906000526020600020905b81548152906001019060200180831161153957829003601f168201915b505050505081526020016005820154815260200160068201805480602002602001604051908101604052809291908181526020016000905b8282101561163a5783829060005260206000200180546115ad9061240e565b80601f01602080910402602001604051908101604052809291908181526020018280546115d99061240e565b80156116265780601f106115fb57610100808354040283529160200191611626565b820191906000526020600020905b81548152906001019060200180831161160957829003601f168201915b50505050508152602001906001019061158e565b5050505081526020016007820160009054906101000a900473ffffffffffffffffffffffffffffffffffffffff1673ffffffffffffffffffffffffffffffffffffffff1673ffffffffffffffffffffffffffffffffffffffff1681526020016007820160149054906101000a900460ff1615151515815250509050806000015181602001518260400151836060015184608001518560a001519650965096509650965096505091939550919395565b604051806101200160405280606081526020016000815260200160008152602001600073ffffffffffffffffffffffffffffffffffffffff168152602001606081526020016000815260200160608152602001600073ffffffffffffffffffffffffffffffffffffffff1681526020016000151581525090565b8280548282559060005260206000209081019282156117ab579160200282015b828111156117aa57825182908161179a91906125eb565b5091602001919060010190611783565b5b5090506117b891906117bc565b5090565b5b808211156117dc57600081816117d391906117e0565b506001016117bd565b5090565b5080546117ec9061240e565b6000825580601f106117fe575061181d565b601f01602090049060005260206000209081019061181c9190611820565b5b50565b5b80821115611839576000816000905550600101611821565b5090565b6000604051905090565b600080fd5b600080fd5b6000819050919050565b61186481611851565b811461186f57600080fd5b50565b6000813590506118818161185b565b92915050565b60006020828403121561189d5761189c611847565b5b60006118ab84828501611872565b91505092915050565b600081519050919050565b600082825260208201905092915050565b6000819050602082019050919050565b600081519050919050565b600082825260208201905092915050565b60005b8381101561191a5780820151818401526020810190506118ff565b83811115611929576000848401525b50505050565b6000601f19601f8301169050919050565b600061194b826118e0565b61195581856118eb565b93506119658185602086016118fc565b61196e8161192f565b840191505092915050565b60006119858383611940565b905092915050565b6000602082019050919050565b60006119a5826118b4565b6119af81856118bf565b9350836020820285016119c1856118d0565b8060005b858110156119fd57848403895281516119de8582611979565b94506119e98361198d565b925060208a019950506001810190506119c5565b50829750879550505050505092915050565b60006020820190508181036000830152611a29818461199a565b905092915050565b600073ffffffffffffffffffffffffffffffffffffffff82169050919050565b6000611a5c82611a31565b9050919050565b611a6c81611a51565b8114611a7757600080fd5b50565b600081359050611a8981611a63565b92915050565b600060208284031215611aa557611aa4611847565b5b6000611ab384828501611a7a565b91505092915050565b60008115159050919050565b611ad181611abc565b82525050565b6000602082019050611aec6000830184611ac8565b92915050565b611afb81611a51565b82525050565b6000602082019050611b166000830184611af2565b92915050565b611b2581611abc565b8114611b3057600080fd5b50565b600081359050611b4281611b1c565b92915050565b600060208284031215611b5e57611b5d611847565b5b6000611b6c84828501611b33565b91505092915050565b600080fd5b600080fd5b7f4e487b7100000000000000000000000000000000000000000000000000000000600052604160045260246000fd5b611bb78261192f565b810181811067ffffffffffffffff82111715611bd657611bd5611b7f565b5b80604052505050565b6000611be961183d565b9050611bf58282611bae565b919050565b600067ffffffffffffffff821115611c1557611c14611b7f565b5b611c1e8261192f565b9050602081019050919050565b82818337600083830152505050565b6000611c4d611c4884611bfa565b611bdf565b905082815260208101848484011115611c6957611c68611b7a565b5b611c74848285611c2b565b509392505050565b600082601f830112611c9157611c90611b75565b5b8135611ca1848260208601611c3a565b91505092915050565b600067ffffffffffffffff821115611cc557611cc4611b7f565b5b602082029050602081019050919050565b600080fd5b6000611cee611ce984611caa565b611bdf565b90508083825260208201905060208402830185811115611d1157611d10611cd6565b5b835b81811015611d5857803567ffffffffffffffff811115611d3657611d35611b75565b5b808601611d438982611c7c565b85526020850194505050602081019050611d13565b5050509392505050565b600082601f830112611d7757611d76611b75565b5b8135611d87848260208601611cdb565b91505092915050565b600080600080600060a08688031215611dac57611dab611847565b5b600086013567ffffffffffffffff811115611dca57611dc961184c565b5b611dd688828901611c7c565b9550506020611de788828901611872565b9450506040611df888828901611872565b935050606086013567ffffffffffffffff811115611e1957611e1861184c565b5b611e2588828901611c7c565b925050608086013567ffffffffffffffff811115611e4657611e4561184c565b5b611e5288828901611d62565b9150509295509295909350565b611e6881611851565b82525050565b6000602082019050611e836000830184611e5f565b92915050565b600081519050919050565b600082825260208201905092915050565b6000819050602082019050919050565b611ebe81611851565b82525050565b6000611ecf82611a31565b9050919050565b611edf81611ec4565b82525050565b600082825260208201905092915050565b6000611f01826118b4565b611f0b8185611ee5565b935083602082028501611f1d856118d0565b8060005b85811015611f595784840389528151611f3a8582611979565b9450611f458361198d565b925060208a01995050600181019050611f21565b50829750879550505050505092915050565b611f7481611abc565b82525050565b6000610120830160008301518482036000860152611f988282611940565b9150506020830151611fad6020860182611eb5565b506040830151611fc06040860182611eb5565b506060830151611fd36060860182611ed6565b5060808301518482036080860152611feb8282611940565b91505060a083015161200060a0860182611eb5565b5060c083015184820360c08601526120188282611ef6565b91505060e083015161202d60e0860182611ed6565b50610100830151612042610100860182611f6b565b508091505092915050565b60006120598383611f7a565b905092915050565b6000602082019050919050565b600061207982611e89565b6120838185611e94565b93508360208202850161209585611ea5565b8060005b858110156120d157848403895281516120b2858261204d565b94506120bd83612061565b925060208a01995050600181019050612099565b50829750879550505050505092915050565b600060208201905081810360008301526120fd818461206e565b905092915050565b600082825260208201905092915050565b6000612121826118e0565b61212b8185612105565b935061213b8185602086016118fc565b6121448161192f565b840191505092915050565b600060208201905081810360008301526121698184612116565b905092915050565b61217a81611ec4565b82525050565b600061010082019050818103600083015261219b818b612116565b90506121aa602083018a611e5f565b6121b76040830189611e5f565b6121c46060830188612171565b81810360808301526121d68187612116565b90506121e560a0830186611e5f565b6121f260c0830185612171565b6121ff60e0830184611ac8565b9998505050505050505050565b600061012083016000830151848203600086015261222a8282611940565b915050602083015161223f6020860182611eb5565b5060408301516122526040860182611eb5565b5060608301516122656060860182611ed6565b506080830151848203608086015261227d8282611940565b91505060a083015161229260a0860182611eb5565b5060c083015184820360c08601526122aa8282611ef6565b91505060e08301516122bf60e0860182611ed6565b506101008301516122d4610100860182611f6b565b508091505092915050565b600060208201905081810360008301526122f9818461220c565b905092915050565b6000806040838503121561231857612317611847565b5b600061232685828601611872565b925050602061233785828601611872565b9150509250929050565b600060c082019050818103600083015261235b8189612116565b905061236a6020830188611e5f565b6123776040830187611e5f565b6123846060830186612171565b81810360808301526123968185612116565b90506123a560a0830184611e5f565b979650505050505050565b7f4e487b7100000000000000000000000000000000000000000000000000000000600052603260045260246000fd5b7f4e487b7100000000000000000000000000000000000000000000000000000000600052602260045260246000fd5b6000600282049050600182168061242657607f821691505b602082108103612439576124386123df565b5b50919050565b60008190508160005260206000209050919050565b60006020601f8301049050919050565b600082821b905092915050565b6000600883026124a17fffffffffffffffffffffffffffffffffffffffffffffffffffffffffffffffff82612464565b6124ab8683612464565b95508019841693508086168417925050509392505050565b6000819050919050565b60006124e86124e36124de84611851565b6124c3565b611851565b9050919050565b6000819050919050565b612502836124cd565b61251661250e826124ef565b848454612471565b825550505050565b600090565b61252b61251e565b6125368184846124f9565b505050565b5b8181101561255a5761254f600082612523565b60018101905061253c565b5050565b601f82111561259f576125708161243f565b61257984612454565b81016020851015612588578190505b61259c61259485612454565b83018261253b565b50505b505050565b600082821c905092915050565b60006125c2600019846008026125a4565b1980831691505092915050565b60006125db83836125b1565b9150826002028217905092915050565b6125f4826118e0565b67ffffffffffffffff81111561260d5761260c611b7f565b5b612617825461240e565b61262282828561255e565b600060209050601f8311600181146126555760008415612643578287015190505b61264d85826125cf565b8655506126b5565b601f1984166126638661243f565b60005b8281101561268b57848901518255600182019150602085019450602081019050612666565b868310156126a857848901516126a4601f8916826125b1565b8355505b6001600288020188555050505b505050505050565b600060808201905081810360008301526126d78187612116565b90506126e66020830186611e5f565b6126f36040830185611e5f565b81810360608301526127058184612116565b90509594505050505056fea26469706673582212204ad3ba2131ea09a54fb2551b966e3574dd5c2fd3072301de7601b93bdc3db65664736f6c634300080f0033",
  "immutableReferences": {},
  "source": "// SPDX-License-Identifier: MIT\r\n\r\npragma solidity >=0.5.16;\r\n\r\nimport \"./Auction.sol\";\r\n\r\ncontract ItemContract{\r\n\r\n    struct Item{\r\n        string name;\r\n        uint256 weight; \r\n        uint256 stock;     \r\n        address payable producer;   \r\n        string origin;  \r\n        uint256 itemId;    \r\n        string[] imgCIDs;\r\n        address payable owner;\r\n        bool active;\r\n    } \r\n\r\n    Item[] public items;\r\n\r\n\r\n    mapping(address => bool     ) public producerCheck;\r\n    mapping(uint256 => uint256[]) public auctionTracking;\r\n    \r\n\r\n\r\n    function createItem(string memory _itemTitle, uint256 _weight, uint256 _stock, string memory _origin, string[] memory _imgCID) public returns(uint256){\r\n        \r\n        uint256 _itemId = items.length;\r\n\r\n        \r\n        Item memory newItem;\r\n        \r\n        newItem.name = _itemTitle;\r\n        newItem.weight = _weight;\r\n        newItem.stock = _stock;\r\n        newItem.producer = payable(msg.sender); \r\n        newItem.origin = _origin;\r\n        newItem.itemId = _itemId;\r\n        newItem.owner = payable(msg.sender);\r\n        newItem.imgCIDs = _imgCID;\r\n\r\n        items.push(newItem);\r\n \r\n        emit CreateItemEvent(_itemTitle, _weight, _stock, _origin);\r\n        return _itemId;\r\n    }\r\n\r\n    function getStockById(uint256 _itemId) public view returns(uint256){\r\n        return items[_itemId].stock;\r\n    }\r\n\r\n    function getAllOfItems() public view returns(Item[] memory){\r\n        return items;\r\n    }\r\n    \r\n    function getProducerCheck(address _user) public view returns(bool){\r\n        bool rtn = producerCheck[_user];\r\n        return rtn;\r\n    }\r\n\r\n    function getImageCIDsById(uint256 _itemId) public view returns(string[] memory){\r\n        return items[_itemId].imgCIDs;\r\n    }\r\n\r\n    function getOriginById(uint256 _itemId) public view returns(string memory){\r\n        return items[_itemId].origin;\r\n    }    \r\n\r\n    function getProducerById(uint256 _itemId) public view returns(address _proudcer){\r\n        return items[_itemId].producer;\r\n    }\r\n\r\n    function getItemNameById(uint256 _itemId) public view returns(string memory){\r\n        return items[_itemId].name;\r\n    }\r\n\r\n    function getBidOrNotById(uint256 _itemId) public view returns(bool){\r\n        return msg.sender != items[_itemId].producer;\r\n    }\r\n\r\n    \r\n    function viewItemById(uint _itemId) public view returns(\r\n        string memory name,\r\n        uint256 weight,\r\n        uint256 stock,\r\n        address payable producer,\r\n        string memory origin,\r\n        uint256 itemId\r\n    ){\r\n        Item memory item = items[_itemId];\r\n        return(\r\n            item.name,\r\n            item.weight,\r\n            item.stock,\r\n            item.producer,\r\n            item.origin,\r\n            item.itemId\r\n            );\r\n    }\r\n\r\n    function getItemById(uint256 _itemId) public view returns(Item memory){\r\n        return items[_itemId];\r\n    }\r\n\r\n\r\n    function isProducer() public view returns(bool){\r\n        return producerCheck[msg.sender];\r\n        }\r\n        \r\n\r\n    function setOwnerToProducer(bool flag) public returns(bool){\r\n        producerCheck[msg.sender] = flag;\r\n        emit SetOwnerToProducerEvent(flag);\r\n        return producerCheck[msg.sender];\r\n    }\r\n    \r\n\r\n\r\n    event SetOwnerToProducerEvent(bool flag);\r\n    event CreateItemEvent(string _itemTitle, uint256 _weight, uint256 _stock, string _origin);\r\n}",
  "sourcePath": "/Users/c_rbi/ethNet/PNU-milknmeat/back-end/smart_contract/contracts/Item.sol",
  "compiler": {
    "name": "solc",
    "version": "0.8.15+commit.e14f2714.Emscripten.clang"
  },
  "schemaVersion": "3.4.8",
  "updatedAt": "2022-08-03T22:21:33.465Z",
  "networkType": "ethereum",
  "devdoc": {
    "kind": "dev",
    "methods": {},
    "version": 1
  },
  "userdoc": {
    "kind": "user",
    "methods": {},
    "version": 1
  }
}