{
  "contractName": "MethodContract",
  "abi": [
    {
      "anonymous": false,
      "inputs": [
        {
          "indexed": false,
          "internalType": "uint256",
          "name": "len",
          "type": "uint256"
        }
      ],
      "name": "addrArrayPushEvent",
      "type": "event"
    },
    {
      "inputs": [
        {
          "internalType": "uint256[]",
          "name": "_arr",
          "type": "uint256[]"
        },
        {
          "internalType": "uint256",
          "name": "_uint",
          "type": "uint256"
        }
      ],
      "name": "uint256ArrayPush",
      "outputs": [
        {
          "internalType": "bool",
          "name": "",
          "type": "bool"
        }
      ],
      "stateMutability": "pure",
      "type": "function"
    },
    {
      "inputs": [
        {
          "internalType": "address[]",
          "name": "_arr",
          "type": "address[]"
        },
        {
          "internalType": "address",
          "name": "_owner",
          "type": "address"
        }
      ],
      "name": "addrArrayPush",
      "outputs": [
        {
          "internalType": "bool",
          "name": "",
          "type": "bool"
        }
      ],
      "stateMutability": "nonpayable",
      "type": "function"
    },
    {
      "inputs": [
        {
          "internalType": "string[]",
          "name": "_arr",
          "type": "string[]"
        },
        {
          "internalType": "string",
          "name": "_str",
          "type": "string"
        }
      ],
      "name": "strArrayPush",
      "outputs": [
        {
          "internalType": "bool",
          "name": "",
          "type": "bool"
        }
      ],
      "stateMutability": "pure",
      "type": "function"
    },
    {
      "inputs": [
        {
          "internalType": "uint256[]",
          "name": "_arr",
          "type": "uint256[]"
        },
        {
          "internalType": "uint256",
          "name": "_idx",
          "type": "uint256"
        }
      ],
      "name": "uint256ArrayErase",
      "outputs": [
        {
          "internalType": "bool",
          "name": "",
          "type": "bool"
        }
      ],
      "stateMutability": "pure",
      "type": "function"
    },
    {
      "inputs": [
        {
          "internalType": "address[]",
          "name": "_arr",
          "type": "address[]"
        },
        {
          "internalType": "address",
          "name": "_owner",
          "type": "address"
        }
      ],
      "name": "addrArrayErase",
      "outputs": [
        {
          "internalType": "bool",
          "name": "",
          "type": "bool"
        }
      ],
      "stateMutability": "pure",
      "type": "function"
    }
  ],
  "bytecode": "0x608060405234801561001057600080fd5b50610be7806100206000396000f3fe608060405234801561001057600080fd5b50600436106100575760003560e01c8063091e35341461005c578063ac9caf241461008c578063b6531876146100bc578063efabd3ac146100ec578063f95130d41461011c575b600080fd5b61007660048036038101906100719190610662565b61014c565b60405161008391906106d9565b60405180910390f35b6100a660048036038101906100a191906107ed565b610223565b6040516100b391906106d9565b60405180910390f35b6100d660048036038101906100d19190610662565b6102ca565b6040516100e391906106d9565b60405180910390f35b610106600480360381019061010191906109df565b610426565b60405161011391906106d9565b60405180910390f35b610136600480360381019061013191906107ed565b61045e565b60405161014391906106d9565b60405180910390f35b600080835190507f1408d783226d6c550209c1b8c7fc5547517299c68a34d327f65e53ddea659f9584516040516101839190610a66565b60405180910390a160018451018452828482815181106101a6576101a5610a81565b5b602002602001019073ffffffffffffffffffffffffffffffffffffffff16908173ffffffffffffffffffffffffffffffffffffffff16815250507f1408d783226d6c550209c1b8c7fc5547517299c68a34d327f65e53ddea659f9584516040516102109190610a66565b60405180910390a1600191505092915050565b600082828151811061023857610237610a81565b5b60200260200101600081525060006001836102539190610adf565b90505b83518110156102b8578360018261026d9190610b35565b8151811061027e5761027d610a81565b5b602002602001015184828151811061029957610298610a81565b5b60200260200101818152505080806102b090610b69565b915050610256565b50600183510383526001905092915050565b600080600090505b8351811015610414578273ffffffffffffffffffffffffffffffffffffffff1684828151811061030557610304610a81565b5b602002602001015173ffffffffffffffffffffffffffffffffffffffff16036104015783818151811061033b5761033a610a81565b5b60200260200101600073ffffffffffffffffffffffffffffffffffffffff16815250600060018261036c9190610adf565b90505b84518110156103ff57846001826103869190610adf565b8151811061039757610396610a81565b5b60200260200101518582815181106103b2576103b1610a81565b5b602002602001019073ffffffffffffffffffffffffffffffffffffffff16908173ffffffffffffffffffffffffffffffffffffffff168152505080806103f790610b69565b91505061036f565b505b808061040c90610b69565b9150506102d2565b50600183510383526001905092915050565b60008083519050600184510184528284828151811061044857610447610a81565b5b6020026020010181905250600191505092915050565b6000808351905060018451018452828482815181106104805761047f610a81565b5b602002602001018181525050600191505092915050565b6000604051905090565b600080fd5b600080fd5b600080fd5b6000601f19601f8301169050919050565b7f4e487b7100000000000000000000000000000000000000000000000000000000600052604160045260246000fd5b6104f9826104b0565b810181811067ffffffffffffffff82111715610518576105176104c1565b5b80604052505050565b600061052b610497565b905061053782826104f0565b919050565b600067ffffffffffffffff821115610557576105566104c1565b5b602082029050602081019050919050565b600080fd5b600073ffffffffffffffffffffffffffffffffffffffff82169050919050565b60006105988261056d565b9050919050565b6105a88161058d565b81146105b357600080fd5b50565b6000813590506105c58161059f565b92915050565b60006105de6105d98461053c565b610521565b9050808382526020820190506020840283018581111561060157610600610568565b5b835b8181101561062a578061061688826105b6565b845260208401935050602081019050610603565b5050509392505050565b600082601f830112610649576106486104ab565b5b81356106598482602086016105cb565b91505092915050565b60008060408385031215610679576106786104a1565b5b600083013567ffffffffffffffff811115610697576106966104a6565b5b6106a385828601610634565b92505060206106b4858286016105b6565b9150509250929050565b60008115159050919050565b6106d3816106be565b82525050565b60006020820190506106ee60008301846106ca565b92915050565b600067ffffffffffffffff82111561070f5761070e6104c1565b5b602082029050602081019050919050565b6000819050919050565b61073381610720565b811461073e57600080fd5b50565b6000813590506107508161072a565b92915050565b6000610769610764846106f4565b610521565b9050808382526020820190506020840283018581111561078c5761078b610568565b5b835b818110156107b557806107a18882610741565b84526020840193505060208101905061078e565b5050509392505050565b600082601f8301126107d4576107d36104ab565b5b81356107e4848260208601610756565b91505092915050565b60008060408385031215610804576108036104a1565b5b600083013567ffffffffffffffff811115610822576108216104a6565b5b61082e858286016107bf565b925050602061083f85828601610741565b9150509250929050565b600067ffffffffffffffff821115610864576108636104c1565b5b602082029050602081019050919050565b600080fd5b600067ffffffffffffffff821115610895576108946104c1565b5b61089e826104b0565b9050602081019050919050565b82818337600083830152505050565b60006108cd6108c88461087a565b610521565b9050828152602081018484840111156108e9576108e8610875565b5b6108f48482856108ab565b509392505050565b600082601f830112610911576109106104ab565b5b81356109218482602086016108ba565b91505092915050565b600061093d61093884610849565b610521565b905080838252602082019050602084028301858111156109605761095f610568565b5b835b818110156109a757803567ffffffffffffffff811115610985576109846104ab565b5b80860161099289826108fc565b85526020850194505050602081019050610962565b5050509392505050565b600082601f8301126109c6576109c56104ab565b5b81356109d684826020860161092a565b91505092915050565b600080604083850312156109f6576109f56104a1565b5b600083013567ffffffffffffffff811115610a1457610a136104a6565b5b610a20858286016109b1565b925050602083013567ffffffffffffffff811115610a4157610a406104a6565b5b610a4d858286016108fc565b9150509250929050565b610a6081610720565b82525050565b6000602082019050610a7b6000830184610a57565b92915050565b7f4e487b7100000000000000000000000000000000000000000000000000000000600052603260045260246000fd5b7f4e487b7100000000000000000000000000000000000000000000000000000000600052601160045260246000fd5b6000610aea82610720565b9150610af583610720565b9250827fffffffffffffffffffffffffffffffffffffffffffffffffffffffffffffffff03821115610b2a57610b29610ab0565b5b828201905092915050565b6000610b4082610720565b9150610b4b83610720565b925082821015610b5e57610b5d610ab0565b5b828203905092915050565b6000610b7482610720565b91507fffffffffffffffffffffffffffffffffffffffffffffffffffffffffffffffff8203610ba657610ba5610ab0565b5b60018201905091905056fea2646970667358221220e971522af5fcfbb64e509b3a813b41d8900b9ac65086c1468890aac5e522139464736f6c634300080f0033",
  "immutableReferences": {},
  "source": "// SPDX-License-Identifier: MIT\r\n\r\npragma solidity >=0.5.16;\r\n\r\ncontract MethodContract{\r\n    function uint256ArrayPush(uint256[] memory _arr, uint _uint) public pure returns(bool){\r\n        uint256 len = _arr.length;\r\n        assembly { mstore(_arr, add(mload(_arr), 1)) }\r\n        _arr[len] = _uint;\r\n        return true;\r\n    }\r\n     function addrArrayPush(address[] memory _arr, address _owner) public returns(bool){\r\n        uint256 len = _arr.length;\r\n        emit addrArrayPushEvent(_arr.length);\r\n        assembly { mstore(_arr, add(mload(_arr), 1)) }\r\n        _arr[len] = _owner;\r\n        emit addrArrayPushEvent(_arr.length);\r\n        return true;\r\n    }\r\n\r\n    function strArrayPush(string[] memory _arr, string memory _str) public pure returns(bool){\r\n        uint256 len = _arr.length;\r\n        assembly { mstore(_arr, add(mload(_arr), 1)) }\r\n        _arr[len] = _str;\r\n        return true;\r\n    }\r\n\r\n    function uint256ArrayErase(uint256[] memory _arr, uint256 _idx) public pure returns(bool){\r\n        delete _arr[_idx];\r\n        for(uint256 i = _idx+1; i<_arr.length; i++){\r\n            _arr[i] = _arr[i-1];\r\n        }\r\n        assembly { mstore(_arr, sub(mload(_arr), 1)) }\r\n\r\n        return true;\r\n    }\r\n    function addrArrayErase(address[] memory _arr, address _owner) public pure returns(bool){\r\n        for(uint256 i = 0; i<_arr.length; i++){\r\n            if(_arr[i] == _owner){\r\n                delete _arr[i];\r\n                for(uint256 j = i+1; j<_arr.length; j++){\r\n                    _arr[j] = _arr[j+1];\r\n                }\r\n            }\r\n        }\r\n        assembly { mstore(_arr, sub(mload(_arr), 1)) }\r\n\r\n        return true;\r\n    }\r\n\r\n    event  addrArrayPushEvent(uint256 len);\r\n}",
  "sourcePath": "C:\\ethNet\\smart_contract\\contracts\\method.sol",
  "compiler": {
    "name": "solc",
    "version": "0.8.15+commit.e14f2714.Emscripten.clang"
  },
  "schemaVersion": "3.4.8",
  "updatedAt": "2022-07-28T12:51:15.877Z",
  "devdoc": {
    "kind": "dev",
    "methods": {},
    "version": 1
  },
  "userdoc": {
    "kind": "user",
    "methods": {},
    "version": 1
  }
}