{
  "contractName": "OwnerDataContract",
  "abi": [
    {
      "anonymous": false,
      "inputs": [
        {
          "indexed": false,
          "internalType": "address",
          "name": "_user",
          "type": "address"
        },
        {
          "indexed": false,
          "internalType": "uint256",
          "name": "_itemId",
          "type": "uint256"
        },
        {
          "indexed": false,
          "internalType": "uint256",
          "name": "_ownedId",
          "type": "uint256"
        },
        {
          "indexed": false,
          "internalType": "uint256",
          "name": "_check",
          "type": "uint256"
        }
      ],
      "name": "updateItemOwnerSuccess",
      "type": "event"
    },
    {
      "inputs": [
        {
          "internalType": "address",
          "name": "",
          "type": "address"
        },
        {
          "internalType": "uint256",
          "name": "",
          "type": "uint256"
        }
      ],
      "name": "auctionOwnedBy",
      "outputs": [
        {
          "internalType": "uint256",
          "name": "",
          "type": "uint256"
        }
      ],
      "stateMutability": "view",
      "type": "function",
      "constant": true
    },
    {
      "inputs": [
        {
          "internalType": "uint256",
          "name": "",
          "type": "uint256"
        }
      ],
      "name": "auctionOwner",
      "outputs": [
        {
          "internalType": "address",
          "name": "",
          "type": "address"
        }
      ],
      "stateMutability": "view",
      "type": "function",
      "constant": true
    },
    {
      "inputs": [
        {
          "internalType": "address",
          "name": "",
          "type": "address"
        },
        {
          "internalType": "uint256",
          "name": "",
          "type": "uint256"
        }
      ],
      "name": "itemOwnedBy",
      "outputs": [
        {
          "internalType": "uint256",
          "name": "",
          "type": "uint256"
        }
      ],
      "stateMutability": "view",
      "type": "function",
      "constant": true
    },
    {
      "inputs": [
        {
          "internalType": "uint256",
          "name": "",
          "type": "uint256"
        }
      ],
      "name": "itemOwner",
      "outputs": [
        {
          "internalType": "address",
          "name": "",
          "type": "address"
        }
      ],
      "stateMutability": "view",
      "type": "function",
      "constant": true
    },
    {
      "inputs": [
        {
          "internalType": "uint256",
          "name": "",
          "type": "uint256"
        }
      ],
      "name": "toOwnedId",
      "outputs": [
        {
          "internalType": "uint256",
          "name": "",
          "type": "uint256"
        }
      ],
      "stateMutability": "view",
      "type": "function",
      "constant": true
    },
    {
      "inputs": [
        {
          "internalType": "address",
          "name": "",
          "type": "address"
        },
        {
          "internalType": "uint256",
          "name": "",
          "type": "uint256"
        }
      ],
      "name": "winningBids",
      "outputs": [
        {
          "internalType": "uint256",
          "name": "",
          "type": "uint256"
        }
      ],
      "stateMutability": "view",
      "type": "function",
      "constant": true
    },
    {
      "inputs": [
        {
          "internalType": "uint256",
          "name": "_auctionId",
          "type": "uint256"
        }
      ],
      "name": "getOwnerByAucId",
      "outputs": [
        {
          "internalType": "address payable",
          "name": "",
          "type": "address"
        }
      ],
      "stateMutability": "view",
      "type": "function",
      "constant": true
    },
    {
      "inputs": [
        {
          "internalType": "address",
          "name": "_owner",
          "type": "address"
        }
      ],
      "name": "getAuctionOwnedByLength",
      "outputs": [
        {
          "internalType": "uint256",
          "name": "",
          "type": "uint256"
        }
      ],
      "stateMutability": "view",
      "type": "function",
      "constant": true
    },
    {
      "inputs": [
        {
          "internalType": "address",
          "name": "_owner",
          "type": "address"
        }
      ],
      "name": "getAuctionOwnedBy",
      "outputs": [
        {
          "internalType": "uint256[]",
          "name": "",
          "type": "uint256[]"
        }
      ],
      "stateMutability": "view",
      "type": "function",
      "constant": true
    },
    {
      "inputs": [
        {
          "internalType": "address",
          "name": "_user",
          "type": "address"
        },
        {
          "internalType": "uint256",
          "name": "_auctionId",
          "type": "uint256"
        }
      ],
      "name": "pushAuctionToOwner",
      "outputs": [],
      "stateMutability": "nonpayable",
      "type": "function"
    },
    {
      "inputs": [
        {
          "internalType": "address",
          "name": "_owner",
          "type": "address"
        },
        {
          "internalType": "uint256",
          "name": "_auctionId",
          "type": "uint256"
        }
      ],
      "name": "updateAuctionOwner",
      "outputs": [],
      "stateMutability": "nonpayable",
      "type": "function"
    },
    {
      "inputs": [
        {
          "internalType": "address",
          "name": "_user",
          "type": "address"
        },
        {
          "internalType": "uint256",
          "name": "_auctionId",
          "type": "uint256"
        }
      ],
      "name": "pushWinningBids",
      "outputs": [],
      "stateMutability": "nonpayable",
      "type": "function"
    },
    {
      "inputs": [
        {
          "internalType": "address",
          "name": "_user",
          "type": "address"
        }
      ],
      "name": "getWinningBids",
      "outputs": [
        {
          "internalType": "uint256[]",
          "name": "",
          "type": "uint256[]"
        }
      ],
      "stateMutability": "view",
      "type": "function",
      "constant": true
    },
    {
      "inputs": [
        {
          "internalType": "address",
          "name": "_user",
          "type": "address"
        },
        {
          "internalType": "uint256",
          "name": "_itemId",
          "type": "uint256"
        }
      ],
      "name": "pushItemOwnedBy",
      "outputs": [],
      "stateMutability": "nonpayable",
      "type": "function"
    },
    {
      "inputs": [
        {
          "internalType": "address",
          "name": "_user",
          "type": "address"
        }
      ],
      "name": "getItemOwnedBy",
      "outputs": [
        {
          "internalType": "uint256[]",
          "name": "",
          "type": "uint256[]"
        }
      ],
      "stateMutability": "view",
      "type": "function",
      "constant": true
    },
    {
      "inputs": [
        {
          "internalType": "address",
          "name": "_user",
          "type": "address"
        },
        {
          "internalType": "uint256",
          "name": "_ownedId",
          "type": "uint256"
        }
      ],
      "name": "getOwnedItemByOwnedId",
      "outputs": [
        {
          "internalType": "uint256",
          "name": "",
          "type": "uint256"
        }
      ],
      "stateMutability": "view",
      "type": "function",
      "constant": true
    },
    {
      "inputs": [
        {
          "internalType": "address",
          "name": "_user",
          "type": "address"
        },
        {
          "internalType": "uint256",
          "name": "_itemId",
          "type": "uint256"
        }
      ],
      "name": "getOwendItemByItemId",
      "outputs": [
        {
          "internalType": "uint256",
          "name": "",
          "type": "uint256"
        }
      ],
      "stateMutability": "view",
      "type": "function",
      "constant": true
    },
    {
      "inputs": [
        {
          "internalType": "uint256",
          "name": "_itemId",
          "type": "uint256"
        }
      ],
      "name": "getOwnerByItemId",
      "outputs": [
        {
          "internalType": "address",
          "name": "",
          "type": "address"
        }
      ],
      "stateMutability": "view",
      "type": "function",
      "constant": true
    },
    {
      "inputs": [
        {
          "internalType": "uint256",
          "name": "_itemId",
          "type": "uint256"
        }
      ],
      "name": "convertIdToOwnedId",
      "outputs": [
        {
          "internalType": "uint256",
          "name": "",
          "type": "uint256"
        }
      ],
      "stateMutability": "view",
      "type": "function",
      "constant": true
    },
    {
      "inputs": [
        {
          "internalType": "address",
          "name": "_user",
          "type": "address"
        },
        {
          "internalType": "uint256",
          "name": "_itemId",
          "type": "uint256"
        }
      ],
      "name": "updateItemOwner",
      "outputs": [],
      "stateMutability": "nonpayable",
      "type": "function"
    },
    {
      "inputs": [
        {
          "internalType": "address",
          "name": "_from",
          "type": "address"
        },
        {
          "internalType": "address",
          "name": "_to",
          "type": "address"
        },
        {
          "internalType": "uint256",
          "name": "_itemId",
          "type": "uint256"
        },
        {
          "internalType": "uint256",
          "name": "_auctionId",
          "type": "uint256"
        }
      ],
      "name": "handoverOwnerData",
      "outputs": [],
      "stateMutability": "nonpayable",
      "type": "function"
    }
  ],
  "bytecode": "0x608060405234801561001057600080fd5b506112b3806100206000396000f3fe608060405234801561001057600080fd5b50600436106101375760003560e01c806368231c2e116100b85780638c2bcac01161007c5780638c2bcac0146103a857806392c097ce146103d85780639548573b146103f457806398e8202b14610424578063b8b9509d14610454578063fcca77151461048457610137565b806368231c2e146102cc5780637223b8b6146102fc5780637c2dc7d41461032c5780638149514f1461035c57806384fd09911461038c57610137565b8063472c6820116100ff578063472c6820146102185780634d2756921461023457806350f9ccf1146102645780635b5dacf1146102805780635f34df15146102b057610137565b80630357ab311461013c57806306a203471461016c5780630ff3eb211461019c57806314ed75cb146101cc5780633196774c146101e8575b600080fd5b61015660048036038101906101519190610ea8565b6104b4565b6040516101639190610f16565b60405180910390f35b61018660048036038101906101819190610f6f565b6104f1565b6040516101939190610fab565b60405180910390f35b6101b660048036038101906101b19190610fc6565b61053d565b6040516101c39190610fab565b60405180910390f35b6101e660048036038101906101e19190610fc6565b61056e565b005b61020260048036038101906101fd9190610ea8565b6105d8565b60405161020f9190610fab565b60405180910390f35b610232600480360381019061022d9190610fc6565b6105f5565b005b61024e60048036038101906102499190610fc6565b61064b565b60405161025b9190610fab565b60405180910390f35b61027e60048036038101906102799190610fc6565b61067c565b005b61029a60048036038101906102959190610ea8565b6106e6565b6040516102a79190611015565b60405180910390f35b6102ca60048036038101906102c59190610fc6565b610719565b005b6102e660048036038101906102e19190610fc6565b610783565b6040516102f39190610fab565b60405180910390f35b61031660048036038101906103119190610f6f565b6107b4565b60405161032391906110ee565b60405180910390f35b61034660048036038101906103419190610ea8565b61084b565b6040516103539190611015565b60405180910390f35b61037660048036038101906103719190610f6f565b610887565b60405161038391906110ee565b60405180910390f35b6103a660048036038101906103a19190610fc6565b61091e565b005b6103c260048036038101906103bd9190610fc6565b610afd565b6040516103cf9190610fab565b60405180910390f35b6103f260048036038101906103ed9190611110565b610b76565b005b61040e60048036038101906104099190610ea8565b610b9a565b60405161041b9190611015565b60405180910390f35b61043e60048036038101906104399190610f6f565b610bcd565b60405161044b91906110ee565b60405180910390f35b61046e60048036038101906104699190610fc6565b610c64565b60405161047b9190610fab565b60405180910390f35b61049e60048036038101906104999190610ea8565b610cca565b6040516104ab9190610fab565b60405180910390f35b60006001600083815260200190815260200160002060009054906101000a900473ffffffffffffffffffffffffffffffffffffffff169050919050565b6000600460008373ffffffffffffffffffffffffffffffffffffffff1673ffffffffffffffffffffffffffffffffffffffff168152602001908152602001600020805490509050919050565b6002602052816000526040600020818154811061055957600080fd5b90600052602060002001600091509150505481565b600460008373ffffffffffffffffffffffffffffffffffffffff1673ffffffffffffffffffffffffffffffffffffffff1681526020019081526020016000208190806001815401808255809150506001900390600052602060002001600090919091909150555050565b600060036000838152602001908152602001600020549050919050565b816001600083815260200190815260200160002060006101000a81548173ffffffffffffffffffffffffffffffffffffffff021916908373ffffffffffffffffffffffffffffffffffffffff1602179055505050565b6004602052816000526040600020818154811061066757600080fd5b90600052602060002001600091509150505481565b600260008373ffffffffffffffffffffffffffffffffffffffff1673ffffffffffffffffffffffffffffffffffffffff1681526020019081526020016000208190806001815401808255809150506001900390600052602060002001600090919091909150555050565b60016020528060005260406000206000915054906101000a900473ffffffffffffffffffffffffffffffffffffffff1681565b600560008373ffffffffffffffffffffffffffffffffffffffff1673ffffffffffffffffffffffffffffffffffffffff1681526020019081526020016000208190806001815401808255809150506001900390600052602060002001600090919091909150555050565b6005602052816000526040600020818154811061079f57600080fd5b90600052602060002001600091509150505481565b6060600460008373ffffffffffffffffffffffffffffffffffffffff1673ffffffffffffffffffffffffffffffffffffffff16815260200190815260200160002080548060200260200160405190810160405280929190818152602001828054801561083f57602002820191906000526020600020905b81548152602001906001019080831161082b575b50505050509050919050565b600080600083815260200190815260200160002060009054906101000a900473ffffffffffffffffffffffffffffffffffffffff169050919050565b6060600260008373ffffffffffffffffffffffffffffffffffffffff1673ffffffffffffffffffffffffffffffffffffffff16815260200190815260200160002080548060200260200160405190810160405280929190818152602001828054801561091257602002820191906000526020600020905b8154815260200190600101908083116108fe575b50505050509050919050565b8160008083815260200190815260200160002060006101000a81548173ffffffffffffffffffffffffffffffffffffffff021916908373ffffffffffffffffffffffffffffffffffffffff160217905550600260008373ffffffffffffffffffffffffffffffffffffffff1673ffffffffffffffffffffffffffffffffffffffff1681526020019081526020016000208190806001815401808255809150506001900390600052602060002001600090919091909150556001600260008473ffffffffffffffffffffffffffffffffffffffff1673ffffffffffffffffffffffffffffffffffffffff16815260200190815260200160002080549050610a2491906111a6565b60036000838152602001908152602001600020819055507f397b1c12a07113c78f8ac52d1a10b204e508920667c3285ee6483cde3e8913a682826003600085815260200190815260200160002054600260008773ffffffffffffffffffffffffffffffffffffffff1673ffffffffffffffffffffffffffffffffffffffff168152602001908152602001600020600360008781526020019081526020016000205481548110610ad657610ad56111da565b5b9060005260206000200154604051610af19493929190611209565b60405180910390a15050565b6000600260008473ffffffffffffffffffffffffffffffffffffffff1673ffffffffffffffffffffffffffffffffffffffff168152602001908152602001600020600360008481526020019081526020016000205481548110610b6357610b626111da565b5b9060005260206000200154905092915050565b610b808483610ce2565b610b8a838361091e565b610b948382610719565b50505050565b60006020528060005260406000206000915054906101000a900473ffffffffffffffffffffffffffffffffffffffff1681565b6060600560008373ffffffffffffffffffffffffffffffffffffffff1673ffffffffffffffffffffffffffffffffffffffff168152602001908152602001600020805480602002602001604051908101604052809291908181526020018280548015610c5857602002820191906000526020600020905b815481526020019060010190808311610c44575b50505050509050919050565b6000600260008473ffffffffffffffffffffffffffffffffffffffff1673ffffffffffffffffffffffffffffffffffffffff1681526020019081526020016000208281548110610cb757610cb66111da565b5b9060005260206000200154905092915050565b60036020528060005260406000206000915090505481565b600060036000838152602001908152602001600020549050600260008473ffffffffffffffffffffffffffffffffffffffff1673ffffffffffffffffffffffffffffffffffffffff1681526020019081526020016000206001600260008673ffffffffffffffffffffffffffffffffffffffff1673ffffffffffffffffffffffffffffffffffffffff16815260200190815260200160002080549050610d8891906111a6565b81548110610d9957610d986111da565b5b9060005260206000200154600260008573ffffffffffffffffffffffffffffffffffffffff1673ffffffffffffffffffffffffffffffffffffffff1681526020019081526020016000208281548110610df557610df46111da565b5b9060005260206000200181905550600260008473ffffffffffffffffffffffffffffffffffffffff1673ffffffffffffffffffffffffffffffffffffffff168152602001908152602001600020805480610e5257610e5161124e565b5b60019003818190600052602060002001600090559055505050565b600080fd5b6000819050919050565b610e8581610e72565b8114610e9057600080fd5b50565b600081359050610ea281610e7c565b92915050565b600060208284031215610ebe57610ebd610e6d565b5b6000610ecc84828501610e93565b91505092915050565b600073ffffffffffffffffffffffffffffffffffffffff82169050919050565b6000610f0082610ed5565b9050919050565b610f1081610ef5565b82525050565b6000602082019050610f2b6000830184610f07565b92915050565b6000610f3c82610ed5565b9050919050565b610f4c81610f31565b8114610f5757600080fd5b50565b600081359050610f6981610f43565b92915050565b600060208284031215610f8557610f84610e6d565b5b6000610f9384828501610f5a565b91505092915050565b610fa581610e72565b82525050565b6000602082019050610fc06000830184610f9c565b92915050565b60008060408385031215610fdd57610fdc610e6d565b5b6000610feb85828601610f5a565b9250506020610ffc85828601610e93565b9150509250929050565b61100f81610f31565b82525050565b600060208201905061102a6000830184611006565b92915050565b600081519050919050565b600082825260208201905092915050565b6000819050602082019050919050565b61106581610e72565b82525050565b6000611077838361105c565b60208301905092915050565b6000602082019050919050565b600061109b82611030565b6110a5818561103b565b93506110b08361104c565b8060005b838110156110e15781516110c8888261106b565b97506110d383611083565b9250506001810190506110b4565b5085935050505092915050565b600060208201905081810360008301526111088184611090565b905092915050565b6000806000806080858703121561112a57611129610e6d565b5b600061113887828801610f5a565b945050602061114987828801610f5a565b935050604061115a87828801610e93565b925050606061116b87828801610e93565b91505092959194509250565b7f4e487b7100000000000000000000000000000000000000000000000000000000600052601160045260246000fd5b60006111b182610e72565b91506111bc83610e72565b9250828210156111cf576111ce611177565b5b828203905092915050565b7f4e487b7100000000000000000000000000000000000000000000000000000000600052603260045260246000fd5b600060808201905061121e6000830187611006565b61122b6020830186610f9c565b6112386040830185610f9c565b6112456060830184610f9c565b95945050505050565b7f4e487b7100000000000000000000000000000000000000000000000000000000600052603160045260246000fdfea2646970667358221220c5f181dc71184e0289cb028a6d08e47e1585d069bd9dcc031761e36e76e7237f64736f6c634300080f0033",
  "immutableReferences": {},
  "source": "// SPDX-License-Identifier: MIT\n\npragma solidity >=0.5.16;\n\ncontract OwnerDataContract {\n\n    mapping(uint256 => address) public itemOwner;       // itemId =>  owner\n    mapping(uint256 => address) public auctionOwner;    // auctionId =>  owner\n\n    mapping(address => uint256[]) public itemOwnedBy;   // user =>   \n    mapping(uint256 => uint256  ) public toOwnedId;     // itemId => ownedId(itemOwnedBy )\n    mapping(address => uint256[]) public auctionOwnedBy; // user =>   \n    mapping(address => uint256[]) public winningBids;   // user =>   \n\n    modifier isOwnerAuc(uint256 _auctionId) {\n        require(auctionOwner[_auctionId] == msg.sender);\n        _;\n    }\n\n    event updateItemOwnerSuccess(address _user, uint256 _itemId, uint256 _ownedId, uint256 _check);\n\n    // auctionOwnedBy\n    function getOwnerByAucId(uint256 _auctionId) external view returns(address payable){\n        return payable(auctionOwner[_auctionId]);\n    }\n\n    function getAuctionOwnedByLength(address _owner) public view returns(uint) {\n        return auctionOwnedBy[_owner].length;\n    }\n\n    function getAuctionOwnedBy(address _owner) public view returns(uint[] memory){\n        return auctionOwnedBy[_owner];\n    }\n\n    function pushAuctionToOwner(address _user, uint256 _auctionId) public {\n        auctionOwnedBy[_user].push(_auctionId);\n    }\n\n    function updateAuctionOwner(address _owner, uint256 _auctionId) public {\n        auctionOwner[_auctionId] = _owner;\n    }\n\n    // winningBids\n\n    function pushWinningBids(address _user, uint256 _auctionId) public{\n        winningBids[_user].push(_auctionId);\n    }\n\n    function getWinningBids(address _user) public view returns(uint256[] memory){\n        return winningBids[_user];\n    }\n\n\n    // itemOwnedBy\n    function pushItemOwnedBy(address _user,uint256 _itemId) public {   \n        itemOwnedBy[_user].push(_itemId);\n    }\n\n    function getItemOwnedBy(address _user) public view returns(uint256[] memory){\n        return itemOwnedBy[_user];\n    }\n\n    function getOwnedItemByOwnedId(address _user, uint256 _ownedId) public view returns(uint256){\n        return itemOwnedBy[_user][_ownedId];\n    }\n\n    function getOwendItemByItemId(address _user, uint256 _itemId) public view returns(uint256){\n        return itemOwnedBy[_user][toOwnedId[_itemId]];\n    }\n\n    // itemOwnedBy  (itemOwner, toOwnedId)\n    function getOwnerByItemId(uint256 _itemId) public view returns(address){\n        return itemOwner[_itemId];\n    }\n\n\n    function convertIdToOwnedId(uint256 _itemId) external view returns(uint256){\n        return toOwnedId[_itemId];\n    }\n\n    function updateItemOwner(address _user, uint256 _itemId) public {\n        itemOwner[_itemId] = _user;\n        itemOwnedBy[_user].push(_itemId);\n        toOwnedId[_itemId] = itemOwnedBy[_user].length - 1;\n        emit updateItemOwnerSuccess(_user, _itemId, toOwnedId[_itemId], itemOwnedBy[_user][toOwnedId[_itemId]]);\n    }\n\n    function deleteOwnerData(address _user, uint256 _itemId) private {\n        uint256 ownedId = toOwnedId[_itemId];\n        itemOwnedBy[_user][ownedId] = itemOwnedBy[_user][itemOwnedBy[_user].length-1];\n        itemOwnedBy[_user].pop();\n    }\n\n\n    //  \n    function handoverOwnerData(address _from, address _to, uint256 _itemId, uint256 _auctionId) external {\n        deleteOwnerData(_from, _itemId);\n        updateItemOwner(_to, _itemId);\n        pushWinningBids(_to, _auctionId);\n        //ownedBy[_to].push(_itemId);\n    }\n\n    \n\n    \n}",
  "sourcePath": "/Users/c_rbi/testNet/back-end/smart_contract/contracts/OwnerData.sol",
  "compiler": {
    "name": "solc",
    "version": "0.8.15+commit.e14f2714.Emscripten.clang"
  },
  "schemaVersion": "3.4.8",
  "updatedAt": "2022-08-11T23:49:34.141Z",
  "networkType": "ethereum",
  "devdoc": {
    "kind": "dev",
    "methods": {},
    "version": 1
  },
  "userdoc": {
    "kind": "user",
    "methods": {},
    "version": 1
  }
}