{
  "contractName": "rwSupplyData",
  "abi": [
    {
      "inputs": [
        {
          "internalType": "uint256",
          "name": "",
          "type": "uint256"
        }
      ],
      "name": "supplyData",
      "outputs": [
        {
          "internalType": "contract SupplyContract",
          "name": "",
          "type": "address"
        }
      ],
      "stateMutability": "view",
      "type": "function",
      "constant": true
    },
    {
      "inputs": [
        {
          "internalType": "uint256",
          "name": "_itemId",
          "type": "uint256"
        }
      ],
      "name": "constructorSupplyData",
      "outputs": [],
      "stateMutability": "nonpayable",
      "type": "function"
    },
    {
      "inputs": [
        {
          "internalType": "uint256",
          "name": "_itemId",
          "type": "uint256"
        }
      ],
      "name": "getPathMaxByItemId",
      "outputs": [
        {
          "internalType": "string[]",
          "name": "",
          "type": "string[]"
        }
      ],
      "stateMutability": "view",
      "type": "function",
      "constant": true
    },
    {
      "inputs": [
        {
          "internalType": "uint256",
          "name": "_itemId",
          "type": "uint256"
        }
      ],
      "name": "getPathLenByItemId",
      "outputs": [
        {
          "internalType": "uint256",
          "name": "",
          "type": "uint256"
        }
      ],
      "stateMutability": "view",
      "type": "function",
      "constant": true
    },
    {
      "inputs": [
        {
          "internalType": "uint256",
          "name": "_itemId",
          "type": "uint256"
        },
        {
          "internalType": "uint256",
          "name": "_idx",
          "type": "uint256"
        }
      ],
      "name": "getShippingAddrByItemId",
      "outputs": [
        {
          "internalType": "string",
          "name": "",
          "type": "string"
        }
      ],
      "stateMutability": "view",
      "type": "function",
      "constant": true
    },
    {
      "inputs": [
        {
          "internalType": "uint256",
          "name": "_itemId",
          "type": "uint256"
        },
        {
          "internalType": "address",
          "name": "_from",
          "type": "address"
        },
        {
          "internalType": "address",
          "name": "_to",
          "type": "address"
        },
        {
          "internalType": "string",
          "name": "_fromStr",
          "type": "string"
        },
        {
          "internalType": "string",
          "name": "_toStr",
          "type": "string"
        }
      ],
      "name": "setAddrToShippingByItemId",
      "outputs": [],
      "stateMutability": "nonpayable",
      "type": "function"
    },
    {
      "inputs": [
        {
          "internalType": "uint256",
          "name": "_itemId",
          "type": "uint256"
        }
      ],
      "name": "getActiveByItemId",
      "outputs": [
        {
          "internalType": "bool",
          "name": "",
          "type": "bool"
        }
      ],
      "stateMutability": "view",
      "type": "function",
      "constant": true
    },
    {
      "inputs": [
        {
          "internalType": "uint256",
          "name": "_itemId",
          "type": "uint256"
        },
        {
          "internalType": "bool",
          "name": "_active",
          "type": "bool"
        }
      ],
      "name": "setActiveByItemId",
      "outputs": [
        {
          "internalType": "bool",
          "name": "",
          "type": "bool"
        }
      ],
      "stateMutability": "nonpayable",
      "type": "function"
    }
  ],
  "bytecode": "0x608060405234801561001057600080fd5b50612734806100206000396000f3fe608060405234801561001057600080fd5b50600436106100885760003560e01c80639f4a0ae41161005b5780639f4a0ae41461014d578063cc468eaf14610169578063e019ed1114610199578063ef5ed396146101c957610088565b806311ac07dd1461008d57806342d55cd5146100bd5780636e722137146100ed578063987a34f81461011d575b600080fd5b6100a760048036038101906100a29190610715565b6101e5565b6040516100b49190610751565b60405180910390f35b6100d760048036038101906100d291906107a4565b61029a565b6040516100e491906107f3565b60405180910390f35b61010760048036038101906101029190610715565b610352565b6040516101149190610969565b60405180910390f35b61013760048036038101906101329190610715565b610401565b6040516101449190610a0a565b60405180910390f35b61016760048036038101906101629190610b98565b610434565b005b610183600480360381019061017e9190610715565b6104de565b60405161019091906107f3565b60405180910390f35b6101b360048036038101906101ae9190610c4b565b610587565b6040516101c09190610cd5565b60405180910390f35b6101e360048036038101906101de9190610715565b610642565b005b600080600083815260200190815260200160002060009054906101000a900473ffffffffffffffffffffffffffffffffffffffff1673ffffffffffffffffffffffffffffffffffffffff1663a192db60336040518263ffffffff1660e01b81526004016102529190610d06565b602060405180830381865afa15801561026f573d6000803e3d6000fd5b505050506040513d601f19601f820116820180604052508101906102939190610d36565b9050919050565b600080600084815260200190815260200160002060009054906101000a900473ffffffffffffffffffffffffffffffffffffffff1673ffffffffffffffffffffffffffffffffffffffff1663acec338a836040518263ffffffff1660e01b815260040161030791906107f3565b6020604051808303816000875af1158015610326573d6000803e3d6000fd5b505050506040513d601f19601f8201168201806040525081019061034a9190610d78565b905092915050565b606060008083815260200190815260200160002060009054906101000a900473ffffffffffffffffffffffffffffffffffffffff1673ffffffffffffffffffffffffffffffffffffffff166343e6643e6040518163ffffffff1660e01b8152600401600060405180830381865afa1580156103d1573d6000803e3d6000fd5b505050506040513d6000823e3d601f19601f820116820180604052508101906103fa9190610efb565b9050919050565b60006020528060005260406000206000915054906101000a900473ffffffffffffffffffffffffffffffffffffffff1681565b60008086815260200190815260200160002060009054906101000a900473ffffffffffffffffffffffffffffffffffffffff1673ffffffffffffffffffffffffffffffffffffffff1663b4825f37858585856040518563ffffffff1660e01b81526004016104a59493929190610f44565b600060405180830381600087803b1580156104bf57600080fd5b505af11580156104d3573d6000803e3d6000fd5b505050505050505050565b600080600083815260200190815260200160002060009054906101000a900473ffffffffffffffffffffffffffffffffffffffff1673ffffffffffffffffffffffffffffffffffffffff16629ebb106040518163ffffffff1660e01b8152600401602060405180830381865afa15801561055c573d6000803e3d6000fd5b505050506040513d601f19601f820116820180604052508101906105809190610d78565b9050919050565b606060008084815260200190815260200160002060009054906101000a900473ffffffffffffffffffffffffffffffffffffffff1673ffffffffffffffffffffffffffffffffffffffff1663f8fe697f836040518263ffffffff1660e01b81526004016105f49190610751565b600060405180830381865afa158015610611573d6000803e3d6000fd5b505050506040513d6000823e3d601f19601f8201168201806040525081019061063a9190610f97565b905092915050565b60405161064e906106be565b604051809103906000f08015801561066a573d6000803e3d6000fd5b5060008083815260200190815260200160002060006101000a81548173ffffffffffffffffffffffffffffffffffffffff021916908373ffffffffffffffffffffffffffffffffffffffff16021790555050565b61171e80610fe183390190565b6000604051905090565b600080fd5b600080fd5b6000819050919050565b6106f2816106df565b81146106fd57600080fd5b50565b60008135905061070f816106e9565b92915050565b60006020828403121561072b5761072a6106d5565b5b600061073984828501610700565b91505092915050565b61074b816106df565b82525050565b60006020820190506107666000830184610742565b92915050565b60008115159050919050565b6107818161076c565b811461078c57600080fd5b50565b60008135905061079e81610778565b92915050565b600080604083850312156107bb576107ba6106d5565b5b60006107c985828601610700565b92505060206107da8582860161078f565b9150509250929050565b6107ed8161076c565b82525050565b600060208201905061080860008301846107e4565b92915050565b600081519050919050565b600082825260208201905092915050565b6000819050602082019050919050565b600081519050919050565b600082825260208201905092915050565b60005b83811015610874578082015181840152602081019050610859565b83811115610883576000848401525b50505050565b6000601f19601f8301169050919050565b60006108a58261083a565b6108af8185610845565b93506108bf818560208601610856565b6108c881610889565b840191505092915050565b60006108df838361089a565b905092915050565b6000602082019050919050565b60006108ff8261080e565b6109098185610819565b93508360208202850161091b8561082a565b8060005b85811015610957578484038952815161093885826108d3565b9450610943836108e7565b925060208a0199505060018101905061091f565b50829750879550505050505092915050565b6000602082019050818103600083015261098381846108f4565b905092915050565b600073ffffffffffffffffffffffffffffffffffffffff82169050919050565b6000819050919050565b60006109d06109cb6109c68461098b565b6109ab565b61098b565b9050919050565b60006109e2826109b5565b9050919050565b60006109f4826109d7565b9050919050565b610a04816109e9565b82525050565b6000602082019050610a1f60008301846109fb565b92915050565b6000610a308261098b565b9050919050565b610a4081610a25565b8114610a4b57600080fd5b50565b600081359050610a5d81610a37565b92915050565b600080fd5b600080fd5b7f4e487b7100000000000000000000000000000000000000000000000000000000600052604160045260246000fd5b610aa582610889565b810181811067ffffffffffffffff82111715610ac457610ac3610a6d565b5b80604052505050565b6000610ad76106cb565b9050610ae38282610a9c565b919050565b600067ffffffffffffffff821115610b0357610b02610a6d565b5b610b0c82610889565b9050602081019050919050565b82818337600083830152505050565b6000610b3b610b3684610ae8565b610acd565b905082815260208101848484011115610b5757610b56610a68565b5b610b62848285610b19565b509392505050565b600082601f830112610b7f57610b7e610a63565b5b8135610b8f848260208601610b28565b91505092915050565b600080600080600060a08688031215610bb457610bb36106d5565b5b6000610bc288828901610700565b9550506020610bd388828901610a4e565b9450506040610be488828901610a4e565b935050606086013567ffffffffffffffff811115610c0557610c046106da565b5b610c1188828901610b6a565b925050608086013567ffffffffffffffff811115610c3257610c316106da565b5b610c3e88828901610b6a565b9150509295509295909350565b60008060408385031215610c6257610c616106d5565b5b6000610c7085828601610700565b9250506020610c8185828601610700565b9150509250929050565b600082825260208201905092915050565b6000610ca78261083a565b610cb18185610c8b565b9350610cc1818560208601610856565b610cca81610889565b840191505092915050565b60006020820190508181036000830152610cef8184610c9c565b905092915050565b610d0081610a25565b82525050565b6000602082019050610d1b6000830184610cf7565b92915050565b600081519050610d30816106e9565b92915050565b600060208284031215610d4c57610d4b6106d5565b5b6000610d5a84828501610d21565b91505092915050565b600081519050610d7281610778565b92915050565b600060208284031215610d8e57610d8d6106d5565b5b6000610d9c84828501610d63565b91505092915050565b600067ffffffffffffffff821115610dc057610dbf610a6d565b5b602082029050602081019050919050565b600080fd5b6000610de9610de484610ae8565b610acd565b905082815260208101848484011115610e0557610e04610a68565b5b610e10848285610856565b509392505050565b600082601f830112610e2d57610e2c610a63565b5b8151610e3d848260208601610dd6565b91505092915050565b6000610e59610e5484610da5565b610acd565b90508083825260208201905060208402830185811115610e7c57610e7b610dd1565b5b835b81811015610ec357805167ffffffffffffffff811115610ea157610ea0610a63565b5b808601610eae8982610e18565b85526020850194505050602081019050610e7e565b5050509392505050565b600082601f830112610ee257610ee1610a63565b5b8151610ef2848260208601610e46565b91505092915050565b600060208284031215610f1157610f106106d5565b5b600082015167ffffffffffffffff811115610f2f57610f2e6106da565b5b610f3b84828501610ecd565b91505092915050565b6000608082019050610f596000830187610cf7565b610f666020830186610cf7565b8181036040830152610f788185610c9c565b90508181036060830152610f8c8184610c9c565b905095945050505050565b600060208284031215610fad57610fac6106d5565b5b600082015167ffffffffffffffff811115610fcb57610fca6106da565b5b610fd784828501610e18565b9150509291505056fe60806040526000600560006101000a81548160ff02191690831515021790555034801561002b57600080fd5b506116e38061003b6000396000f3fe608060405234801561001057600080fd5b50600436106100f45760003560e01c80638214411111610097578063bca34c5011610066578063bca34c50146102bd578063e6609efd146102ed578063ee7ba13a1461031d578063f8fe697f1461034d576100f4565b80638214411114610211578063a192db6014610241578063acec338a14610271578063b4825f37146102a1576100f4565b806343e6643e116100d357806343e6643e1461017757806346cd18ad146101955780635e57de03146101c557806378de034f146101e1576100f4565b80629ebb10146100f957806319a247d5146101175780633a55c65814610147575b600080fd5b61010161037d565b60405161010e9190610d2e565b60405180910390f35b610131600480360381019061012c9190610dbb565b610394565b60405161013e9190610d2e565b60405180910390f35b610161600480360381019061015c9190610dbb565b6103b4565b60405161016e9190610e81565b60405180910390f35b61017f610454565b60405161018c9190610faf565b60405180910390f35b6101af60048036038101906101aa9190611007565b61052d565b6040516101bc9190610e81565b60405180910390f35b6101df60048036038101906101da9190611034565b6105d9565b005b6101fb60048036038101906101f69190611007565b61065a565b6040516102089190611083565b60405180910390f35b61022b60048036038101906102269190610dbb565b61068d565b6040516102389190611083565b60405180910390f35b61025b60048036038101906102569190610dbb565b6106c0565b60405161026891906110ad565b60405180910390f35b61028b600480360381019061028691906110f4565b610709565b6040516102989190610d2e565b60405180910390f35b6102bb60048036038101906102b69190611256565b61073c565b005b6102d760048036038101906102d29190610dbb565b6108ec565b6040516102e49190610faf565b60405180910390f35b61030760048036038101906103029190611034565b610905565b6040516103149190610faf565b60405180910390f35b61033760048036038101906103329190610dbb565b610c4b565b60405161034491906110ad565b60405180910390f35b61036760048036038101906103629190611007565b610c63565b6040516103749190610e81565b60405180910390f35b6000600560009054906101000a900460ff16905090565b60066020528060005260406000206000915054906101000a900460ff1681565b600160205280600052604060002060009150905080546103d390611324565b80601f01602080910402602001604051908101604052809291908181526020018280546103ff90611324565b801561044c5780601f106104215761010080835404028352916020019161044c565b820191906000526020600020905b81548152906001019060200180831161042f57829003601f168201915b505050505081565b60606004805480602002602001604051908101604052809291908181526020016000905b8282101561052457838290600052602060002001805461049790611324565b80601f01602080910402602001604051908101604052809291908181526020018280546104c390611324565b80156105105780601f106104e557610100808354040283529160200191610510565b820191906000526020600020905b8154815290600101906020018083116104f357829003601f168201915b505050505081526020019060010190610478565b50505050905090565b6004818154811061053d57600080fd5b90600052602060002001600091509050805461055890611324565b80601f016020809104026020016040519081016040528092919081815260200182805461058490611324565b80156105d15780601f106105a6576101008083540402835291602001916105d1565b820191906000526020600020905b8154815290600101906020018083116105b457829003601f168201915b505050505081565b816000808373ffffffffffffffffffffffffffffffffffffffff1673ffffffffffffffffffffffffffffffffffffffff16815260200190815260200160002060006101000a81548173ffffffffffffffffffffffffffffffffffffffff021916908373ffffffffffffffffffffffffffffffffffffffff1602179055505050565b60036020528060005260406000206000915054906101000a900473ffffffffffffffffffffffffffffffffffffffff1681565b60006020528060005260406000206000915054906101000a900473ffffffffffffffffffffffffffffffffffffffff1681565b6000600260008373ffffffffffffffffffffffffffffffffffffffff1673ffffffffffffffffffffffffffffffffffffffff168152602001908152602001600020549050919050565b600081600560006101000a81548160ff021916908315150217905550600560009054906101000a900460ff169050919050565b8360036000600480549050815260200190815260200160002060006101000a81548173ffffffffffffffffffffffffffffffffffffffff021916908373ffffffffffffffffffffffffffffffffffffffff160217905550600480549050600260008673ffffffffffffffffffffffffffffffffffffffff1673ffffffffffffffffffffffffffffffffffffffff168152602001908152602001600020819055506004829080600181540180825580915050600190039060005260206000200160009091909190915090816108109190611501565b508260036000600480549050815260200190815260200160002060006101000a81548173ffffffffffffffffffffffffffffffffffffffff021916908373ffffffffffffffffffffffffffffffffffffffff160217905550600480549050600260008573ffffffffffffffffffffffffffffffffffffffff1673ffffffffffffffffffffffffffffffffffffffff168152602001908152602001600020819055506004819080600181540180825580915050600190039060005260206000200160009091909190915090816108e59190611501565b5050505050565b606060006108fa3384610905565b905080915050919050565b60608173ffffffffffffffffffffffffffffffffffffffff168373ffffffffffffffffffffffffffffffffffffffff160361093f57600080fd5b600080600480549050905060008167ffffffffffffffff8111156109665761096561112b565b5b60405190808252806020026020018201604052801561099957816020015b60608152602001906001900390816109845790505b509050600160008773ffffffffffffffffffffffffffffffffffffffff1673ffffffffffffffffffffffffffffffffffffffff16815260200190815260200160002080546109e690611324565b80601f0160208091040260200160405190810160405280929190818152602001828054610a1290611324565b8015610a5f5780601f10610a3457610100808354040283529160200191610a5f565b820191906000526020600020905b815481529060010190602001808311610a4257829003601f168201915b5050505050818480610a7090611602565b955081518110610a8357610a8261164a565b5b60200260200101819052505b600115610c22576000808773ffffffffffffffffffffffffffffffffffffffff1673ffffffffffffffffffffffffffffffffffffffff16815260200190815260200160002060009054906101000a900473ffffffffffffffffffffffffffffffffffffffff1695508473ffffffffffffffffffffffffffffffffffffffff168673ffffffffffffffffffffffffffffffffffffffff160315610c2257600160008773ffffffffffffffffffffffffffffffffffffffff1673ffffffffffffffffffffffffffffffffffffffff1681526020019081526020016000208054610b7590611324565b80601f0160208091040260200160405190810160405280929190818152602001828054610ba190611324565b8015610bee5780601f10610bc357610100808354040283529160200191610bee565b820191906000526020600020905b815481529060010190602001808311610bd157829003601f168201915b5050505050818480610bff90611602565b955081518110610c1257610c1161164a565b5b6020026020010181905250610a8f565b81831015610c3f578282610c369190611679565b91508181510381525b80935050505092915050565b60026020528060005260406000206000915090505481565b606060048281548110610c7957610c7861164a565b5b906000526020600020018054610c8e90611324565b80601f0160208091040260200160405190810160405280929190818152602001828054610cba90611324565b8015610d075780601f10610cdc57610100808354040283529160200191610d07565b820191906000526020600020905b815481529060010190602001808311610cea57829003601f168201915b50505050509050919050565b60008115159050919050565b610d2881610d13565b82525050565b6000602082019050610d436000830184610d1f565b92915050565b6000604051905090565b600080fd5b600080fd5b600073ffffffffffffffffffffffffffffffffffffffff82169050919050565b6000610d8882610d5d565b9050919050565b610d9881610d7d565b8114610da357600080fd5b50565b600081359050610db581610d8f565b92915050565b600060208284031215610dd157610dd0610d53565b5b6000610ddf84828501610da6565b91505092915050565b600081519050919050565b600082825260208201905092915050565b60005b83811015610e22578082015181840152602081019050610e07565b83811115610e31576000848401525b50505050565b6000601f19601f8301169050919050565b6000610e5382610de8565b610e5d8185610df3565b9350610e6d818560208601610e04565b610e7681610e37565b840191505092915050565b60006020820190508181036000830152610e9b8184610e48565b905092915050565b600081519050919050565b600082825260208201905092915050565b6000819050602082019050919050565b600082825260208201905092915050565b6000610eeb82610de8565b610ef58185610ecf565b9350610f05818560208601610e04565b610f0e81610e37565b840191505092915050565b6000610f258383610ee0565b905092915050565b6000602082019050919050565b6000610f4582610ea3565b610f4f8185610eae565b935083602082028501610f6185610ebf565b8060005b85811015610f9d5784840389528151610f7e8582610f19565b9450610f8983610f2d565b925060208a01995050600181019050610f65565b50829750879550505050505092915050565b60006020820190508181036000830152610fc98184610f3a565b905092915050565b6000819050919050565b610fe481610fd1565b8114610fef57600080fd5b50565b60008135905061100181610fdb565b92915050565b60006020828403121561101d5761101c610d53565b5b600061102b84828501610ff2565b91505092915050565b6000806040838503121561104b5761104a610d53565b5b600061105985828601610da6565b925050602061106a85828601610da6565b9150509250929050565b61107d81610d7d565b82525050565b60006020820190506110986000830184611074565b92915050565b6110a781610fd1565b82525050565b60006020820190506110c2600083018461109e565b92915050565b6110d181610d13565b81146110dc57600080fd5b50565b6000813590506110ee816110c8565b92915050565b60006020828403121561110a57611109610d53565b5b6000611118848285016110df565b91505092915050565b600080fd5b600080fd5b7f4e487b7100000000000000000000000000000000000000000000000000000000600052604160045260246000fd5b61116382610e37565b810181811067ffffffffffffffff821117156111825761118161112b565b5b80604052505050565b6000611195610d49565b90506111a1828261115a565b919050565b600067ffffffffffffffff8211156111c1576111c061112b565b5b6111ca82610e37565b9050602081019050919050565b82818337600083830152505050565b60006111f96111f4846111a6565b61118b565b90508281526020810184848401111561121557611214611126565b5b6112208482856111d7565b509392505050565b600082601f83011261123d5761123c611121565b5b813561124d8482602086016111e6565b91505092915050565b600080600080608085870312156112705761126f610d53565b5b600061127e87828801610da6565b945050602061128f87828801610da6565b935050604085013567ffffffffffffffff8111156112b0576112af610d58565b5b6112bc87828801611228565b925050606085013567ffffffffffffffff8111156112dd576112dc610d58565b5b6112e987828801611228565b91505092959194509250565b7f4e487b7100000000000000000000000000000000000000000000000000000000600052602260045260246000fd5b6000600282049050600182168061133c57607f821691505b60208210810361134f5761134e6112f5565b5b50919050565b60008190508160005260206000209050919050565b60006020601f8301049050919050565b600082821b905092915050565b6000600883026113b77fffffffffffffffffffffffffffffffffffffffffffffffffffffffffffffffff8261137a565b6113c1868361137a565b95508019841693508086168417925050509392505050565b6000819050919050565b60006113fe6113f96113f484610fd1565b6113d9565b610fd1565b9050919050565b6000819050919050565b611418836113e3565b61142c61142482611405565b848454611387565b825550505050565b600090565b611441611434565b61144c81848461140f565b505050565b5b8181101561147057611465600082611439565b600181019050611452565b5050565b601f8211156114b55761148681611355565b61148f8461136a565b8101602085101561149e578190505b6114b26114aa8561136a565b830182611451565b50505b505050565b600082821c905092915050565b60006114d8600019846008026114ba565b1980831691505092915050565b60006114f183836114c7565b9150826002028217905092915050565b61150a82610de8565b67ffffffffffffffff8111156115235761152261112b565b5b61152d8254611324565b611538828285611474565b600060209050601f83116001811461156b5760008415611559578287015190505b61156385826114e5565b8655506115cb565b601f19841661157986611355565b60005b828110156115a15784890151825560018201915060208501945060208101905061157c565b868310156115be57848901516115ba601f8916826114c7565b8355505b6001600288020188555050505b505050505050565b7f4e487b7100000000000000000000000000000000000000000000000000000000600052601160045260246000fd5b600061160d82610fd1565b91507fffffffffffffffffffffffffffffffffffffffffffffffffffffffffffffffff820361163f5761163e6115d3565b5b600182019050919050565b7f4e487b7100000000000000000000000000000000000000000000000000000000600052603260045260246000fd5b600061168482610fd1565b915061168f83610fd1565b9250828210156116a2576116a16115d3565b5b82820390509291505056fea26469706673582212200c398a41975ae2590a1d447f2b7b9a0aa0d802d342f583a673309cb6b214469064736f6c634300080f0033a264697066735822122042de4a7ad967235133f292ad892b0d89919552b33a494e804e970e524cad719f64736f6c634300080f0033",
  "immutableReferences": {},
  "source": "// SPDX-License-Identifier: MIT\r\n\r\npragma solidity >=0.5.16;\r\n\r\nimport \"./Supply.sol\";\r\n\r\ncontract AuctionContract {\r\n\r\n    rwSupplyData rwData = new rwSupplyData();\r\n\r\n    Auction[] public auctions;\r\n\r\n    mapping(uint256 => Bid[]) public auctionBids;\r\n    mapping(address => uint[]) public auctionOwner;\r\n            \r\n    mapping(address => uint256[]) public ownedBy;\r\n\r\n    struct Bid{\r\n        address payable from;\r\n        uint256 amount;\r\n        string shippingTo;\r\n    }\r\n\r\n    struct Auction{\r\n        string name;\r\n        uint blockDeadline;\r\n        uint256 startPrice;\r\n        address payable owner;\r\n        bool active;\r\n        bool finalized;\r\n        uint256 itemId;\r\n        string shippingFrom; \r\n        string shippingTo;  \r\n    }\r\n\r\n    modifier isOwnerAuc(uint _auctionId) {\r\n        require(auctions[_auctionId].owner == msg.sender);\r\n        _;\r\n    }\r\n\r\n    function getAllOfAuctions() public view returns(Auction[] memory){\r\n        return auctions;\r\n    }\r\n\r\n    function getItemByAuction(uint256 _auctionId) public view returns(uint256){\r\n        return auctions[_auctionId].itemId;\r\n    }\r\n\r\n    function getBidsCount(uint _auctionId) public view returns(uint){\r\n        return auctionBids[_auctionId].length;\r\n    }\r\n\r\n    function getAuctionsOfOwner(address _owner) public view returns(uint[] memory){\r\n        uint[] memory ownedAuctions = auctionOwner[_owner];\r\n        return ownedAuctions;\r\n    }\r\n\r\n    \r\n    function getCurrentBid(uint _auctionId) public view returns(uint256, address, string memory) {\r\n        uint bidsLength =auctionBids[_auctionId].length;\r\n\r\n        if(bidsLength > 0){\r\n            Bid memory lastBid = auctionBids[_auctionId][bidsLength - 1];\r\n            return (lastBid.amount, lastBid.from, lastBid.shippingTo);\r\n        }\r\n\r\n        return (uint256(0), address(0), string(\"\"));\r\n    }\r\n\r\n    function getAuctionOwnerLength(address _owner) public view returns(uint) {\r\n        return auctionOwner[_owner].length;\r\n    }\r\n\r\n   \r\n    function getOwnedBy(address _user) public view returns(uint256[] memory){\r\n        uint256[] memory _ownedBy = ownedBy[_user];\r\n        return _ownedBy;\r\n    }\r\n\r\n    function pushOwnedBy(uint256 _itemId) public returns(uint256){\r\n        ownedBy[msg.sender].push(_itemId);\r\n        return ownedBy[msg.sender].length;\r\n    }\r\n\r\n    function getAuctionById(uint _auctionId) public view returns(\r\n        string memory name,\r\n        uint256 blockDeadline,\r\n        uint256 startPrice,\r\n        address payable owner,\r\n        bool active,\r\n        bool finalized,\r\n        uint256 itemId,\r\n        string memory shippingFrom,\r\n        string memory shippingTo\r\n    ){\r\n        Auction memory auc = auctions[_auctionId];\r\n        return (\r\n            auc.name,\r\n            auc.blockDeadline,\r\n            auc.startPrice,\r\n            auc.owner,\r\n            auc.active,\r\n            auc.finalized,\r\n            auc.itemId,\r\n            auc.shippingFrom,\r\n            auc.shippingTo\r\n        );\r\n    }\r\n\r\n    function createAuction(string memory _auctionTitle, uint256 _startPrice, uint256 _itemId, \r\n        uint _blockDeadline, string memory _shippingFrom) public {\r\n        \r\n        uint256 auctionId = auctions.length;\r\n\r\n        Auction memory newAuction;\r\n\r\n        newAuction.name = _auctionTitle;\r\n        newAuction.blockDeadline = _blockDeadline;\r\n        newAuction.startPrice = _startPrice;\r\n        newAuction.owner = payable(msg.sender);\r\n        newAuction.active = true;\r\n        newAuction.finalized = false;\r\n        newAuction.itemId = _itemId;\r\n        newAuction.shippingFrom = _shippingFrom;\r\n        newAuction.shippingTo = \"none\";\r\n\r\n        auctions.push(newAuction);\r\n        auctionOwner[msg.sender].push(auctionId);\r\n        rwData.setActiveByItemId(_itemId, true);\r\n\r\n    }\r\n\r\n    function cancelAuction(uint _auctionId) public isOwnerAuc(_auctionId){\r\n        uint bidsLength = auctionBids[_auctionId].length;\r\n\r\n        if(bidsLength > 0){\r\n            Bid memory lastBid = auctionBids[_auctionId][bidsLength -1];\r\n            require(lastBid.from.send(lastBid.amount), \"failed to refund.\");\r\n\r\n        }\r\n    }\r\n\r\n    function finalizeAuction(uint256 _auctionId) public returns(uint256){\r\n        Auction memory myAuction = auctions[_auctionId];\r\n        uint256 _itemId = myAuction.itemId;\r\n        uint256 bidsLength = auctionBids[_auctionId].length;\r\n        uint256 timeStamp = block.timestamp;\r\n        \r\n\r\n        if(timeStamp < myAuction.blockDeadline){\r\n            revert();\r\n        }\r\n        \r\n        if(bidsLength == 0) {\r\n            cancelAuction(_auctionId);\r\n        }else{\r\n\r\n            Bid memory lastBid = auctionBids[_auctionId][bidsLength - 1];\r\n            \r\n\r\n            require(myAuction.owner.send(lastBid.amount), \"Failed to send either.\" );\r\n            handover(_auctionId, lastBid.from);\r\n            rwData.setAddrToShippingByItemId(_itemId, myAuction.owner, lastBid.from, myAuction.shippingFrom, lastBid.shippingTo);\r\n            myAuction.shippingTo = lastBid.shippingTo;\r\n            \r\n        }\r\n\r\n        auctions[_auctionId].active = false;\r\n        auctions[_auctionId].finalized = true;\r\n\r\n        rwData.setActiveByItemId(_itemId, false);\r\n        \r\n        return 0;\r\n    }\r\n\r\n\r\n    function handover(uint256 _auctionId, address _to) public {\r\n        Auction memory myAuction = auctions[_auctionId];\r\n        address _owner = myAuction.owner; \r\n        uint256 _itemId = myAuction.itemId;\r\n        uint256[] memory ownedByFrom = ownedBy[_owner];\r\n        uint256 len = ownedByFrom.length;\r\n\r\n        ownedBy[_owner][_itemId] = ownedByFrom[len-1];\r\n        ownedBy[_owner].pop();\r\n\r\n        ownedBy[_to].push(_itemId);\r\n    }\r\n\r\n    function sendNow(address payable _from, uint256 _amount, uint256 _auctionId) public payable returns(bool){\r\n        bool sent = _from.send(_amount); \r\n        require(sent,\"Failed to send either.\");\r\n        \r\n        auctions[_auctionId].active = false;\r\n        auctions[_auctionId].finalized = true;\r\n\r\n        return sent;\r\n    }\r\n\r\n\r\n    function bidOnAuction(uint _auctionId, string memory _to) external payable {\r\n        uint256 ethAmountSent = msg.value;\r\n\r\n        Auction memory myAuction = auctions[_auctionId];\r\n        require(myAuction.owner != msg.sender, \"Owner can't participate auction.\");\r\n        require(block.timestamp <= myAuction.blockDeadline, \"TIME OVER.\");\r\n        \r\n        uint256 bidsLength = auctionBids[_auctionId].length;\r\n        uint256 tempAmount = myAuction.startPrice;\r\n        Bid memory lastBid;\r\n        \r\n        \r\n        if(ethAmountSent < tempAmount){\r\n            revert();\r\n        }\r\n\r\n        if(bidsLength > 0){\r\n            lastBid = auctionBids[_auctionId][bidsLength -1];\r\n            tempAmount = lastBid.amount;\r\n\r\n            if(ethAmountSent < tempAmount){\r\n                revert();\r\n            }\r\n\r\n            require(lastBid.from.send(lastBid.amount), \"failed to refund.\");\r\n        }\r\n        \r\n        Bid memory newBid;\r\n        newBid.from = payable(msg.sender);\r\n        newBid.amount = ethAmountSent;\r\n        newBid.shippingTo = _to;\r\n        auctionBids[_auctionId].push(newBid);\r\n    }\r\n\r\n    function getActiveByItemId(uint256 _itemId) public view returns(bool){\r\n        return rwData.getActiveByItemId(_itemId);\r\n    }\r\n\r\n    function createSupplyData(uint256 _itemId) public{\r\n        rwData.constructorSupplyData(_itemId);\r\n    }\r\n\r\n    function setActiveByItemId(uint256 _itemId, bool _active) public returns(bool){\r\n        rwData.setActiveByItemId(_itemId, _active);\r\n        return rwData.getActiveByItemId(_itemId);\r\n    }\r\n\r\n    function getActiveByAuctionId(uint256 _auctionId) public view returns(bool){\r\n        return auctions[_auctionId].active;\r\n    }\r\n\r\n    //_08_01\r\n\r\n    function getRwSupplyData() public view returns(rwSupplyData){\r\n        return rwData;\r\n    }\r\n\r\n    function getWinnigBid(uint256 auctionId) public view returns(uint256){\r\n        uint256 len = auctionBids[auctionId].length;\r\n        return auctionBids[auctionId][len-1].amount;\r\n    } //    \r\n\r\n    //function getPathLenByItemIdAuc(uint256 _itemId) public view returns(uint256){}\r\n\r\n    //  method, rwData = getRwSupplyData productTracing   \r\n\r\n}\r\n\r\ncontract rwSupplyData {\r\n\r\n    mapping(uint256 => SupplyContract) public supplyData;\r\n\r\n    function constructorSupplyData(uint256 _itemId) public{\r\n        supplyData[_itemId] = new SupplyContract();\r\n    }\r\n\r\n    function getPathMaxByItemId(uint256 _itemId) public view returns(string[] memory){\r\n        return supplyData[_itemId].getPathMax();\r\n    }\r\n\r\n    function getPathLenByItemId(uint256 _itemId) public view returns(uint256){\r\n        return supplyData[_itemId].getPathLenByAddr(msg.sender);\r\n    }\r\n\r\n    function getShippingAddrByItemId(uint256 _itemId, uint256 _idx) public view returns(string memory){\r\n        return supplyData[_itemId].getShippingAddrByIdx(_idx);\r\n    }\r\n\r\n    function setAddrToShippingByItemId(uint256 _itemId, address _from, address _to, \r\n        string memory _fromStr, string memory _toStr) public{\r\n        supplyData[_itemId].setAddrToShippingAddr(_from, _to, _fromStr, _toStr);\r\n    }\r\n    \r\n    function getActiveByItemId(uint256 _itemId) public view returns(bool){\r\n        return supplyData[_itemId].getActive();\r\n    }\r\n\r\n    function setActiveByItemId(uint256 _itemId, bool _active) public returns(bool){\r\n        return supplyData[_itemId].setActive(_active);\r\n    }\r\n\r\n}",
  "sourcePath": "/Users/c_rbi/ethNet/smart_contract/contracts/Auction.sol",
  "compiler": {
    "name": "solc",
    "version": "0.8.15+commit.e14f2714.Emscripten.clang"
  },
  "schemaVersion": "3.4.8",
  "updatedAt": "2022-08-02T22:45:05.139Z",
  "networkType": "ethereum",
  "devdoc": {
    "kind": "dev",
    "methods": {},
    "version": 1
  },
  "userdoc": {
    "kind": "user",
    "methods": {},
    "version": 1
  }
}