{
  "contractName": "SupplyContract",
  "abi": [
    {
      "anonymous": false,
      "inputs": [
        {
          "indexed": false,
          "internalType": "uint256",
          "name": "_itemId",
          "type": "uint256"
        },
        {
          "indexed": false,
          "internalType": "address",
          "name": "_bidder",
          "type": "address"
        }
      ],
      "name": "DontWorryBeHappy",
      "type": "event"
    },
    {
      "anonymous": false,
      "inputs": [
        {
          "indexed": false,
          "internalType": "uint256",
          "name": "_itemId",
          "type": "uint256"
        },
        {
          "indexed": false,
          "internalType": "address",
          "name": "_root",
          "type": "address"
        }
      ],
      "name": "productTracingCompleted",
      "type": "event"
    },
    {
      "inputs": [
        {
          "internalType": "address",
          "name": "",
          "type": "address"
        }
      ],
      "name": "addrToPathIdx",
      "outputs": [
        {
          "internalType": "uint256",
          "name": "",
          "type": "uint256"
        }
      ],
      "stateMutability": "view",
      "type": "function",
      "constant": true
    },
    {
      "inputs": [
        {
          "internalType": "address",
          "name": "",
          "type": "address"
        }
      ],
      "name": "addrToShippingAddr",
      "outputs": [
        {
          "internalType": "string",
          "name": "",
          "type": "string"
        }
      ],
      "stateMutability": "view",
      "type": "function",
      "constant": true
    },
    {
      "inputs": [
        {
          "internalType": "address",
          "name": "",
          "type": "address"
        }
      ],
      "name": "addrTracing",
      "outputs": [
        {
          "internalType": "address",
          "name": "",
          "type": "address"
        }
      ],
      "stateMutability": "view",
      "type": "function",
      "constant": true
    },
    {
      "inputs": [
        {
          "internalType": "uint256",
          "name": "",
          "type": "uint256"
        }
      ],
      "name": "pathIdxToAddr",
      "outputs": [
        {
          "internalType": "address",
          "name": "",
          "type": "address"
        }
      ],
      "stateMutability": "view",
      "type": "function",
      "constant": true
    },
    {
      "inputs": [
        {
          "internalType": "uint256",
          "name": "",
          "type": "uint256"
        }
      ],
      "name": "pathMax",
      "outputs": [
        {
          "internalType": "string",
          "name": "",
          "type": "string"
        }
      ],
      "stateMutability": "view",
      "type": "function",
      "constant": true
    },
    {
      "inputs": [
        {
          "internalType": "address",
          "name": "",
          "type": "address"
        }
      ],
      "name": "producerCheck",
      "outputs": [
        {
          "internalType": "bool",
          "name": "",
          "type": "bool"
        }
      ],
      "stateMutability": "view",
      "type": "function",
      "constant": true
    },
    {
      "inputs": [],
      "name": "getActive",
      "outputs": [
        {
          "internalType": "bool",
          "name": "",
          "type": "bool"
        }
      ],
      "stateMutability": "view",
      "type": "function",
      "constant": true
    },
    {
      "inputs": [
        {
          "internalType": "bool",
          "name": "_active",
          "type": "bool"
        }
      ],
      "name": "setActive",
      "outputs": [
        {
          "internalType": "bool",
          "name": "",
          "type": "bool"
        }
      ],
      "stateMutability": "nonpayable",
      "type": "function"
    },
    {
      "inputs": [
        {
          "internalType": "address",
          "name": "_from",
          "type": "address"
        },
        {
          "internalType": "address",
          "name": "_to",
          "type": "address"
        }
      ],
      "name": "setAddrTracing",
      "outputs": [],
      "stateMutability": "nonpayable",
      "type": "function"
    },
    {
      "inputs": [
        {
          "internalType": "uint256",
          "name": "_idx",
          "type": "uint256"
        }
      ],
      "name": "getShippingAddrByIdx",
      "outputs": [
        {
          "internalType": "string",
          "name": "",
          "type": "string"
        }
      ],
      "stateMutability": "view",
      "type": "function",
      "constant": true
    },
    {
      "inputs": [
        {
          "internalType": "address",
          "name": "_user",
          "type": "address"
        }
      ],
      "name": "getPathLenByAddr",
      "outputs": [
        {
          "internalType": "uint256",
          "name": "",
          "type": "uint256"
        }
      ],
      "stateMutability": "view",
      "type": "function",
      "constant": true
    },
    {
      "inputs": [
        {
          "internalType": "address",
          "name": "_from",
          "type": "address"
        },
        {
          "internalType": "address",
          "name": "_to",
          "type": "address"
        },
        {
          "internalType": "string",
          "name": "_fromStr",
          "type": "string"
        },
        {
          "internalType": "string",
          "name": "_toStr",
          "type": "string"
        }
      ],
      "name": "setAddrToShippingAddr",
      "outputs": [],
      "stateMutability": "nonpayable",
      "type": "function"
    },
    {
      "inputs": [],
      "name": "getPathMax",
      "outputs": [
        {
          "internalType": "string[]",
          "name": "",
          "type": "string[]"
        }
      ],
      "stateMutability": "view",
      "type": "function",
      "constant": true
    },
    {
      "inputs": [
        {
          "internalType": "address",
          "name": "_user",
          "type": "address"
        },
        {
          "internalType": "address",
          "name": "_producer",
          "type": "address"
        }
      ],
      "name": "productTracing",
      "outputs": [
        {
          "internalType": "string[]",
          "name": "",
          "type": "string[]"
        }
      ],
      "stateMutability": "view",
      "type": "function",
      "constant": true
    },
    {
      "inputs": [
        {
          "internalType": "address",
          "name": "_producer",
          "type": "address"
        }
      ],
      "name": "productTracingFromYou",
      "outputs": [
        {
          "internalType": "string[]",
          "name": "",
          "type": "string[]"
        }
      ],
      "stateMutability": "view",
      "type": "function",
      "constant": true
    }
  ],
  "bytecode": "0x60806040526000600560006101000a81548160ff02191690831515021790555034801561002b57600080fd5b506116e38061003b6000396000f3fe608060405234801561001057600080fd5b50600436106100f45760003560e01c80638214411111610097578063bca34c5011610066578063bca34c50146102bd578063e6609efd146102ed578063ee7ba13a1461031d578063f8fe697f1461034d576100f4565b80638214411114610211578063a192db6014610241578063acec338a14610271578063b4825f37146102a1576100f4565b806343e6643e116100d357806343e6643e1461017757806346cd18ad146101955780635e57de03146101c557806378de034f146101e1576100f4565b80629ebb10146100f957806319a247d5146101175780633a55c65814610147575b600080fd5b61010161037d565b60405161010e9190610d2e565b60405180910390f35b610131600480360381019061012c9190610dbb565b610394565b60405161013e9190610d2e565b60405180910390f35b610161600480360381019061015c9190610dbb565b6103b4565b60405161016e9190610e81565b60405180910390f35b61017f610454565b60405161018c9190610faf565b60405180910390f35b6101af60048036038101906101aa9190611007565b61052d565b6040516101bc9190610e81565b60405180910390f35b6101df60048036038101906101da9190611034565b6105d9565b005b6101fb60048036038101906101f69190611007565b61065a565b6040516102089190611083565b60405180910390f35b61022b60048036038101906102269190610dbb565b61068d565b6040516102389190611083565b60405180910390f35b61025b60048036038101906102569190610dbb565b6106c0565b60405161026891906110ad565b60405180910390f35b61028b600480360381019061028691906110f4565b610709565b6040516102989190610d2e565b60405180910390f35b6102bb60048036038101906102b69190611256565b61073c565b005b6102d760048036038101906102d29190610dbb565b6108ec565b6040516102e49190610faf565b60405180910390f35b61030760048036038101906103029190611034565b610905565b6040516103149190610faf565b60405180910390f35b61033760048036038101906103329190610dbb565b610c4b565b60405161034491906110ad565b60405180910390f35b61036760048036038101906103629190611007565b610c63565b6040516103749190610e81565b60405180910390f35b6000600560009054906101000a900460ff16905090565b60066020528060005260406000206000915054906101000a900460ff1681565b600160205280600052604060002060009150905080546103d390611324565b80601f01602080910402602001604051908101604052809291908181526020018280546103ff90611324565b801561044c5780601f106104215761010080835404028352916020019161044c565b820191906000526020600020905b81548152906001019060200180831161042f57829003601f168201915b505050505081565b60606004805480602002602001604051908101604052809291908181526020016000905b8282101561052457838290600052602060002001805461049790611324565b80601f01602080910402602001604051908101604052809291908181526020018280546104c390611324565b80156105105780601f106104e557610100808354040283529160200191610510565b820191906000526020600020905b8154815290600101906020018083116104f357829003601f168201915b505050505081526020019060010190610478565b50505050905090565b6004818154811061053d57600080fd5b90600052602060002001600091509050805461055890611324565b80601f016020809104026020016040519081016040528092919081815260200182805461058490611324565b80156105d15780601f106105a6576101008083540402835291602001916105d1565b820191906000526020600020905b8154815290600101906020018083116105b457829003601f168201915b505050505081565b816000808373ffffffffffffffffffffffffffffffffffffffff1673ffffffffffffffffffffffffffffffffffffffff16815260200190815260200160002060006101000a81548173ffffffffffffffffffffffffffffffffffffffff021916908373ffffffffffffffffffffffffffffffffffffffff1602179055505050565b60036020528060005260406000206000915054906101000a900473ffffffffffffffffffffffffffffffffffffffff1681565b60006020528060005260406000206000915054906101000a900473ffffffffffffffffffffffffffffffffffffffff1681565b6000600260008373ffffffffffffffffffffffffffffffffffffffff1673ffffffffffffffffffffffffffffffffffffffff168152602001908152602001600020549050919050565b600081600560006101000a81548160ff021916908315150217905550600560009054906101000a900460ff169050919050565b8360036000600480549050815260200190815260200160002060006101000a81548173ffffffffffffffffffffffffffffffffffffffff021916908373ffffffffffffffffffffffffffffffffffffffff160217905550600480549050600260008673ffffffffffffffffffffffffffffffffffffffff1673ffffffffffffffffffffffffffffffffffffffff168152602001908152602001600020819055506004829080600181540180825580915050600190039060005260206000200160009091909190915090816108109190611501565b508260036000600480549050815260200190815260200160002060006101000a81548173ffffffffffffffffffffffffffffffffffffffff021916908373ffffffffffffffffffffffffffffffffffffffff160217905550600480549050600260008573ffffffffffffffffffffffffffffffffffffffff1673ffffffffffffffffffffffffffffffffffffffff168152602001908152602001600020819055506004819080600181540180825580915050600190039060005260206000200160009091909190915090816108e59190611501565b5050505050565b606060006108fa3384610905565b905080915050919050565b60608173ffffffffffffffffffffffffffffffffffffffff168373ffffffffffffffffffffffffffffffffffffffff160361093f57600080fd5b600080600480549050905060008167ffffffffffffffff8111156109665761096561112b565b5b60405190808252806020026020018201604052801561099957816020015b60608152602001906001900390816109845790505b509050600160008773ffffffffffffffffffffffffffffffffffffffff1673ffffffffffffffffffffffffffffffffffffffff16815260200190815260200160002080546109e690611324565b80601f0160208091040260200160405190810160405280929190818152602001828054610a1290611324565b8015610a5f5780601f10610a3457610100808354040283529160200191610a5f565b820191906000526020600020905b815481529060010190602001808311610a4257829003601f168201915b5050505050818480610a7090611602565b955081518110610a8357610a8261164a565b5b60200260200101819052505b600115610c22576000808773ffffffffffffffffffffffffffffffffffffffff1673ffffffffffffffffffffffffffffffffffffffff16815260200190815260200160002060009054906101000a900473ffffffffffffffffffffffffffffffffffffffff1695508473ffffffffffffffffffffffffffffffffffffffff168673ffffffffffffffffffffffffffffffffffffffff160315610c2257600160008773ffffffffffffffffffffffffffffffffffffffff1673ffffffffffffffffffffffffffffffffffffffff1681526020019081526020016000208054610b7590611324565b80601f0160208091040260200160405190810160405280929190818152602001828054610ba190611324565b8015610bee5780601f10610bc357610100808354040283529160200191610bee565b820191906000526020600020905b815481529060010190602001808311610bd157829003601f168201915b5050505050818480610bff90611602565b955081518110610c1257610c1161164a565b5b6020026020010181905250610a8f565b81831015610c3f578282610c369190611679565b91508181510381525b80935050505092915050565b60026020528060005260406000206000915090505481565b606060048281548110610c7957610c7861164a565b5b906000526020600020018054610c8e90611324565b80601f0160208091040260200160405190810160405280929190818152602001828054610cba90611324565b8015610d075780601f10610cdc57610100808354040283529160200191610d07565b820191906000526020600020905b815481529060010190602001808311610cea57829003601f168201915b50505050509050919050565b60008115159050919050565b610d2881610d13565b82525050565b6000602082019050610d436000830184610d1f565b92915050565b6000604051905090565b600080fd5b600080fd5b600073ffffffffffffffffffffffffffffffffffffffff82169050919050565b6000610d8882610d5d565b9050919050565b610d9881610d7d565b8114610da357600080fd5b50565b600081359050610db581610d8f565b92915050565b600060208284031215610dd157610dd0610d53565b5b6000610ddf84828501610da6565b91505092915050565b600081519050919050565b600082825260208201905092915050565b60005b83811015610e22578082015181840152602081019050610e07565b83811115610e31576000848401525b50505050565b6000601f19601f8301169050919050565b6000610e5382610de8565b610e5d8185610df3565b9350610e6d818560208601610e04565b610e7681610e37565b840191505092915050565b60006020820190508181036000830152610e9b8184610e48565b905092915050565b600081519050919050565b600082825260208201905092915050565b6000819050602082019050919050565b600082825260208201905092915050565b6000610eeb82610de8565b610ef58185610ecf565b9350610f05818560208601610e04565b610f0e81610e37565b840191505092915050565b6000610f258383610ee0565b905092915050565b6000602082019050919050565b6000610f4582610ea3565b610f4f8185610eae565b935083602082028501610f6185610ebf565b8060005b85811015610f9d5784840389528151610f7e8582610f19565b9450610f8983610f2d565b925060208a01995050600181019050610f65565b50829750879550505050505092915050565b60006020820190508181036000830152610fc98184610f3a565b905092915050565b6000819050919050565b610fe481610fd1565b8114610fef57600080fd5b50565b60008135905061100181610fdb565b92915050565b60006020828403121561101d5761101c610d53565b5b600061102b84828501610ff2565b91505092915050565b6000806040838503121561104b5761104a610d53565b5b600061105985828601610da6565b925050602061106a85828601610da6565b9150509250929050565b61107d81610d7d565b82525050565b60006020820190506110986000830184611074565b92915050565b6110a781610fd1565b82525050565b60006020820190506110c2600083018461109e565b92915050565b6110d181610d13565b81146110dc57600080fd5b50565b6000813590506110ee816110c8565b92915050565b60006020828403121561110a57611109610d53565b5b6000611118848285016110df565b91505092915050565b600080fd5b600080fd5b7f4e487b7100000000000000000000000000000000000000000000000000000000600052604160045260246000fd5b61116382610e37565b810181811067ffffffffffffffff821117156111825761118161112b565b5b80604052505050565b6000611195610d49565b90506111a1828261115a565b919050565b600067ffffffffffffffff8211156111c1576111c061112b565b5b6111ca82610e37565b9050602081019050919050565b82818337600083830152505050565b60006111f96111f4846111a6565b61118b565b90508281526020810184848401111561121557611214611126565b5b6112208482856111d7565b509392505050565b600082601f83011261123d5761123c611121565b5b813561124d8482602086016111e6565b91505092915050565b600080600080608085870312156112705761126f610d53565b5b600061127e87828801610da6565b945050602061128f87828801610da6565b935050604085013567ffffffffffffffff8111156112b0576112af610d58565b5b6112bc87828801611228565b925050606085013567ffffffffffffffff8111156112dd576112dc610d58565b5b6112e987828801611228565b91505092959194509250565b7f4e487b7100000000000000000000000000000000000000000000000000000000600052602260045260246000fd5b6000600282049050600182168061133c57607f821691505b60208210810361134f5761134e6112f5565b5b50919050565b60008190508160005260206000209050919050565b60006020601f8301049050919050565b600082821b905092915050565b6000600883026113b77fffffffffffffffffffffffffffffffffffffffffffffffffffffffffffffffff8261137a565b6113c1868361137a565b95508019841693508086168417925050509392505050565b6000819050919050565b60006113fe6113f96113f484610fd1565b6113d9565b610fd1565b9050919050565b6000819050919050565b611418836113e3565b61142c61142482611405565b848454611387565b825550505050565b600090565b611441611434565b61144c81848461140f565b505050565b5b8181101561147057611465600082611439565b600181019050611452565b5050565b601f8211156114b55761148681611355565b61148f8461136a565b8101602085101561149e578190505b6114b26114aa8561136a565b830182611451565b50505b505050565b600082821c905092915050565b60006114d8600019846008026114ba565b1980831691505092915050565b60006114f183836114c7565b9150826002028217905092915050565b61150a82610de8565b67ffffffffffffffff8111156115235761152261112b565b5b61152d8254611324565b611538828285611474565b600060209050601f83116001811461156b5760008415611559578287015190505b61156385826114e5565b8655506115cb565b601f19841661157986611355565b60005b828110156115a15784890151825560018201915060208501945060208101905061157c565b868310156115be57848901516115ba601f8916826114c7565b8355505b6001600288020188555050505b505050505050565b7f4e487b7100000000000000000000000000000000000000000000000000000000600052601160045260246000fd5b600061160d82610fd1565b91507fffffffffffffffffffffffffffffffffffffffffffffffffffffffffffffffff820361163f5761163e6115d3565b5b600182019050919050565b7f4e487b7100000000000000000000000000000000000000000000000000000000600052603260045260246000fd5b600061168482610fd1565b915061168f83610fd1565b9250828210156116a2576116a16115d3565b5b82820390509291505056fea26469706673582212200c398a41975ae2590a1d447f2b7b9a0aa0d802d342f583a673309cb6b214469064736f6c634300080f0033",
  "immutableReferences": {},
  "source": "// SPDX-License-Identifier: MIT\r\n\r\npragma solidity >=0.5.16;\r\n\r\ncontract SupplyContract{\r\n\r\n\r\n    mapping(address => address) public addrTracing;    \r\n    mapping(address => string ) public addrToShippingAddr;\r\n    mapping(address => uint256) public addrToPathIdx;\r\n    mapping(uint256 => address) public pathIdxToAddr;\r\n\r\n\r\n    string[] public pathMax;\r\n\r\n    bool active = false;\r\n\r\n\r\n    mapping(address => bool     ) public producerCheck;\r\n\r\n    function getActive() public view returns(bool){\r\n        return active;\r\n    }\r\n\r\n    function setActive(bool _active) public returns(bool){\r\n        active = _active;\r\n        return active;\r\n    }\r\n\r\n    function setAddrTracing(address _from, address _to) public {\r\n        addrTracing[_to] = _from;\r\n    }\r\n\r\n    function getShippingAddrByIdx(uint256 _idx) public view returns(string memory){\r\n        return pathMax[_idx];\r\n    } \r\n\r\n    function getPathLenByAddr(address _user) public view returns(uint256){\r\n        return addrToPathIdx[_user];\r\n    }\r\n\r\n    function setAddrToShippingAddr(address _from, address _to, string memory _fromStr, string memory _toStr) public {\r\n        pathIdxToAddr[pathMax.length] = _from;\r\n        addrToPathIdx[_from] = pathMax.length;\r\n        pathMax.push(_fromStr);\r\n        pathIdxToAddr[pathMax.length] = _to;\r\n        addrToPathIdx[_to] = pathMax.length;\r\n        pathMax.push(_toStr);\r\n    }\r\n\r\n    function getPathMax() public view returns(string[] memory){\r\n        return pathMax;\r\n    }\r\n\r\n    function productTracing(address _user, address _producer) public view returns(string[] memory){\r\n        \r\n        if(_user == _producer) revert();\r\n        uint256 trlen = 0;\r\n        uint256 fullLen = pathMax.length;\r\n\r\n        string[] memory path = new string[](fullLen);\r\n\r\n        path[trlen++] = addrToShippingAddr[_user];\r\n\r\n        while(true){\r\n            _user = addrTracing[_user];\r\n            if(_user == _producer) break;\r\n            \r\n            path[trlen++] = addrToShippingAddr[_user];\r\n         }\r\n        \r\n        if(trlen < fullLen){\r\n            fullLen -= trlen;\r\n\r\n            assembly { mstore(path, sub(mload(path), fullLen)) }\r\n        }\r\n\r\n         return path;\r\n    }\r\n\r\n    function productTracingFromYou(address _producer) public view returns(string[] memory){\r\n        string[] memory path = productTracing(msg.sender, _producer);\r\n        return path;\r\n    }\r\n\r\n    event productTracingCompleted(uint _itemId, address _root);\r\n    event DontWorryBeHappy(uint256 _itemId, address _bidder);\r\n\r\n}\r\n\r\n",
  "sourcePath": "/Users/c_rbi/ethNet/smart_contract/contracts/Supply.sol",
  "compiler": {
    "name": "solc",
    "version": "0.8.15+commit.e14f2714.Emscripten.clang"
  },
  "schemaVersion": "3.4.8",
  "updatedAt": "2022-08-02T22:45:05.120Z",
  "networkType": "ethereum",
  "devdoc": {
    "kind": "dev",
    "methods": {},
    "version": 1
  },
  "userdoc": {
    "kind": "user",
    "methods": {},
    "version": 1
  }
}