{
  "contractName": "SupplyManagingContract",
  "abi": [
    {
      "inputs": [
        {
          "internalType": "uint256",
          "name": "",
          "type": "uint256"
        }
      ],
      "name": "supplyData",
      "outputs": [
        {
          "internalType": "contract SupplyContract",
          "name": "",
          "type": "address"
        }
      ],
      "stateMutability": "view",
      "type": "function",
      "constant": true
    },
    {
      "inputs": [
        {
          "internalType": "uint256",
          "name": "_itemId",
          "type": "uint256"
        }
      ],
      "name": "constructorSupplyData",
      "outputs": [],
      "stateMutability": "nonpayable",
      "type": "function"
    },
    {
      "inputs": [
        {
          "internalType": "uint256",
          "name": "_itemId",
          "type": "uint256"
        }
      ],
      "name": "getPathMaxByItemId",
      "outputs": [
        {
          "internalType": "string[]",
          "name": "",
          "type": "string[]"
        }
      ],
      "stateMutability": "view",
      "type": "function",
      "constant": true
    },
    {
      "inputs": [
        {
          "internalType": "uint256",
          "name": "_itemId",
          "type": "uint256"
        }
      ],
      "name": "getPathLenByItemId",
      "outputs": [
        {
          "internalType": "uint256",
          "name": "",
          "type": "uint256"
        }
      ],
      "stateMutability": "view",
      "type": "function",
      "constant": true
    },
    {
      "inputs": [
        {
          "internalType": "uint256",
          "name": "_itemId",
          "type": "uint256"
        },
        {
          "internalType": "uint256",
          "name": "_idx",
          "type": "uint256"
        }
      ],
      "name": "getShippingAddrByItemId",
      "outputs": [
        {
          "internalType": "string",
          "name": "",
          "type": "string"
        }
      ],
      "stateMutability": "view",
      "type": "function",
      "constant": true
    },
    {
      "inputs": [
        {
          "internalType": "uint256",
          "name": "_itemId",
          "type": "uint256"
        },
        {
          "internalType": "address",
          "name": "_from",
          "type": "address"
        },
        {
          "internalType": "address",
          "name": "_to",
          "type": "address"
        },
        {
          "internalType": "string",
          "name": "_fromStr",
          "type": "string"
        },
        {
          "internalType": "string",
          "name": "_toStr",
          "type": "string"
        }
      ],
      "name": "setAddrToShippingByItemId",
      "outputs": [],
      "stateMutability": "nonpayable",
      "type": "function"
    },
    {
      "inputs": [
        {
          "internalType": "uint256",
          "name": "_itemId",
          "type": "uint256"
        },
        {
          "internalType": "string",
          "name": "_envInfo",
          "type": "string"
        }
      ],
      "name": "pushEnvInformationByItemId",
      "outputs": [],
      "stateMutability": "nonpayable",
      "type": "function"
    },
    {
      "inputs": [
        {
          "internalType": "uint256",
          "name": "_itemId",
          "type": "uint256"
        }
      ],
      "name": "getEnvInformatioByItemId",
      "outputs": [
        {
          "internalType": "string[]",
          "name": "",
          "type": "string[]"
        }
      ],
      "stateMutability": "view",
      "type": "function",
      "constant": true
    }
  ],
  "bytecode": "0x608060405234801561001057600080fd5b5061277e806100206000396000f3fe608060405234801561001057600080fd5b50600436106100885760003560e01c80639f4a0ae41161005b5780639f4a0ae414610139578063e019ed1114610155578063ef5ed39614610185578063fd50a524146101a157610088565b806311ac07dd1461008d5780631a2dc6cc146100bd5780636e722137146100d9578063987a34f814610109575b600080fd5b6100a760048036038101906100a291906106f0565b6101d1565b6040516100b4919061072c565b60405180910390f35b6100d760048036038101906100d2919061088d565b610286565b005b6100f360048036038101906100ee91906106f0565b610327565b6040516101009190610a33565b60405180910390f35b610123600480360381019061011e91906106f0565b6103d6565b6040516101309190610ad4565b60405180910390f35b610153600480360381019061014e9190610b2d565b610409565b005b61016f600480360381019061016a9190610be0565b6104b3565b60405161017c9190610c6a565b60405180910390f35b61019f600480360381019061019a91906106f0565b61056e565b005b6101bb60048036038101906101b691906106f0565b6105ea565b6040516101c89190610a33565b60405180910390f35b600080600083815260200190815260200160002060009054906101000a900473ffffffffffffffffffffffffffffffffffffffff1673ffffffffffffffffffffffffffffffffffffffff1663a192db60336040518263ffffffff1660e01b815260040161023e9190610c9b565b602060405180830381865afa15801561025b573d6000803e3d6000fd5b505050506040513d601f19601f8201168201806040525081019061027f9190610ccb565b9050919050565b60008083815260200190815260200160002060009054906101000a900473ffffffffffffffffffffffffffffffffffffffff1673ffffffffffffffffffffffffffffffffffffffff16637c212edf826040518263ffffffff1660e01b81526004016102f19190610c6a565b600060405180830381600087803b15801561030b57600080fd5b505af115801561031f573d6000803e3d6000fd5b505050505050565b606060008083815260200190815260200160002060009054906101000a900473ffffffffffffffffffffffffffffffffffffffff1673ffffffffffffffffffffffffffffffffffffffff166343e6643e6040518163ffffffff1660e01b8152600401600060405180830381865afa1580156103a6573d6000803e3d6000fd5b505050506040513d6000823e3d601f19601f820116820180604052508101906103cf9190610e4e565b9050919050565b60006020528060005260406000206000915054906101000a900473ffffffffffffffffffffffffffffffffffffffff1681565b60008086815260200190815260200160002060009054906101000a900473ffffffffffffffffffffffffffffffffffffffff1673ffffffffffffffffffffffffffffffffffffffff1663b4825f37858585856040518563ffffffff1660e01b815260040161047a9493929190610e97565b600060405180830381600087803b15801561049457600080fd5b505af11580156104a8573d6000803e3d6000fd5b505050505050505050565b606060008084815260200190815260200160002060009054906101000a900473ffffffffffffffffffffffffffffffffffffffff1673ffffffffffffffffffffffffffffffffffffffff1663f8fe697f836040518263ffffffff1660e01b8152600401610520919061072c565b600060405180830381865afa15801561053d573d6000803e3d6000fd5b505050506040513d6000823e3d601f19601f820116820180604052508101906105669190610eea565b905092915050565b60405161057a90610699565b604051809103906000f080158015610596573d6000803e3d6000fd5b5060008083815260200190815260200160002060006101000a81548173ffffffffffffffffffffffffffffffffffffffff021916908373ffffffffffffffffffffffffffffffffffffffff16021790555050565b606060008083815260200190815260200160002060009054906101000a900473ffffffffffffffffffffffffffffffffffffffff1673ffffffffffffffffffffffffffffffffffffffff1663c6c73d686040518163ffffffff1660e01b8152600401600060405180830381865afa158015610669573d6000803e3d6000fd5b505050506040513d6000823e3d601f19601f820116820180604052508101906106929190610e4e565b9050919050565b61181580610f3483390190565b6000604051905090565b600080fd5b600080fd5b6000819050919050565b6106cd816106ba565b81146106d857600080fd5b50565b6000813590506106ea816106c4565b92915050565b600060208284031215610706576107056106b0565b5b6000610714848285016106db565b91505092915050565b610726816106ba565b82525050565b6000602082019050610741600083018461071d565b92915050565b600080fd5b600080fd5b6000601f19601f8301169050919050565b7f4e487b7100000000000000000000000000000000000000000000000000000000600052604160045260246000fd5b61079a82610751565b810181811067ffffffffffffffff821117156107b9576107b8610762565b5b80604052505050565b60006107cc6106a6565b90506107d88282610791565b919050565b600067ffffffffffffffff8211156107f8576107f7610762565b5b61080182610751565b9050602081019050919050565b82818337600083830152505050565b600061083061082b846107dd565b6107c2565b90508281526020810184848401111561084c5761084b61074c565b5b61085784828561080e565b509392505050565b600082601f83011261087457610873610747565b5b813561088484826020860161081d565b91505092915050565b600080604083850312156108a4576108a36106b0565b5b60006108b2858286016106db565b925050602083013567ffffffffffffffff8111156108d3576108d26106b5565b5b6108df8582860161085f565b9150509250929050565b600081519050919050565b600082825260208201905092915050565b6000819050602082019050919050565b600081519050919050565b600082825260208201905092915050565b60005b8381101561094f578082015181840152602081019050610934565b8381111561095e576000848401525b50505050565b600061096f82610915565b6109798185610920565b9350610989818560208601610931565b61099281610751565b840191505092915050565b60006109a98383610964565b905092915050565b6000602082019050919050565b60006109c9826108e9565b6109d381856108f4565b9350836020820285016109e585610905565b8060005b85811015610a215784840389528151610a02858261099d565b9450610a0d836109b1565b925060208a019950506001810190506109e9565b50829750879550505050505092915050565b60006020820190508181036000830152610a4d81846109be565b905092915050565b600073ffffffffffffffffffffffffffffffffffffffff82169050919050565b6000819050919050565b6000610a9a610a95610a9084610a55565b610a75565b610a55565b9050919050565b6000610aac82610a7f565b9050919050565b6000610abe82610aa1565b9050919050565b610ace81610ab3565b82525050565b6000602082019050610ae96000830184610ac5565b92915050565b6000610afa82610a55565b9050919050565b610b0a81610aef565b8114610b1557600080fd5b50565b600081359050610b2781610b01565b92915050565b600080600080600060a08688031215610b4957610b486106b0565b5b6000610b57888289016106db565b9550506020610b6888828901610b18565b9450506040610b7988828901610b18565b935050606086013567ffffffffffffffff811115610b9a57610b996106b5565b5b610ba68882890161085f565b925050608086013567ffffffffffffffff811115610bc757610bc66106b5565b5b610bd38882890161085f565b9150509295509295909350565b60008060408385031215610bf757610bf66106b0565b5b6000610c05858286016106db565b9250506020610c16858286016106db565b9150509250929050565b600082825260208201905092915050565b6000610c3c82610915565b610c468185610c20565b9350610c56818560208601610931565b610c5f81610751565b840191505092915050565b60006020820190508181036000830152610c848184610c31565b905092915050565b610c9581610aef565b82525050565b6000602082019050610cb06000830184610c8c565b92915050565b600081519050610cc5816106c4565b92915050565b600060208284031215610ce157610ce06106b0565b5b6000610cef84828501610cb6565b91505092915050565b600067ffffffffffffffff821115610d1357610d12610762565b5b602082029050602081019050919050565b600080fd5b6000610d3c610d37846107dd565b6107c2565b905082815260208101848484011115610d5857610d5761074c565b5b610d63848285610931565b509392505050565b600082601f830112610d8057610d7f610747565b5b8151610d90848260208601610d29565b91505092915050565b6000610dac610da784610cf8565b6107c2565b90508083825260208201905060208402830185811115610dcf57610dce610d24565b5b835b81811015610e1657805167ffffffffffffffff811115610df457610df3610747565b5b808601610e018982610d6b565b85526020850194505050602081019050610dd1565b5050509392505050565b600082601f830112610e3557610e34610747565b5b8151610e45848260208601610d99565b91505092915050565b600060208284031215610e6457610e636106b0565b5b600082015167ffffffffffffffff811115610e8257610e816106b5565b5b610e8e84828501610e20565b91505092915050565b6000608082019050610eac6000830187610c8c565b610eb96020830186610c8c565b8181036040830152610ecb8185610c31565b90508181036060830152610edf8184610c31565b905095945050505050565b600060208284031215610f0057610eff6106b0565b5b600082015167ffffffffffffffff811115610f1e57610f1d6106b5565b5b610f2a84828501610d6b565b9150509291505056fe608060405234801561001057600080fd5b506117f5806100206000396000f3fe608060405234801561001057600080fd5b50600436106100f55760003560e01c80638214411111610097578063c6c73d6811610066578063c6c73d68146102bc578063e6609efd146102da578063ee7ba13a1461030a578063f8fe697f1461033a576100f5565b80638214411114610210578063a192db6014610240578063b4825f3714610270578063bca34c501461028c576100f5565b80635e57de03116100d35780635e57de0314610178578063720f5ebd1461019457806378de034f146101c45780637c212edf146101f4576100f5565b80633a55c658146100fa57806343e6643e1461012a57806346cd18ad14610148575b600080fd5b610114600480360381019061010f9190610edd565b61036a565b6040516101219190610fa3565b60405180910390f35b61013261040a565b60405161013f91906110d1565b60405180910390f35b610162600480360381019061015d9190611129565b6104e3565b60405161016f9190610fa3565b60405180910390f35b610192600480360381019061018d9190611156565b61058f565b005b6101ae60048036038101906101a99190611129565b610610565b6040516101bb9190610fa3565b60405180910390f35b6101de60048036038101906101d99190611129565b6106bc565b6040516101eb91906111a5565b60405180910390f35b61020e600480360381019061020991906112f5565b6106ef565b005b61022a60048036038101906102259190610edd565b610727565b60405161023791906111a5565b60405180910390f35b61025a60048036038101906102559190610edd565b61075a565b604051610267919061134d565b60405180910390f35b61028a60048036038101906102859190611368565b6107a3565b005b6102a660048036038101906102a19190610edd565b61096b565b6040516102b391906110d1565b60405180910390f35b6102c4610984565b6040516102d191906110d1565b60405180910390f35b6102f460048036038101906102ef9190611156565b610a5d565b60405161030191906110d1565b60405180910390f35b610324600480360381019061031f9190610edd565b610da3565b604051610331919061134d565b60405180910390f35b610354600480360381019061034f9190611129565b610dbb565b6040516103619190610fa3565b60405180910390f35b6001602052806000526040600020600091509050805461038990611436565b80601f01602080910402602001604051908101604052809291908181526020018280546103b590611436565b80156104025780601f106103d757610100808354040283529160200191610402565b820191906000526020600020905b8154815290600101906020018083116103e557829003601f168201915b505050505081565b60606005805480602002602001604051908101604052809291908181526020016000905b828210156104da57838290600052602060002001805461044d90611436565b80601f016020809104026020016040519081016040528092919081815260200182805461047990611436565b80156104c65780601f1061049b576101008083540402835291602001916104c6565b820191906000526020600020905b8154815290600101906020018083116104a957829003601f168201915b50505050508152602001906001019061042e565b50505050905090565b600581815481106104f357600080fd5b90600052602060002001600091509050805461050e90611436565b80601f016020809104026020016040519081016040528092919081815260200182805461053a90611436565b80156105875780601f1061055c57610100808354040283529160200191610587565b820191906000526020600020905b81548152906001019060200180831161056a57829003601f168201915b505050505081565b816000808373ffffffffffffffffffffffffffffffffffffffff1673ffffffffffffffffffffffffffffffffffffffff16815260200190815260200160002060006101000a81548173ffffffffffffffffffffffffffffffffffffffff021916908373ffffffffffffffffffffffffffffffffffffffff1602179055505050565b6004818154811061062057600080fd5b90600052602060002001600091509050805461063b90611436565b80601f016020809104026020016040519081016040528092919081815260200182805461066790611436565b80156106b45780601f10610689576101008083540402835291602001916106b4565b820191906000526020600020905b81548152906001019060200180831161069757829003601f168201915b505050505081565b60036020528060005260406000206000915054906101000a900473ffffffffffffffffffffffffffffffffffffffff1681565b6004819080600181540180825580915050600190039060005260206000200160009091909190915090816107239190611613565b5050565b60006020528060005260406000206000915054906101000a900473ffffffffffffffffffffffffffffffffffffffff1681565b6000600260008373ffffffffffffffffffffffffffffffffffffffff1673ffffffffffffffffffffffffffffffffffffffff168152602001908152602001600020549050919050565b8360036000600580549050815260200190815260200160002060006101000a81548173ffffffffffffffffffffffffffffffffffffffff021916908373ffffffffffffffffffffffffffffffffffffffff16021790555060058290806001815401808255809150506001900390600052602060002001600090919091909150908161082e9190611613565b5060016005805490506108419190611714565b600260008673ffffffffffffffffffffffffffffffffffffffff1673ffffffffffffffffffffffffffffffffffffffff168152602001908152602001600020819055508260036000600580549050815260200190815260200160002060006101000a81548173ffffffffffffffffffffffffffffffffffffffff021916908373ffffffffffffffffffffffffffffffffffffffff16021790555060058190806001815401808255809150506001900390600052602060002001600090919091909150908161090f9190611613565b5060016005805490506109229190611714565b600260008573ffffffffffffffffffffffffffffffffffffffff1673ffffffffffffffffffffffffffffffffffffffff1681526020019081526020016000208190555050505050565b606060006109793384610a5d565b905080915050919050565b60606004805480602002602001604051908101604052809291908181526020016000905b82821015610a545783829060005260206000200180546109c790611436565b80601f01602080910402602001604051908101604052809291908181526020018280546109f390611436565b8015610a405780601f10610a1557610100808354040283529160200191610a40565b820191906000526020600020905b815481529060010190602001808311610a2357829003601f168201915b5050505050815260200190600101906109a8565b50505050905090565b60608173ffffffffffffffffffffffffffffffffffffffff168373ffffffffffffffffffffffffffffffffffffffff1603610a9757600080fd5b600080600580549050905060008167ffffffffffffffff811115610abe57610abd6111ca565b5b604051908082528060200260200182016040528015610af157816020015b6060815260200190600190039081610adc5790505b509050600160008773ffffffffffffffffffffffffffffffffffffffff1673ffffffffffffffffffffffffffffffffffffffff1681526020019081526020016000208054610b3e90611436565b80601f0160208091040260200160405190810160405280929190818152602001828054610b6a90611436565b8015610bb75780601f10610b8c57610100808354040283529160200191610bb7565b820191906000526020600020905b815481529060010190602001808311610b9a57829003601f168201915b5050505050818480610bc890611748565b955081518110610bdb57610bda611790565b5b60200260200101819052505b600115610d7a576000808773ffffffffffffffffffffffffffffffffffffffff1673ffffffffffffffffffffffffffffffffffffffff16815260200190815260200160002060009054906101000a900473ffffffffffffffffffffffffffffffffffffffff1695508473ffffffffffffffffffffffffffffffffffffffff168673ffffffffffffffffffffffffffffffffffffffff160315610d7a57600160008773ffffffffffffffffffffffffffffffffffffffff1673ffffffffffffffffffffffffffffffffffffffff1681526020019081526020016000208054610ccd90611436565b80601f0160208091040260200160405190810160405280929190818152602001828054610cf990611436565b8015610d465780601f10610d1b57610100808354040283529160200191610d46565b820191906000526020600020905b815481529060010190602001808311610d2957829003601f168201915b5050505050818480610d5790611748565b955081518110610d6a57610d69611790565b5b6020026020010181905250610be7565b81831015610d97578282610d8e9190611714565b91508181510381525b80935050505092915050565b60026020528060005260406000206000915090505481565b606060058281548110610dd157610dd0611790565b5b906000526020600020018054610de690611436565b80601f0160208091040260200160405190810160405280929190818152602001828054610e1290611436565b8015610e5f5780601f10610e3457610100808354040283529160200191610e5f565b820191906000526020600020905b815481529060010190602001808311610e4257829003601f168201915b50505050509050919050565b6000604051905090565b600080fd5b600080fd5b600073ffffffffffffffffffffffffffffffffffffffff82169050919050565b6000610eaa82610e7f565b9050919050565b610eba81610e9f565b8114610ec557600080fd5b50565b600081359050610ed781610eb1565b92915050565b600060208284031215610ef357610ef2610e75565b5b6000610f0184828501610ec8565b91505092915050565b600081519050919050565b600082825260208201905092915050565b60005b83811015610f44578082015181840152602081019050610f29565b83811115610f53576000848401525b50505050565b6000601f19601f8301169050919050565b6000610f7582610f0a565b610f7f8185610f15565b9350610f8f818560208601610f26565b610f9881610f59565b840191505092915050565b60006020820190508181036000830152610fbd8184610f6a565b905092915050565b600081519050919050565b600082825260208201905092915050565b6000819050602082019050919050565b600082825260208201905092915050565b600061100d82610f0a565b6110178185610ff1565b9350611027818560208601610f26565b61103081610f59565b840191505092915050565b60006110478383611002565b905092915050565b6000602082019050919050565b600061106782610fc5565b6110718185610fd0565b93508360208202850161108385610fe1565b8060005b858110156110bf57848403895281516110a0858261103b565b94506110ab8361104f565b925060208a01995050600181019050611087565b50829750879550505050505092915050565b600060208201905081810360008301526110eb818461105c565b905092915050565b6000819050919050565b611106816110f3565b811461111157600080fd5b50565b600081359050611123816110fd565b92915050565b60006020828403121561113f5761113e610e75565b5b600061114d84828501611114565b91505092915050565b6000806040838503121561116d5761116c610e75565b5b600061117b85828601610ec8565b925050602061118c85828601610ec8565b9150509250929050565b61119f81610e9f565b82525050565b60006020820190506111ba6000830184611196565b92915050565b600080fd5b600080fd5b7f4e487b7100000000000000000000000000000000000000000000000000000000600052604160045260246000fd5b61120282610f59565b810181811067ffffffffffffffff82111715611221576112206111ca565b5b80604052505050565b6000611234610e6b565b905061124082826111f9565b919050565b600067ffffffffffffffff8211156112605761125f6111ca565b5b61126982610f59565b9050602081019050919050565b82818337600083830152505050565b600061129861129384611245565b61122a565b9050828152602081018484840111156112b4576112b36111c5565b5b6112bf848285611276565b509392505050565b600082601f8301126112dc576112db6111c0565b5b81356112ec848260208601611285565b91505092915050565b60006020828403121561130b5761130a610e75565b5b600082013567ffffffffffffffff81111561132957611328610e7a565b5b611335848285016112c7565b91505092915050565b611347816110f3565b82525050565b6000602082019050611362600083018461133e565b92915050565b6000806000806080858703121561138257611381610e75565b5b600061139087828801610ec8565b94505060206113a187828801610ec8565b935050604085013567ffffffffffffffff8111156113c2576113c1610e7a565b5b6113ce878288016112c7565b925050606085013567ffffffffffffffff8111156113ef576113ee610e7a565b5b6113fb878288016112c7565b91505092959194509250565b7f4e487b7100000000000000000000000000000000000000000000000000000000600052602260045260246000fd5b6000600282049050600182168061144e57607f821691505b60208210810361146157611460611407565b5b50919050565b60008190508160005260206000209050919050565b60006020601f8301049050919050565b600082821b905092915050565b6000600883026114c97fffffffffffffffffffffffffffffffffffffffffffffffffffffffffffffffff8261148c565b6114d3868361148c565b95508019841693508086168417925050509392505050565b6000819050919050565b600061151061150b611506846110f3565b6114eb565b6110f3565b9050919050565b6000819050919050565b61152a836114f5565b61153e61153682611517565b848454611499565b825550505050565b600090565b611553611546565b61155e818484611521565b505050565b5b818110156115825761157760008261154b565b600181019050611564565b5050565b601f8211156115c75761159881611467565b6115a18461147c565b810160208510156115b0578190505b6115c46115bc8561147c565b830182611563565b50505b505050565b600082821c905092915050565b60006115ea600019846008026115cc565b1980831691505092915050565b600061160383836115d9565b9150826002028217905092915050565b61161c82610f0a565b67ffffffffffffffff811115611635576116346111ca565b5b61163f8254611436565b61164a828285611586565b600060209050601f83116001811461167d576000841561166b578287015190505b61167585826115f7565b8655506116dd565b601f19841661168b86611467565b60005b828110156116b35784890151825560018201915060208501945060208101905061168e565b868310156116d057848901516116cc601f8916826115d9565b8355505b6001600288020188555050505b505050505050565b7f4e487b7100000000000000000000000000000000000000000000000000000000600052601160045260246000fd5b600061171f826110f3565b915061172a836110f3565b92508282101561173d5761173c6116e5565b5b828203905092915050565b6000611753826110f3565b91507fffffffffffffffffffffffffffffffffffffffffffffffffffffffffffffffff8203611785576117846116e5565b5b600182019050919050565b7f4e487b7100000000000000000000000000000000000000000000000000000000600052603260045260246000fdfea264697066735822122023f33f61aa63c8f127c3ba1a561bf3934d66f7e4f3c3c1138ac3cf363f97b51e64736f6c634300080f0033a2646970667358221220e782fd0568b496e4f35e904e9edbbf4dcb2d81c09dc2ddba75a00e8e0590b09c64736f6c634300080f0033",
  "immutableReferences": {},
  "source": "// SPDX-License-Identifier: MIT\nimport \"./Supply.sol\";\n\n\npragma solidity >=0.5.16;\n\ncontract SupplyManagingContract {\n\n    mapping(uint256 => SupplyContract) public supplyData;\n\n    function constructorSupplyData(uint256 _itemId) public{\n        supplyData[_itemId] = new SupplyContract();\n    }\n\n    function getPathMaxByItemId(uint256 _itemId) public view returns(string[] memory){\n        return supplyData[_itemId].getPathMax();\n    }\n\n    function getPathLenByItemId(uint256 _itemId) public view returns(uint256){\n        return supplyData[_itemId].getPathLenByAddr(msg.sender);\n    }\n\n    function getShippingAddrByItemId(uint256 _itemId, uint256 _idx) public view returns(string memory){\n        return supplyData[_itemId].getShippingAddrByIdx(_idx);\n    }\n\n    function setAddrToShippingByItemId(uint256 _itemId, address _from, address _to, \n        string memory _fromStr, string memory _toStr) public{\n        supplyData[_itemId].setAddrToShippingAddr(_from, _to, _fromStr, _toStr);\n    }\n\n\n    //   \n    function pushEnvInformationByItemId(uint256 _itemId, string memory _envInfo) public{\n        supplyData[_itemId].pushEnvInformation(_envInfo);\n    } //  \n\n    function getEnvInformatioByItemId(uint256 _itemId) public view returns(string[] memory){\n        return supplyData[_itemId].getEnvInformation();\n    } //  \n\n}",
  "sourcePath": "/Users/c_rbi/testNet/back-end/smart_contract/contracts/SupplyManaging.sol",
  "compiler": {
    "name": "solc",
    "version": "0.8.15+commit.e14f2714.Emscripten.clang"
  },
  "schemaVersion": "3.4.8",
  "updatedAt": "2022-08-11T23:49:34.137Z",
  "networkType": "ethereum",
  "devdoc": {
    "kind": "dev",
    "methods": {},
    "version": 1
  },
  "userdoc": {
    "kind": "user",
    "methods": {},
    "version": 1
  }
}