{
  "contractName": "SupplyContract",
  "abi": [
    {
      "anonymous": false,
      "inputs": [
        {
          "indexed": false,
          "internalType": "uint256",
          "name": "_itemId",
          "type": "uint256"
        },
        {
          "indexed": false,
          "internalType": "address",
          "name": "_bidder",
          "type": "address"
        }
      ],
      "name": "DontWorryBeHappy",
      "type": "event"
    },
    {
      "anonymous": false,
      "inputs": [
        {
          "indexed": false,
          "internalType": "uint256",
          "name": "_itemId",
          "type": "uint256"
        },
        {
          "indexed": false,
          "internalType": "address",
          "name": "_root",
          "type": "address"
        }
      ],
      "name": "productTracingCompleted",
      "type": "event"
    },
    {
      "inputs": [
        {
          "internalType": "address",
          "name": "",
          "type": "address"
        }
      ],
      "name": "addrToPathIdx",
      "outputs": [
        {
          "internalType": "uint256",
          "name": "",
          "type": "uint256"
        }
      ],
      "stateMutability": "view",
      "type": "function",
      "constant": true
    },
    {
      "inputs": [
        {
          "internalType": "address",
          "name": "",
          "type": "address"
        }
      ],
      "name": "addrToShippingAddr",
      "outputs": [
        {
          "internalType": "string",
          "name": "",
          "type": "string"
        }
      ],
      "stateMutability": "view",
      "type": "function",
      "constant": true
    },
    {
      "inputs": [
        {
          "internalType": "address",
          "name": "",
          "type": "address"
        }
      ],
      "name": "addrTracing",
      "outputs": [
        {
          "internalType": "address",
          "name": "",
          "type": "address"
        }
      ],
      "stateMutability": "view",
      "type": "function",
      "constant": true
    },
    {
      "inputs": [
        {
          "internalType": "uint256",
          "name": "",
          "type": "uint256"
        }
      ],
      "name": "envInformation",
      "outputs": [
        {
          "internalType": "string",
          "name": "",
          "type": "string"
        }
      ],
      "stateMutability": "view",
      "type": "function",
      "constant": true
    },
    {
      "inputs": [
        {
          "internalType": "uint256",
          "name": "",
          "type": "uint256"
        }
      ],
      "name": "pathIdxToAddr",
      "outputs": [
        {
          "internalType": "address",
          "name": "",
          "type": "address"
        }
      ],
      "stateMutability": "view",
      "type": "function",
      "constant": true
    },
    {
      "inputs": [
        {
          "internalType": "uint256",
          "name": "",
          "type": "uint256"
        }
      ],
      "name": "pathMax",
      "outputs": [
        {
          "internalType": "string",
          "name": "",
          "type": "string"
        }
      ],
      "stateMutability": "view",
      "type": "function",
      "constant": true
    },
    {
      "inputs": [
        {
          "internalType": "address",
          "name": "_from",
          "type": "address"
        },
        {
          "internalType": "address",
          "name": "_to",
          "type": "address"
        }
      ],
      "name": "setAddrTracing",
      "outputs": [],
      "stateMutability": "nonpayable",
      "type": "function"
    },
    {
      "inputs": [
        {
          "internalType": "string",
          "name": "_envInfo",
          "type": "string"
        }
      ],
      "name": "pushEnvInformation",
      "outputs": [],
      "stateMutability": "nonpayable",
      "type": "function"
    },
    {
      "inputs": [],
      "name": "getEnvInformation",
      "outputs": [
        {
          "internalType": "string[]",
          "name": "",
          "type": "string[]"
        }
      ],
      "stateMutability": "view",
      "type": "function",
      "constant": true
    },
    {
      "inputs": [
        {
          "internalType": "uint256",
          "name": "_idx",
          "type": "uint256"
        }
      ],
      "name": "getShippingAddrByIdx",
      "outputs": [
        {
          "internalType": "string",
          "name": "",
          "type": "string"
        }
      ],
      "stateMutability": "view",
      "type": "function",
      "constant": true
    },
    {
      "inputs": [
        {
          "internalType": "address",
          "name": "_user",
          "type": "address"
        }
      ],
      "name": "getPathLenByAddr",
      "outputs": [
        {
          "internalType": "uint256",
          "name": "",
          "type": "uint256"
        }
      ],
      "stateMutability": "view",
      "type": "function",
      "constant": true
    },
    {
      "inputs": [
        {
          "internalType": "address",
          "name": "_from",
          "type": "address"
        },
        {
          "internalType": "address",
          "name": "_to",
          "type": "address"
        },
        {
          "internalType": "string",
          "name": "_fromStr",
          "type": "string"
        },
        {
          "internalType": "string",
          "name": "_toStr",
          "type": "string"
        }
      ],
      "name": "setAddrToShippingAddr",
      "outputs": [],
      "stateMutability": "nonpayable",
      "type": "function"
    },
    {
      "inputs": [],
      "name": "getPathMax",
      "outputs": [
        {
          "internalType": "string[]",
          "name": "",
          "type": "string[]"
        }
      ],
      "stateMutability": "view",
      "type": "function",
      "constant": true
    },
    {
      "inputs": [
        {
          "internalType": "address",
          "name": "_user",
          "type": "address"
        },
        {
          "internalType": "address",
          "name": "_producer",
          "type": "address"
        }
      ],
      "name": "productTracing",
      "outputs": [
        {
          "internalType": "string[]",
          "name": "",
          "type": "string[]"
        }
      ],
      "stateMutability": "view",
      "type": "function",
      "constant": true
    },
    {
      "inputs": [
        {
          "internalType": "address",
          "name": "_producer",
          "type": "address"
        }
      ],
      "name": "productTracingFromYou",
      "outputs": [
        {
          "internalType": "string[]",
          "name": "",
          "type": "string[]"
        }
      ],
      "stateMutability": "view",
      "type": "function",
      "constant": true
    }
  ],
  "bytecode": "0x608060405234801561001057600080fd5b506117f5806100206000396000f3fe608060405234801561001057600080fd5b50600436106100f55760003560e01c80638214411111610097578063c6c73d6811610066578063c6c73d68146102bc578063e6609efd146102da578063ee7ba13a1461030a578063f8fe697f1461033a576100f5565b80638214411114610210578063a192db6014610240578063b4825f3714610270578063bca34c501461028c576100f5565b80635e57de03116100d35780635e57de0314610178578063720f5ebd1461019457806378de034f146101c45780637c212edf146101f4576100f5565b80633a55c658146100fa57806343e6643e1461012a57806346cd18ad14610148575b600080fd5b610114600480360381019061010f9190610edd565b61036a565b6040516101219190610fa3565b60405180910390f35b61013261040a565b60405161013f91906110d1565b60405180910390f35b610162600480360381019061015d9190611129565b6104e3565b60405161016f9190610fa3565b60405180910390f35b610192600480360381019061018d9190611156565b61058f565b005b6101ae60048036038101906101a99190611129565b610610565b6040516101bb9190610fa3565b60405180910390f35b6101de60048036038101906101d99190611129565b6106bc565b6040516101eb91906111a5565b60405180910390f35b61020e600480360381019061020991906112f5565b6106ef565b005b61022a60048036038101906102259190610edd565b610727565b60405161023791906111a5565b60405180910390f35b61025a60048036038101906102559190610edd565b61075a565b604051610267919061134d565b60405180910390f35b61028a60048036038101906102859190611368565b6107a3565b005b6102a660048036038101906102a19190610edd565b61096b565b6040516102b391906110d1565b60405180910390f35b6102c4610984565b6040516102d191906110d1565b60405180910390f35b6102f460048036038101906102ef9190611156565b610a5d565b60405161030191906110d1565b60405180910390f35b610324600480360381019061031f9190610edd565b610da3565b604051610331919061134d565b60405180910390f35b610354600480360381019061034f9190611129565b610dbb565b6040516103619190610fa3565b60405180910390f35b6001602052806000526040600020600091509050805461038990611436565b80601f01602080910402602001604051908101604052809291908181526020018280546103b590611436565b80156104025780601f106103d757610100808354040283529160200191610402565b820191906000526020600020905b8154815290600101906020018083116103e557829003601f168201915b505050505081565b60606005805480602002602001604051908101604052809291908181526020016000905b828210156104da57838290600052602060002001805461044d90611436565b80601f016020809104026020016040519081016040528092919081815260200182805461047990611436565b80156104c65780601f1061049b576101008083540402835291602001916104c6565b820191906000526020600020905b8154815290600101906020018083116104a957829003601f168201915b50505050508152602001906001019061042e565b50505050905090565b600581815481106104f357600080fd5b90600052602060002001600091509050805461050e90611436565b80601f016020809104026020016040519081016040528092919081815260200182805461053a90611436565b80156105875780601f1061055c57610100808354040283529160200191610587565b820191906000526020600020905b81548152906001019060200180831161056a57829003601f168201915b505050505081565b816000808373ffffffffffffffffffffffffffffffffffffffff1673ffffffffffffffffffffffffffffffffffffffff16815260200190815260200160002060006101000a81548173ffffffffffffffffffffffffffffffffffffffff021916908373ffffffffffffffffffffffffffffffffffffffff1602179055505050565b6004818154811061062057600080fd5b90600052602060002001600091509050805461063b90611436565b80601f016020809104026020016040519081016040528092919081815260200182805461066790611436565b80156106b45780601f10610689576101008083540402835291602001916106b4565b820191906000526020600020905b81548152906001019060200180831161069757829003601f168201915b505050505081565b60036020528060005260406000206000915054906101000a900473ffffffffffffffffffffffffffffffffffffffff1681565b6004819080600181540180825580915050600190039060005260206000200160009091909190915090816107239190611613565b5050565b60006020528060005260406000206000915054906101000a900473ffffffffffffffffffffffffffffffffffffffff1681565b6000600260008373ffffffffffffffffffffffffffffffffffffffff1673ffffffffffffffffffffffffffffffffffffffff168152602001908152602001600020549050919050565b8360036000600580549050815260200190815260200160002060006101000a81548173ffffffffffffffffffffffffffffffffffffffff021916908373ffffffffffffffffffffffffffffffffffffffff16021790555060058290806001815401808255809150506001900390600052602060002001600090919091909150908161082e9190611613565b5060016005805490506108419190611714565b600260008673ffffffffffffffffffffffffffffffffffffffff1673ffffffffffffffffffffffffffffffffffffffff168152602001908152602001600020819055508260036000600580549050815260200190815260200160002060006101000a81548173ffffffffffffffffffffffffffffffffffffffff021916908373ffffffffffffffffffffffffffffffffffffffff16021790555060058190806001815401808255809150506001900390600052602060002001600090919091909150908161090f9190611613565b5060016005805490506109229190611714565b600260008573ffffffffffffffffffffffffffffffffffffffff1673ffffffffffffffffffffffffffffffffffffffff1681526020019081526020016000208190555050505050565b606060006109793384610a5d565b905080915050919050565b60606004805480602002602001604051908101604052809291908181526020016000905b82821015610a545783829060005260206000200180546109c790611436565b80601f01602080910402602001604051908101604052809291908181526020018280546109f390611436565b8015610a405780601f10610a1557610100808354040283529160200191610a40565b820191906000526020600020905b815481529060010190602001808311610a2357829003601f168201915b5050505050815260200190600101906109a8565b50505050905090565b60608173ffffffffffffffffffffffffffffffffffffffff168373ffffffffffffffffffffffffffffffffffffffff1603610a9757600080fd5b600080600580549050905060008167ffffffffffffffff811115610abe57610abd6111ca565b5b604051908082528060200260200182016040528015610af157816020015b6060815260200190600190039081610adc5790505b509050600160008773ffffffffffffffffffffffffffffffffffffffff1673ffffffffffffffffffffffffffffffffffffffff1681526020019081526020016000208054610b3e90611436565b80601f0160208091040260200160405190810160405280929190818152602001828054610b6a90611436565b8015610bb75780601f10610b8c57610100808354040283529160200191610bb7565b820191906000526020600020905b815481529060010190602001808311610b9a57829003601f168201915b5050505050818480610bc890611748565b955081518110610bdb57610bda611790565b5b60200260200101819052505b600115610d7a576000808773ffffffffffffffffffffffffffffffffffffffff1673ffffffffffffffffffffffffffffffffffffffff16815260200190815260200160002060009054906101000a900473ffffffffffffffffffffffffffffffffffffffff1695508473ffffffffffffffffffffffffffffffffffffffff168673ffffffffffffffffffffffffffffffffffffffff160315610d7a57600160008773ffffffffffffffffffffffffffffffffffffffff1673ffffffffffffffffffffffffffffffffffffffff1681526020019081526020016000208054610ccd90611436565b80601f0160208091040260200160405190810160405280929190818152602001828054610cf990611436565b8015610d465780601f10610d1b57610100808354040283529160200191610d46565b820191906000526020600020905b815481529060010190602001808311610d2957829003601f168201915b5050505050818480610d5790611748565b955081518110610d6a57610d69611790565b5b6020026020010181905250610be7565b81831015610d97578282610d8e9190611714565b91508181510381525b80935050505092915050565b60026020528060005260406000206000915090505481565b606060058281548110610dd157610dd0611790565b5b906000526020600020018054610de690611436565b80601f0160208091040260200160405190810160405280929190818152602001828054610e1290611436565b8015610e5f5780601f10610e3457610100808354040283529160200191610e5f565b820191906000526020600020905b815481529060010190602001808311610e4257829003601f168201915b50505050509050919050565b6000604051905090565b600080fd5b600080fd5b600073ffffffffffffffffffffffffffffffffffffffff82169050919050565b6000610eaa82610e7f565b9050919050565b610eba81610e9f565b8114610ec557600080fd5b50565b600081359050610ed781610eb1565b92915050565b600060208284031215610ef357610ef2610e75565b5b6000610f0184828501610ec8565b91505092915050565b600081519050919050565b600082825260208201905092915050565b60005b83811015610f44578082015181840152602081019050610f29565b83811115610f53576000848401525b50505050565b6000601f19601f8301169050919050565b6000610f7582610f0a565b610f7f8185610f15565b9350610f8f818560208601610f26565b610f9881610f59565b840191505092915050565b60006020820190508181036000830152610fbd8184610f6a565b905092915050565b600081519050919050565b600082825260208201905092915050565b6000819050602082019050919050565b600082825260208201905092915050565b600061100d82610f0a565b6110178185610ff1565b9350611027818560208601610f26565b61103081610f59565b840191505092915050565b60006110478383611002565b905092915050565b6000602082019050919050565b600061106782610fc5565b6110718185610fd0565b93508360208202850161108385610fe1565b8060005b858110156110bf57848403895281516110a0858261103b565b94506110ab8361104f565b925060208a01995050600181019050611087565b50829750879550505050505092915050565b600060208201905081810360008301526110eb818461105c565b905092915050565b6000819050919050565b611106816110f3565b811461111157600080fd5b50565b600081359050611123816110fd565b92915050565b60006020828403121561113f5761113e610e75565b5b600061114d84828501611114565b91505092915050565b6000806040838503121561116d5761116c610e75565b5b600061117b85828601610ec8565b925050602061118c85828601610ec8565b9150509250929050565b61119f81610e9f565b82525050565b60006020820190506111ba6000830184611196565b92915050565b600080fd5b600080fd5b7f4e487b7100000000000000000000000000000000000000000000000000000000600052604160045260246000fd5b61120282610f59565b810181811067ffffffffffffffff82111715611221576112206111ca565b5b80604052505050565b6000611234610e6b565b905061124082826111f9565b919050565b600067ffffffffffffffff8211156112605761125f6111ca565b5b61126982610f59565b9050602081019050919050565b82818337600083830152505050565b600061129861129384611245565b61122a565b9050828152602081018484840111156112b4576112b36111c5565b5b6112bf848285611276565b509392505050565b600082601f8301126112dc576112db6111c0565b5b81356112ec848260208601611285565b91505092915050565b60006020828403121561130b5761130a610e75565b5b600082013567ffffffffffffffff81111561132957611328610e7a565b5b611335848285016112c7565b91505092915050565b611347816110f3565b82525050565b6000602082019050611362600083018461133e565b92915050565b6000806000806080858703121561138257611381610e75565b5b600061139087828801610ec8565b94505060206113a187828801610ec8565b935050604085013567ffffffffffffffff8111156113c2576113c1610e7a565b5b6113ce878288016112c7565b925050606085013567ffffffffffffffff8111156113ef576113ee610e7a565b5b6113fb878288016112c7565b91505092959194509250565b7f4e487b7100000000000000000000000000000000000000000000000000000000600052602260045260246000fd5b6000600282049050600182168061144e57607f821691505b60208210810361146157611460611407565b5b50919050565b60008190508160005260206000209050919050565b60006020601f8301049050919050565b600082821b905092915050565b6000600883026114c97fffffffffffffffffffffffffffffffffffffffffffffffffffffffffffffffff8261148c565b6114d3868361148c565b95508019841693508086168417925050509392505050565b6000819050919050565b600061151061150b611506846110f3565b6114eb565b6110f3565b9050919050565b6000819050919050565b61152a836114f5565b61153e61153682611517565b848454611499565b825550505050565b600090565b611553611546565b61155e818484611521565b505050565b5b818110156115825761157760008261154b565b600181019050611564565b5050565b601f8211156115c75761159881611467565b6115a18461147c565b810160208510156115b0578190505b6115c46115bc8561147c565b830182611563565b50505b505050565b600082821c905092915050565b60006115ea600019846008026115cc565b1980831691505092915050565b600061160383836115d9565b9150826002028217905092915050565b61161c82610f0a565b67ffffffffffffffff811115611635576116346111ca565b5b61163f8254611436565b61164a828285611586565b600060209050601f83116001811461167d576000841561166b578287015190505b61167585826115f7565b8655506116dd565b601f19841661168b86611467565b60005b828110156116b35784890151825560018201915060208501945060208101905061168e565b868310156116d057848901516116cc601f8916826115d9565b8355505b6001600288020188555050505b505050505050565b7f4e487b7100000000000000000000000000000000000000000000000000000000600052601160045260246000fd5b600061171f826110f3565b915061172a836110f3565b92508282101561173d5761173c6116e5565b5b828203905092915050565b6000611753826110f3565b91507fffffffffffffffffffffffffffffffffffffffffffffffffffffffffffffffff8203611785576117846116e5565b5b600182019050919050565b7f4e487b7100000000000000000000000000000000000000000000000000000000600052603260045260246000fdfea264697066735822122023f33f61aa63c8f127c3ba1a561bf3934d66f7e4f3c3c1138ac3cf363f97b51e64736f6c634300080f0033",
  "immutableReferences": {},
  "source": "// SPDX-License-Identifier: MIT\r\n\r\npragma solidity >=0.5.16;\r\n\r\ncontract SupplyContract{\r\n\r\n\r\n    mapping(address => address) public addrTracing;    \r\n    mapping(address => string ) public addrToShippingAddr;\r\n    mapping(address => uint256) public addrToPathIdx;\r\n    mapping(uint256 => address) public pathIdxToAddr;\r\n\r\n    string[] public envInformation; // , \r\n\r\n    string[] public pathMax;\r\n\r\n    function setAddrTracing(address _from, address _to) public {\r\n        addrTracing[_to] = _from;\r\n    }\r\n\r\n    function pushEnvInformation(string memory _envInfo) public {\r\n        envInformation.push(_envInfo);\r\n    }\r\n\r\n    function getEnvInformation() public view returns(string[] memory){\r\n        return envInformation;\r\n    }\r\n\r\n    function getShippingAddrByIdx(uint256 _idx) public view returns(string memory){\r\n        return pathMax[_idx];\r\n    } \r\n\r\n    function getPathLenByAddr(address _user) public view returns(uint256){\r\n        return addrToPathIdx[_user];\r\n    }\r\n\r\n    function setAddrToShippingAddr(address _from, address _to, string memory _fromStr, string memory _toStr) public {\r\n        pathIdxToAddr[pathMax.length] = _from;\r\n        pathMax.push(_fromStr);\r\n        addrToPathIdx[_from] = pathMax.length-1;\r\n\r\n        pathIdxToAddr[pathMax.length] = _to;\r\n        pathMax.push(_toStr);\r\n        addrToPathIdx[_to] = pathMax.length-1;\r\n\r\n    }\r\n\r\n    function getPathMax() public view returns(string[] memory){\r\n        return pathMax;\r\n    }\r\n\r\n    function productTracing(address _user, address _producer) public view returns(string[] memory){\r\n        \r\n        if(_user == _producer) revert();\r\n        uint256 trlen = 0;\r\n        uint256 fullLen = pathMax.length;\r\n\r\n        string[] memory path = new string[](fullLen);\r\n\r\n        path[trlen++] = addrToShippingAddr[_user];\r\n\r\n        while(true){\r\n            _user = addrTracing[_user];\r\n            if(_user == _producer) break;\r\n            \r\n            path[trlen++] = addrToShippingAddr[_user];\r\n         }\r\n        \r\n        if(trlen < fullLen){\r\n            fullLen -= trlen;\r\n\r\n            assembly { mstore(path, sub(mload(path), fullLen)) }\r\n        }\r\n\r\n         return path;\r\n    }\r\n\r\n    function productTracingFromYou(address _producer) public view returns(string[] memory){\r\n        string[] memory path = productTracing(msg.sender, _producer);\r\n        return path;\r\n    }\r\n\r\n    event productTracingCompleted(uint _itemId, address _root);\r\n    event DontWorryBeHappy(uint256 _itemId, address _bidder);\r\n\r\n}\r\n\r\n",
  "sourcePath": "/Users/c_rbi/testNet/back-end/smart_contract/contracts/Supply.sol",
  "compiler": {
    "name": "solc",
    "version": "0.8.15+commit.e14f2714.Emscripten.clang"
  },
  "schemaVersion": "3.4.8",
  "updatedAt": "2022-08-11T23:49:34.120Z",
  "networkType": "ethereum",
  "devdoc": {
    "kind": "dev",
    "methods": {},
    "version": 1
  },
  "userdoc": {
    "kind": "user",
    "methods": {},
    "version": 1
  }
}