{
  "contractName": "AuctionContract",
  "abi": [
    {
      "anonymous": false,
      "inputs": [
        {
          "indexed": false,
          "internalType": "address",
          "name": "_owner",
          "type": "address"
        },
        {
          "indexed": false,
          "internalType": "uint256",
          "name": "_auctionId",
          "type": "uint256"
        }
      ],
      "name": "AuctionCanceled",
      "type": "event"
    },
    {
      "anonymous": false,
      "inputs": [
        {
          "indexed": false,
          "internalType": "address",
          "name": "_owner",
          "type": "address"
        },
        {
          "indexed": false,
          "internalType": "uint256",
          "name": "_auctionId",
          "type": "uint256"
        }
      ],
      "name": "AuctionCreated",
      "type": "event"
    },
    {
      "anonymous": false,
      "inputs": [
        {
          "indexed": false,
          "internalType": "address",
          "name": "_owner",
          "type": "address"
        },
        {
          "indexed": false,
          "internalType": "uint256",
          "name": "_auctionId",
          "type": "uint256"
        }
      ],
      "name": "AuctionFinalized",
      "type": "event"
    },
    {
      "anonymous": false,
      "inputs": [
        {
          "indexed": false,
          "internalType": "address",
          "name": "_from",
          "type": "address"
        },
        {
          "indexed": false,
          "internalType": "uint256",
          "name": "_auctionId",
          "type": "uint256"
        }
      ],
      "name": "BidSuccess",
      "type": "event"
    },
    {
      "anonymous": false,
      "inputs": [
        {
          "indexed": false,
          "internalType": "uint256",
          "name": "_value",
          "type": "uint256"
        }
      ],
      "name": "howMuch",
      "type": "event"
    },
    {
      "inputs": [
        {
          "internalType": "uint256",
          "name": "",
          "type": "uint256"
        },
        {
          "internalType": "uint256",
          "name": "",
          "type": "uint256"
        }
      ],
      "name": "auctionBids",
      "outputs": [
        {
          "internalType": "address payable",
          "name": "from",
          "type": "address"
        },
        {
          "internalType": "uint256",
          "name": "amount",
          "type": "uint256"
        }
      ],
      "stateMutability": "view",
      "type": "function",
      "constant": true
    },
    {
      "inputs": [
        {
          "internalType": "address",
          "name": "",
          "type": "address"
        },
        {
          "internalType": "uint256",
          "name": "",
          "type": "uint256"
        }
      ],
      "name": "auctionOwner",
      "outputs": [
        {
          "internalType": "uint256",
          "name": "",
          "type": "uint256"
        }
      ],
      "stateMutability": "view",
      "type": "function",
      "constant": true
    },
    {
      "inputs": [
        {
          "internalType": "uint256",
          "name": "",
          "type": "uint256"
        }
      ],
      "name": "auctions",
      "outputs": [
        {
          "internalType": "string",
          "name": "name",
          "type": "string"
        },
        {
          "internalType": "uint256",
          "name": "blockDeadline",
          "type": "uint256"
        },
        {
          "internalType": "uint256",
          "name": "startPrice",
          "type": "uint256"
        },
        {
          "internalType": "address payable",
          "name": "owner",
          "type": "address"
        },
        {
          "internalType": "bool",
          "name": "active",
          "type": "bool"
        },
        {
          "internalType": "bool",
          "name": "finalized",
          "type": "bool"
        }
      ],
      "stateMutability": "view",
      "type": "function",
      "constant": true
    },
    {
      "inputs": [
        {
          "internalType": "uint256",
          "name": "_auctionId",
          "type": "uint256"
        }
      ],
      "name": "getBidsCount",
      "outputs": [
        {
          "internalType": "uint256",
          "name": "",
          "type": "uint256"
        }
      ],
      "stateMutability": "view",
      "type": "function",
      "constant": true
    },
    {
      "inputs": [
        {
          "internalType": "address",
          "name": "_owner",
          "type": "address"
        }
      ],
      "name": "getAuctionsOf",
      "outputs": [
        {
          "internalType": "uint256[]",
          "name": "",
          "type": "uint256[]"
        }
      ],
      "stateMutability": "view",
      "type": "function",
      "constant": true
    },
    {
      "inputs": [
        {
          "internalType": "uint256",
          "name": "_auctionId",
          "type": "uint256"
        }
      ],
      "name": "getCurrentBid",
      "outputs": [
        {
          "internalType": "uint256",
          "name": "",
          "type": "uint256"
        },
        {
          "internalType": "address",
          "name": "",
          "type": "address"
        }
      ],
      "stateMutability": "view",
      "type": "function",
      "constant": true
    },
    {
      "inputs": [
        {
          "internalType": "address",
          "name": "_owner",
          "type": "address"
        }
      ],
      "name": "getAuctionsCountOfOwner",
      "outputs": [
        {
          "internalType": "uint256",
          "name": "",
          "type": "uint256"
        }
      ],
      "stateMutability": "view",
      "type": "function",
      "constant": true
    },
    {
      "inputs": [
        {
          "internalType": "uint256",
          "name": "_auctionId",
          "type": "uint256"
        }
      ],
      "name": "getAuctionById",
      "outputs": [
        {
          "internalType": "string",
          "name": "name",
          "type": "string"
        },
        {
          "internalType": "uint256",
          "name": "startPrice",
          "type": "uint256"
        },
        {
          "internalType": "uint256",
          "name": "blockDeadline",
          "type": "uint256"
        },
        {
          "internalType": "address payable",
          "name": "owner",
          "type": "address"
        },
        {
          "internalType": "bool",
          "name": "active",
          "type": "bool"
        },
        {
          "internalType": "bool",
          "name": "finalized",
          "type": "bool"
        }
      ],
      "stateMutability": "view",
      "type": "function",
      "constant": true
    },
    {
      "inputs": [
        {
          "internalType": "string",
          "name": "_auctionTitle",
          "type": "string"
        },
        {
          "internalType": "uint256",
          "name": "_startPrice",
          "type": "uint256"
        },
        {
          "internalType": "uint256",
          "name": "_blockDeadline",
          "type": "uint256"
        }
      ],
      "name": "createAuction",
      "outputs": [
        {
          "internalType": "bool",
          "name": "",
          "type": "bool"
        }
      ],
      "stateMutability": "nonpayable",
      "type": "function"
    },
    {
      "inputs": [
        {
          "internalType": "uint256",
          "name": "_auctionId",
          "type": "uint256"
        }
      ],
      "name": "cancelAuction",
      "outputs": [],
      "stateMutability": "nonpayable",
      "type": "function"
    },
    {
      "inputs": [
        {
          "internalType": "uint256",
          "name": "_auctionId",
          "type": "uint256"
        }
      ],
      "name": "finalizeAuction",
      "outputs": [],
      "stateMutability": "nonpayable",
      "type": "function"
    },
    {
      "inputs": [
        {
          "internalType": "address payable",
          "name": "_from",
          "type": "address"
        },
        {
          "internalType": "uint256",
          "name": "_amount",
          "type": "uint256"
        },
        {
          "internalType": "uint256",
          "name": "_auctionId",
          "type": "uint256"
        }
      ],
      "name": "sendNow",
      "outputs": [],
      "stateMutability": "payable",
      "type": "function",
      "payable": true
    },
    {
      "inputs": [
        {
          "internalType": "uint256",
          "name": "_auctionId",
          "type": "uint256"
        }
      ],
      "name": "bidOnAuction",
      "outputs": [],
      "stateMutability": "payable",
      "type": "function",
      "payable": true
    }
  ],
  "bytecode": "0x608060405234801561001057600080fd5b50612052806100206000396000f3fe6080604052600436106100c25760003560e01c80637af263451161007f578063c8756cda11610059578063c8756cda146102a1578063d56aa558146102de578063da4e364f1461031b578063e808386314610359576100c2565b80637af263451461021f57806396b5a7551461023b578063b1b61bfa14610264576100c2565b806318111ada146100c757806326b7aeea146101095780632dbddb41146101255780634008f9c014610162578063571a26a01461019f5780635f93de49146101e1575b600080fd5b3480156100d357600080fd5b506100ee60048036038101906100e9919061157b565b610382565b604051610100969594939291906116ac565b60405180910390f35b610123600480360381019061011e919061157b565b610522565b005b34801561013157600080fd5b5061014c60048036038101906101479190611849565b610938565b60405161015991906118b8565b60405180910390f35b34801561016e57600080fd5b506101896004803603810190610184919061157b565b610b14565b60405161019691906118d3565b60405180910390f35b3480156101ab57600080fd5b506101c660048036038101906101c1919061157b565b610b34565b6040516101d8969594939291906116ac565b60405180910390f35b3480156101ed57600080fd5b50610208600480360381019061020391906118ee565b610c42565b60405161021692919061192e565b60405180910390f35b61023960048036038101906102349190611983565b610ca3565b005b34801561024757600080fd5b50610262600480360381019061025d919061157b565b610e17565b005b34801561027057600080fd5b5061028b60048036038101906102869190611a14565b611033565b6040516102989190611aff565b60405180910390f35b3480156102ad57600080fd5b506102c860048036038101906102c39190611b21565b6110d0565b6040516102d591906118d3565b60405180910390f35b3480156102ea57600080fd5b5061030560048036038101906103009190611a14565b611101565b60405161031291906118d3565b60405180910390f35b34801561032757600080fd5b50610342600480360381019061033d919061157b565b61114d565b604051610350929190611b70565b60405180910390f35b34801561036557600080fd5b50610380600480360381019061037b919061157b565b611245565b005b6060600080600080600080600088815481106103a1576103a0611b99565b5b90600052602060002090600402016040518060c00160405290816000820180546103ca90611bf7565b80601f01602080910402602001604051908101604052809291908181526020018280546103f690611bf7565b80156104435780601f1061041857610100808354040283529160200191610443565b820191906000526020600020905b81548152906001019060200180831161042657829003601f168201915b5050505050815260200160018201548152602001600282015481526020016003820160009054906101000a900473ffffffffffffffffffffffffffffffffffffffff1673ffffffffffffffffffffffffffffffffffffffff1673ffffffffffffffffffffffffffffffffffffffff1681526020016003820160149054906101000a900460ff161515151581526020016003820160159054906101000a900460ff1615151515815250509050806000015181602001518260400151836060015184608001518560a001519650965096509650965096505091939550919395565b6000349050600080838154811061053c5761053b611b99565b5b90600052602060002090600402016040518060c001604052908160008201805461056590611bf7565b80601f016020809104026020016040519081016040528092919081815260200182805461059190611bf7565b80156105de5780601f106105b3576101008083540402835291602001916105de565b820191906000526020600020905b8154815290600101906020018083116105c157829003601f168201915b5050505050815260200160018201548152602001600282015481526020016003820160009054906101000a900473ffffffffffffffffffffffffffffffffffffffff1673ffffffffffffffffffffffffffffffffffffffff1673ffffffffffffffffffffffffffffffffffffffff1681526020016003820160149054906101000a900460ff161515151581526020016003820160159054906101000a900460ff16151515158152505090503373ffffffffffffffffffffffffffffffffffffffff16816060015173ffffffffffffffffffffffffffffffffffffffff16036106c557600080fd5b80602001514211156106d657600080fd5b6000600160008581526020019081526020016000208054905090506000826040015190506107026114b1565b60008311156107bf576001600087815260200190815260200160002060018461072b9190611c57565b8154811061073c5761073b611b99565b5b90600052602060002090600202016040518060400160405290816000820160009054906101000a900473ffffffffffffffffffffffffffffffffffffffff1673ffffffffffffffffffffffffffffffffffffffff1673ffffffffffffffffffffffffffffffffffffffff1681526020016001820154815250509050806020015191505b818510156107cc57600080fd5b600083111561081c57806000015173ffffffffffffffffffffffffffffffffffffffff166108fc82602001519081150290604051600060405180830381858888f1935050505061081b57600080fd5b5b6108246114b1565b33816000019073ffffffffffffffffffffffffffffffffffffffff16908173ffffffffffffffffffffffffffffffffffffffff1681525050858160200181815250506001600088815260200190815260200160002081908060018154018082558091505060019003906000526020600020906002020160009091909190915060008201518160000160006101000a81548173ffffffffffffffffffffffffffffffffffffffff021916908373ffffffffffffffffffffffffffffffffffffffff1602179055506020820151816001015550507f5762e6a7d331cd17a1761e94de3ea3b85e90ee6cdd9d1204e361cc650689d4633388604051610927929190611c8b565b60405180910390a150505050505050565b600080600080549050905061094b6114e1565b858160000181905250838160200181815250508481604001818152505033816060019073ffffffffffffffffffffffffffffffffffffffff16908173ffffffffffffffffffffffffffffffffffffffff1681525050600181608001901515908115158152505060008160a001901515908115158152505060008190806001815401808255809150506001900390600052602060002090600402016000909190919091506000820151816000019081610a039190611e60565b50602082015181600101556040820151816002015560608201518160030160006101000a81548173ffffffffffffffffffffffffffffffffffffffff021916908373ffffffffffffffffffffffffffffffffffffffff16021790555060808201518160030160146101000a81548160ff02191690831515021790555060a08201518160030160156101000a81548160ff0219169083151502179055505050600260003373ffffffffffffffffffffffffffffffffffffffff1673ffffffffffffffffffffffffffffffffffffffff1681526020019081526020016000208290806001815401808255809150506001900390600052602060002001600090919091909150556001925050509392505050565b600060016000838152602001908152602001600020805490509050919050565b60008181548110610b4457600080fd5b9060005260206000209060040201600091509050806000018054610b6790611bf7565b80601f0160208091040260200160405190810160405280929190818152602001828054610b9390611bf7565b8015610be05780601f10610bb557610100808354040283529160200191610be0565b820191906000526020600020905b815481529060010190602001808311610bc357829003601f168201915b5050505050908060010154908060020154908060030160009054906101000a900473ffffffffffffffffffffffffffffffffffffffff16908060030160149054906101000a900460ff16908060030160159054906101000a900460ff16905086565b60016020528160005260406000208181548110610c5e57600080fd5b9060005260206000209060020201600091509150508060000160009054906101000a900473ffffffffffffffffffffffffffffffffffffffff16908060010154905082565b60008373ffffffffffffffffffffffffffffffffffffffff166108fc849081150290604051600060405180830381858888f19350505050905080610d1c576040517f08c379a0000000000000000000000000000000000000000000000000000000008152600401610d1390611f7e565b60405180910390fd5b80610d2657600080fd5b6000808381548110610d3b57610d3a611b99565b5b906000526020600020906004020160030160146101000a81548160ff021916908315150217905550600160008381548110610d7957610d78611b99565b5b906000526020600020906004020160030160156101000a81548160ff0219169083151502179055507f357afab190ee87fe0ef1c717f2728d2904d9e415a069d99f4d9382873cb3279d8483604051610dd2929190611ff3565b60405180910390a17fe4f740571b79610deff27ca80ef3046de224a7fc42e82177a0d9919cd5b7a8d983604051610e0991906118d3565b60405180910390a150505050565b803373ffffffffffffffffffffffffffffffffffffffff1660008281548110610e4357610e42611b99565b5b906000526020600020906004020160030160009054906101000a900473ffffffffffffffffffffffffffffffffffffffff1673ffffffffffffffffffffffffffffffffffffffff1614610e9557600080fd5b60006001600084815260200190815260200160002080549050905060008082111561102d57600060016000868152602001908152602001600020600184610edc9190611c57565b81548110610eed57610eec611b99565b5b90600052602060002090600202016040518060400160405290816000820160009054906101000a900473ffffffffffffffffffffffffffffffffffffffff1673ffffffffffffffffffffffffffffffffffffffff1673ffffffffffffffffffffffffffffffffffffffff1681526020016001820154815250509050806000015173ffffffffffffffffffffffffffffffffffffffff166108fc82602001519081150290604051600060405180830381858888f19350505050915081610fb157600080fd5b6000808681548110610fc657610fc5611b99565b5b906000526020600020906004020160030160146101000a81548160ff0219169083151502179055507f39e6c898ce035bbacd9ba4f9753534f8c9f976e0ff70be83cfe887f235afa1d3816000015186604051611023929190611ff3565b60405180910390a1505b50505050565b60606000600260008473ffffffffffffffffffffffffffffffffffffffff1673ffffffffffffffffffffffffffffffffffffffff1681526020019081526020016000208054806020026020016040519081016040528092919081815260200182805480156110c057602002820191906000526020600020905b8154815260200190600101908083116110ac575b5050505050905080915050919050565b600260205281600052604060002081815481106110ec57600080fd5b90600052602060002001600091509150505481565b6000600260008373ffffffffffffffffffffffffffffffffffffffff1673ffffffffffffffffffffffffffffffffffffffff168152602001908152602001600020805490509050919050565b6000806000600160008581526020019081526020016000208054905090506000811115611237576000600160008681526020019081526020016000206001836111969190611c57565b815481106111a7576111a6611b99565b5b90600052602060002090600202016040518060400160405290816000820160009054906101000a900473ffffffffffffffffffffffffffffffffffffffff1673ffffffffffffffffffffffffffffffffffffffff1673ffffffffffffffffffffffffffffffffffffffff168152602001600182015481525050905080602001518160000151935093505050611240565b60008092509250505b915091565b600080828154811061125a57611259611b99565b5b90600052602060002090600402016040518060c001604052908160008201805461128390611bf7565b80601f01602080910402602001604051908101604052809291908181526020018280546112af90611bf7565b80156112fc5780601f106112d1576101008083540402835291602001916112fc565b820191906000526020600020905b8154815290600101906020018083116112df57829003601f168201915b5050505050815260200160018201548152602001600282015481526020016003820160009054906101000a900473ffffffffffffffffffffffffffffffffffffffff1673ffffffffffffffffffffffffffffffffffffffff1673ffffffffffffffffffffffffffffffffffffffff1681526020016003820160149054906101000a900460ff161515151581526020016003820160159054906101000a900460ff161515151581525050905060006001600084815260200190815260200160002080549050905081602001514210156113d357600080fd5b600081036113e9576113e483610e17565b6114ac565b60006001600085815260200190815260200160002060018361140b9190611c57565b8154811061141c5761141b611b99565b5b90600052602060002090600202016040518060400160405290816000820160009054906101000a900473ffffffffffffffffffffffffffffffffffffffff1673ffffffffffffffffffffffffffffffffffffffff1673ffffffffffffffffffffffffffffffffffffffff16815260200160018201548152505090506114aa8160000151826020015186610ca3565b505b505050565b6040518060400160405280600073ffffffffffffffffffffffffffffffffffffffff168152602001600081525090565b6040518060c00160405280606081526020016000815260200160008152602001600073ffffffffffffffffffffffffffffffffffffffff1681526020016000151581526020016000151581525090565b6000604051905090565b600080fd5b600080fd5b6000819050919050565b61155881611545565b811461156357600080fd5b50565b6000813590506115758161154f565b92915050565b6000602082840312156115915761159061153b565b5b600061159f84828501611566565b91505092915050565b600081519050919050565b600082825260208201905092915050565b60005b838110156115e25780820151818401526020810190506115c7565b838111156115f1576000848401525b50505050565b6000601f19601f8301169050919050565b6000611613826115a8565b61161d81856115b3565b935061162d8185602086016115c4565b611636816115f7565b840191505092915050565b61164a81611545565b82525050565b600073ffffffffffffffffffffffffffffffffffffffff82169050919050565b600061167b82611650565b9050919050565b61168b81611670565b82525050565b60008115159050919050565b6116a681611691565b82525050565b600060c08201905081810360008301526116c68189611608565b90506116d56020830188611641565b6116e26040830187611641565b6116ef6060830186611682565b6116fc608083018561169d565b61170960a083018461169d565b979650505050505050565b600080fd5b600080fd5b7f4e487b7100000000000000000000000000000000000000000000000000000000600052604160045260246000fd5b611756826115f7565b810181811067ffffffffffffffff821117156117755761177461171e565b5b80604052505050565b6000611788611531565b9050611794828261174d565b919050565b600067ffffffffffffffff8211156117b4576117b361171e565b5b6117bd826115f7565b9050602081019050919050565b82818337600083830152505050565b60006117ec6117e784611799565b61177e565b90508281526020810184848401111561180857611807611719565b5b6118138482856117ca565b509392505050565b600082601f8301126118305761182f611714565b5b81356118408482602086016117d9565b91505092915050565b6000806000606084860312156118625761186161153b565b5b600084013567ffffffffffffffff8111156118805761187f611540565b5b61188c8682870161181b565b935050602061189d86828701611566565b92505060406118ae86828701611566565b9150509250925092565b60006020820190506118cd600083018461169d565b92915050565b60006020820190506118e86000830184611641565b92915050565b600080604083850312156119055761190461153b565b5b600061191385828601611566565b925050602061192485828601611566565b9150509250929050565b60006040820190506119436000830185611682565b6119506020830184611641565b9392505050565b61196081611670565b811461196b57600080fd5b50565b60008135905061197d81611957565b92915050565b60008060006060848603121561199c5761199b61153b565b5b60006119aa8682870161196e565b93505060206119bb86828701611566565b92505060406119cc86828701611566565b9150509250925092565b60006119e182611650565b9050919050565b6119f1816119d6565b81146119fc57600080fd5b50565b600081359050611a0e816119e8565b92915050565b600060208284031215611a2a57611a2961153b565b5b6000611a38848285016119ff565b91505092915050565b600081519050919050565b600082825260208201905092915050565b6000819050602082019050919050565b611a7681611545565b82525050565b6000611a888383611a6d565b60208301905092915050565b6000602082019050919050565b6000611aac82611a41565b611ab68185611a4c565b9350611ac183611a5d565b8060005b83811015611af2578151611ad98882611a7c565b9750611ae483611a94565b925050600181019050611ac5565b5085935050505092915050565b60006020820190508181036000830152611b198184611aa1565b905092915050565b60008060408385031215611b3857611b3761153b565b5b6000611b46858286016119ff565b9250506020611b5785828601611566565b9150509250929050565b611b6a816119d6565b82525050565b6000604082019050611b856000830185611641565b611b926020830184611b61565b9392505050565b7f4e487b7100000000000000000000000000000000000000000000000000000000600052603260045260246000fd5b7f4e487b7100000000000000000000000000000000000000000000000000000000600052602260045260246000fd5b60006002820490506001821680611c0f57607f821691505b602082108103611c2257611c21611bc8565b5b50919050565b7f4e487b7100000000000000000000000000000000000000000000000000000000600052601160045260246000fd5b6000611c6282611545565b9150611c6d83611545565b925082821015611c8057611c7f611c28565b5b828203905092915050565b6000604082019050611ca06000830185611b61565b611cad6020830184611641565b9392505050565b60008190508160005260206000209050919050565b60006020601f8301049050919050565b600082821b905092915050565b600060088302611d167fffffffffffffffffffffffffffffffffffffffffffffffffffffffffffffffff82611cd9565b611d208683611cd9565b95508019841693508086168417925050509392505050565b6000819050919050565b6000611d5d611d58611d5384611545565b611d38565b611545565b9050919050565b6000819050919050565b611d7783611d42565b611d8b611d8382611d64565b848454611ce6565b825550505050565b600090565b611da0611d93565b611dab818484611d6e565b505050565b5b81811015611dcf57611dc4600082611d98565b600181019050611db1565b5050565b601f821115611e1457611de581611cb4565b611dee84611cc9565b81016020851015611dfd578190505b611e11611e0985611cc9565b830182611db0565b50505b505050565b600082821c905092915050565b6000611e3760001984600802611e19565b1980831691505092915050565b6000611e508383611e26565b9150826002028217905092915050565b611e69826115a8565b67ffffffffffffffff811115611e8257611e8161171e565b5b611e8c8254611bf7565b611e97828285611dd3565b600060209050601f831160018114611eca5760008415611eb8578287015190505b611ec28582611e44565b865550611f2a565b601f198416611ed886611cb4565b60005b82811015611f0057848901518255600182019150602085019450602081019050611edb565b86831015611f1d5784890151611f19601f891682611e26565b8355505b6001600288020188555050505b505050505050565b7f4661696c656420746f2073656e64206569746865720000000000000000000000600082015250565b6000611f686015836115b3565b9150611f7382611f32565b602082019050919050565b60006020820190508181036000830152611f9781611f5b565b9050919050565b6000611fb9611fb4611faf84611650565b611d38565b611650565b9050919050565b6000611fcb82611f9e565b9050919050565b6000611fdd82611fc0565b9050919050565b611fed81611fd2565b82525050565b60006040820190506120086000830185611fe4565b6120156020830184611641565b939250505056fea2646970667358221220cf84402c40f44e7ad376b537a948d79942731577368425649874c7fb14bcc86664736f6c634300080f0033",
  "immutableReferences": {},
  "source": "// SPDX-License-Identifier: MIT\r\npragma solidity >=0.4.22 <0.9.0;\r\n\r\ncontract AuctionContract{\r\n    Auction[] public auctions;\r\n\r\n\r\n    mapping(uint256 => Bid[]) public auctionBids;\r\n    mapping(address => uint[]) public auctionOwner;\r\n\r\n\r\n    struct Bid{\r\n        address payable from;\r\n        uint256 amount;\r\n    }\r\n\r\n    struct Auction{\r\n        string name;\r\n        uint256 blockDeadline;\r\n        uint256 startPrice;\r\n        address payable owner;\r\n        bool active;\r\n        bool finalized;\r\n    }\r\n\r\n    modifier isOwner(uint _auctionId){\r\n        require(auctions[_auctionId].owner == msg.sender);\r\n        _;\r\n    }\r\n\r\n    function getBidsCount(uint _auctionId) public view returns(uint){\r\n        return auctionBids[_auctionId].length;\r\n    }\r\n\r\n    function getAuctionsOf(address _owner) public view returns(uint[] memory){\r\n        uint[] memory ownedAuctions = auctionOwner[_owner];\r\n        return ownedAuctions;\r\n    }\r\n\r\n    function getCurrentBid(uint _auctionId) public view returns(uint256, address) {\r\n        uint bidsLength =auctionBids[_auctionId].length;\r\n\r\n        if(bidsLength > 0){\r\n            Bid memory lastBid = auctionBids[_auctionId][bidsLength - 1];\r\n            return (lastBid.amount, lastBid.from);\r\n        }\r\n\r\n        return (uint256(0), address(0));\r\n    }\r\n\r\n    function getAuctionsCountOfOwner(address _owner) public view returns(uint) {\r\n        return auctionOwner[_owner].length;\r\n    }\r\n\r\n    function getAuctionById(uint _auctionId) public view returns(\r\n        string memory name,\r\n        uint256 startPrice,\r\n        uint256 blockDeadline,\r\n        address payable owner,\r\n        bool active,\r\n        bool finalized\r\n    ){\r\n        Auction memory auc = auctions[_auctionId];\r\n        return (\r\n            auc.name,\r\n            auc.blockDeadline,\r\n            auc.startPrice,\r\n            auc.owner,\r\n            auc.active,\r\n            auc.finalized\r\n        );\r\n    }\r\n\r\n    //  \r\n    function createAuction(string memory _auctionTitle, uint256 _startPrice, uint _blockDeadline) public returns(bool){\r\n        uint auctionId = auctions.length;\r\n        Auction memory newAuction;\r\n        newAuction.name = _auctionTitle;\r\n        newAuction.blockDeadline = _blockDeadline;\r\n        newAuction.startPrice = _startPrice;\r\n        newAuction.owner = payable(msg.sender);\r\n        newAuction.active = true;\r\n        newAuction.finalized = false;\r\n\r\n        auctions.push(newAuction);\r\n        auctionOwner[msg.sender].push(auctionId);\r\n        return true;\r\n    }\r\n\r\n    //  \r\n    function cancelAuction(uint _auctionId) public isOwner(_auctionId){\r\n        uint bidsLength = auctionBids[_auctionId].length;\r\n        bool sent;\r\n\r\n        if(bidsLength > 0){\r\n            Bid memory lastBid = auctionBids[_auctionId][bidsLength -1];\r\n            sent = lastBid.from.send(lastBid.amount);\r\n            if(!sent){\r\n                revert();\r\n            }\r\n            auctions[_auctionId].active = false;\r\n            emit AuctionCanceled(lastBid.from, _auctionId);\r\n        }\r\n    }\r\n\r\n    function finalizeAuction(uint _auctionId) public {\r\n        Auction memory myAuction = auctions[_auctionId];\r\n        uint bidsLength = auctionBids[_auctionId].length;\r\n\r\n        if( block.timestamp < myAuction.blockDeadline ) revert();\r\n        \r\n        if(bidsLength == 0) {\r\n            cancelAuction(_auctionId);\r\n        }else{\r\n\r\n            Bid memory lastBid = auctionBids[_auctionId][bidsLength - 1];\r\n            \r\n\r\n            sendNow(lastBid.from, lastBid.amount, _auctionId);\r\n            \r\n        }\r\n    }\r\n\r\n    function sendNow(address payable _from, uint256 _amount, uint256 _auctionId) public payable{\r\n        bool sent = _from.send(_amount); // return true or false\r\n        require(sent,\"Failed to send either\");\r\n        if(!sent) {\r\n                revert();\r\n            }\r\n        auctions[_auctionId].active = false;\r\n        auctions[_auctionId].finalized = true;\r\n        emit AuctionFinalized(_from, _auctionId);\r\n        emit howMuch(_amount);\r\n    }\r\n\r\n\r\n    // \r\n    function bidOnAuction(uint _auctionId) external payable {\r\n        uint256 ethAmountSent = msg.value;\r\n\r\n        Auction memory myAuction = auctions[_auctionId];\r\n        if(myAuction.owner == msg.sender) revert();\r\n\r\n        if(block.timestamp > myAuction.blockDeadline) revert();\r\n        uint bidsLength = auctionBids[_auctionId].length;\r\n        uint256 tempAmount = myAuction.startPrice;\r\n        Bid memory lastBid;\r\n\r\n        if(bidsLength > 0){\r\n            lastBid = auctionBids[_auctionId][bidsLength -1];\r\n            tempAmount = lastBid.amount;\r\n        }\r\n\r\n        if(ethAmountSent < tempAmount) revert();\r\n\r\n        if(bidsLength > 0){\r\n            if(!lastBid.from.send(lastBid.amount)){\r\n                revert();\r\n            }\r\n        }\r\n\r\n        Bid memory newBid;\r\n        newBid.from = payable(msg.sender);\r\n        newBid.amount = ethAmountSent;\r\n        auctionBids[_auctionId].push(newBid);\r\n        emit BidSuccess(msg.sender, _auctionId);\r\n    }\r\n\r\n    event BidSuccess(address _from, uint _auctionId);\r\n    event AuctionCreated(address _owner, uint _auctionId);\r\n    event AuctionCanceled(address _owner, uint _auctionId);\r\n    event AuctionFinalized(address _owner, uint _auctionId);\r\n    event howMuch(uint256 _value);\r\n\r\n\r\n}",
  "sourcePath": "C:\\Users\\user\\Desktop\\truffle\\test_auction\\contracts\\Auction.sol",
  "compiler": {
    "name": "solc",
    "version": "0.8.15+commit.e14f2714.Emscripten.clang"
  },
  "schemaVersion": "3.4.8",
  "updatedAt": "2022-07-19T06:28:12.227Z",
  "networkType": "ethereum",
  "devdoc": {
    "kind": "dev",
    "methods": {},
    "version": 1
  },
  "userdoc": {
    "kind": "user",
    "methods": {},
    "version": 1
  }
}