{
    "contractName": "AuctionContract",
    "abi": [
        {
            "inputs": [
                {
                    "internalType": "uint256",
                    "name": "",
                    "type": "uint256"
                },
                {
                    "internalType": "uint256",
                    "name": "",
                    "type": "uint256"
                }
            ],
            "name": "auctionBids",
            "outputs": [
                {
                    "internalType": "address payable",
                    "name": "from",
                    "type": "address"
                },
                {
                    "internalType": "uint256",
                    "name": "amount",
                    "type": "uint256"
                },
                {
                    "internalType": "string",
                    "name": "shippingAddress",
                    "type": "string"
                }
            ],
            "stateMutability": "view",
            "type": "function"
        },
        {
            "inputs": [
                {
                    "internalType": "address",
                    "name": "",
                    "type": "address"
                },
                {
                    "internalType": "uint256",
                    "name": "",
                    "type": "uint256"
                }
            ],
            "name": "auctionOwner",
            "outputs": [
                {
                    "internalType": "uint256",
                    "name": "",
                    "type": "uint256"
                }
            ],
            "stateMutability": "view",
            "type": "function"
        },
        {
            "inputs": [
                {
                    "internalType": "uint256",
                    "name": "",
                    "type": "uint256"
                }
            ],
            "name": "auctions",
            "outputs": [
                {
                    "internalType": "string",
                    "name": "name",
                    "type": "string"
                },
                {
                    "internalType": "uint256",
                    "name": "blockDeadline",
                    "type": "uint256"
                },
                {
                    "internalType": "uint256",
                    "name": "startPrice",
                    "type": "uint256"
                },
                {
                    "internalType": "address payable",
                    "name": "owner",
                    "type": "address"
                },
                {
                    "internalType": "bool",
                    "name": "active",
                    "type": "bool"
                },
                {
                    "internalType": "bool",
                    "name": "finalized",
                    "type": "bool"
                },
                {
                    "internalType": "uint256",
                    "name": "itemId",
                    "type": "uint256"
                },
                {
                    "internalType": "string",
                    "name": "shippingFrom",
                    "type": "string"
                },
                {
                    "internalType": "string",
                    "name": "shippingTo",
                    "type": "string"
                }
            ],
            "stateMutability": "view",
            "type": "function"
        },
        {
            "inputs": [
                {
                    "internalType": "uint256",
                    "name": "_auctionId",
                    "type": "uint256"
                },
                {
                    "internalType": "string",
                    "name": "_shippingAddress",
                    "type": "string"
                }
            ],
            "name": "bidOnAuction",
            "outputs": [],
            "stateMutability": "payable",
            "type": "function"
        },
        {
            "inputs": [
                {
                    "internalType": "uint256",
                    "name": "_auctionId",
                    "type": "uint256"
                }
            ],
            "name": "cancelAuction",
            "outputs": [],
            "stateMutability": "nonpayable",
            "type": "function"
        },
        {
            "inputs": [
                {
                    "internalType": "string",
                    "name": "_auctionTitle",
                    "type": "string"
                },
                {
                    "internalType": "uint256",
                    "name": "_startPrice",
                    "type": "uint256"
                },
                {
                    "internalType": "uint256",
                    "name": "_itemId",
                    "type": "uint256"
                },
                {
                    "internalType": "uint256",
                    "name": "_blockDeadline",
                    "type": "uint256"
                },
                {
                    "internalType": "string",
                    "name": "_shippingFrom",
                    "type": "string"
                }
            ],
            "name": "createAuction",
            "outputs": [],
            "stateMutability": "nonpayable",
            "type": "function"
        },
        {
            "inputs": [
                {
                    "internalType": "uint256",
                    "name": "_itemId",
                    "type": "uint256"
                }
            ],
            "name": "createSupplyData",
            "outputs": [],
            "stateMutability": "nonpayable",
            "type": "function"
        },
        {
            "inputs": [
                {
                    "internalType": "uint256",
                    "name": "_itemId",
                    "type": "uint256"
                },
                {
                    "internalType": "address payable",
                    "name": "_bidder",
                    "type": "address"
                }
            ],
            "name": "deleveryCompletedByItemId",
            "outputs": [
                {
                    "internalType": "bool",
                    "name": "",
                    "type": "bool"
                }
            ],
            "stateMutability": "nonpayable",
            "type": "function"
        },
        {
            "inputs": [
                {
                    "internalType": "uint256",
                    "name": "_auctionId",
                    "type": "uint256"
                }
            ],
            "name": "finalizeAuction",
            "outputs": [],
            "stateMutability": "nonpayable",
            "type": "function"
        },
        {
            "inputs": [
                {
                    "internalType": "uint256",
                    "name": "_itemId",
                    "type": "uint256"
                }
            ],
            "name": "getActiveByItemId",
            "outputs": [
                {
                    "internalType": "bool",
                    "name": "",
                    "type": "bool"
                }
            ],
            "stateMutability": "view",
            "type": "function"
        },
        {
            "inputs": [],
            "name": "getAllOfAuction",
            "outputs": [
                {
                    "components": [
                        {
                            "internalType": "string",
                            "name": "name",
                            "type": "string"
                        },
                        {
                            "internalType": "uint256",
                            "name": "blockDeadline",
                            "type": "uint256"
                        },
                        {
                            "internalType": "uint256",
                            "name": "startPrice",
                            "type": "uint256"
                        },
                        {
                            "internalType": "address payable",
                            "name": "owner",
                            "type": "address"
                        },
                        {
                            "internalType": "bool",
                            "name": "active",
                            "type": "bool"
                        },
                        {
                            "internalType": "bool",
                            "name": "finalized",
                            "type": "bool"
                        },
                        {
                            "internalType": "uint256",
                            "name": "itemId",
                            "type": "uint256"
                        },
                        {
                            "internalType": "string",
                            "name": "shippingFrom",
                            "type": "string"
                        },
                        {
                            "internalType": "string",
                            "name": "shippingTo",
                            "type": "string"
                        }
                    ],
                    "internalType": "struct AuctionContract.Auction[]",
                    "name": "",
                    "type": "tuple[]"
                }
            ],
            "stateMutability": "view",
            "type": "function"
        },
        {
            "inputs": [
                {
                    "internalType": "uint256",
                    "name": "_auctionId",
                    "type": "uint256"
                }
            ],
            "name": "getAuctionById",
            "outputs": [
                {
                    "internalType": "string",
                    "name": "name",
                    "type": "string"
                },
                {
                    "internalType": "uint256",
                    "name": "blockDeadline",
                    "type": "uint256"
                },
                {
                    "internalType": "uint256",
                    "name": "startPrice",
                    "type": "uint256"
                },
                {
                    "internalType": "address payable",
                    "name": "owner",
                    "type": "address"
                },
                {
                    "internalType": "bool",
                    "name": "active",
                    "type": "bool"
                },
                {
                    "internalType": "bool",
                    "name": "finalized",
                    "type": "bool"
                },
                {
                    "internalType": "uint256",
                    "name": "itemId",
                    "type": "uint256"
                },
                {
                    "internalType": "string",
                    "name": "shippingFrom",
                    "type": "string"
                },
                {
                    "internalType": "string",
                    "name": "shippingTo",
                    "type": "string"
                }
            ],
            "stateMutability": "view",
            "type": "function"
        },
        {
            "inputs": [
                {
                    "internalType": "address",
                    "name": "_owner",
                    "type": "address"
                }
            ],
            "name": "getAuctionOwnerLength",
            "outputs": [
                {
                    "internalType": "uint256",
                    "name": "",
                    "type": "uint256"
                }
            ],
            "stateMutability": "view",
            "type": "function"
        },
        {
            "inputs": [
                {
                    "internalType": "address",
                    "name": "_owner",
                    "type": "address"
                }
            ],
            "name": "getAuctionsOfOwner",
            "outputs": [
                {
                    "internalType": "uint256[]",
                    "name": "",
                    "type": "uint256[]"
                }
            ],
            "stateMutability": "view",
            "type": "function"
        },
        {
            "inputs": [
                {
                    "internalType": "uint256",
                    "name": "_auctionId",
                    "type": "uint256"
                }
            ],
            "name": "getBidsCount",
            "outputs": [
                {
                    "internalType": "uint256",
                    "name": "",
                    "type": "uint256"
                }
            ],
            "stateMutability": "view",
            "type": "function"
        },
        {
            "inputs": [
                {
                    "internalType": "uint256",
                    "name": "_auctionId",
                    "type": "uint256"
                }
            ],
            "name": "getCurrentBid",
            "outputs": [
                {
                    "internalType": "uint256",
                    "name": "",
                    "type": "uint256"
                },
                {
                    "internalType": "address",
                    "name": "",
                    "type": "address"
                },
                {
                    "internalType": "string",
                    "name": "",
                    "type": "string"
                }
            ],
            "stateMutability": "view",
            "type": "function"
        },
        {
            "inputs": [
                {
                    "internalType": "uint256",
                    "name": "_auctionId",
                    "type": "uint256"
                }
            ],
            "name": "getItemByAuction",
            "outputs": [
                {
                    "internalType": "uint256",
                    "name": "",
                    "type": "uint256"
                }
            ],
            "stateMutability": "view",
            "type": "function"
        },
        {
            "inputs": [
                {
                    "internalType": "address",
                    "name": "_user",
                    "type": "address"
                }
            ],
            "name": "getOwnedBy",
            "outputs": [
                {
                    "internalType": "uint256[]",
                    "name": "",
                    "type": "uint256[]"
                }
            ],
            "stateMutability": "view",
            "type": "function"
        },
        {
            "inputs": [
                {
                    "internalType": "uint256",
                    "name": "_auctionId",
                    "type": "uint256"
                },
                {
                    "internalType": "address",
                    "name": "_to",
                    "type": "address"
                }
            ],
            "name": "handover",
            "outputs": [],
            "stateMutability": "nonpayable",
            "type": "function"
        },
        {
            "inputs": [
                {
                    "internalType": "uint256",
                    "name": "_itemId",
                    "type": "uint256"
                },
                {
                    "internalType": "address payable",
                    "name": "_bidder",
                    "type": "address"
                }
            ],
            "name": "isShippingByItemId",
            "outputs": [
                {
                    "internalType": "bool",
                    "name": "",
                    "type": "bool"
                }
            ],
            "stateMutability": "view",
            "type": "function"
        },
        {
            "inputs": [
                {
                    "internalType": "address",
                    "name": "",
                    "type": "address"
                },
                {
                    "internalType": "uint256",
                    "name": "",
                    "type": "uint256"
                }
            ],
            "name": "ownedBy",
            "outputs": [
                {
                    "internalType": "uint256",
                    "name": "",
                    "type": "uint256"
                }
            ],
            "stateMutability": "view",
            "type": "function"
        },
        {
            "inputs": [
                {
                    "internalType": "uint256",
                    "name": "_itemId",
                    "type": "uint256"
                },
                {
                    "internalType": "address",
                    "name": "_start",
                    "type": "address"
                }
            ],
            "name": "productTracingByItemId",
            "outputs": [
                {
                    "internalType": "string[]",
                    "name": "",
                    "type": "string[]"
                }
            ],
            "stateMutability": "view",
            "type": "function"
        },
        {
            "inputs": [
                {
                    "internalType": "uint256",
                    "name": "_itemId",
                    "type": "uint256"
                }
            ],
            "name": "productTracingFromYouByItemId",
            "outputs": [
                {
                    "internalType": "string[]",
                    "name": "",
                    "type": "string[]"
                }
            ],
            "stateMutability": "view",
            "type": "function"
        },
        {
            "inputs": [
                {
                    "internalType": "uint256",
                    "name": "_itemId",
                    "type": "uint256"
                }
            ],
            "name": "pushOwnedBy",
            "outputs": [
                {
                    "internalType": "uint256",
                    "name": "",
                    "type": "uint256"
                }
            ],
            "stateMutability": "nonpayable",
            "type": "function"
        },
        {
            "inputs": [
                {
                    "internalType": "address payable",
                    "name": "_from",
                    "type": "address"
                },
                {
                    "internalType": "uint256",
                    "name": "_amount",
                    "type": "uint256"
                },
                {
                    "internalType": "uint256",
                    "name": "_auctionId",
                    "type": "uint256"
                }
            ],
            "name": "sendNow",
            "outputs": [
                {
                    "internalType": "bool",
                    "name": "",
                    "type": "bool"
                }
            ],
            "stateMutability": "payable",
            "type": "function"
        },
        {
            "inputs": [
                {
                    "internalType": "uint256",
                    "name": "_itemId",
                    "type": "uint256"
                },
                {
                    "internalType": "bool",
                    "name": "_active",
                    "type": "bool"
                }
            ],
            "name": "setActiveByItemId",
            "outputs": [
                {
                    "internalType": "bool",
                    "name": "",
                    "type": "bool"
                }
            ],
            "stateMutability": "nonpayable",
            "type": "function"
        },
        {
            "inputs": [
                {
                    "internalType": "uint256",
                    "name": "_itemId",
                    "type": "uint256"
                },
                {
                    "internalType": "address",
                    "name": "_to",
                    "type": "address"
                },
                {
                    "internalType": "string",
                    "name": "_fromStr",
                    "type": "string"
                },
                {
                    "internalType": "string",
                    "name": "_toStr",
                    "type": "string"
                }
            ],
            "name": "setAddrToShippingByItemId",
            "outputs": [],
            "stateMutability": "nonpayable",
            "type": "function"
        },
        {
            "inputs": [
                {
                    "internalType": "uint256",
                    "name": "_itemId",
                    "type": "uint256"
                },
                {
                    "internalType": "address",
                    "name": "_from",
                    "type": "address"
                },
                {
                    "internalType": "address",
                    "name": "_to",
                    "type": "address"
                }
            ],
            "name": "setAddrTracingByItemId",
            "outputs": [],
            "stateMutability": "nonpayable",
            "type": "function"
        },
        {
            "inputs": [
                {
                    "internalType": "uint256",
                    "name": "",
                    "type": "uint256"
                }
            ],
            "name": "supplyData",
            "outputs": [
                {
                    "internalType": "contract SupplyContract",
                    "name": "",
                    "type": "address"
                }
            ],
            "stateMutability": "view",
            "type": "function"
        }
    ],
    "bytecode": "608060405234801561001057600080fd5b50613eec806100206000396000f3fe6080604052600436106101c25760003560e01c8063987a34f8116100f7578063d6b5f13511610095578063e5650c0311610064578063e5650c03146105ba578063e6f4a0ce146105da578063e8083863146105fc578063ee3ab9e31461061c57600080fd5b8063d6b5f13514610538578063da09bcf714610558578063da4e364f1461056b578063e291298f1461059a57600080fd5b8063b5c87338116100d1578063b5c87338146104b8578063c276c71f146104d8578063c8756cda146104f8578063cc468eaf1461051857600080fd5b8063987a34f814610407578063a15aea8b14610455578063b28103e31461048b57600080fd5b8063571a26a0116101645780637706390b1161013e5780637706390b1461036e5780637af263451461038e5780637b474bea146103a157806396b5a755146103e757600080fd5b8063571a26a0146102ff5780635f93de491461031f5780636f7bd0681461034e57600080fd5b80634008f9c0116101a05780634008f9c01461025457806341e776ac1461028f57806342d55cd5146102af578063438c5670146102df57600080fd5b8063154f7744146101c757806318111ada146101e95780633481f0c814610227575b600080fd5b3480156101d357600080fd5b506101e76101e2366004612629565b61063c565b005b3480156101f557600080fd5b506102096102043660046126a9565b6106b5565b60405161021e9998979695949392919061271a565b60405180910390f35b34801561023357600080fd5b5061024761024236600461279b565b61094f565b60405161021e91906127b8565b34801561026057600080fd5b5061028161026f3660046126a9565b60009081526001602052604090205490565b60405190815260200161021e565b34801561029b57600080fd5b506101e76102aa3660046127fc565b6109bb565b3480156102bb57600080fd5b506102cf6102ca36600461288b565b610b36565b604051901515815260200161021e565b3480156102eb57600080fd5b506102816102fa3660046128bb565b610bba565b34801561030b57600080fd5b5061020961031a3660046126a9565b610beb565b34801561032b57600080fd5b5061033f61033a3660046128e7565b610dfa565b60405161021e93929190612909565b34801561035a57600080fd5b506102cf610369366004612939565b610ed0565b34801561037a57600080fd5b506101e7610389366004612939565b610f26565b6102cf61039c36600461295e565b6112c5565b3480156103ad57600080fd5b506102816103bc3660046126a9565b3360008181526004602090815260408220805460018101825581845291832090910193909355525490565b3480156103f357600080fd5b506101e76104023660046126a9565b6113ca565b34801561041357600080fd5b5061043d6104223660046126a9565b6003602052600090815260409020546001600160a01b031681565b6040516001600160a01b03909116815260200161021e565b34801561046157600080fd5b5061028161047036600461279b565b6001600160a01b031660009081526002602052604090205490565b34801561049757600080fd5b506104ab6104a6366004612939565b611577565b60405161021e9190612993565b3480156104c457600080fd5b506101e76104d33660046129f5565b6115fe565b3480156104e457600080fd5b506101e76104f33660046126a9565b611677565b34801561050457600080fd5b506102816105133660046128bb565b6116ce565b34801561052457600080fd5b506102cf6105333660046126a9565b6116ea565b34801561054457600080fd5b506104ab6105533660046126a9565b611764565b6101e7610566366004612a37565b6117e9565b34801561057757600080fd5b5061058b6105863660046126a9565b611c62565b60405161021e93929190612a7e565b3480156105a657600080fd5b506102476105b536600461279b565b611dc8565b3480156105c657600080fd5b506102cf6105d5366004612939565b611e32565b3480156105e657600080fd5b506105ef611e70565b60405161021e9190612aa8565b34801561060857600080fd5b506101e76106173660046126a9565b6120de565b34801561062857600080fd5b506102816106373660046126a9565b612512565b6000848152600360205260409081902054905163e92340f360e01b81526001600160a01b039091169063e92340f39061067d90869086908690600401612b9f565b600060405180830381600087803b15801561069757600080fd5b505af11580156106ab573d6000803e3d6000fd5b5050505050505050565b60606000806000806000806060806000808b815481106106d7576106d7612bdf565b90600052602060002090600702016040518061012001604052908160008201805461070190612bf5565b80601f016020809104026020016040519081016040528092919081815260200182805461072d90612bf5565b801561077a5780601f1061074f5761010080835404028352916020019161077a565b820191906000526020600020905b81548152906001019060200180831161075d57829003601f168201915b5050509183525050600182015460208201526002820154604082015260038201546001600160a01b038116606083015260ff600160a01b8204811615156080840152600160a81b90910416151560a0820152600482015460c082015260058201805460e0909201916107eb90612bf5565b80601f016020809104026020016040519081016040528092919081815260200182805461081790612bf5565b80156108645780601f1061083957610100808354040283529160200191610864565b820191906000526020600020905b81548152906001019060200180831161084757829003601f168201915b5050505050815260200160068201805461087d90612bf5565b80601f01602080910402602001604051908101604052809291908181526020018280546108a990612bf5565b80156108f65780601f106108cb576101008083540402835291602001916108f6565b820191906000526020600020905b8154815290600101906020018083116108d957829003601f168201915b5050505050815250509050806000015181602001518260400151836060015184608001518560a001518660c001518760e00151886101000151995099509950995099509950995099509950509193959799909294969850565b6001600160a01b03811660009081526002602090815260408083208054825181850281018501909352808352606094938301828280156109ae57602002820191906000526020600020905b81548152602001906001019080831161099a575b5093979650505050505050565b60008054604080516101208101825260a08101849052606061010082018181528a835260208084018990528385018b9052339284019290925260016080840181905260c084018a905260e08401889052845180860190955260048552636e6f6e6560e01b92850192909252929092529082018355918052815190919081907f290decd9548b62a8d60345a988386fc84ba6bc95484008f6362f93160ef3e5636007850201908190610a6c9082612c7e565b5060208201516001820155604082015160028201556060820151600382018054608085015160a08601511515600160a81b0260ff60a81b19911515600160a01b026001600160a81b03199093166001600160a01b0390951694909417919091171691909117905560c0820151600482015560e08201516005820190610af19082612c7e565b506101008201516006820190610b079082612c7e565b5050336000908152600260209081526040822080546001818101835591845291909220018490556106ab915086905b60008281526003602052604080822054905163567619c560e11b815283151560048201526001600160a01b039091169063acec338a906024015b6020604051808303816000875af1158015610b8f573d6000803e3d6000fd5b505050506040513d601f19601f82011682018060405250810190610bb39190612d3e565b9392505050565b60046020528160005260406000208181548110610bd657600080fd5b90600052602060002001600091509150505481565b60008181548110610bfb57600080fd5b9060005260206000209060070201600091509050806000018054610c1e90612bf5565b80601f0160208091040260200160405190810160405280929190818152602001828054610c4a90612bf5565b8015610c975780601f10610c6c57610100808354040283529160200191610c97565b820191906000526020600020905b815481529060010190602001808311610c7a57829003601f168201915b5050506001840154600285015460038601546004870154600588018054979894979396506001600160a01b038316955060ff600160a01b8404811695600160a81b9094041693919291610ce990612bf5565b80601f0160208091040260200160405190810160405280929190818152602001828054610d1590612bf5565b8015610d625780601f10610d3757610100808354040283529160200191610d62565b820191906000526020600020905b815481529060010190602001808311610d4557829003601f168201915b505050505090806006018054610d7790612bf5565b80601f0160208091040260200160405190810160405280929190818152602001828054610da390612bf5565b8015610df05780601f10610dc557610100808354040283529160200191610df0565b820191906000526020600020905b815481529060010190602001808311610dd357829003601f168201915b5050505050905089565b60016020528160005260406000208181548110610e1657600080fd5b60009182526020909120600390910201805460018201546002830180546001600160a01b03909316955090935090610e4d90612bf5565b80601f0160208091040260200160405190810160405280929190818152602001828054610e7990612bf5565b8015610ec65780601f10610e9b57610100808354040283529160200191610ec6565b820191906000526020600020905b815481529060010190602001808311610ea957829003601f168201915b5050505050905083565b6000828152600360205260408082205490516369b4d46560e01b81526001600160a01b038481166004830152909116906369b4d46590602401602060405180830381865afa158015610b8f573d6000803e3d6000fd5b6000808381548110610f3a57610f3a612bdf565b906000526020600020906007020160405180610120016040529081600082018054610f6490612bf5565b80601f0160208091040260200160405190810160405280929190818152602001828054610f9090612bf5565b8015610fdd5780601f10610fb257610100808354040283529160200191610fdd565b820191906000526020600020905b815481529060010190602001808311610fc057829003601f168201915b5050509183525050600182015460208201526002820154604082015260038201546001600160a01b038116606083015260ff600160a01b8204811615156080840152600160a81b90910416151560a0820152600482015460c082015260058201805460e09092019161104e90612bf5565b80601f016020809104026020016040519081016040528092919081815260200182805461107a90612bf5565b80156110c75780601f1061109c576101008083540402835291602001916110c7565b820191906000526020600020905b8154815290600101906020018083116110aa57829003601f168201915b505050505081526020016006820180546110e090612bf5565b80601f016020809104026020016040519081016040528092919081815260200182805461110c90612bf5565b80156111595780601f1061112e57610100808354040283529160200191611159565b820191906000526020600020905b81548152906001019060200180831161113c57829003601f168201915b5050509190925250505060c081015160608201516001600160a01b03166000908152600460209081526040808320805482518185028101850190935280835295965093949293909290918301828280156111d257602002820191906000526020600020905b8154815260200190600101908083116111be575b505083519394506000925050505b8181101561128457838382815181106111fb576111fb612bdf565b60200260200101510361127257805b82811015611265578361121e836001612d71565b8151811061122e5761122e612bdf565b602002602001015184838151811061124857611248612bdf565b60209081029190910101528061125d81612d89565b91505061120a565b5060018351038352611284565b8061127c81612d89565b9150506111e0565b508151810361129257600080fd5b50506001600160a01b03909216600090815260046020908152604082208054600181018255908352912001919091555050565b600080846001600160a01b03166108fc859081150290604051600060405180830381858888f193505050509050806113435760405162461bcd60e51b815260206004820152601760248201527f4661696c656420746f2073656e64206569746865722e0a000000000000000000604482015260640160405180910390fd5b600080848154811061135757611357612bdf565b906000526020600020906007020160030160146101000a81548160ff02191690831515021790555060016000848154811061139457611394612bdf565b600091825260209091206003600790920201018054911515600160a81b0260ff60a81b1990921691909117905590509392505050565b80336001600160a01b0316600082815481106113e8576113e8612bdf565b60009182526020909120600360079092020101546001600160a01b03161461140f57600080fd5b6000828152600160205260408120549081156115715760008481526001602081905260408220906114409085612da2565b8154811061145057611450612bdf565b90600052602060002090600302016040518060600160405290816000820160009054906101000a90046001600160a01b03166001600160a01b03166001600160a01b03168152602001600182015481526020016002820180546114b290612bf5565b80601f01602080910402602001604051908101604052809291908181526020018280546114de90612bf5565b801561152b5780601f106115005761010080835404028352916020019161152b565b820191906000526020600020905b81548152906001019060200180831161150e57829003601f168201915b505050919092525050815160208301516040519394506001600160a01b039091169281156108fc0292506000818181858888f1935050505091508161156f57600080fd5b505b50505050565b6000828152600360205260409081902054905163279a009b60e11b8152600481018490526001600160a01b0383811660248301526060921690634f34013690604401600060405180830381865afa1580156115d6573d6000803e3d6000fd5b505050506040513d6000823e601f3d908101601f19168201604052610bb39190810190612db9565b60008381526003602052604090819020549051635e57de0360e01b81526001600160a01b038481166004830152838116602483015290911690635e57de0390604401600060405180830381600087803b15801561165a57600080fd5b505af115801561166e573d6000803e3d6000fd5b50505050505050565b6040516116839061253f565b604051809103906000f08015801561169f573d6000803e3d6000fd5b5060009182526003602052604090912080546001600160a01b0319166001600160a01b03909216919091179055565b60026020528160005260406000208181548110610bd657600080fd5b60008181526003602090815260408083205481516209ebb160e41b815291516001600160a01b0390911692629ebb1092600480820193918290030181865afa15801561173a573d6000803e3d6000fd5b505050506040513d601f19601f8201168201806040525081019061175e9190612d3e565b92915050565b6000818152600360205260409081902054905163279a009b60e11b8152600481018390523360248201526060916001600160a01b031690634f34013690604401600060405180830381865afa1580156117c1573d6000803e3d6000fd5b505050506040513d6000823e601f3d908101601f1916820160405261175e9190810190612db9565b6000349050600080848154811061180257611802612bdf565b90600052602060002090600702016040518061012001604052908160008201805461182c90612bf5565b80601f016020809104026020016040519081016040528092919081815260200182805461185890612bf5565b80156118a55780601f1061187a576101008083540402835291602001916118a5565b820191906000526020600020905b81548152906001019060200180831161188857829003601f168201915b5050509183525050600182015460208201526002820154604082015260038201546001600160a01b038116606083015260ff600160a01b8204811615156080840152600160a81b90910416151560a0820152600482015460c082015260058201805460e09092019161191690612bf5565b80601f016020809104026020016040519081016040528092919081815260200182805461194290612bf5565b801561198f5780601f106119645761010080835404028352916020019161198f565b820191906000526020600020905b81548152906001019060200180831161197257829003601f168201915b505050505081526020016006820180546119a890612bf5565b80601f01602080910402602001604051908101604052809291908181526020018280546119d490612bf5565b8015611a215780601f106119f657610100808354040283529160200191611a21565b820191906000526020600020905b815481529060010190602001808311611a0457829003601f168201915b50505050508152505090508060200151421115611a3d57600080fd5b60008481526001602090815260408083205484820151825160608082018552868252948101959095529184019290925290918215611bd057600087815260016020819052604090912090611a919085612da2565b81548110611aa157611aa1612bdf565b90600052602060002090600302016040518060600160405290816000820160009054906101000a90046001600160a01b03166001600160a01b03166001600160a01b0316815260200160018201548152602001600282018054611b0390612bf5565b80601f0160208091040260200160405190810160405280929190818152602001828054611b2f90612bf5565b8015611b7c5780601f10611b5157610100808354040283529160200191611b7c565b820191906000526020600020905b815481529060010190602001808311611b5f57829003601f168201915b50505050508152505090508060200151915081851015611b9b57600080fd5b805160208201516040516001600160a01b039092169181156108fc0291906000818181858888f19350505050611bd057600080fd5b81851015611bdd57600080fd5b6040805160608101825233815260208082018881528284018a815260008c8152600180855295812080548088018255908252939020845160039094020180546001600160a01b0319166001600160a01b039094169390931783559051938201939093559151909182916002820190611c559082612c7e565b5050505050505050505050565b60008181526001602052604081205481906060908015611da9576000858152600160208190526040822090611c979084612da2565b81548110611ca757611ca7612bdf565b90600052602060002090600302016040518060600160405290816000820160009054906101000a90046001600160a01b03166001600160a01b03166001600160a01b0316815260200160018201548152602001600282018054611d0990612bf5565b80601f0160208091040260200160405190810160405280929190818152602001828054611d3590612bf5565b8015611d825780601f10611d5757610100808354040283529160200191611d82565b820191906000526020600020905b815481529060010190602001808311611d6557829003601f168201915b50505050508152505090508060200151816000015182604001519450945094505050611dc1565b50506040805160208101909152600080825292508291505b9193909250565b6001600160a01b03811660009081526004602090815260408083208054825181850281018501909352808352606094938301828280156109ae576020028201919060005260206000209081548152602001906001019080831161099a575093979650505050505050565b60008281526003602052604080822054905163535396b160e11b81526001600160a01b0384811660048301529091169063a6a72d6290602401610b70565b60606000805480602002602001604051908101604052809291908181526020016000905b828210156120d5578382906000526020600020906007020160405180610120016040529081600082018054611ec890612bf5565b80601f0160208091040260200160405190810160405280929190818152602001828054611ef490612bf5565b8015611f415780601f10611f1657610100808354040283529160200191611f41565b820191906000526020600020905b815481529060010190602001808311611f2457829003601f168201915b5050509183525050600182015460208201526002820154604082015260038201546001600160a01b038116606083015260ff600160a01b8204811615156080840152600160a81b90910416151560a0820152600482015460c082015260058201805460e090920191611fb290612bf5565b80601f0160208091040260200160405190810160405280929190818152602001828054611fde90612bf5565b801561202b5780601f106120005761010080835404028352916020019161202b565b820191906000526020600020905b81548152906001019060200180831161200e57829003601f168201915b5050505050815260200160068201805461204490612bf5565b80601f016020809104026020016040519081016040528092919081815260200182805461207090612bf5565b80156120bd5780601f10612092576101008083540402835291602001916120bd565b820191906000526020600020905b8154815290600101906020018083116120a057829003601f168201915b50505050508152505081526020019060010190611e94565b50505050905090565b60008082815481106120f2576120f2612bdf565b90600052602060002090600702016040518061012001604052908160008201805461211c90612bf5565b80601f016020809104026020016040519081016040528092919081815260200182805461214890612bf5565b80156121955780601f1061216a57610100808354040283529160200191612195565b820191906000526020600020905b81548152906001019060200180831161217857829003601f168201915b5050509183525050600182015460208201526002820154604082015260038201546001600160a01b038116606083015260ff600160a01b8204811615156080840152600160a81b90910416151560a0820152600482015460c082015260058201805460e09092019161220690612bf5565b80601f016020809104026020016040519081016040528092919081815260200182805461223290612bf5565b801561227f5780601f106122545761010080835404028352916020019161227f565b820191906000526020600020905b81548152906001019060200180831161226257829003601f168201915b5050505050815260200160068201805461229890612bf5565b80601f01602080910402602001604051908101604052809291908181526020018280546122c490612bf5565b80156123115780601f106122e657610100808354040283529160200191612311565b820191906000526020600020905b8154815290600101906020018083116122f457829003601f168201915b5050509190925250505060c081015160008481526001602090815260409091205490830151929350909142101561234757600080fd5b8060000361235d57612358846113ca565b6124cb565b60008481526001602081905260408220906123789084612da2565b8154811061238857612388612bdf565b90600052602060002090600302016040518060600160405290816000820160009054906101000a90046001600160a01b03166001600160a01b03166001600160a01b03168152602001600182015481526020016002820180546123ea90612bf5565b80601f016020809104026020016040519081016040528092919081815260200182805461241690612bf5565b80156124635780601f1061243857610100808354040283529160200191612463565b820191906000526020600020905b81548152906001019060200180831161244657829003601f168201915b505050505081525050905061248181600001518260200151876112c5565b156124c957612494858260000151610f26565b61249d83611677565b6124b083856060015183600001516115fe565b6124c98382600001518660e0015187610100015161063c565b505b60008085815481106124df576124df612bdf565b906000526020600020906007020160030160146101000a81548160ff02191690831515021790555061156f826000610b36565b600080828154811061252657612526612bdf565b9060005260206000209060070201600401549050919050565b610ffe80612eb983390190565b6001600160a01b038116811461256157600080fd5b50565b634e487b7160e01b600052604160045260246000fd5b604051601f8201601f1916810167ffffffffffffffff811182821017156125a3576125a3612564565b604052919050565b600067ffffffffffffffff8211156125c5576125c5612564565b50601f01601f191660200190565b600082601f8301126125e457600080fd5b81356125f76125f2826125ab565b61257a565b81815284602083860101111561260c57600080fd5b816020850160208301376000918101602001919091529392505050565b6000806000806080858703121561263f57600080fd5b8435935060208501356126518161254c565b9250604085013567ffffffffffffffff8082111561266e57600080fd5b61267a888389016125d3565b9350606087013591508082111561269057600080fd5b5061269d878288016125d3565b91505092959194509250565b6000602082840312156126bb57600080fd5b5035919050565b60005b838110156126dd5781810151838201526020016126c5565b838111156115715750506000910152565b600081518084526127068160208601602086016126c2565b601f01601f19169290920160200192915050565b600061012080835261272e8184018d6126ee565b602084018c9052604084018b90526001600160a01b038a166060850152881515608085015287151560a085015260c0840187905283810360e0850152905061277681866126ee565b905082810361010084015261278b81856126ee565b9c9b505050505050505050505050565b6000602082840312156127ad57600080fd5b8135610bb38161254c565b6020808252825182820181905260009190848201906040850190845b818110156127f0578351835292840192918401916001016127d4565b50909695505050505050565b600080600080600060a0868803121561281457600080fd5b853567ffffffffffffffff8082111561282c57600080fd5b61283889838a016125d3565b9650602088013595506040880135945060608801359350608088013591508082111561286357600080fd5b50612870888289016125d3565b9150509295509295909350565b801515811461256157600080fd5b6000806040838503121561289e57600080fd5b8235915060208301356128b08161287d565b809150509250929050565b600080604083850312156128ce57600080fd5b82356128d98161254c565b946020939093013593505050565b600080604083850312156128fa57600080fd5b50508035926020909101359150565b60018060a01b038416815282602082015260606040820152600061293060608301846126ee565b95945050505050565b6000806040838503121561294c57600080fd5b8235915060208301356128b08161254c565b60008060006060848603121561297357600080fd5b833561297e8161254c565b95602085013595506040909401359392505050565b6000602080830181845280855180835260408601915060408160051b870101925083870160005b828110156129e857603f198886030184526129d68583516126ee565b945092850192908501906001016129ba565b5092979650505050505050565b600080600060608486031215612a0a57600080fd5b833592506020840135612a1c8161254c565b91506040840135612a2c8161254c565b809150509250925092565b60008060408385031215612a4a57600080fd5b82359150602083013567ffffffffffffffff811115612a6857600080fd5b612a74858286016125d3565b9150509250929050565b8381526001600160a01b0383166020820152606060408201819052600090612930908301846126ee565b60006020808301818452808551808352604092508286019150828160051b87010184880160005b83811015612b9157603f1989840301855281516101208151818652612af6828701826126ee565b91505088820151898601528782015188860152606080830151612b23828801826001600160a01b03169052565b505060808281015115159086015260a08083015115159086015260c0808301519086015260e08083015186830382880152612b5e83826126ee565b925050506101008083015192508582038187015250612b7d81836126ee565b968901969450505090860190600101612acf565b509098975050505050505050565b6001600160a01b0384168152606060208201819052600090612bc3908301856126ee565b8281036040840152612bd581856126ee565b9695505050505050565b634e487b7160e01b600052603260045260246000fd5b600181811c90821680612c0957607f821691505b602082108103612c2957634e487b7160e01b600052602260045260246000fd5b50919050565b601f821115612c7957600081815260208120601f850160051c81016020861015612c565750805b601f850160051c820191505b81811015612c7557828155600101612c62565b5050505b505050565b815167ffffffffffffffff811115612c9857612c98612564565b612cac81612ca68454612bf5565b84612c2f565b602080601f831160018114612ce15760008415612cc95750858301515b600019600386901b1c1916600185901b178555612c75565b600085815260208120601f198616915b82811015612d1057888601518255948401946001909101908401612cf1565b5085821015612d2e5787850151600019600388901b60f8161c191681555b5050505050600190811b01905550565b600060208284031215612d5057600080fd5b8151610bb38161287d565b634e487b7160e01b600052601160045260246000fd5b60008219821115612d8457612d84612d5b565b500190565b600060018201612d9b57612d9b612d5b565b5060010190565b600082821015612db457612db4612d5b565b500390565b60006020808385031215612dcc57600080fd5b825167ffffffffffffffff80821115612de457600080fd5b818501915085601f830112612df857600080fd5b815181811115612e0a57612e0a612564565b8060051b612e1985820161257a565b9182528381018501918581019089841115612e3357600080fd5b86860192505b83831015612eab57825185811115612e515760008081fd5b8601603f81018b13612e635760008081fd5b878101516040612e756125f2836125ab565b8281528d82848601011115612e8a5760008081fd5b612e99838c83018487016126c2565b85525050509186019190860190612e39565b999850505050505050505056fe608060405234801561001057600080fd5b50610fde806100206000396000f3fe608060405234801561001057600080fd5b50600436106100b35760003560e01c8063819cf77611610071578063819cf776146101a757806382144111146101ba578063a6a72d62146101fb578063acec338a14610231578063e427f2b614610255578063e92340f31461026857600080fd5b80629ebb10146100b857806319a247d5146100d45780631ec79745146100f75780634f340136146101195780635e57de031461013957806369b4d46514610177575b600080fd5b60035460ff165b60405190151581526020015b60405180910390f35b6100bf6100e2366004610990565b60046020526000908152604090205460ff1681565b61010a610105366004610990565b61027b565b6040516100cb93929190610a01565b61012c610127366004610a39565b6103b0565b6040516100cb9190610a69565b610175610147366004610acb565b6001600160a01b03918216600090815260016020526040902080546001600160a01b03191691909216179055565b005b6100bf610185366004610990565b6001600160a01b03166000908152600260208190526040909120015460ff1690565b61012c6101b5366004610bee565b6107b4565b6101e36101c8366004610990565b6001602052600090815260409020546001600160a01b031681565b6040516001600160a01b0390911681526020016100cb565b6100bf610209366004610990565b6001600160a01b0316600090815260026020819052604090912001805460ff19169055600190565b6100bf61023f366004610d1d565b6003805460ff1916911515918217905560ff1690565b61012c610263366004610d38565b6108eb565b610175610276366004610d51565b6108fd565b60026020526000908152604090208054819061029690610dc7565b80601f01602080910402602001604051908101604052809291908181526020018280546102c290610dc7565b801561030f5780601f106102e45761010080835404028352916020019161030f565b820191906000526020600020905b8154815290600101906020018083116102f257829003601f168201915b50505050509080600101805461032490610dc7565b80601f016020809104026020016040519081016040528092919081815260200182805461035090610dc7565b801561039d5780601f106103725761010080835404028352916020019161039d565b820191906000526020600020905b81548152906001019060200180831161038057829003601f168201915b5050506002909301549192505060ff1683565b6000805460405163110288f360e11b815260048101859052606092916001600160a01b03169063220511e690602401602060405180830381865afa1580156103fc573d6000803e3d6000fd5b505050506040513d601f19601f820116820180604052508101906104209190610e01565b604080516001808252818301909252919250606091600091816020015b6040805160608082018352808252602082015260009181019190915281526020019060019003908161043d5750506001600160a01b0386166000908152600260205260409081902081516060810190925280549293509091829082906104a290610dc7565b80601f01602080910402602001604051908101604052809291908181526020018280546104ce90610dc7565b801561051b5780601f106104f05761010080835404028352916020019161051b565b820191906000526020600020905b8154815290600101906020018083116104fe57829003601f168201915b5050505050815260200160018201805461053490610dc7565b80601f016020809104026020016040519081016040528092919081815260200182805461056090610dc7565b80156105ad5780601f10610582576101008083540402835291602001916105ad565b820191906000526020600020905b81548152906001019060200180831161059057829003601f168201915b50505091835250506002919091015460ff161515602090910152815182906000906105da576105da610e1e565b60200260200101819052505b826001600160a01b0316856001600160a01b031603156107a1576001600160a01b03948516600090815260016020818152604080842054855190930185529190971680835260029097529081902081516060810190925280548290829061064c90610dc7565b80601f016020809104026020016040519081016040528092919081815260200182805461067890610dc7565b80156106c55780601f1061069a576101008083540402835291602001916106c5565b820191906000526020600020905b8154815290600101906020018083116106a857829003601f168201915b505050505081526020016001820180546106de90610dc7565b80601f016020809104026020016040519081016040528092919081815260200182805461070a90610dc7565b80156107575780601f1061072c57610100808354040283529160200191610757565b820191906000526020600020905b81548152906001019060200180831161073a57829003601f168201915b50505091835250506002919091015460ff1615156020909101528151829061078190600190610e4a565b8151811061079157610791610e1e565b60200260200101819052506105e6565b6107aa816107b4565b9695505050505050565b805160609060006107c6826002610e61565b67ffffffffffffffff8111156107de576107de610af9565b60405190808252806020026020018201604052801561081157816020015b60608152602001906001900390816107fc5790505b509050604051806040016040528060048152602001636e6f6e6560e01b8152508160008151811061084457610844610e1e565b602002602001018190525060005b828110156108e35784818151811061086c5761086c610e1e565b60200260200101516000015182828151811061088a5761088a610e1e565b60200260200101819052508481815181106108a7576108a7610e1e565b6020026020010151602001518282815181106108c5576108c5610e1e565b602002602001018190525080806108db90610e80565b915050610852565b509392505050565b60606108f782336103b0565b92915050565b6040805160608101825283815260208082018490526001828401526001600160a01b0386166000908152600290915291909120815182919081906109419082610ee8565b50602082015160018201906109569082610ee8565b50604091909101516002909101805460ff191691151591909117905550505050565b6001600160a01b038116811461098d57600080fd5b50565b6000602082840312156109a257600080fd5b81356109ad81610978565b9392505050565b6000815180845260005b818110156109da576020818501810151868301820152016109be565b818111156109ec576000602083870101525b50601f01601f19169290920160200192915050565b606081526000610a1460608301866109b4565b8281036020840152610a2681866109b4565b9150508215156040830152949350505050565b60008060408385031215610a4c57600080fd5b823591506020830135610a5e81610978565b809150509250929050565b6000602080830181845280855180835260408601915060408160051b870101925083870160005b82811015610abe57603f19888603018452610aac8583516109b4565b94509285019290850190600101610a90565b5092979650505050505050565b60008060408385031215610ade57600080fd5b8235610ae981610978565b91506020830135610a5e81610978565b634e487b7160e01b600052604160045260246000fd5b6040516060810167ffffffffffffffff81118282101715610b3257610b32610af9565b60405290565b604051601f8201601f1916810167ffffffffffffffff81118282101715610b6157610b61610af9565b604052919050565b600082601f830112610b7a57600080fd5b813567ffffffffffffffff811115610b9457610b94610af9565b610ba7601f8201601f1916602001610b38565b818152846020838601011115610bbc57600080fd5b816020850160208301376000918101602001919091529392505050565b80358015158114610be957600080fd5b919050565b60006020808385031215610c0157600080fd5b823567ffffffffffffffff80821115610c1957600080fd5b818501915085601f830112610c2d57600080fd5b813581811115610c3f57610c3f610af9565b8060051b610c4e858201610b38565b9182528381018501918581019089841115610c6857600080fd5b86860192505b83831015610d1057823585811115610c865760008081fd5b86016060818c03601f1901811315610c9e5760008081fd5b610ca6610b0f565b8983013588811115610cb85760008081fd5b610cc68e8c83870101610b69565b82525060408084013589811115610cdd5760008081fd5b610ceb8f8d83880101610b69565b8c84015250610cfb838501610bd9565b90820152845250509186019190860190610c6e565b9998505050505050505050565b600060208284031215610d2f57600080fd5b6109ad82610bd9565b600060208284031215610d4a57600080fd5b5035919050565b600080600060608486031215610d6657600080fd5b8335610d7181610978565b9250602084013567ffffffffffffffff80821115610d8e57600080fd5b610d9a87838801610b69565b93506040860135915080821115610db057600080fd5b50610dbd86828701610b69565b9150509250925092565b600181811c90821680610ddb57607f821691505b602082108103610dfb57634e487b7160e01b600052602260045260246000fd5b50919050565b600060208284031215610e1357600080fd5b81516109ad81610978565b634e487b7160e01b600052603260045260246000fd5b634e487b7160e01b600052601160045260246000fd5b600082821015610e5c57610e5c610e34565b500390565b6000816000190483118215151615610e7b57610e7b610e34565b500290565b600060018201610e9257610e92610e34565b5060010190565b601f821115610ee357600081815260208120601f850160051c81016020861015610ec05750805b601f850160051c820191505b81811015610edf57828155600101610ecc565b5050505b505050565b815167ffffffffffffffff811115610f0257610f02610af9565b610f1681610f108454610dc7565b84610e99565b602080601f831160018114610f4b5760008415610f335750858301515b600019600386901b1c1916600185901b178555610edf565b600085815260208120601f198616915b82811015610f7a57888601518255948401946001909101908401610f5b565b5085821015610f985787850151600019600388901b60f8161c191681555b5050505050600190811b0190555056fea2646970667358221220f8c94f2a53a9149d62a1fd5b3f909f6e6c127ac0f4aadfd44968aac14d28df4164736f6c634300080f0033a2646970667358221220ef7130b808e706ca73f97097602c134745bf323d4de6505d9ae0302d3a9b73c164736f6c634300080f0033",
    "sourcePath": "c:/ethNet/smart_contract/contracts/Auction.sol",
    "compiler": {
        "name": "solc",
        "version": "0.8.15+commit.e14f2714"
    },
    "functionHashes": {
        "auctionBids(uint256,uint256)": "5f93de49",
        "auctionOwner(address,uint256)": "c8756cda",
        "auctions(uint256)": "571a26a0",
        "bidOnAuction(uint256,string)": "da09bcf7",
        "cancelAuction(uint256)": "96b5a755",
        "createAuction(string,uint256,uint256,uint256,string)": "41e776ac",
        "createSupplyData(uint256)": "c276c71f",
        "deleveryCompletedByItemId(uint256,address)": "e5650c03",
        "finalizeAuction(uint256)": "e8083863",
        "getActiveByItemId(uint256)": "cc468eaf",
        "getAllOfAuction()": "e6f4a0ce",
        "getAuctionById(uint256)": "18111ada",
        "getAuctionOwnerLength(address)": "a15aea8b",
        "getAuctionsOfOwner(address)": "3481f0c8",
        "getBidsCount(uint256)": "4008f9c0",
        "getCurrentBid(uint256)": "da4e364f",
        "getItemByAuction(uint256)": "ee3ab9e3",
        "getOwnedBy(address)": "e291298f",
        "handover(uint256,address)": "7706390b",
        "isShippingByItemId(uint256,address)": "6f7bd068",
        "ownedBy(address,uint256)": "438c5670",
        "productTracingByItemId(uint256,address)": "b28103e3",
        "productTracingFromYouByItemId(uint256)": "d6b5f135",
        "pushOwnedBy(uint256)": "7b474bea",
        "sendNow(address,uint256,uint256)": "7af26345",
        "setActiveByItemId(uint256,bool)": "42d55cd5",
        "setAddrToShippingByItemId(uint256,address,string,string)": "154f7744",
        "setAddrTracingByItemId(uint256,address,address)": "b5c87338",
        "supplyData(uint256)": "987a34f8"
    },
    "gasEstimates": {
        "creation": {
            "codeDepositCost": "3221600",
            "executionCost": "3571",
            "totalCost": "3225171"
        },
        "external": {
            "auctionBids(uint256,uint256)": "infinite",
            "auctionOwner(address,uint256)": "4827",
            "auctions(uint256)": "infinite",
            "bidOnAuction(uint256,string)": "infinite",
            "cancelAuction(uint256)": "infinite",
            "createAuction(string,uint256,uint256,uint256,string)": "infinite",
            "createSupplyData(uint256)": "infinite",
            "deleveryCompletedByItemId(uint256,address)": "infinite",
            "finalizeAuction(uint256)": "infinite",
            "getActiveByItemId(uint256)": "infinite",
            "getAllOfAuction()": "infinite",
            "getAuctionById(uint256)": "infinite",
            "getAuctionOwnerLength(address)": "2599",
            "getAuctionsOfOwner(address)": "infinite",
            "getBidsCount(uint256)": "2484",
            "getCurrentBid(uint256)": "infinite",
            "getItemByAuction(uint256)": "4704",
            "getOwnedBy(address)": "infinite",
            "handover(uint256,address)": "infinite",
            "isShippingByItemId(uint256,address)": "infinite",
            "ownedBy(address,uint256)": "4850",
            "productTracingByItemId(uint256,address)": "infinite",
            "productTracingFromYouByItemId(uint256)": "infinite",
            "pushOwnedBy(uint256)": "48922",
            "sendNow(address,uint256,uint256)": "infinite",
            "setActiveByItemId(uint256,bool)": "infinite",
            "setAddrToShippingByItemId(uint256,address,string,string)": "infinite",
            "setAddrTracingByItemId(uint256,address,address)": "infinite",
            "supplyData(uint256)": "2523"
        }
    }
}